:020000040020DA
:10000000C0840020D1022000815F2100A75421007C
:100010007D5F21003D142100617D21000000000072
:100020000000000000000000000000000D022000A1
:100030005F182100000000006902200039762100CD
:10004000EB022000EB022000EB022000EB0220007C
:10005000EB022000EB022000EB022000EB0220006C
:10006000EB022000EB022000EB022000EB0220005C
:10007000EB022000EB022000EB022000EB0220004C
:10008000EB022000EB022000EB022000EB0220003C
:10009000EB022000EB022000EB022000611821009F
:1000A000EB022000EB022000EB022000EB0220001C
:1000B000EB022000EB022000EB022000EB0220000C
:1000C000EB022000EB022000EB022000EB022000FC
:1000D000EB022000517D2100EB022000EB0220000A
:1000E000EB022000EB022000EB022000EB022000DC
:1000F000EB022000EB022000EB022000EB022000CC
:10010000EB022000DD642100EB022000EB02200066
:10011000EB022000EB022000EB022000EB022000AB
:10012000EB022000EB022000EB022000351721003B
:10013000EB022000EB022000EB022000EB0220008B
:10014000EB022000EB022000EB022000EB0220007B
:10015000EB02200045172100EB022000EB022000FB
:10016000EB022000EB022000EB022000EB0220005B
:10017000EB022000EB022000EB0220000000000058
:10018000EB022000EB022000EB022000EB0220003B
:10019000EB022000EB022000EB022000EB0220002B
:1001A000EB022000EB022000EB022000EB0220001B
:1001B000EB022000EB022000EB022000EB0220000B
:1001C000EB022000EB02200000000000EB02200008
:1001D000EB022000EB022000EB022000EB022000EB
:1001E000EB022000EB022000EB022000EB022000DB
:1001F000EB022000EB022000DFF80CD000F036F913
:100200000048004735A12100C08400202D4B19680B
:100210000868B0E8F04F80F30988BFF36F8F4FF0A4
:10022000000080F311887047000000000848006853
:10023000006880F308884FF0000080F3148862B6ED
:1002400061B6BFF34F8FBFF36F8F00DF00BF00BFFA
:1002500008ED00E0DFF80C00016841F47001016076
:10026000704700BF88ED00E0EFF30980BFF36F8FA8
:10027000144B1A681EF0100F08BF20ED108A20E9F9
:10028000F04F106009B44FF0500072B680F311883F
:10029000BFF34F8FBFF36F8F62B61BF051FC4FF06F
:1002A000000080F3118809BC19680868B0E8F04FB5
:1002B0001EF0100F08BFB0EC108A80F30988BFF35E
:1002C0006F8F704784000020EFF3058070470000B7
:1002D0000648804706480047FEE7FEE7FEE7FEE7E0
:1002E000FEE7FEE7FEE7FEE7FEE7FEE745772100D3
:1002F000F90120002DE9F05F0546002092469B465B
:1003000088460646814640241BE02846414647462B
:10031000224600F09AF853465A46C01A914110D32B
:1003200011461846224600F081F82D1A67EB0108A5
:100330004F4622460120002100F078F817EB000913
:100340004E41201EA4F10104DFDC484631462A4616
:100350004346BDE8F09F10B5441A0346944209D2C3
:100360008418114403E011F8013D04F8013D521EC8
:10037000F9D210BD40EA0104A40703D009E010C976
:10038000121F10C3042AFAD203E011F8014B03F83C
:10039000014B521EF9D210BDD2B201E000F8012B80
:1003A000491EFBD270470022F6E710B513460A46F5
:1003B00004461946FFF7F0FF204610BD421E12F812
:1003C000013F002BFBD111F8013B02F8013B002B50
:1003D000F9D1704730B504460020034600E05B1CAD
:1003E000934203D2E05CCD5C401BF8D030BD0346A5
:1003F00011F8012B00F8012B002AF9D1184670479B
:1004000030B50B46014600202022012409E021FAE4
:1004100002F59D4205D303FA02F5491B04FA02F5E1
:100420002844151EA2F10102F1DC30BD202A04DBB4
:10043000203A00FA02F1002070479140C2F12003F7
:1004400020FA03F3194390407047202A04DB203A36
:1004500021FA02F00021704721FA02F3D040C2F1E4
:10046000200291400843194670470000064C074D92
:1004700006E0E06840F0010394E807009847103474
:10048000AC42F6D3FFF7BCFE4029220060292200CF
:1004900070B58C1810F8015B15F0070301D110F846
:1004A000013B2A1106D110F8012B03E010F8016B73
:1004B00001F8016B5B1EF9D12B0705D40023521EF6
:1004C0000DD401F8013BFAE710F8013BCB1A921C5E
:1004D00003E013F8015B01F8015B521EF9D5A1425C
:1004E000D8D3002070BD0000204B70B51E6802F00C
:1004F00081FA1F4C0025304606F012FD05F03EF84B
:100500001C4B1E6802F076FA304606F043FD05F0FB
:1005100035F802F06FFA012223681A7605F02EF8FA
:1005200002F068FA23689D8505F028F802F062FA67
:1005300023685D8505F022F802F05CFA284606F093
:1005400041FD05F01BF80C4B1D6802F053FA2368BF
:1005500005B1DD6105F012F802F04CFA23680022C3
:100560009A76BDE8704005F009B800BF0001002090
:1005700004010020FC000020F80000202DE9F04FCD
:100580005C4E8DB03368DA69B3F92250D469B4F89F
:100590000CB0834500F29780E1898142C0F09380DE
:1005A0002168CBEB000B08914FF0FF310A91BBF1B2
:1005B000FF3F00F0828092F81880A27CB3F92A10E5
:1005C000B3F9249018FB02F3084607911F4694F8EC
:1005D00010A006F0F7FCD6F800E008994346DEF8D4
:1005E00038C05246099007FB0B10DEF81CE00B9751
:1005F000012704904946CDF814C0284694F812C04B
:100600000297CDF80CC09EF81BC0DFF8E8B0CDF81B
:1006100004C09EF81AE0CDF800E005F0C7FE0A9F7E
:100620007B1C25D0079941F0020006F0CBFCDBF8DB
:1006300000100B9A43460898D1F838C002FB070017
:10064000D1F81CE00127CDF814C00490524694F86C
:1006500012C0494602972846CDF80CC09EF81BC030
:10066000CDF804C09EF81AE0CDF800E005F09EFE3B
:100670003368DFF88080DB695A7E1B7E9A4215D989
:10068000079B022B12D083F0040006F09BFCD8F8E5
:1006900000302846DB691F7ED97E9A7E5B7E07FB91
:1006A00001910AFB02524B4406F060F89DF82400C9
:1006B00006F088FC3368B3F92250627C15445D84EF
:1006C0000DB0BDE8F08FA1680029F6D00F88B842C0
:1006D000F3D3B1F802E08645EFD3C01B49686768E1
:1006E00080B2089701EB800731F920B0B7F902100A
:1006F0000A915CE704010020044B1B68DB69DB699D
:1007000009B11A7C0A60587C704700BF04010020C0
:1007100002230B80704700BFC3699A898A4202D8BE
:10072000DA898A4211D2986818B10388994201D2B5
:100730000020704742888A42FAD3C91A436833F8C6
:100740002100C043C0F3C03070470120704700BF94
:100750002DE9F047244F3D68002D3FDD234EC5EBCA
:100760004515DFF88C804FF0000A3468D8F8009007
:1007700004EB85050C340C35A4F1080374224946BA
:100780001846FFF7E8FD221F2063A06344F80CAC75
:100790006263E4607C34A542EED10024254603E088
:1007A00082B13A68954213DA11F086FC336801355C
:1007B0001A5919197C349042F2D10431C8F800104A
:1007C000BDE8F08708600431C8F80010BDE8F08784
:1007D00019460431C8F80010BDE8F087034BDFF874
:1007E00010801968E9E700BF640100209C7E0020AA
:1007F00004010020F8B5184F184B3846184E40F841
:100800000C3F05F011FD3468C4EB4414A4002046ED
:1008100000F0ACF8134B224600211B683860984763
:100820004FF0FF33736011F051FC3368002B0FDD84
:100830000024254603E062B133689D4208DA11F0D6
:100840003BFC3B6801351A5923447C349042F2D179
:10085000F8BD1860F8BD00BF9C7E0020E1F32000C9
:10086000640100207801002000B9704710B50446EB
:1008700002F0C0F8204609F019FB044604F07EFEA1
:10088000204610BDF8B5054602F0B4F825B900249D
:1008900004F074FE2046F8BD02F0ACF8284609F0DA
:1008A00005FB044604F06AFE002CF0D0144E2A46E4
:1008B000144F0021F069736B013003EBC405F06144
:1008C00013F83400013003F834006D683B6805F11B
:1008D000080098472968726B12F83130012B01D952
:1008E000F06930B9013B02F8313004F047FE204690
:1008F000F8BD0138013BF06102F83130F5E700BF87
:10090000B87F00207801002021F00301014B83E82B
:1009100003007047607B002000B9704770B50D4C34
:10092000054602F067F8EE00636B33445968486887
:1009300009F00EF96368626B0021606A01331644A6
:100940006360706002F835106562BDE8704004F0C5
:1009500015BE00BFB87F002028B1034AD36B0360E7
:1009600003B15860D0637047B87F0020F8B58B4E54
:10097000044696F82830002B2FD00334356CF26BE8
:1009800024F003040434A54238BF254662B152F86E
:10099000043C14469D4204D114E054F8043C9D42AA
:1009A00010D02468002CF8D1F368B46B1C4454F8C0
:1009B000041C611A0B68002B68D14B689D426FDDE7
:1009C000002408E023680BB161685960616801B1D7
:1009D0000B60A24256D02046F8BD714B01219A68A7
:1009E00086F8281058680AB982089A605A27102297
:1009F00020254FF0400E3762802732644FF480721A
:100A0000B5644FF400751968C6F850E04FF4806E75
:100A1000B7654FF4006732664FF48052B5664FF405
:100A20000055A1F11403C6F870E0B7674FF4804E8B
:100A3000C6F880204FF40047C6F888504FF4803243
:100A40004FF400350344C6F890E04FF4802EC6F80A
:100A500098704FF40027C6F8A0200222C6F8A850CC
:100A60000125B1637363C6F8B0E03261F060C6F887
:100A7000B8705D607562756009F06AF80DF03AF85B
:100A800035637AE723682046F363F8BD00200EF053
:100A9000EDFE54F8041C611A0B68002B90D18CE712
:100AA000581BD6F8B8703D4A041DBB420C4472D2A4
:100AB000D2F8B070BB426CD2D2F8A870BB4266D2FA
:100AC000D2F8A070BB4260D2D2F898709F425AD937
:100AD000D2F89070BB4254D2D2F88870BB424ED24A
:100AE000D2F88070BB4248D2926F934243D2376FA4
:100AF0002A4ABB423DD2976EBB4238D2176EBB42E8
:100B000033D2976DBB422ED2176DBB4229D2976C60
:100B1000BB4224D2126C93420CD2F2687369521B0E
:100B20002B44F260736110B944F8045C53E709F098
:100B30000FF8F9E700223768D1F808E0FF1ACB6810
:100B40003760BEF1000F01D0CEF8043013B1C3F806
:100B500000E0E2E706EBC202C2F844E0DDE7012272
:100B6000E9E70222E7E70322E5E70422E3E70522BB
:100B7000E1E70622DFE70722DDE70822DBE70922BB
:100B8000D9E70A22D7E70B22D5E70C22D3E70D22BB
:100B9000D1E70E22CFE70F22CDE700BFB87F0020BC
:100BA000607B0020F8B54A4C94F82830002B3DD0EB
:100BB000D4F8BC30464A3BBBD2F8B43023BBD2F8A1
:100BC000AC300BBBD2F8A430F3B9D2F89C30DBB90F
:100BD000D2F89430C3B9D2F88C30ABB9D2F88430A3
:100BE00093B9D36F83B9536F73B9E36E63B9536E1F
:100BF00053B9D36D43B9536D33B9D36C23B9536C27
:100C000013B96FF00B00F8BD9B68002BF9D00022E0
:100C100001E09B6843B159681046914201D90A46E8
:100C200008469B68002BF4D10C38F8BD294B0121F4
:100C30009A6884F8281058680AB982089A605A2677
:100C40001022202540272662802622644FF48072DD
:100C5000A5644FF40075196827654FF48067A66591
:100C60004FF4006622664FF48052A5664FF400559B
:100C7000A1F114032767A6674FF48047C4F88020CA
:100C80004FF40046C4F888504FF480324FF40035DA
:100C90000344C4F890704FF48027C4F898604FF470
:100CA0000026C4F8A0200222C4F8A8500125A163A0
:100CB00063632261E060C4F8B070C4F8B8605D603E
:100CC0006562656008F044FF0CF014FF25636FE770
:100CD000B87F0020607B0020024A93690133936152
:100CE000704700BFB87F0020084AD169536B0131BB
:100CF00010B4D16103EBC00413F83020013203F8C3
:100D0000302060685DF8044B08307047B87F0020E1
:100D1000F8B5584C01F06EFE94F82830002B57D0EF
:100D2000D4F8BC30534A9BBBD2F8B43083BBD2F862
:100D3000AC306BBBD2F8A43053BBD2F89C303BBB79
:100D4000D2F8943023BBD2F88C300BBBD2F884306D
:100D5000F3B9D36FE3B9536FD3B9E36EC3B9536E2D
:100D6000B3B9D36DA3B9536D93B9D36C83B9536C35
:100D700073B96FF00B034049DA1781FB0313C2EB21
:100D80006313246A04FB03F404F0F8FB2046F8BD67
:100D90009B68002BF5D0002201E09B6843B15968A5
:100DA0001046914201D90A4608469B68002BF4D1AF
:100DB0000C38B0F5800F0346DDD8226A2E4B02FBBB
:100DC00000F0A3FB00235C0904F0D8FB2046F8BD2B
:100DD0002A4B01219A6884F8281058680AB98208B9
:100DE0009A605A26102220254027266280262264F7
:100DF0004FF48072A5644FF40075196827654FF4AD
:100E00008067A6654FF4006622664FF48052A5669F
:100E10004FF40055A1F114032767A6674FF48047EC
:100E2000C4F880204FF40046C4F888504FF4803254
:100E30004FF400350344C4F890704FF48027C4F891
:100E400098604FF40026C4F8A0200222C4F8A850ED
:100E50000125A16363632261E060C4F8B070C4F847
:100E6000B8605D606562656008F072FE0CF042FE7D
:100E7000256355E7B87F00201F85EB51607B00207C
:100E8000024A9369013B9361704700BFB87F00201D
:100E900003680B4A30B4044653F8085C506B10F8F2
:100EA0003530012B03D9D16909B10139D161002253
:100EB000013B00F835301046226030BC704700BF5F
:100EC000B87F0020034B5B6B03EBC0004068083029
:100ED000704700BFB87F0020B0F1004F2DE9F0430C
:100EE00046D0002851DB00254D1B4FF0000EEDB21F
:100EF0000AB1013DEDB275B36C1EAA42274F4FF007
:100F00003108DFF89CC0E4B21ED057F8246090FB93
:100F1000F6F1C9B20A2901F1010906FB11001AD83C
:100F200024B9BEF1000F01D05FFA89F10A2901F15D
:100F3000300115D01D686E1C1E6029705CB12546FD
:100F40006C1EAA42E4B2E0D119684E1C1E609CF8E7
:100F500000600E70D9E71B6800221A70BDE8F083AC
:100F600019682C464D1C1D60254681F80080E7E776
:100F70001C684FF0010E4D1E2D2104EB0E066FF084
:100F80000040EDB21E602170B2E71C6801252D26DD
:100F9000404267191F602670A6E700BFA006220026
:100FA0007C8000202DE9F04F0E4683B0804601F092
:100FB00021FDB400304601F0C5FBDFF81891A319FC
:100FC0008246D9F8002009EB83035F68002A32D0FB
:100FD000BAF1000F3BD1A519012309EB850568691A
:100FE000C5F804802B72002863D1B8F1000F1CD023
:100FF00034444FF0010AD8F80820334609EB840442
:10100000D8F80410D8F80000CDF800A02569AA1A75
:10101000E568691A03F09AFC6061304601F092FBC2
:1010200000284BD1237A002B3AD104F0A7FA384696
:1010300003B0BDE8F08F264A4846012340F82C2F24
:10104000C9F8003005F0F0F8BAF1000FC3D05046EF
:10105000344403F00DFD8346002009EB840403F0C3
:1010600027FD012500F0DEF80022D8F80000114627
:1010700000F03CFCD8F8003050465A88198803F03C
:101080005BFD5846C4F80480257203F0F1FC30463D
:1010900001F058FB0028C5D0294603F05DFDC4E7E8
:1010A000606903F01FFC04F069FA384603B0BDE83C
:1010B000F08F03F0C9F8C5F814A096E7514603F085
:1010C0004BFD04F05BFA384603B0BDE8F08F00BF7B
:1010D00029F32000107C00202DE9F041144606463B
:1010E000884601F087FC204601F02CFBE8B9A700F8
:1010F0001B4D3B1905EB8303DA68B24206D11B692D
:10110000434503D1BDE8F04104F038BA3B1905EB83
:1011100083035869D0B93C4405EB8404E660C4F805
:101120001080BDE8F04104F029BA0D4B04EB8404B3
:1011300003EB840463689A685968C2EB0802711A69
:1011400003F0EAFCBDE8F04104F018BA5B689A6865
:101150005968C2EB0802711A03F0A6F8DBE700BF7A
:10116000107C0020174B1B6870B55D7C01F042FCC1
:10117000154B012605EB850403EB84046368267296
:10118000BBB1284601F0DEFA60B9237A1BB9BDE88D
:10119000704004F0F3B9606903F0A4FBBDE870404F
:1011A00004F0ECB9314603F0D7FCBDE8704004F020
:1011B000E5B929460548FFF7F5FEBDE8704004F0A3
:1011C000DDB900BF04010020107C0020E41A2200D9
:1011D000C3B2CAB29A1A92B210B414B2002C1EDB77
:1011E000C1F30722C0F307239B1A9BB21AB2002A4D
:1011F00012DB090C02FB02F2C1EB104104FB0420DC
:1012000089B20CB2002C01DA49420CB2A1B25DF8ED
:10121000044B01FB010070475B421AB2E9E75242FE
:1012200014B2DDE700212DE9F041084682B001F05B
:101230000BFB184F01F0DEFB042005F0C3FE164B3C
:1012400043F6FF763D461B69804634466846DA6CB5
:101250001B6D174416441D441C44ADF80070ADF8D6
:101260000460ADF80250ADF8064007F07BFE48B1CF
:10127000234632462946384605F078FA07F02EFD17
:101280000028F5D1404605F09DFE04F077F902B044
:10129000BDE8F08101C0FFFFF4000020012B17DC46
:1012A0002DE9F04107461C2090460D461E46FFF7EB
:1012B0005DFB0446D0B16DB1056100232046A661F7
:1012C000A4F81480E76023606360A360BDE8F08148
:1012D00000207047074B53F826200AB9EDE71A465D
:1012E0001368002BFBD113692361E6E70020BDE8FA
:1012F000F08100BF90800020012B3BDC2DE9F843FA
:1013000081461C2090460F461E46FFF72FFB0546E0
:1013100000287FD0414A002F31D00023DFF804E1BC
:1013200052F8264003609EF8001007618E428661E5
:10133000A0F81480C0F80C904360836002DB731C3B
:101340008EF80030002C5DD021464C68002CFBD17B
:10135000D9F80000CB681B6883422CDD096800299E
:10136000F8D148B92E4B163628461A6842F826504E
:10137000BDE8F883002070472846BDE8F88352F89E
:101380002610002930D0084600E018460368002BDC
:10139000FBD10069DFF88CE02B6028619EF800002B
:1013A000AE618642A5F81480C5F80C906B60AB6006
:1013B000CBDB0C46C3E70AD04B6843B31D606B60C0
:1013C0008D4214BF0B4600234D602B60C9E7B8F176
:1013D000010FF1D104E0DC68194623688342EBDB9E
:1013E0000B68002BF7D1E7E7DFF838E001609EF8E3
:1013F000003086619E42A0F81480C0F80C904160D5
:101400008160D6DA42F82650D9F80000A9E742F800
:101410002650D5E70020BDE8F88300BF908000206B
:101420000401002089800020FFF796BA00283DD0F3
:1014300070B48469012C03DD0123184670BC704729
:101440001F4B1A78944221DA1E4D55F824300BB9FF
:1014500032E013465A68002AFBD1C268116802E0E4
:101460001B68002BE8D0DA6812689142F8DB10D0D4
:101470005A68F2B110604260984214BF1A460022C6
:10148000586000230260184670BC7047621C1A70D6
:10149000DAE7828A012AEBD104E0D6681346326883
:1014A0009142E5DC1A68002AF7D1E1E701231846EA
:1014B000704745F82400DFE745F82400BDE700BF8A
:1014C000898000209080002000284DD02DE9F04137
:1014D000DFF89CE0254F9EF80060BC4601E02846FE
:1014E0003DB384690568012CF9DCB44201DB661C5C
:1014F000F6B257F824300BB933E013465A68002A85
:10150000FBD1C268116802E01B68002BE7D0DA68E3
:1015100012688A42F8DC10D05A68A2B110604260AA
:10152000984214BF1A460022586002602846002DD7
:10153000D7D18EF80060BDE8F081828A012A0CD0F4
:101540005A68002AEAD147F82400E9E7D2F80C806B
:101550001346D8F800208A42DEDB1A68002AF5D14B
:10156000DAE74CF82400BAE7704700BF908000200B
:10157000898000200F4A816952F8213098420AD0B0
:1015800042680AB103681360036803B15A6000231C
:10159000036043607047036842F821302BB100229A
:1015A0005A604268002AEED1F0E74268002AEAD188
:1015B000EDE700BF908000200020704701280EDC7E
:1015C000084B53F8200058B1C3681B681BB908E0EA
:1015D000C3681B6823B100680028F9D17047002058
:1015E00070477047908000202DE9F843074610F0BF
:1015F00067FDDFF86C90074410F062FDDFF864804F
:101600003E1A002E22DD00F0F5F9D9F800309E4296
:10161000A8BF1E4601F0EEF9D8F80040FFF75CFBCA
:10162000B4B1254603F0AAFF013DFBD1304610F0CE
:101630003DFD01F0DFF9013CFBD1FFF721FC03F098
:101640009DFF10F03DFD3E1A002EDCDCBDE8F88366
:10165000304610F02BFDFFF713FC03F08FFFF0E78F
:1016600014010020A07E0020F0B585B01F460D4675
:10167000164604AB01AC3946002243F8104DFFF783
:101680002BFC32462946204600F01CF905B0F0BD7F
:10169000082BF0B585B074D804AC00265D1E1C4440
:1016A000EDB204F80C6C002B6BD0384C00F00F0638
:1016B00004AF264407EB050E9F1E96F828C00609C6
:1016C000FFB20EF80CCC002D5BD006F00F0504AE77
:1016D000254406EB070EDE1E95F828C0050AF6B273
:1016E0000EF80CCC002F4CD005F00F0504AF2544AC
:1016F00007EB060E1F1F95F828C0050BFFB20EF86A
:101700000CCC002E3DD005F00F0504AEA3F1050E64
:10171000254406EB070C5FFA8EFE95F82850060C60
:101720000CF80C5C6FB306F00F0604AD070D2644F1
:1017300005EB0E0C9D1F96F82860EDB20CF80C6CB2
:10174000BEF1000F1DD007F00F0704AE073B274482
:1017500006EB050EDBB297F82870060E0EF80C7C2F
:101760007DB106F00F0504AE000F25441E4495F828
:10177000285006F80C5C23B1204490F828308DF8EE
:10178000043001A800F09EF805B0F0BDA0062200CC
:101790002DE9F04F4A4D83B0044601F02BF900F0DB
:1017A000DBFF2B680646B3F9228001F019F82B689D
:1017B0001FFA80F99A8CC9EB020212B29A8421783E
:1017C00000294FD0B6B22F4647F6FF71204604F0ED
:1017D000C3FB01468346204604F07EFB29688B8DBF
:1017E00003F00303012B5AD0022B5CD01FFA80FABE
:1017F0004FF0000E4B8C0AF1FF3CB1F92420CEEBE8
:101800000303ADF80220013A9BB2B0186A460FFA02
:1018100083FE6344ADF806002046A1F822E0594655
:10182000ADF800E0ADF8043004F0F2F82B68204683
:10183000BDF8022059469A8403F076FD235C0444E7
:101840000A2B1BD00D2B19D0BDF800003B68824439
:10185000A3F822A022781AB162780134002AB3D109
:10186000B3F92420998D914421F00302A3F8249028
:101870009A8503F083FE03B0BDE8F08F2B689A8D44
:1018800002F00302013A012A16D8A3F82280227836
:101890000A2AE0D19A8C32449A842278DBE71FFA34
:1018A00080FEF246A6E7002803461FFA80FAB8BF7A
:1018B000431CC3F34F0E9DE71A8C5A84E7E700BF21
:1018C0000401002070B50E461546044601F092F85A
:1018D000054B1B685E849D8414B12046FFF758FFBA
:1018E000BDE8704003F04ABE040100202DE9F04F2E
:1018F000DFF8F89089B0044690460F4601F07AF878
:10190000D9F8003006A82588DA6C1E6D013D638881
:101910001744B044013B7A19ADF818704344ADF850
:101920001A80ADF81C20ADF81E3007F01BFB002814
:1019300051D0CB46DFF8B8A01BE040F0020003F026
:10194000CFF826692EB3E0680122D4F808E04146BA
:10195000638803920292228801903846CDF800E015
:101960003668B047284603F0BBF807F0B7F90028FF
:1019700031D0E668002003F0B3F8054616B133799C
:10198000002BDAD125F0020003F0AAF82669002E18
:10199000D9D1D9F800202146DAF80030527CE0682D
:1019A0009847E188E0B16388012622880590A06805
:1019B0000291414604903846B4F804E00196CDF80F
:1019C0000CE0009604F0F2FC284603F089F807F0DA
:1019D00085F90028CDD103F0D1FD09B0BDE8F08F25
:1019E0000129E0D1DBF80030986BDCE7040100202E
:1019F000F40000202DE9F0410025124F124EDFF8CF
:101A00004C803C681CB1A047041C18BF012405F0A1
:101A10009BFF3368002818BF01244BB1984738B1A9
:101A2000D8F8003013B1012498473CB10125E8E70C
:101A3000D8F80030002BF7D1002CF7D12846BDE8AC
:101A4000F08100BFB4800020B8800020B08000206A
:101A50002DE9F04F9FB091461C460F90109100F079
:101A6000C9FF44F20810FEF70DFF30B9012703F05B
:101A700085FD38461FB0BDE8F08F00258046FFF792
:101A800033F9A24A06460FAB056118A9C3602B467D
:101A9000B2600FA80622099600F006FC06280CD0BA
:101AA000012709A8FFF7F4F94046FEF735FF03F0D8
:101AB00065FD38461FB0BDE8F08F3369189A0633CC
:101AC000336111784729EBD151784929E8D19178D0
:101AD0004629E5D1D1783829E2D11179372901D0C9
:101AE0003929DDD15279612ADAD1B568042218A9E1
:101AF000F068A8470428D3D1336918A804333361A8
:101B000004F08CFB054618A804F088FBB5F5FA6FC5
:101B10000646C5DCB0F5FA6FD4BF00270127002FB9
:101B2000BED104F06BFE7A4B059011A81B68DA6CED
:101B30001B6D4A44E318114606921C460793013A6E
:101B4000ADF84410631EADF8464015441E44ADF890
:101B50004850ADF84A6007F005FA002800F09A8076
:101B60003D4604970AE03B2A00F08E80212A7FD070
:101B7000012707F0B3F8002800F08D80099C4FF092
:101B8000FF369DF810701DAB0BAA20460AA98DF8F0
:101B90002370189519951A951B951C951D951395ED
:101BA00014951595169517950C960DF0BDF800280F
:101BB000DED1814620690346A66801220DA9E068AE
:101BC000B0470128D4D123690D9A013323611278DB
:101BD0002C2AC8D1A66809220DA9E068B0470928B7
:101BE000C6D123690DA80933236104F017FB1890AF
:101BF0000DA804F013FB19900DA804F00FFB1A9028
:101C00000DA804F00BFB0D9B1B901B781A061C9370
:101C100045D4289B013B4B456ED0289B4B4579D042
:101C2000A668012223690DA9E068B04701289FD169
:101C300023690EAE0133B2462361A76801225146E3
:101C4000E068B8470128206902D009F10109B2E72C
:101C50000E9A013051462061034617783A46002F0C
:101C6000F3D0E068A668B04787420FD02069ECE760
:101C7000289B4B453CD0002213460CA920460DF072
:101C8000B3FC002896D073E7002772E723693B4432
:101C90002361D2E70127059805F082F901E703F0F7
:101CA0000702022143F6045A236901FA02F20EAE3A
:101CB000A24402F6417B1D9204EB8B0B10E02369DA
:101CC0000E980333236142788178007841EA02223A
:101CD00042EA004242F07F424AF8042FD34598D0AE
:101CE000A76803223146E068B8470328E7D03FE7FA
:101CF00013AA0DF12303C0E7189A199B13921493AA
:101D00001A9A1B9B1592169387E700BFA922200001
:101D1000040100209DF8230002281BD00C9E18A966
:101D200001902046079B0395069A029500960AF0BB
:101D300059FE074600287FF41BAF0DA9A66823694A
:101D40000122E068B04701287FF412AF2369013314
:101D500023610EE7069813AB019518AA0095079921
:101D60000FF096FA9DF82300D8E700BF2DE9F04F59
:101D70008DB014461D4608900991179FDDF86080CC
:101D800000F038FE44F20810FEF77CFD30B9012661
:101D900003F0F4FB30460DB0BDE8F08F8346FEF74C
:101DA000A3FF2E4908AA0123079081600A21C2607F
:101DB0000AAA00F0B7FB0A9B0AA806330A9304F0AC
:101DC0002DFA81460AA804F029FA064604F016FD09
:101DD000234A07FB06F3126807FB09F105900AA8DE
:101DE000D66C126D34441544661EADF828406A1E48
:101DF000ADF82A50B1FBF8F1B3FBF8F331441344CA
:101E0000ADF82C10ADF82E3007F0ACF8B0B1DFF81B
:101E100054A0DFF8549007982A46169B2146CDF827
:101E20000CA0CDF80890CDF80480009700F038F9A8
:101E3000064606F053FF0028EDD100E00126059884
:101E400005F0AEF807A8FFF723F85846FEF764FD43
:101E500003F094FB30460DB0BDE8F08FA9222000BE
:101E60000401002021A220006DCE20002DE9F047C2
:101E700086B091461F460490059100F0BBFD44F2E8
:101E80000810FEF7FFFC30B9012503F077FB284668
:101E900006B0BDE8F08700258046FEF725FF4149E2
:101EA00004AA01AB81602946C2602A46044600901C
:101EB0000CF03AFFA0B9824620690346A5680122CA
:101EC00002A9E068A84701280AD12369029A0133D0
:101ED000236112782C2A1FD03B2A1BD0212A0CD038
:101EE00001256846FEF7D4FF4046FEF715FD03F0D6
:101EF00045FB284606B0BDE8F0870023204657453D
:101F00000CBF4A461A4619460DF06EFB0028E7D171
:101F10002069D2E70025E4E7574522D020460EF09D
:101F20007DFB2369A568012203A9E068A847012871
:101F3000206902D00AF1010ABFE7039A013003A920
:101F40002061034615782A46002DF3D0E068A66884
:101F5000B047854201D02069ECE723692B44236117
:101F6000E0E70822A568E0680DEB0201A847082811
:101F7000B6D1236902A800250833236104F04EF985
:101F8000C9F8000002A804F049F9C9F8000002A845
:101F900004F044F9C9F8080002A804F03FF9C9F8B0
:101FA0000C009EE7A92220002DE9F04186B0904662
:101FB0000490059100F01EFD44F20810FEF762FC4B
:101FC00030B9012403F0DAFA204606B0BDE8F0810A
:101FD0000746FEF789FE314904AA01AB0446C260F8
:101FE00008F104028160414600900CF09DFEA8B902
:101FF0002569C8F808002B460122A56802A9E068F7
:10200000A84701280AD12369029A01332361137872
:102010002C2B1CD03B2B18D0212B0CD00124684634
:10202000FEF736FF3846FEF777FC03F0A7FA2046A6
:1020300006B0BDE8F081002320461A4619460DF08F
:10204000D3FA0028EAD12569D5E70024E7E720463E
:102050000EF0E4FA2369A568012203A9E068A84705
:102060000128256905D0D8F808300133C8F80830B0
:10207000C1E7039A013503A925612B46167832463C
:10208000002EF0D0A568E068A847864201D02569F7
:10209000E9E7236933442361DDE700BFA92220007B
:1020A0002DE9F04F99B000244FF0FF359846049188
:1020B00017AB059208A909AA8DF81F4012940D9438
:1020C000139414941594169417940E940F941094DA
:1020D000119404460A950CF027FE002844D10646C8
:1020E000074620690346A56801220BA9E068A847B6
:1020F000012839D123690B9A0133236112782C2AE4
:1021000037D03B2A03D0212A00F08580064630468E
:1021100019B0BDE8F08F03F00702022143F6045A1C
:10212000236901FA02F20DF13009A24402F6417B63
:10213000179204EB8B0B10E023690C980333236197
:1021400042788178007841EA022242EA004242F075
:102150007F424AF8042FD3452AD0A5680322494676
:10216000E068A8470328E7D00126304619B0BDE84B
:10217000F08FA56809220BA9E068A8470928F3D1C8
:1021800023690BA80933236104F048F812900BA8C7
:1021900004F044F813900BA804F040F814900BA836
:1021A00004F03CF80B9B15901B781A061693B2D4DA
:1021B00008F1FF339F423ED0474545D0A568012234
:1021C00023690BA9E068A8470128CDD123690DF147
:1021D0003009B24601332361A56801224946E0680F
:1021E000A847012803D05646206901377AE72069BD
:1021F00049460C9A01302061034615782A4645B1BC
:10220000E068A668B0478542EDD123692B4423617D
:10221000E2E75646E9E7474509D0002213460AA9F6
:1022200020460DF0E1F900283FF45BAF9CE70DAAD2
:102230000DF11F03F3E7129A139B0D920E93149A5C
:10224000159B0F921093B7E79DF81F0002281DD031
:102250000A9D239A22990392029112A90190204685
:102260000095059B049A249DA847064600287FF404
:102270007BAF0BA9A56823690122E068A847012864
:102280007FF472AF23690133236140E7239B229AD5
:1022900001930DAB009212AA04980599259DA847B9
:1022A0009DF81F00D4E700BF30B44568EC1A002C3D
:1022B00008DD0568A2422B44A8BF22460B601046E9
:1022C00030BC7047002030BC704700BF2DE9F04F94
:1022D00043F6E44843F6F84943F2161A83B08044C3
:1022E000054681448244CDF80480019A136863B1A5
:1022F000904643F6F8420023A858C8F800309842A8
:1023000080F28E8003B0BDE8F08F28460CF094FB7D
:10231000B0F10008C0F2D480D9F80030434500F095
:10232000D18043F6FC425259424500F0C38043F647
:10233000F04B43F6D046AB44DBF80020424549DC85
:1023400005F574522E4443F60453116832682B4449
:10235000501C306011701868D9F800303168B646EA
:1023600040F6B73C1E4610E0CEF8003023780B70E4
:10237000B7F916319842C5D0DEF80010CAEB010259
:102380006245BFD81846D9F800602A1842F21614E0
:10239000B04201F1010305EB40071444E4DA4A1CA2
:1023A00005F574507646CEF80020237803600B7054
:1023B00043F60453DBF80020B2F5805F0DDB2B44BD
:1023C0003268C3F8008052458FD9531E336012F82B
:1023D000010C97E740462E44C0E7046805EB020E67
:1023E0002B4442F2161043F6F44105EB42077044C9
:1023F000B3F800E029440132A7F816E10470086838
:10240000CBF80020B0F5805FDAD08242D8DB43F60B
:10241000E84440002C440860226801322260CFE783
:102420000346B3F5805F48DA284B4FF40052002191
:1024300005F58B701B68984743F6F843E858002869
:1024400008DD42F2151200232A4402F8013F01334D
:102450008342FAD143F6EC4343F2161143F6D047D8
:1024600043F6E844EA58294443F6F4464300E95168
:10247000013243F6F847AB5143F6F0412A51831C31
:1024800005F574542F4400266B50D8F8003033B152
:10249000C8F80060D8F800302060002BF8D128463A
:1024A0000CF0CAFA3B6820609842EED043F6045321
:1024B000E85027E76FF0010024E74FF0FF3021E7F5
:1024C00040461FE7DDF80480ABE700BF780100203D
:1024D000F0B4012443F6EC4743F6E84543F2161204
:1024E00004FA01F30E19C15143F6F84146511F1980
:1024F00043F6FC4643509D1C43F6F0418751A340F0
:1025000043F6F447455043F6E4460225C3510244DE
:1025100043F6E04143F6D04384514550C250F0BCED
:10252000704700BF70B504460D464BB903691146AC
:10253000A6682A46E068B047854205D0012070BDF4
:1025400000210B460161F2E7236900201D4425614B
:1025500070BD00BF002850D0C388013B10B58488EF
:1025600080681F2B47D8DFE803F016234631464624
:10257000463C46464646464646404646464646460B
:1025800046464646464646464610A31002FB031101
:1025900050F8210010BD02FB04F200EBD104C84347
:1025A000A35C00F0070023FA00F000F0010010BD6A
:1025B00002FB04F200EB91046FEA4100A35C00F01F
:1025C000060023FA00F000F0030010BD02FB04F245
:1025D00000EB5104CB07A05C4CBF00F00F000009DA
:1025E00010BD02FB0404605C10BD631002FB03110C
:1025F00030F8110010BD002010BD7047013800B543
:102600001F2853D8DFE800F018275237525252449F
:10261000525252525252524A5252525252525252A2
:1026200052525252525252100198891000FB0133FB
:1026300052F823005DF804FB019802EBD302DB4360
:1026400000FB01F003F00703105C20FA03F303F032
:1026500001005DF804FB019802EB93026FEA43036B
:1026600000FB01F003F00603105C20FA03F303F013
:1026700003005DF804FB019802EB5302DB0700FB4B
:1026800001F0105C4CBF00F00F0000095DF804FB86
:10269000019800FB0122D05C5DF804FB0198491011
:1026A00000FB013332F813005DF804FB00205DF8F5
:1026B00004FB00BF034B082153F82000C3689B6A4A
:1026C000184700BF9080002010B500F093F904F087
:1026D0008DF804F065FA044602F050FF204610BD64
:1026E00010B5044600F086F9054B002120461B6812
:1026F000DB695B689847044602F040FF204610BD46
:102700000401002038B504460D4600F073F9064B6D
:10271000294620461B68DB695B689847044602F03F
:102720002DFF204638BD00BF0401002010B500F089
:1027300061F904F063F804F033FA044602F01EFF76
:10274000204610BD012801D900207047014B53F8E5
:1027500020007047887D002010B500F04BF9044B35
:102760001B68DB695C7E02F009FF204610BD00BFDC
:102770000401002070B504460E46154600F03AF9F3
:10278000204631462A4604F0A7F8044610B100233B
:1027900033602B6002F0F2FE204670BD38B505466E
:1027A0000C4600F027F9064A064BB2F90020B3F9AF
:1027B00000302A602360BDE8384002F0DFBE00BF71
:1027C0007E80002080800020044B3422352061214F
:1027D0009A70187018461971DA707047EC00002072
:1027E00010B500F007F90F4B1A68938D03F00C0336
:1027F000082B08D00C2B06D0042B0BD0002402F0A1
:10280000BDFE204610BDD3691C7E02F0B7FE6408F1
:10281000204610BDD3691C7E02F0B0FE013C20466C
:1028200010BD00BF04010020024B53F820301B698B
:102830001868704790800020024B53F820301B69C5
:10284000586870479080002038B505460C4600F067
:10285000D1F8044B1B685D849C8402F08FFE00203D
:1028600038BD00BF0401002090B583B000AF544ACA
:10287000534B1B6823F001031360524B1B68C3F3D7
:102880000A0340F2494293420CBF01230023DAB20B
:102890004C4B1B68C3F30A0340F251418B420CBFFF
:1028A00001230023DBB21343DBB21946454B1B68FF
:1028B000C3F30A0340F2524293420CBF01230023A8
:1028C000DBB20B43002B10D03F4B01221A6000BF3C
:1028D0003D4B1B68002BFBD13C4B3D4A1A603B4BE8
:1028E0001B683C4A934218D0FEE73B4B1B68C3F37E
:1028F0000A03B3F58A6F10D1384B01221A6000BF6A
:10290000364B1B68002BFBD1354B314A1A60344BD8
:102910001B68304A934200D0FEE703F037F8314B92
:102920002E221A700FF0D0FB2F480CF0EFFA0EF0A9
:1029300027FC786004F04AF80346002B0CBF012303
:102940000023DCB204F088F80346002B0CBF0123FF
:102950000023DBB22343DBB2002B09D004F04CF898
:10296000044604F08FF803461946204604F024FB81
:102970000021002002F0FEF805F00AFCFDF7E8FE59
:102980001A4B1B68002B12D00DE0184B1B681B68FC
:10299000002B03D0154B1B681B689847134B1B6813
:1029A0005B68124A1360114B1B68002BEDD1104B72
:1029B00001221A707B6818460C37BD4690BD00BFD7
:1029C000002000E0002004E0083002400030024017
:1029D000C2A507F4CDB5E8B50010005C084C02585C
:1029E000004C02587C800020747B0020EC7B00208F
:1029F000888000202DE9F041224D6B6823B10FF053
:102A00005BFBAB68984204D00FF076FB0FF054FBF1
:102A1000A8606B680133012B6B6001D0BDE8F081C9
:102A2000194F3B68002B28DD0024264605E03AB309
:102A300001363B687C349E421FDA0FF03DFB2B6869
:102A40001A5923449042F2D17B68B342E6D0002B5E
:102A500010DBC3EB43132A6802EB8308FEF7ACFDDF
:102A60002A680A4B1444C8F87800221DA06F1A6027
:102A7000FEF72AFD7E60BDE8F08100242646E3E7EC
:102A80001860E1E79C7E0020640100200401002022
:102A900010B582B028B9134B1B681C6E14B902B074
:102AA00010BD0446FFF7A6FF2046FEF71DF902AB56
:102AB000446943F8080D1846FEF7EAF91CB902F01C
:102AC0005DFD02B010BD204602ACFEF70DF9826834
:102AD00044F8040D936898472046FEF7D9F902F0B0
:102AE0004DFDEEE70401002000B97047014A114690
:102AF00000F002B801F0FFFF2DE9F047DFF8F880A1
:102B000084B00C4615460646FFF774FF002001F01E
:102B1000E7FFD8F80030814630461F6EFEF7E4F834
:102B200003680090986901F0A3FF324B82469C42F3
:102B3000009B53D01A895B89013AADF80840013BEC
:102B4000ADF80A5022442B44ADF80C20ADF80E30FD
:102B500004F050FC6846FEF79BF902A806F002FA62
:102B600048BB504601F084FFFFF744FF002F3DD0E3
:102B7000D8F800301B6EB3BB04F084FD3846FEF776
:102B8000B3F804ACD8F8003044F80C0D1F660068A8
:102B9000FEF74CFC2046FEF77BF904F0D7FA04F070
:102BA000EBF902F0EBFC484601F09AFF02F0E6FC7C
:102BB00004B0BDE8F0872A462146304600F0B0FC5C
:102BC00006F08CF80028CCD02A462146304600F08A
:102BD000A7FC06F083F80028EDD1C2E7B3F9044062
:102BE000B3F90650A6E701F035FFC5E701F032FF63
:102BF000D7E700BF01F0FFFF040100202DE9F043FB
:102C000085B00646904699460F46FFF7F3FE1C4AEC
:102C10001C4B1268507C53F8204001E02468FCB142
:102C2000E3681A68042AF9D1DB6A01212046984733
:102C30000546D8B12469A3689847013018D00C998B
:102C40004B4602944246009130460195394600F0C9
:102C5000E3FA044602F092FC204605B0BDE8F0839A
:102C6000FEF7ACFC044648B1C368DDE70446F1E773
:102C70000C9B054C43F001030C93E0E72046ECE786
:102C800004010020908000209007220000B97047C6
:102C900010B582B00446FFF7ADFE104B1B681B6EEB
:102CA0009C4217D02046FEF71FF84369019063B994
:102CB0000068FEF7B9FB01A8FEF7EAF82046FDF729
:102CC0002BFE02F05BFC02B010BD184602F03CFC8B
:102CD0000198EDE701F0BEFEE4E700BF040100202B
:102CE0002DE9F04F87B0044692461D468946FFF70E
:102CF00081FE574B1A68574B577CDB573846012BE0
:102D000040F39A8003F068FE0646384603F0AAFEB8
:102D10000746002C00F08D8005A904A8FFF73EFDB2
:102D2000049A059B1644B4F900201F44B4F90230FC
:102D300022EAE272013E23EAE373013F1146029266
:102D40001846B4F9042003939642D4BFC1EB0601A0
:102D5000C1EB0201B4F9063002460E469F42D4BFD1
:102D6000C2EB0702C2EB030201361746013705B971
:102D70007D42002E4FDD002F4DDD109B3246039922
:102D800000932B460298FFF739FF8046002848D071
:102D900000F098F88742064604D02D4B1B68986CCB
:102DA000002851D140463D460024DFF8ACB000F089
:102DB00095F90EE0AD1BACB950463444C847DBF87A
:102DC0000030FF2003B198474046FFF78DFEA74231
:102DD00012DDAE42EEDD2946404600F05FF9AD1B44
:102DE000002CE9D0039B404602991A1900F0A6F97D
:102DF0004046FFF74DFEDFE74046FFF747FF002064
:102E000000F06CF9B74206D0114B1B68986C10B1FA
:102E1000332106F0AFFD02F0B1FB002007B0BDE8A2
:102E2000F08F5046C84702F0A9FB012007B0BDE86B
:102E3000F08F039402949AE703F078FD0646384633
:102E400003F09EFD074664E7322106F093FDA9E7F3
:102E5000040100208C800020C87D002030B504468D
:102E600083B098B1FFF7C6FD2046FDF73DFF03682C
:102E700002AD1B6945F8040D9B68984704F086FA7B
:102E800004462846FEF704F802F078FB204603B01B
:102E900030BD00BFA0B110B5044682B0FFF7AAFD57
:102EA0002046FDF721FF02AB00F1180443F8040DA2
:102EB0001846FDF7EDFF02F061FB204602B010BDA1
:102EC000704700BF10B5044682B0FFF793FD7CB198
:102ED0002046FDF709FF02ABB0F90A4043F8040DA4
:102EE0001846FDF7D5FF02F049FB204602B010BDA1
:102EF000044B1B681C6E002CEAD102F03FFB2046FD
:102F000002B010BD040100202DE9F04F804687B0CB
:102F1000002758E0002E7ED104F062FE804500F0CC
:102F20009A80584B01264946224602935846564BF2
:102F3000009601932B4600F06FF981464046FDF75D
:102F4000D3FE03460590C0F82490B9F1000F79D064
:102F5000826A05A8DFF840B142F480329A62FDF738
:102F600097FF484600F0BAF882463046474E02F0D6
:102F70005DFB4846FFF78EFF454B05FB04F2454CD1
:102F8000197892003568A84740462568CBF800803C
:102F900004F058FE2060404606F0E0FB0022256069
:102FA0001046CBF8002002F041FB504600F096F8A6
:102FB0004046FDF787FF406AB0FA80F35B090137AE
:102FC000042F22DC0BB34046FDF78EFE034605A816
:102FD000B3F900B0B3F90290B3F90440B3F9065065
:102FE000CBEB04040593C9EB05055E6A0134FDF7DC
:102FF0004FFF0135002DC8BF002CD4BF0123002393
:1030000088DC01370020042FDCDD08B100F0D2F8A5
:1030100007B0BDE8F08F3046FDF766FE034606A810
:10302000B3F9065040F8083DB3F90440FDF730FF0E
:10303000A94501D1A345BBD04A465946304600F0C8
:103040007DF8B5E705A8FDF723FF404606F086FBAF
:1030500033464846B3E703F0A3FC064603F0E6FC1C
:10306000B44202DC85427FF75CAFB442A8BF34466D
:103070008542A8BF0546214640462A4605F0FEFC8B
:103080004FE700BF90072200CC28220078010020E3
:10309000007F0020B47F00203885002030B50D4629
:1030A00083B028B90C4B1B681C6E14B903B030BD3B
:1030B0000446FFF79FFC2046FDF716FEB0F90A30E4
:1030C0000190AB42C8BF458101A8FDF7E1FE02F0C7
:1030D00055FA03B030BD00BF04010020F0B5164F13
:1030E00083B00446FFF786FC3B681E6EE4B1C6B9A8
:1030F00004F0C8FA2046FDF7F7FD02AD3B6845F83D
:10310000040D1C660068FEF791F92846FDF7C0FE25
:1031100004F01CF803F030FF02F030FA304603B040
:10312000F0BD01F097FCE3E701F094FC02F026FA11
:10313000304603B0F0BD00BF0401002070B50D465D
:1031400082B0164628B91A4B1B681C6E14B902B01F
:1031500070BD044636B22DB2FFF74CFC2046FDF799
:10316000C3FDC6808580009003F006FF009B586970
:1031700030B96846FDF78CFE02F000FA02B070BD6F
:10318000FDF7B2FD009B0190B3F90820B3F90A30B6
:103190008280C38013B10AB10580468001A8FDF783
:1031A00077FE6846FDF774FE02F0E8F9E6E700BF37
:1031B0000401002000B9704770B5044684B0FFF7E1
:1031C00019FC2046FDF790FD014601A8B1F9046005
:1031D000B1F906500A894B89324401912B44ADF86C
:1031E0000860013AADF80A50013BADF80C20ADF88B
:1031F0000E30FDF74DFE02A805F0B4FE40B12A46A0
:103200003146204600F06EF905F068FD0028F6D141
:1032100002F0B4F904B070BD2DE9F04FDFF82C8155
:1032200087B082468B46D8F8000017461E46129992
:10323000437C00221198FEF731F800284DD0036935
:1032400005469B68984704F0A1F800FB07F4814607
:10325000FDF75EFD109B073413F001034FEAD40421
:103260003FD0002E2CDD002B42D004FB06F018309E
:10327000FDF7FAFA024668B3002302931046039260
:10328000FDF732FD029A034606A8A3F804A0A3F8AE
:1032900006B01F815E81DC60C3F810905A6140F86F
:1032A000043D1D60FDF7F4FD129AD8F800302A6144
:1032B000039A1046AA605B7CAB6107B0BDE8F08F53
:1032C000002C34D1204676428642A8BF064693B3EE
:1032D000002ECADC2846FEF7A7F8002007B0BDE89C
:1032E000F08F0028B8BF0330801000EB4000B8E733
:1032F00000933A4633465946504602F095F80290FC
:1033000004FB06F01830FDF7BDFA02460028B5D1DF
:1033100028460392FEF788F8029B002BDDD0184662
:10332000FDF7FAFA039A104607B0BDE8F08F183897
:10333000B0FBF4F0C7E700933A463346594650468F
:1033400002F072F8002E0290DADCC3E704010020DC
:103350002DE9F04FDFF880918BB05D4BD9F800C0BC
:10336000DFF878819CF811E053F82E40D8F800304F
:10337000D4F810E0002B00F0A6801646DCF86020A0
:1033800007460D46002A75D0E2681268072A78D0F1
:10339000504AC2EB0E02B2FA82F25209002A70D0F1
:1033A0003846FDF7A1FC03460AA8B3F908B040F877
:1033B000083DB3F90AA00BEB0504DB68013C05935B
:1033C000FDF766FDD9F80010B1F90C30B1F908002D
:1033D000E41A002CCCBFC4EB0B045C4685425EDBD8
:1033E0000023002C43DD0AEB0600B1F90EE00138A2
:1033F000CEEB00000028C8BFC0EB0A0AB1F90A00F2
:10340000B04247DC0021BAF1000F079306912EDD90
:103410003846FFF73FFD079BD9F80020069901FBCE
:103420000B31136E00EB8107002B3CD01846FDF7E3
:103430005BFC02460AA8B2F90410B2F906306D1A14
:1034400040F8042DF31AA900D56801F1180605FB10
:1034500003661644FDF71CFD4EB1059B2246009500
:103460003946019330465346D8F80040A0470BB088
:10347000BDE8F08FE2681268B2FA82F25209002ABF
:103480008ED173463246294638460DF0FBFB0BB011
:10349000BDE8F08F811B0646C1EB0A0AB3E7431B68
:1034A0000546E41A9DE7507C4FEA8B02DFF830E0D6
:1034B0003B4602922946CDF804A032460094DEF83D
:1034C0000040A047D3E773460DF0DCFBCFE700BF19
:1034D0009080002090072200040100209C800020A2
:1034E000988000202DE9F04182B00F4690460646B4
:1034F000FDF7FAFB034602AC16211D68002044F8D4
:10350000043DEB685B6A984705462046FDF7C0FC22
:103510001DB1424639463046A84702B0BDE8F081A9
:1035200000B970472DE9F04FA3B08B469246044690
:10353000FDF7DAFB22AB456943F81C0D1846FDF791
:10354000A7FC2046FFF78AFC0828814640DD002DB5
:103550003ED12046FDF7C8FB22AA0346B0F9081069
:1035600042F8100D10460D92B3F90A200A91099203
:103570001968DA680E690B930E92FDF789FC924880
:1035800092490068D6F80480407C51F820100D69FB
:103590002B680C93FFF78EF808280B9B14D9102882
:1035A0008BBF20221022042702270B92AE4200F08C
:1035B000F882B9F1200F00F0B381B9F1100F00F0DB
:1035C000458123B0BDE8F08F082201270B92EDE77B
:1035D0000021012320467C4E20910DF188080B919B
:1035E00021930A93FDF780FB074630683A68FB6831
:1035F000B7F908101269139314913B69B7F90A10CF
:10360000407C0993169148F8147D5568D7F81490BA
:10361000FFF750F832680E90507CFFF70DF907461F
:103620004046FDF735FC099A0A9B082A0B9940F29F
:103630009D80102A13460A918CBF042302230C9309
:10364000BD4200F0C1813368587CFFF7EDF8149B50
:1036500006469800FDF708F910900028B1D02046E2
:10366000FFF718FC0446B9F1000F00F088804846C7
:10367000FDF73AFB169B1E90002B40F3A18100231F
:10368000DDF83880CDF834A00B93139BCDF848B00B
:10369000E31815931FAB19460F93836800225B69EB
:1036A0001F920B9A9847159B139A04469B1A0E93E8
:1036B000149B834200F0F680099B012B00F0888068
:1036C000002842D01CAB11931098FDF70DFB099B0D
:1036D00007461C90082B1F9A65D90C9BA3460E9990
:1036E000824602FB031939F8020BA847B047BBF129
:1036F000010B4AF8040BF6D1B8F11F0F04D8384675
:103700004246214601F0A8FF0A9901231F9822464C
:10371000059112991C9F0844002101930093039185
:10372000CDF808800D99049702F040FE1198FDF73E
:10373000AFFB1F9B1E981C440B9A83680F991F9424
:103740005B69984704460028BED1159A13990B9BD4
:103750000A44013315920D9A0B9301320D92169A79
:103760009A4200F02D811E980F9996E7012A03D105
:1037700020AB0C920A9363E70C930A9160E7012552
:103780000A9B139A09990593049058460392029153
:103790005146169B149A0195009502F007FE109869
:1037A000FDF7BAF80DE70C9BA2460E99814602FB85
:1037B000031B1BF8010BA847B047BAF1010A49F8EF
:1037C000040BF6D198E700BF040100209080002090
:1037D0000028BAD0CDF8608019960B9F0A9EDDF8BC
:1037E0003880DDF83490DDF848A0DDF83CB017955E
:1037F0001192DDF87CE02246119D01230EF00700B6
:1038000049460395012506900AEB0E00BEF1000F14
:1038100005960295B8BF0EF1070E0195009508EBCD
:10382000EE0ECDF810E003F0A3FC1F9B1E983A4665
:103830001C44594683681F945B69984704460028D6
:10384000D7D1179DDDF86080199E7EE70A9B03FBA8
:1038500007F0FDF709F8109000283FF4B2AEFDF72D
:1038600043FA20902046FDF73FFA00F118031E901E
:103870000E932B69002B00F0A6817369002B00F0DA
:10388000A281B0F908008000FCF7EEFF119000283B
:1038900040F0BA811F900D98FDF7FAFA20A8FDF7C5
:1038A000F7FA7CE71098FDF71FFA099B81461C90F8
:1038B000082B149F0446DDF838A028D93AF8020BEB
:1038C000A847B047013F44F8040BF7D1B8F11F0FE8
:1038D00004D848464246149901F0BEFE22AB129825
:1038E0000D991A460A9B059300230393012352F86E
:1038F00018EDCDF8088017460193149A0093CDF87F
:1039000010E002F053FD3846FDF7C2FA1DE71AF841
:10391000010BA847B047013F44F8040BF7D1D5E7A6
:103920000A9B07FB03F0FCF79FFF0E9000283FF473
:1039300048AEFDF7D9F920902046FDF7D5F91E9045
:103940002C6900F11808002C00F0EB800A9A5C4604
:1039500001260A954FEA82099346CDF83090DDF8AA
:10396000249017E0042F21D0012F15D00B9B0020AD
:10397000209D51460293012305905A46039020460C
:1039800001969A440096049502F010FDB9F10109E0
:1039900000F0E880022FE5D10C9D40463B465A4698
:1039A000A8440A9D20992D69A847DFE70C9B404653
:1039B0000A9D5A46984420993B462D69A847D5E769
:1039C0001EA8FDF765FAEAE62046FFF763FA80468F
:1039D000B9F1000F00F0D4804846FDF785F9169B39
:1039E0001E90002B40F3C88000261FABCDF834A0FA
:1039F0000125B146DA461F4683683246CDF87C90F1
:103A000039465B699847149B0446834231D0099B31
:103A1000012B57D020B30D9B0B9603EB060B1F9881
:103A200001230C990A9A01FB008E099E13995044B8
:103A30000592224603915946CDF810E00296019571
:103A4000009502F0B3FC1F9B1E9839461C440B9A4C
:103A500083681F945B69984704460028DFD10B9E5A
:103A6000139B01369844169BB34240F385801E9801
:103A7000C2E7CDF82C80B346984600E0A3461E98D6
:103A80000BF101043946836822465B6998478045FB
:103A9000F4D00A9AC6EB0B03DDF82C805046059251
:103AA00001330D9ACDF810809119139E099A03964F
:103AB00002920195149A06FB03880095264602F0AF
:103AC00075FCD0E70028CBD00D9B0B9603EB060BC3
:103AD000DDF87CE022460A9E01230EF007005946DD
:103AE000059606900AEB0E00BEF1000F139E02959C
:103AF000B8BF0EF1070E0396019508EBEE0E009588
:103B0000CDF810E003F034FB1F9B1E9839461C448F
:103B10000B9A83681F945B69984704460028D7D1A5
:103B20009DE7A1460125099E0123022F51460A9ACD
:103B300058460AEB030E00F0A981042F00F07D81A6
:103B40009F4200F052810B9CF246CDF814900294F3
:103B5000209CCDF80C9001950095049402F026FC71
:103B6000013EE1D10D98FDF793F920A8FDF790F9FA
:103B70000E98FCF7D1FE24E51EA8FDF789F920E593
:103B800001240A9B139A09990593049058460392BD
:103B900002915146169B149A0194009402F006FC7F
:103BA0000FE50E9A01241833002503925146049321
:103BB0005846099BCDF808900A9A059501940094FF
:103BC00002F0F4FBFDE40125DDF82890099E0123B5
:103BD000022F51464A4658460AEB030E00F0D480A5
:103BE000042F00F0A0809F426DD000240195009525
:103BF000F246059403940B9C0294209C049402F0DA
:103C0000D5FB013EE3D146E6FDF76EF81F90002894
:103C10003FF441AE0A9A0124CDF828B04FEA420998
:103C200090460C95CDF83C90B146DDF838B017E0E1
:103C3000042F2ED0012F28D00B9B0020209D514611
:103C4000029301230590424603909A440194009404
:103C50000A98049502F0AAFB099B013B09932BD01B
:103C6000022FE5D1209B1E463B4642461F995846EF
:103C7000D9F81450A8470F9D31463B46AB440C9DE4
:103C800042461F982D69A847D6E7209B1E4602236F
:103C9000EBE7209B42460F9E58461D461F99022384
:103CA000B344D9F81460B04729460C9D3B464246C0
:103CB0001F982D69A847BFE71FA8FDF7E9F81198DD
:103CC000FCF72AFEE7E50A9B444609965D000C9E38
:103CD0000C95209DDDF83880DDF8289038F8020B2F
:103CE000A047B047B9F1010905F8010BF6D10E9DC7
:103CF00001230B985146AE460C9D02905846AE44A7
:103D0000209DCDF814909A440A9ACDF80C90019712
:103D100000970495CDF838E002F048FB099B013B81
:103D20000993D6D1B7E50A9B0125099644465E0062
:103D30000C9F0C96209EDDF83880DDF8289038F82E
:103D4000020BA047B847B9F1010946F8040BF6D1B8
:103D50000E9E01230B985146B6460C9E0290584683
:103D6000B644209ECDF814909A440A9ACDF80C904F
:103D7000019500950496CDF838E002F017FB099BF9
:103D8000013B0993D6D186E50A9B01250996444655
:103D90005E000C9F0C96209EDDF83880DDF82890A0
:103DA00038F8020BA047B847B9F1010926F8020B11
:103DB000F6D10E9E01230B985146B6460C9E0290FA
:103DC0005846B644209ECDF814909A440A9ACDF8ED
:103DD0000C90019500950496CDF838E002F0E6FAD3
:103DE000099B013B0993D6D155E595000C9C09969A
:103DF0000C95209D4646DDF8289056F8040BA04708
:103E0000B9F1010905F8010BF7D10B980123209EA8
:103E1000514602905846CDF814909A440A9ACDF82B
:103E20000C900197009704960C9D02F0BFFA099B35
:103E3000A844013B0993DCD194E60996012596003C
:103E40000C9C0C96209E4746DDF8289057F8040BF2
:103E5000A047B9F1010946F8040BF7D10B980123EB
:103E6000209F514602905846CDF814909A440A9AE1
:103E7000CDF80C900195009504970C9E02F096FAEF
:103E8000099BB044013B0993DCD16BE609960125FF
:103E900096000C9C0C96209E4746DDF8289057F81B
:103EA000040BA047B9F1010926F8020BF7D10B98D2
:103EB0000123209F514602905846CDF814909A4411
:103EC0000A9ACDF80C900195009504970C9E02F08B
:103ED0006DFA099BB044013B0993DCD142E600BF77
:103EE0001B4B1C4A1968136AF0B5002B487C1A4B0F
:103EF00083B00CBF044600241D57012D26DD02EBC4
:103F000084010B695E1C0E6103BB8E681F4652F86C
:103F10002420334603E0A2428C60134607D15C1C88
:103F2000AC42F8D100248F601346A242F7D0FDF7CF
:103F300045FB019050B1C368212101A85B6A9847F5
:103F4000034618B1224631460198984703B0F0BDA8
:103F5000040100205C7D00208C80002058B311B348
:103F60000AB3B1F90030F0B5B2F90050B2F902E08D
:103F7000B1F902409D42B2F90470B2F90660A8BFDF
:103F80001D46B1F904207445B1F90630A8BF744646
:103F9000BA420580B8BF3A46B3424480B8BF334600
:103FA0008280C380F0BD002908BF11460A684B68B3
:103FB000026043607047704778B189B2C38892B29B
:103FC00070B40688448885880E4414441A442944F1
:103FD000068044808180C28070BC704770B4124DEE
:103FE00004462B686A6893420FD0104EB34293E8A0
:103FF000070014BF0C333C3B84E807002B60207A99
:10400000003070BC18BF01207047094A934204D0A9
:1040100013E9070084E80700F1E73C3393E8070061
:1040200084E80700EBE700BF9C0100206C7F0020C4
:10403000307F0020034B09CBC01AB0FA80F0400952
:10404000704700BF9C010020F0B53C4E85B004468F
:10405000336D002B55D03A4A01AD3A49F36C1160EB
:1040600094E8070085E807000BB128469847364FCB
:104070003C687B689C4232D0B342304A32D09DF8D3
:104080000C00A3F10C0113F804EC8C46864535D1E5
:104090008C4233D091423BD002F13C0E11F8042CFB
:1040A00082423DD0734595E8070083E807000BD0B6
:1040B0000C339C427B600BD0B36C0BB12846984705
:1040C00000F078FD05B0F0BD1C4B9C427B60F3D145
:1040D0001E4B9C4214BF0C343C3C3C60ECE7DFF8C8
:1040E0006CE0DFE79DF80C0096F8442082421DD179
:1040F00006F13C0E744519D07146CFE702F13C0E33
:10410000D0E7134B304640F8503F02F08DF8A2E75D
:1041100091F8442001F13C0E8242C3D16346C1E7CD
:10412000B34208D0A3F10C0C6346BBE795E8070047
:1041300086E80700BCE7054BB4E700BF307F0020EE
:1041400044850020617C20009C0100206C7F0020C1
:1041500039F4200010B5FEF74DFC0D4A1368516884
:104160008B420FD00B4CA3424FF0010493E80300A5
:1041700014BF0833503B136004F060FB01F0FEF9FC
:10418000204610BD002401F0F9F9204610BD00BF03
:104190005C010020507E0020F0B5164C059F25687C
:1041A000069CB5F908E0B5F90C607045B8BF7046DB
:1041B000B242A8BF324690421ADCB5F90A60B5F99E
:1041C0000E50B142B8BF3146AB42A8BF2B468B421E
:1041D00003DAF0BD25682DB12C46E5682D6835F071
:1041E0000405F7D106940597BDE8F04002F066BDDE
:1041F000F0BD00BF04010020B0F90220B1F9063083
:104200009A4214DCB1F90220B0F906309A420EDC71
:10421000B0F90020B1F904309A4208DCB0F904008A
:10422000B1F900308342CCBF00200120704700204C
:10423000704700BF08B5034B014674221868FCF7AD
:104240008AF808BD0401002000B9704730B5044663
:1042500083B0FEF7CFFB02AD20460CF007FC2046F2
:10426000FCF742FD45F8040D0068FDF783F9284688
:10427000FCF70EFE2046FCF737FD01900068FCF7C6
:104280006BFB019BD868FCF747FB019BD869FCF7E7
:1042900043FB2846FCF7FCFD2046FCF73DFB01F004
:1042A0006DF903B030BD00BF00B970472DE9F04F84
:1042B0000446ABB00D4616461C921B91FEF79AFBC6
:1042C0002046FCF711FDB0F9043004689D422790A8
:1042D000119400F05A810020FEF700FFAE4B119AB6
:1042E0001B689269597C1F900846279D199282424B
:1042F000209118BF5A74B5F90430B5F90620194653
:104300000793B5F90830104612925B1AB5F90A20E6
:104310001C46121A08931646139222462B8A013223
:104320009B071A92324602F101021D9240F10E8162
:104330001B9B6A695B1A0392002B1C9A1493A2EBD5
:10434000000440F3A78109934FF0010B0023DDF82F
:1043500068901093002C40F3A8811D9B4FF0000A39
:104360001794169301231593119E8C4BB0691B561D
:10437000012B40F389810023ADF8A230ADF8A030C5
:1043800002F02AFB431EB069ADF8A43002F06AFBCC
:104390000138ADF8A60027985A4600F1140106F03E
:1043A000A3F82190002800F0D08027985A4600F109
:1043B000140106F099F82390002800F0C180279B93
:1043C000D868002840F08181169A524500F0B480E8
:1043D0001A9B10999A00CDF810900AFB0313C4EBB6
:1043E0000A01D946229005EB83030D9115990E938E
:1043F000129B01FB02F223441E9218934FEA8B0397
:10440000D3460593179B139A5B45109CCCBF0023A2
:1044100001235A45B8BF00230B93129B5B440F93B3
:10442000189B5B440A93049B1A46A24275D01498C9
:10443000079BC0EB040A0E9D03440C935A46214689
:104440000398FEF787F8030E06465FD0099B089A8B
:10445000A3420799CCBF00230123A2420C9A214416
:1044600002EB0407BDF9A020B8BF00230691BA42B1
:104470000B9903EA01030DDCBDF9A2200A988242E0
:1044800008DCBDF9A420BA4204DBBDF9A6208242B3
:1044900080F2A9804FF00008002B00F08580BAF16F
:1044A000000F09DB0D9B002B06DB1A4651460398D3
:1044B000FEF750F8030E77D0BDF9A0309F4223DB02
:1044C000BDF9A2300A9883421EDCBDF9A430BB427C
:1044D0001ADBBDF9A630834216DB3046304B229EF4
:1044E000FF221B6846F07F419847199A2D4B53F8DD
:1044F00022301B691B689847219B02460A9900934A
:104500003846119B0BF0A4FCC5F82080059B4C4459
:10451000CA441D44049BA34290D10E9B1E99159A38
:104520000B4493440E930D9B1946169B11445B4517
:104530000D917FF467AF279B239918680BF050F912
:10454000279B219918680BF04BF9279D1B991A9B03
:104550001C980B44A980421E1D99013BE8800A4427
:104560002B81199B6A811946209A914202D00A4BED
:104570001B685A741F98FEF7B1FD27A8FCF788FC4A
:1045800000F0FCFF2BB0BDE8F08FB0F906309E4282
:104590007FF4A1AEF1E700BF040100208C80002071
:1045A0006C01002090800020BDF9A030069A934253
:1045B00084DCBDF9A2200F9882423FF77FAFBDF99E
:1045C000A42006998A42FFF679AFBDF9A6200146DC
:1045D0008242FFF673AF239B2A6A06980093119BD1
:1045E0000BF036FC68E7DDF89C80B8F90420BA428D
:1045F0002FDCB8F90810B9422BDBB8F906E0014608
:10460000864526DCB8F90A00884222DBD8F8140077
:10461000F8B12593BB1A194622930A9BCEEB0303EC
:104620001A462493FDF796FF030E259B11D0B8F987
:104630000410B8F90820521A249902FB0112229999
:104640000A4408EB8208D8F8202042F07F409046C8
:104650000FE0119A1068002833D0D0F80CE03946EA
:104660000A9ADEF814802293C047229B804640F0CD
:104670007F402493199A9A4B53F82220126952686A
:104680009047249B229007E7F368304628A91B6BCC
:10469000984780E60022089B4FF0FF390992149A50
:1046A000CB4610931344089354E6139900224FF01D
:1046B000FF3317920A4616938A46224415931392A3
:1046C00052E680464FF07F40D3E7FCF70DFB169B88
:1046D0002690534500F099801A9B10999A00CDF8C6
:1046E00010900AFB0313C4EB0A01D9460D9105EBA8
:1046F000830312990F934FEA8B032144D34605930A
:1047000018911599079B01FB02F22292149A134407
:104710000C93179B139A5B45CCBF002301235A458A
:10472000109AB8BF00230B93129B5B441E93189BF7
:104730005B440A93049B93425AD01446149A0F9DEB
:10474000C2EB040A5A4621460398FDF703FF0646CA
:10475000002846D0099B089AA3420B99CCBF00239E
:104760000123A242BDF9A020B8BF00231F460C9B25
:1047700003EB0408079B0F40424523440CDCBDF9C2
:10478000A2200A98824207DCBDF9A420424503DB3F
:10479000BDF9A620824257DA00220692002F39D0B6
:1047A000BAF1000F0E9309DB0D9B002B06DB1A46B6
:1047B00051460398FDF7CEFE0E9B58B3BDF9A020DD
:1047C00090450CDBBDF9A2300A998B4207DCBDF99C
:1047D000A430434503DBBDF9A6308B4257DA069B74
:1047E0002B62059B4C44CA441D44049B9C42A9D1A6
:1047F0000F9B2299159A0B4493440F930D9B1946D6
:10480000169B11449B450D9183D126A8FCF740FBD4
:10481000279B91E6BDF9A0209A42D1DCBDF9A210F8
:104820001E9FB942CCDCBDF9A4109942C8DBBDF98A
:10483000A610B942C4DB1846239B2A6A3946009366
:10484000119B0BF005FBB9E7279A0692B2F90420F9
:1048500042450DDC0698B0F90810414508DBB0F977
:1048600006E00A998E4503DCB0F90A00884218DA9E
:10487000119A106800288FD0D0F80CE041460E93B2
:104880000A9ADEF8143098470E9B069086E7269A1F
:104890004046119B52F82620219E00960BF0D8FA34
:1048A0009DE72593C2EB0803CEEB010206990E9318
:1048B000486919462492FDF74DFE259B0028D7D064
:1048C0000698B0F90410B0F90820521A249902FB96
:1048D00001120E990A4400EB8202126A06925DE709
:1048E0009080002000B9704770B5044682B0FEF792
:1048F00081F82046FCF7F8F9038A00909B0707D55A
:104900006D462846FCF7C4FA00F038FE02B070BDD0
:10491000204602AEFCF7E8F9034600686D4646F80B
:10492000043DFCF783FD3046FCF7B2FA6846FCF71D
:10493000AFFA20460BF0ACFE2046FCF7D5F9038A0F
:10494000009043F002030382DBE700BF2DE9F0474C
:10495000048882B0BDF82860002C4FD04488002C19
:104960004CD0C468002C46D0A468002C46D0174612
:104970008846054606F0010200213048FCF78EFC0F
:104980008246002847D06B88B5F8009003FB09F9F0
:10499000FEF730F84FEA890909F12000FBF772FFB2
:1049A000044678B3CAF80800FCF79EF929886A889B
:1049B0000346013902A8013A1E82414440F8083DED
:1049C0003A445D61A3F80480DF8019815A81C3F8FD
:1049D00000A0FCF75DFAEB682BB105F10C01204655
:1049E00005F02AFEA8B9B30717D400F0C7FD20468A
:1049F00002B0BDE8F087C588202DB8D0204602B0AF
:104A0000BDE8F0875046FCF70FFD00F0B7FD2046EB
:104A1000F5E700F0B3FD0020F1E7204602ADFCF71A
:104A200063F90346006845F8043DFCF7FFFC28469F
:104A3000FCF72EFA20460BF02BFED6E7481C22008E
:104A400008B5034B74221968FBF785FC08BD00BF4D
:104A50000401002008B5FDF7CDFF02F03FFA02F097
:104A600075FB02F0C7FCBDE8084000F087BD00BF41
:104A700070B50D4D04462B685E7CFDF7BBFF012C25
:104A800003D900F07BFD304670BD2046FCF796FD53
:104A90000028F6D02B685C74FFF7DCFF034B1C602A
:104AA00000F06CFD304670BD04010020DC84002065
:104AB00010B50446FDF79EFF204602F031FABDE82E
:104AC000104000F05BBD00BF10B50446FDF792FF3B
:104AD000204602F05FFABDE8104000F04FBD00BF75
:104AE00010B50446FDF786FF204602F06BFA044637
:104AF00000F044FD204610BD38B50446FDF77AFFAE
:104B0000044B1B68DD6904B1DC6100F037FD284609
:104B100038BD00BF0401002070B504460D4616469E
:104B2000FDF768FF29462046324602F091FA044616
:104B300000F024FD204670BD70B504460D461646B3
:104B4000FDF758FF29462046324602F09BFA0446FC
:104B500000F014FD204670BD38B504460D46FDF743
:104B600049FF2946204602F0D9FA044600F006FD26
:104B7000204638BD70B505460C46FDF73BFF094A97
:104B8000094B294610682246084E407C358053F870
:104B90002000074DC3682C801B6A9847BDE8704011
:104BA00000F0ECBC04010020908000207E800020FA
:104BB00080800020024B1B6803B11847704700BF7C
:104BC000B07E0020024B1A6802B91860FFF7F2BFEE
:104BD000FC7D002000B970472DE9F041DFF8C4806A
:104BE00082B00546FDF706FFD8F80040A54244D044
:104BF0006E461CB919E0FCF74BF9B4B12046FCF73E
:104C000073F8034630469C680093A542F3D12846CA
:104C1000FCF76AF80346009A01A89968019391602D
:104C2000FCF736F93046FCF733F92846FCF75CF818
:104C3000D8F804400090A5421A4B2CD094B101AF93
:104C400002E0FCF725F96CB12046FCF74DF803466D
:104C500038465C680193A542F3D1009A52685A60C5
:104C6000FCF716F93046FCF713F92846FBF754FE1B
:104C700000F084FC02B0BDE8F08102AF2846FCF7EA
:104C800033F8836847F8040D38466E46C8F800309C
:104C9000FCF7FEF8C9E7426830465A60FCF7F8F8BE
:104CA000E3E700BF887F002030B583B018B9012446
:104CB000204603B030BD04460D46FDF79BFE20465E
:104CC000FCF712F8828902AB2A4243F8040D184619
:104CD00014BF01240024FCF7DBF800F04FFC204651
:104CE00003B030BD0A4A002330B5146883B00360B6
:104CF0005CB105462046FBF7F7FF02AB026943F8BB
:104D0000040D18462A60FCF7C3F8204603B030BDF6
:104D1000887F0020002370B50B6082B018B904466C
:104D2000204602B070BD0D46FBF7DEFF846801AE81
:104D300001902CB93046FCF7ABF8204602B070BDAC
:104D40003046FCF7A5F82046FBF7CEFF036901903B
:104D50002B60EFE7F0B50228CB4D4FF000062DEDAC
:104D6000068B8DB02E60189C00F00C8140F30581FD
:104D7000032800F04B810996043C069604390096FE
:104D8000043A0A9603EB80070B960796089604965A
:104D9000059601960296DDED0B5ADDED0A4A9DED72
:104DA000085A9DED074ADDED052A9DED041A9DED9B
:104DB000022ADDED011ADDED000A9DED063ADDED7A
:104DC000093A54F8046FB3EC017A07EE906A51F88F
:104DD000046FB8EEC77ABB4206EE106A52F8046F51
:104DE000F8EEE77A06EE906AB8EEC66A32EE072A67
:104DF000F8EEE66AE7EE070AE7EE271A72EEA72A50
:104E0000A7EEA71AA7EE063A35EE065AA7EE864A8F
:104E1000E7EE263A75EEA65AE7EEA64AD1D107EE9E
:104E2000900AB7EE006AF8EEE77A86EE020A86EE9E
:104E3000227AC6EE276A23EE003A63EE803A60EEED
:104E4000800A21EE800A8DED063ACDED093A27EE73
:104E5000044A67EE244A67EE211A27EE011A8DED07
:104E6000074ACDED0A4A26EE855A66EEA55A26EE89
:104E7000822A66EEA22A8DED085ACDED0B5A72EE0B
:104E8000C06A31EEC27A30EEC24A71EE623A27EE63
:104E9000267AA4EE237AB5EE407AF1EE10FA6CD0C1
:104EA0009DED068AF7EE009A9DED089A012362EEC9
:104EB000485ADDED094ADDED0B8A89EE875ADDEDB2
:104EC0000A7A9DED073A2B6022EE646AE9EE205AD9
:104ED00021EEC9AAA8EEA06A61EEE89AA3EE02AAA2
:104EE00065EE815AE7EE829A26EE017A20EEC31A29
:104EF000B0EE656A60EEE70AA8EE211A33EE493A91
:104F0000E4EEA10AAAEE006AA9EE807A77EEE85AEA
:104F100074EEE84A72EE617A38EE498A66EE831AD8
:104F2000A1EE226A66EEA56A28EE272AA0EEA27AF2
:104F300067EEA47AF0EE612AE3EEA46AE4EE257A45
:104F4000E3EE882AA4EE032A26EE056A27EE057A08
:104F500066EE856A67EE857A85ED036A62EE854ABC
:104F600085ED067A62EE055AC5ED046AC5ED057A4F
:104F7000C5ED014AC5ED025A3FE001200DB0BDEC80
:104F8000068BF0BD1F6801264868D1F800E007EEE7
:104F9000907A5B68CEEB00006168DB1BB8EEE75AE5
:104FA00005EE900A506806EE103A23681468F8EE91
:104FB000E55AC91AB8EEC66A001B002207EE901A1D
:104FC0002E6006EE900AC5EE864AAA602A61B8EE07
:104FD000E77A07EE903AF8EEE66AF8EEE77A86EEC0
:104FE000876A24EEC57AC5ED014A85ED037A66EE3F
:104FF000677A85ED056AC5ED067A199B0020EB619D
:105000001A9B2B620DB0BDEC068BF0BDD1ED007A82
:1050100091ED015AB8EEE74AD2ED007AD1ED025A8D
:10502000B8EEC55A92ED016AF8EEE74AD2ED026A8F
:10503000F8EEE55AD3ED007AB8EEC66AF8EEE66A05
:10504000D3ED011AF8EEE70A93ED022AD4ED007AC7
:10505000F8EEE11A94ED011AB8EEC22AD4ED022A54
:10506000B8EEE70A8DED064AB8EEC11ACDED094A51
:10507000F8EEE22A8DED075ACDED085A8DED0A6A59
:10508000CDED0B6AFBE600BF6C7E0020012801D944
:105090000120704730B52A4C85B0256822D0E160E8
:1050A00005F006012261062941D005F00505012D14
:1050B0003DD06361089BA36194F82C3043FA00F261
:1050C000D20758BF5AB24FF0010348BF002203FA7B
:1050D00000F01043C0B2032884F82C0010D0002048
:1050E00005B030BDE16105F005012262052922D03D
:1050F00005F00605022D1ED06362089BA362DBE764
:10510000104C2368587C01F067FC23680546587CE6
:1051100001F0A8FC0C4902900220A1F110030091BB
:10512000A1F1080201951839FFF714FED8E7089A93
:10513000A3616261C0E7089AA3626262BCE700BF34
:10514000907D002004010020B47D0020244A1368D3
:1051500010B4C3B90468002C11DB096800290EDB08
:10516000D2691F4894420ADA006A5DF8044B814212
:10517000ACBF002303F0010383F00100704701205E
:105180005DF8044B7047B6EE006AD1ED006A92ED0F
:10519000037A0123D2ED067AF8EEE66A37EE067A54
:1051A000D2ED024A77EE867A92ED055AD2ED015A97
:1051B000A4EEA67A92ED046AE6EE857AD0ED006A56
:1051C000F8EEE66AA5EEA67AE6EE867ABDEEC77A36
:1051D000FDEEE77A80ED007AC1ED007ABAE700BF14
:1051E0006C7E0020F0B52C4C87B094F82D30002B4D
:1051F00039D00CF045FF60600CF040FF6268A36896
:105200000192029300F04CF802A98DF8150001A854
:10521000FFF79CFF38B194F82E3083BB002384F84D
:105220002D3007B0F0BD1D4994F82E00019E029D5F
:1052300091E80C0050B1B21AEB1A002AB8BF5242E2
:10524000002BB8BF5B421344022BE7DD012703A804
:105250000E6003964D6004958DF8147000F026F8EA
:1052600084F82E70DAE70CF011FFA0600CF007FF55
:1052700094F82D30013384F82D3007B0F0BD074B82
:10528000002503A88DF814500CCB0392049300F072
:105290000DF884F82E50C1E7907D00200C0100200D
:1052A000014B587A704700BF907E002070B5134CB8
:1052B00084B00C2206462146FBF78CF878B1E368EF
:1052C000A3B101AD96E8070085E8070002A92846CA
:1052D0009847034695E8070084E807000BB104B03F
:1052E00070BD2846FEF7B0FE04B070BD3046FEF734
:1052F000ABFE96E8070084E80700F0E75C7E00203C
:10530000F8B5084E05460468336820461B68984780
:105310003368074620465B689847044438462C604B
:10532000F8BD00BFA4800020F8B569B105460C4661
:105330000026064F3B6828465B689847013C0544B9
:105340000644F7D13046F8BD0E46FBE7A4800020A6
:105350002DE9F843089C054689469846A9684346C6
:105360002846561C4F684946B847013C3246F5D19D
:10537000BDE8F883F8B5B0F90040B0F904500C1B53
:10538000AC422ADA2344B0F90250E710FF21013B76
:10539000551B026904F00704DE4302FB057541FA60
:1053A00004F406F00706D7EBE30205F11405E4B2B6
:1053B00001FA06F600EB050EF6B20FD0435D013A96
:1053C0000EF101071C43002A445503DD38461744FB
:1053D000FAF7EBFF3C7834433C70F8BD435D344052
:1053E0001C434455F8BD00BF30B4B0F902408025DD
:1053F0000369121BB0F9004003FB02F3091B1433CD
:1054000001F0070203EBE1011541435C2B4330BC83
:10541000435470470346B0F90620002114301B693D
:1054200003FB02F2FAF7C1BF2DE9F04302F10F04CA
:10543000804683B0914624111E460F46640003FB4C
:1054400004F01430FBF71EFA0546B8B1FDF7D2FAA6
:105450002846FBF749FC012301460A4A02A8A1F8A5
:10546000049040F8041DCE800C61A1F800804F80AC
:105470008A608B81FBF70CFD00F080F8284603B0B2
:10548000BDE8F0839C282200B0F9063093423BDD52
:10549000B0F90430F0B40D689D4232DAEE100769BD
:1054A0005C1E05F0070307FB0262C6EBE40614323C
:1054B000845C013204FA03F3104413F0FF0308D1B3
:1054C00026B3083510F8013B013E25F00705002BF7
:1054D000F6D01C0634D45B000135DBB21A06FAD5CF
:1054E0005F062A4604D55B000132DBB25C06FAD4C3
:1054F00002F00703072B0CD0561B0D60701CF0BC8C
:1055000070470020F0BC7047002070473046F0BC68
:105510007047002EF0DD0478471CFF2C0DD1831955
:1055200003E017F8014BFF2C07D1BB4202F1080240
:10553000F7D1E1E764000132E4B22306FAD4DBE7F5
:10554000FF2BCDD1EA1DD3E730B5054683B0FDF77B
:1055500051FA2846FBF7C8FB034602A89C8940F88D
:10556000043D013C24B29C81FBF792FC14B928460F
:10557000FBF7D2F900F002F803B030BD034A5368DC
:10558000013B536003B170470CF0C0BD9C7E00200E
:10559000F0B583B0C0B9224C05462369CBB1E068B1
:1055A0001F4E18B91F4B1868F060D8B123681C4F04
:1055B0002BB3002663681A4FC3B115B1A368184C0A
:1055C0002BB3304603B0F0BD154C01AD2369002B61
:1055D000E5D1154A2046012340F8142F236100F03D
:1055E00023FEDCE701F0B2F9F060DFE7F868800045
:1055F000FBF7BCF90028786008BF0126DDE78000D2
:10560000FBF7B4F9B0FA80F638607609D2E7E068C3
:105610008000FBF7ABF90028A06008BF0126D0E7A7
:10562000B87E002084800020F5F32000094B10B5DF
:105630001C7838B902464FF07F401A7000F0A0FE87
:10564000204610BD012200201A7000F099FE20466D
:1056500010BD00BF8A800020082A10B40EDD102A79
:105660001CDC00EB4101034650F8042B23F8022B0D
:105670009942F9D101205DF8044B7047022A11D0FC
:10568000042A00F09A80012A3FD00144034650F8D2
:10569000042B03F8012B9942F9D1EBE700205DF8C8
:1056A000044B704700F1100252F8103C01294FEAF8
:1056B0008313DBB226D052F80C4C02294FEA0414B3
:1056C00004F0300443EA04031CD052F8084C0329C8
:1056D0004FEA840404F00C0443EA040312D052F8A5
:1056E000044C043902F1100204F0030443EA0403F9
:1056F00000F8013BBED052F8103C01294FEA831359
:10570000DBB2D8D103700120B5E700F1200252F8D6
:10571000203C01294FEAC313DBB2F3D052F81C4CF2
:1057200002294FEA841404F0400443EA0403E9D058
:1057300052F8184C03294FEA441404F0200443EAB9
:105740000403DFD052F8144C04294FEA041404F087
:10575000100443EA0403D5D052F8104C05294FEA4F
:10576000C40404F0080443EA0403CBD052F80C4C00
:1057700006294FEA840404F0040443EA0403C1D078
:1057800052F8084C073902F120024FEA440404F0B1
:10579000020443EA0403B5D052F8244C012904F072
:1057A000010443EA040300F8013B52F8203C4FEAAD
:1057B000C313DBB2B2D10370A5E700F1080454F8BB
:1057C000083C01294FEA0313DBB213D054F8042C30
:1057D000023904F1080402F00F0243EA020300F860
:1057E000013B3FF447AF54F8083C01294FEA03134B
:1057F000DBB2EBD1037008465DF8044B704700BF85
:10580000082A2DE9F0410C4605461F680CDD102AD8
:1058100021DC1E69002E00F09180224629460223D9
:10582000B0470120BDE8F081013A072A10D8DFE82F
:1058300002F004510F770F0F0F9A00F1200858F86B
:10584000200CB847012C4FEAC010C6B206D12E700A
:105850000120BDE8F0810020BDE8F08158F81C0C63
:10586000B847022C46EA8010C6B2F0D058F8180C9F
:10587000B847032C46EA4010C6B2E8D058F8140CDA
:10588000B847042C46EA0010C6B2E0D058F8100C15
:10589000B847052C46EAC000C6B2D8D058F80C0C60
:1058A000B847062C46EA8000C6B2D0D058F8080C9B
:1058B000B847072C46EA4000C6B2C8D058F8040CD6
:1058C00008F12008B847083C40EA060005F8010B3B
:1058D000B5D1BDE700F1100858F8100CB847012CFD
:1058E0004FEA8010C6B2B2D058F80C0CB847022C60
:1058F00046EA0010C6B2AAD058F8080CB847032CE4
:1059000046EA8000C6B2A2D058F8040C08F110088C
:10591000B847043C40EA060005F8010BDCD197E7E4
:1059200000F1080858F8080CB847012C4FEA00109D
:10593000C6B20CD12E702046BDE8F081861E55F807
:10594000040BB847013C26F8020FF8D180E758F85D
:10595000040C08F10808B847023C40EA060005F8C4
:10596000010BDFD174E71E693EB1284622460123B0
:105970002946B0470120BDE8F0816E1E55F8040BA2
:10598000B847013C06F8010FF8D161E7F0B51C4EAD
:1059900085B0F36F0BB105B0F0BD1A4B6F4604AD87
:1059A0004FF0010E06F18004C6F87CE00FCB07C76C
:1059B000190C15F8102D27F8023B397004F8012B4B
:1059C00015F8012F002AF9D1FCF7FEFE234610F846
:1059D000012B194603F8012B0278002AF7D14A70EF
:1059E0000CF05AFBFAF706FF0FF060FD064B074874
:1059F000C6F8943005B0BDE8F04000F015BC00BF1B
:105A0000747B0020E0062200E5F22000087C0020E4
:105A10002E4B1B682DE9F041044682B00D4683B140
:105A2000002003F09FFA48B16E46324629462046D0
:105A300004F0B4FD03F052F90028F6D102B0BDE83D
:105A4000F081DFF88C806B4610686E46D8F80070E5
:105A50005168B7F84CC0B7F850E003C3BDF8007008
:105A60006846BDF80410BDF802206744BDF8063052
:105A700061447244ADF800707344ADF80410ADF8A1
:105A80000220ADF8063003F06DFA60B9D8F80030A6
:105A9000598C9A8CDC6C186D091B121A59849A84E3
:105AA00002B0BDE8F081D8F800303246BDF80200FF
:105AB0002946BDF80070988420465F8404F06EFD8E
:105AC00003F00CF90028EED1E0E700BFA080002031
:105AD000040100202DE9F04F8FB000241F469346AB
