:020000040020DA
:10000000F0720320D1022000797F2100A37121002A
:10001000757F210045382100C196210000000000B5
:100020000000000000000000000000000D022000A1
:100030003F3E21000000000069022000938F210054
:10004000EB022000EB022000EB022000EB0220007C
:10005000EB022000EB022000EB022000EB0220006C
:10006000EB022000EB022000EB022000EB0220005C
:10007000EB022000EB022000EB022000EB0220004C
:10008000EB022000EB022000EB022000EB0220003C
:10009000EB022000EB022000EB022000413E210099
:1000A000EB022000EB022000EB022000EB0220001C
:1000B000EB022000EB022000EB022000EB0220000C
:1000C000EB022000EB022000EB022000EB022000FC
:1000D000EB022000B1962100EB022000EB02200091
:1000E000EB022000EB022000EB022000EB022000DC
:1000F000EB022000EB022000EB022000EB022000CC
:10010000EB022000EB022000EB022000EB022000BB
:10011000EB022000EB022000EB022000EB022000AB
:10012000EB022000EB022000EB022000EB0220009B
:10013000EB022000EB022000EB022000EB0220008B
:10014000EB022000EB022000EB022000EB0220007B
:10015000EB022000EB022000EB022000EB0220006B
:10016000EB022000EB022000EB022000EB0220005B
:10017000EB022000EB022000EB0220000000000058
:10018000EB022000EB022000EB022000EB0220003B
:10019000EB022000EB022000EB022000EB0220002B
:1001A000EB022000EB022000F93C2100EB022000D2
:1001B000EB022000EB022000EB022000EB0220000B
:1001C000EB022000EB02200000000000EB02200008
:1001D000EB022000EB022000EB022000EB022000EB
:1001E000EB022000EB022000EB022000EB022000DB
:1001F000EB022000EB022000DFF80CD000F014F935
:10020000004800474D9C2100F07203202D4B1968D7
:100210000868B0E8F04F80F30988BFF36F8F4FF0A4
:10022000000080F311887047000000000848006853
:10023000006880F308884FF0000080F3148862B6ED
:1002400061B6BFF34F8FBFF36F8F00DF00BF00BFFA
:1002500008ED00E0DFF80C00016841F47001016076
:10026000704700BF88ED00E0EFF30980BFF36F8FA8
:10027000144B1A681EF0100F08BF20ED108A20E9F9
:10028000F04F106009B44FF0500072B680F311883F
:10029000BFF34F8FBFF36F8F62B61AF02DFD4FF093
:1002A000000080F3118809BC19680868B0E8F04FB5
:1002B0001EF0100F08BFB0EC108A80F30988BFF35E
:1002C0006F8F704744000020EFF3058070470000F7
:1002D0000648804706480047FEE7FEE7FEE7FEE7E0
:1002E000FEE7FEE7FEE7FEE7FEE7FEE79990210066
:1002F000F90120002DE9F05F0546002092469B465B
:1003000088460646814640241BE02846414647462B
:10031000224600F078F853465A46C01A914110D34D
:1003200011461846224600F05FF82D1A67EB0108C7
:100330004F4622460120002100F056F817EB000935
:100340004E41201EA4F10104DFDC484631462A4616
:100350004346BDE8F09F10B5441A0346944209D2C3
:100360008418114403E011F8013D04F8013D521EC8
:10037000F9D210BD40EA0104A40703D009E010C976
:10038000121F10C3042AFAD203E011F8014B03F83C
:10039000014B521EF9D210BDD2B201E000F8012B80
:1003A000491EFBD270470022F6E710B513460A46F5
:1003B00004461946FFF7F0FF204610BD30B504464D
:1003C0000020034600E05B1C934203D2E05CCD5C5E
:1003D000401BF8D030BD034611F8012B00F8012B6B
:1003E000002AF9D118467047202A04DB203A00FA87
:1003F00002F1002070479140C2F1200320FA03F37C
:10040000194390407047202A04DB203A21FA02F079
:100410000021704721FA02F3D040C2F1200291403E
:100420000843194670470000064C074D06E0E06897
:1004300040F0010394E8070098471034AC42F6D32B
:10044000FFF7DEFE04F6210024F6210070B58C18BB
:1004500010F8015B15F0070301D110F8013B2A11D8
:1004600006D110F8012B03E010F8016B01F8016BC5
:100470005B1EF9D12B0705D40023521E0DD401F8C1
:10048000013BFAE710F8013BCB1A921C03E013F88A
:10049000015B01F8015B521EF9D5A142D8D30020BF
:1004A00070BD000070B5456882B00446014628461C
:1004B00008F068F968B123680F2B59D00BDD282BA1
:1004C00045D0B3F5107F3CD0112B49D0204608F021
:1004D0000FFC02B070BD0B2B20D00E2BF6D1E368C1
:1004E0001A6859680D2A53D0202A31D1002928468C
:1004F0004FF480717DDD08F035FA284601F076FD75
:1005000002AB846A43F8040D184601F043FEA207CB
:10051000DFD52846012109F057FFDAE7284602AD6A
:1005200001F064FD03466830019301F03DFB55F88E
:10053000040D03216C3001F05DFB284601F02AFE1A
:10054000C4E7324B214628461B689847C1E7E36859
:10055000002BBBD128464FF4807108F0F7F8B5E7BF
:100560002B4B1B68002BB4D0214628469847B0E798
:10057000284601F03BFD034602A840F8043D5B6EAF
:100580001C6801F007FE002CA3D02846A047A0E776
:100590000029DDDD4FF48071284608F0E3F902AC54
:1005A000284601F023FD866A44F8040D204601F038
:1005B000F1FDB10703D50121284609F005FF4FF4ED
:1005C0008071284608F0C2F8284601F00FFD034666
:1005D00020461E8E9C6A019301F0DCFD304604F03B
:1005E000C7FFA3077FF575AF2846022109F0ECFE8F
:1005F0006FE708F0ABF8284601F0F8FC034602A8C4
:100600009C6A1E8E40F8043DE6E700BFE000002033
:10061000406803202DE9F04FB0F90A6087B0B0F9C7
:100620000C708B4685691644B0F90E801F44B0F9F2
:1006300010A00446B0F908904C3502F0CBFEDFF86C
:10064000CCC04FF0000E4246CDF800B039463046DF
:1006500003955346CDF808C0CDF804E008F04CFAF5
:10066000804628B905F060FC404607B0BDE8F08F31
:1006700001F0BCFC244F49460DF1180910220590E9
:100680003E1D08F08DF959F804ED0FCE0EF134053A
:100690000FC50FCE0FC596E80F0085E80F007B6BE6
:1006A0004846CEF8643001F075FD7B6B40465B68D0
:1006B000984705F039FC656802F08CFE404601F071
:1006C00095FC034604A89C6E0493059401F062FD1A
:1006D0002946484606F0C8FD0028C3D0059B9C4229
:1006E00009D0404601F082FC059A034604A89A66A8
:1006F000049301F04FFD404609F0DEFA05F014FCCA
:10070000404607B0BDE8F08FE0000020A5042000BF
:10071000974A816843682DE9F041044688B052F851
:100720002160122B40D8DFE803F0B03F3F3F3F0A83
:10073000973F3F3F3F3F3F3F3F3F3F3F4300F569CC
:10074000002D40F0B580371F57F8040F04F06EFEFF
:1007500004F1140120690EC928445B1B521B294473
:10076000013502F0F9FA022DEED162693169E369CF
:100770000191911CF76813442069A2695B10284419
:100780000097521B02F0B8F9E1696269B0698B1EEB
:100790001144A2690190491020697669521B013108
:1007A0002844009602F0A8F9002008B0BDE8F081C6
:1007B000006801F01BFC876E0490002F00F0D080D1
:1007C000A368B0F95C80002B00F0C880032B14BF35
:1007D0000023022300EB8303406D08AC1D6C04F082
:1007E0003DFE284604F022FE06A802F09DFCB28BD6
:1007F000BDF8181006A8BDF81C301144BDF81A50F9
:100800009A1ABDF81E30ADF81810023554F8101DB4
:10081000023BADF81C20B1F96020B1F95E10ADF8D3
:100820001E30ADF81A5004F079F8204608AC01F0FB
:10083000B1FC022004F084FE384601F0D7FB06A983
:10084000424644F80C0D02F0ABF8204601F0A2FC41
:10085000002008B0BDE8F081006801F0C7FB0490FB
:1008600020680BF055F8B8B9049B5D6F05B9DD6ED3
:1008700004A801F08FFC0023284621681A4602F0E4
:1008800033F8002008B0BDE8F08100680AF050F8A5
:10089000002008B0BDE8F081A368002B64D1049A61
:1008A000136F002B14BF6C23682313445D68DFE7CC
:1008B000B268B046C36900270392716882690291E9
:1008C00058F80409009561690190206906F0E0F884
:1008D00058F8040F04F0AAFDF369A2692169606960
:1008E000D21A1944384402F0E1F9F369A269216986
:1008F000E069D21A1944C01B02F0D8F9F369E26921
:1009000061692069D21A1944384402F06DFAA0696D
:10091000F369E269C01B61690137D21A194402F018
:1009200063FA022FD4D1B06804F080FDF169226926
:100930006569901CE3690A445B1A2944013A02F094
:10094000ABFAF169A0696569E369821E401A5B1A16
:100950002944013002F0A0FAF56906E7012339E7DE
:1009600004A801F017FC1FE7049BDD6E80E700BFC1
:10097000F4EB210070B582B018B90125284602B009
:1009800070BD04460D4602F025FD204601F02EFB09
:100990000346866E68468DE8480001F0FBFB294659
:1009A00001A806F061FC00280CBF012500250FD02E
:1009B000019B9E4209D0204601F018FB019A034694
:1009C00068469A66009301F0E5FB204609F074F949
:1009D00005F0AAFA284602B070BD00BF2DE9F04725
:1009E000466886B00546304601F000FBC36D0090B6
:1009F000D0F88840D0F88070D0F86880B0F87C904B
:100A0000002B64D0D3F800A0684601F0C3FB14B9F2
:100A100009E024683CB16368284698470028F8D06C
:100A200006B0BDE8F0872B68172B00F0A5801DDC11
:100A30000F2B00F08D807DDC0B2B00F0BF800D2B89
:100A40000AD119F0080F07D1EB68DB6823B11B7AD4
:100A500013B1304609F080FE3046294607F092FE79
:100A60000028DDD0284608F043F9D9E7262B75D0B9
:100A70002FDC1E2B00F0AE80202BEDD1EC68002C7B
:100A8000EAD0314660680AF029FF002800F0C080F3
:100A9000304601F0ABFAB0F87C30024601901807FE
:100AA00040F12D8101A801F075FB314660680AF024
:100AB00003FF0028D0D0304601F098FA6268034660
:100AC00001A80193C3F8802001F064FBC4E79A46B3
:100AD0009AE72A2B65D0B3F5107FBDD106AC30461E
:100AE000D5F80C8001F082FAB0F87C7044F8140D4F
:100AF000204601F04FFBEB68002B91D098F80830AE
:100B0000002B00F0AB80380740F1B780304607F08B
:100B1000ABFF07F48873B3F5887F81D107F08003BA
:100B20009BB2002B7FF47CAF41463046052209F092
:100B3000C1FD75E7112B22D0142B8DD1304601A9B0
:100B400000F09AFB02ABEA6803CB1060516067E7E4
:100B5000BAF1000F80D03046D0477DE7EB68022B1A
:100B60007FF45EAF272206A9A86841F8142D0396EA
:100B700004930AF0D9FF53E7C5F80C8050E7EC68FE
:100B8000304601F033FA01902389012B05D1B0F8EA
:100B90007C3043F48073A0F87C3001A801F0FAFAAD
:100BA0005AE7304601F022FAEB680090002B68D03B
:100BB000C0F88430684601F0EDFA31E7304601F0C4
:100BC00015FA03467030009300F0EEFF684601F01E
:100BD000E1FA41E7EC68012C57D0002E3FF420AF3A
:100BE00002F0F8FB304601F001FAB0F87C30024622
:100BF00001901C0706D523F008033046A2F87C308C
:100C000009F05AF801A801F0C5FA05F08DF907E7D7
:100C1000304601F0EBF9B0F87C300246019019073C
:100C200006D523F008033046A2F87C3009F044F8DA
:100C300001A801F0AFFA314620680AF03DFE002815
:100C40003FF40AAF304601F0D1F92268034601A80B
:100C50000193C3F8802001F09DFAFDE6304601F0D3
:100C6000C5F903462046B3F87C20019322F4807234
:100C7000A3F87C2001F08EFAD2E6304609F06CFD34
:100C800044E7D0F88430EB6094E7384609F034FB51
:100C900020B3384609F060FD384608F0E3FEB0B9ED
:100CA00026B9002F7FF4BCAEEF60B9E602F092FBEC
:100CB000304601F09BF9B0F87C30024601901907EC
:100CC00025D501A801F066FA05F02EF9E9E72146DD
:100CD000384607F047FE002EE3D0E7E7404609F02C
:100CE000A7FD0746304601F081F903466846C3F880
:100CF0008070009301F04EFA002ED2D0D6E743F078
:100D000008033046A2F87C3008F0D6FFCAE643F06C
:100D100008033046A2F87C3008F0CEFFD1E700BFD0
:100D20002DE9F04F0F46B0F90C108FB0B0F90A6002
:100D300001EB030BB0F9083085691644049343684E
:100D40006035B0F90E80B0F91090B0F812A005939C
:100D500002F040FB4B4C4FF4805E039559460097E0
:100D600030464B4642460294CDF804E007F0C4FEFC
:100D7000054628B905F0D8F828460FB0BDE8F08F31
:100D8000DFF808910EAE01F031F904993022069097
:100D900007F006FE56F8207DCE464FF0000807F11A
:100DA0003404BEE80F000FC4BEE80F000FC49EE875
:100DB0000300189B84E803007B663046D9F828308E
:100DC00041F28274A7F87CA0FB65C7F88080C7F861
:100DD0006C80C7F8888001F0DDF909A928462A4F00
:100DE00000F04AFABDF92AE0BDF92810BDF92C201F
:100DF000BDF92E300846521A0194CEEB030371461A
:100E00000132CDF80C8001330095029707F074FE93
:100E1000D9F82830044628465B689847284601F0F0
:100E2000E5F8034630469C66069301F0B3F9284680
:100E300008F0B4F802F0CEFA284601F0D7F80346DD
:100E400007A81A6F0793089201F0A4F9059908A85A
:100E500006F00AFA38B905F067F805F065F8284693
:100E60000FB0BDE8F08F284601F0C0F8089A03469D
:100E700007A81A67079301F08DF9284608F01CFFB0
:100E8000E9E700BFDD0920009914200018010020C7
:100E90002DE9F041044690B0006800F0D5F9B04B60
:100EA0006668A3F12C05002808BF1D461C2E00F221
:100EB000F780DFE816F02200F500F500F500F500F8
:100EC0003500F500F500F500F500F5005100F500DE
:100ED000F500FA00F500F500F5000E01F500F5004B
:100EE00048014A014C014E01F500F500F5001D00D6
:100EF0006E69304610B0BDE8F081206801F076F8E8
:100F0000034610A8B3F85A2040F82C3D42F00C02DA
:100F1000A3F85A2001F03EF9206809F009FDE8E73E
:100F20002A690026B4F910300192B4F914701846F9
:100F3000EA68B4F918503946B4F91C40ADF81C30D1
:100F4000009223462A46ADF81E70ADF82050ADF849
:100F5000224001F0D1FDCCE723681C2218460892FC
:100F6000079301F043F8034607A805931B6D9847C4
:100F7000064605A801F00EF9012E40F32781A96865
:100F80003346626902916868A16901902F682069FF
:100F9000009705F079FC2769A3693744C6EB03087D
:100FA000286804F043FA42463946606901F07EFE43
:100FB000686804F03BFA606942463946013001F046
:100FC00075FE6B6A022B00F3F4802A6A964217DAE8
:100FD0006769012E206907F1020840F32A81024463
:100FE000374430444146013A3B4601F055FFA06981
:100FF000821B3B46EF694146C01B013001F04CFFAC
:10100000012E40F3138163691E44E7692868013F9C
:1010100004F00CFA314620693A4601F0E5FE3A4602
:101020003146A06901F0E0FEE769686804F0FEF966
:10103000023F206931463A46013001F0D5FEA069F1
:101040003A463146013801F0CFFEEB69022B40F3FE
:101050008280AB6AE769022BA868CCBFFF1A023F07
:1010600004F0E4F9EA69022A00F39A802B6A022B61
:1010700000F38C80286804F0D9F9A2692169E0693D
:1010800001F014FE686804F0D1F9A2692169E069F1
:10109000013A0131013801F009FEAF6A022F61DC2B
:1010A0000026304610B0BDE8F08104F11401276934
:1010B000A8680026ADF81C700EC9ADF81E10ADF87A
:1010C0002020ADF8223004F0B1F907A801F010FF9C
:1010D0000FE7298B2269A3690A4465695B1AE169F4
:1010E0002068ADF82030ADF81C20ADF81E50ADF8EA
:1010F000221000F07BFF036F0590FBB1022004F08B
:101100001FFA059AB2F87C30C3F3C0030E3302EB2A
:101110008303986804F08AF9059B586B04F09EF9E4
:10112000059B186F00F062FF059B07A90690B3F9B5
:101130005A2001F035FC06A801F02CF805A800267D
:1011400001F028F8D5E6AE6AD3E6EE69D1E62E6A5C
:10115000CFE66E6ACDE62B6A022B8BDD79E700BF06
:1011600070020020D4F81C800026A2692169A868BA
:10117000951E8C1C04F05AF9C7EB08012A4620463C
:10118000A8F10203013101F087FEB2E6A0693B46F7
:10119000EF693146821EC01B013001F07DFE69E718
:1011A00020693B46314602440230013A01F074FEA8
:1011B0005CE7A86804F03AF9636938466F6A991CDD
:1011C00042463B44013B01F067FE19E7286804F002
:1011D0002DF92269EB69114660691A44013A01F060
:1011E00065FDA369E9691A466069591A013101F080
:1011F0005DFD676920690137394601F083FD394695
:10120000A06901F07FFD686804F010F92069394693
:10121000013001F077FDA0693946013801F072FD17
:101220002769A3690237A3F10208B9E666690236A5
:10123000EBE60244434602304146013A474601F09C
:101240002BFEA069821ED4E610B5044682B080B1A0
:1012500002F0C0F8204600F0C9FE02ABB0F87C40B6
:1012600043F8040D1846C4F3C00400F093FF04F0E3
:101270005BFE204602B010BD2DE9F04F89B0074655
:101280000D4600F0B3FE034601213846DA6D0593A2
:101290009468236898472368032180463846984716
:1012A00023680221834638469847236800218246F6
:1012B000384698478146059809F024FF0646059868
:1012C00009F028FF03460598448E04F02004A4B2D8
:1012D000B4B1B0F95420B0F95840002A4AD091B2C4
:1012E000C06E0C44A4B280B103910292019308F045
:1012F000F5F8019B0FFA80FC029A80B2039905E091
:1013000021462246C06E0028EED184461FFA89FE8F
:10131000013E013B0FFA88F8CBEB060674440EF150
:10132000FF3ECAEB030336B2044471446B812A804A
:1013300005A8A5F802C0EC8069822E812E82A5F84E
:101340000480A5F80C80A5F80E9000F023FF08AAF1
:10135000B5F910403846B5F90C3006A942F8044DED
:10136000069300F04BF8069A079BAA812B8209B0DE
:10137000BDE8F08F406B019301F040FF821C019BA0
:10138000059891B212B20C44A4B2BBE708B5438EE3
:1013900003F020039BB24BB10246B0F9540000B1F8
:1013A00008BD506B01F02AFF023008BD184608BD89
:1013B00070B58AB00C46064600F018FE0AABC26D46
:1013C00043F8280D1846956800F0E4FE0196032CBA
:1013D00005D8DFE804F00F0C0902172302936B68AD
:1013E00001A898470AB070BD15230293F7E71623AA
:1013F0000293F4E718230293F1E700BF2DE9F043CD
:1014000083B088460446914600F0F0FD034602A8EA
:10141000DA6D40F8083D9568B3F90070B3F90260E1
:1014200000F0B8FE2B68204600219847054620466C
:1014300007F0CAFF68B3044607E001A800F0AAFE5F
:10144000204607F0EFFF044618B3204600F0CEFD1B
:10145000B0F9023001909B1B9D42EED1836A1B06BE
:101460000BD5B0F90030D9F80020DB1B934203F113
:10147000FF33E2DCC9F80030DFE7B0F90430D8F818
:101480000020DB1B934203F10103A8BFC8F8003022
:10149000D3E703B0BDE8F0832DE9F043456887B09A
:1014A0000446284607F0CCFF074600F09FFD0346A0
:1014B00006A85E6E40F8143DD3F84880D3F88090BB
:1014C00000F068FE23680E3B232B3FD8DFE803F0D3
:1014D00035463E3E3E3E12123E123E3E3E3E3E3EB1
:1014E00018243E3E2B3E3E3E3E3E3E3E3E3E3E3E6F
:1014F0003E3E3E30204607F0FBFB07B0BDE8F083E0
:10150000E368002BF9D0B9F1000F3BD04D4539D03D
:10151000484609F021F9F0E72146384607F032F94C
:1015200007B0BDE8F083C4F80C8007B0BDE8F083D5
:101530000023E36007B0BDE8F083E3685A68002A3F
:1015400004DD1B68092B1DD00A2B1FD0002ED1D023
:1015500020466760B04707B0BDE8F0836FF0704386
:10156000984504D0404606F093FE00F077FF002E29
:10157000C3D002AF94E80F0087E80F003846039508
:10158000B047BAE7284609F053F9B6E7284609F00C
:1015900097F9B2E7204B70B51E6801F01BFF1F4C96
:1015A0000025304606F074FE04F0BEFC1C4B1E689D
:1015B00001F010FF304606F0A5FE04F0B5FC01F086
:1015C00009FF012223681A7604F0AEFC01F002FF45
:1015D00023689D8504F0A8FC01F0FCFE23685D856E
:1015E00004F0A2FC01F0F6FE284606F0BDFE04F071
:1015F0009BFC0C4B1D6801F0EDFE236805B1DD611D
:1016000004F092FC01F0E6FE236800229A76BDE821
:10161000704004F089BC00BFC0000020C40000205E
:10162000BC000020B8000020014B83E80300704795
:101630009C660320014B83E803007047A4660320E7
:10164000014B83E803007047AC660320704700BF7E
:10165000704700BF2DE9F04F5C4E8DB03368DA69FA
:10166000B3F92250D469B4F80CB0834500F29780E6
:10167000E1898142C0F093802168CBEB000B089197
:101680004FF0FF310A91BBF1FF3F00F0828092F8EA
:101690001880A27CB3F92A10B3F9249018FB02F346
:1016A000084607911F4694F810A006F05DFED6F894
:1016B00000E008994346DEF838C05246099007FB1F
:1016C0000B10DEF81CE00B97012704904946CDF87B
:1016D00014C0284694F812C00297CDF80CC09EF8AA
:1016E0001BC0DFF8E8B0CDF804C09EF81AE0CDF8D2
:1016F00000E005F0A9FF0A9F7B1C25D0079941F067
:10170000020006F031FEDBF800100B9A4346089801
:10171000D1F838C002FB0700D1F81CE00127CDF852
:1017200014C00490524694F812C0494602972846C5
:10173000CDF80CC09EF81BC0CDF804C09EF81AE08E
:10174000CDF800E005F080FF3368DFF88080DB69CA
:101750005A7E1B7E9A4215D9079B022B12D083F02A
:10176000040006F001FED8F800302846DB691F7E31
:10177000D97E9A7E5B7E07FB01910AFB02524B44A5
:1017800006F06AF99DF8240006F0EEFD3368B3F91F
:101790002250627C15445D840DB0BDE8F08FA168D5
:1017A0000029F6D00F88B842F3D3B1F802E086459D
:1017B000EFD3C01B4968676880B2089701EB8007C8
:1017C00031F920B0B7F902100A915CE7C40000209B
:1017D000044B1B68DB69DB6909B11A7C0A60587C21
:1017E000704700BFC400002002230B80704700BF79
:1017F000C3699A898A4202D8DA898A4211D29868E2
:1018000018B10388994201D20020704742888A4269
:10181000FAD3C91A436833F82100C043C0F3C0307B
:1018200070470120704700BF2DE9F04F3A4D89B055
:101830002B68DA69B3F92A90D36943B11A889042C8
:1018400002D35988814205D29B68002BF6D109B09A
:10185000BDE8F08F841AD3F80480484608EBC4062C
:1018600096F802B006F080FD8246286818F8342009
:101870004FF0010EC769D0F838C0B0F92410B0F9A4
:1018800022003B7E0790CDF814C07068CDF80CB0F4
:101890000490CDF808E097F81BE00798CDF804E035
:1018A000BF7E009705F0D0FE2B68DA69537E177E65
:1018B000BB4223D9B9F1020F07931FD092F81BB096
:1018C00001F036FC814601F0FDFB03F0AFFD124B49
:1018D00018F834E01868079BC169B0F92240CA7E45
:1018E000B0F9241020460EFB02420BFB03130BFB46
:1018F000071106F0B1F8484603F098FD504606F08F
:1019000033FD2B687178D8695A8C807E00FB0122E8
:101910005A8409B0BDE8F08FC4000020114B1B6849
:1019200070B4DD69EB6943B11A88904202D35C88D8
:10193000844205D29B68002BF6D1184670BC7047D4
:10194000821A5E68AC7E06EBC2035B7813FB04F080
:101950000029F3D016F8323014FB03F370BC0B608F
:10196000704700BFC400002001230B80704700BFF8
:10197000C06950B103888B4202D843888B4203D29E
:1019800080680028F6D17047012070472DE9F047A4
:10199000244F3D68002D3FDD234EC5EB4515DFF894
:1019A0008C804FF0000A3468D8F8009004EB85056D
:1019B0000C340C35A4F10803742249461846FEF78E
:1019C000CAFC221F2063A06344F80CAC6263E4608D
:1019D0007C34A542EED10024254603E082B13A686A
:1019E000954213DA12F026FC336801351A59191999
:1019F0007C349042F2D10431C8F80010BDE8F08781
:101A000008600431C8F80010BDE8F08719460431B9
:101A1000C8F80010BDE8F087034BDFF810801968A4
:101A2000E9E700BF8C010020E4680320C400002027
:101A3000F8B5184F184B3846184E40F80C3F05F0D3
:101A4000FFFB3468C4EB4414A400204600F004F902
:101A5000134B224600211B68386098474FF0FF3334
:101A6000736012F0F1FB3368002B0FDD0024254674
:101A700003E062B133689D4208DA12F0DBFB3B6899
:101A800001351A5923447C349042F2D1F8BD1860D4
:101A9000F8BD00BFE4680320B51721008C010020C9
:101AA0009801002000B9704710B5044601F092FC7F
:101AB00020460AF017FB044604F036FA204610BD13
:101AC000F8B5054601F086FC25B9002404F02CFA8F
:101AD0002046F8BD01F07EFC28460AF003FB0446D0
:101AE00004F022FA002CF0D0144E2A46144F0021A4
:101AF000F069736B013003EBC405F06113F8340037
:101B0000013003F834006D683B6805F10800984720
:101B10002968726B12F83130012B01D9F06930B9A4
:101B2000013B02F8313004F0FFF92046F8BD0138DE
:101B3000013BF06102F83130F5E700BFE8690320AE
:101B40009801002021F00301014B83E80300704756
:101B5000B466032000B9704770B50D4C054601F01E
:101B600039FCEE00636B3344596848680AF00CF99D
:101B70006368626B0021606A0133164463607060C1
:101B800002F835106562BDE8704004F0CDB900BFC1
:101B9000E869032028B1034AD36B036003B158609E
:101BA000D0637047E8690320F8B5054601F012FCE0
:101BB0002C68B4B10E4E01F00DFCE700736B3B4492
:101BC000596848680AF0E0F87368726B0020716A1F
:101BD000013317447360796002F83400746204F0D2
:101BE000A3F900232B60BDE8F84004F09DB900BFC5
:101BF000E869032000292BDD2DE9F04700258A46FE
:101C0000041F144FA94601F0E5FB54F8046F013599
:101C1000B6B101F0DFFB7B6B4FEAC608434459685D
:101C200048680AF0B1F87B68796B7A6A01338844B6
:101C30007B60C8F8042001F836907E6204F074F9E5
:101C4000C4F8009004F070F9AA45DCD1BDE8F08733
:101C5000704700BFE8690320F8B58B4E044696F83C
:101C60002830002B2FD00334356CF26B24F00304A2
:101C70000434A54238BF254662B152F8043C1446EC
:101C80009D4204D114E054F8043C9D4210D02468D5
:101C9000002CF8D1F368B46B1C4454F8041C611A8E
:101CA0000B68002B68D14B689D426FDD002408E073
:101CB00023680BB161685960616801B10B60A24291
:101CC00056D02046F8BD714B01219A6886F828103D
:101CD00058680AB982089A605A27102220254FF0C6
:101CE000400E3762802732644FF48072B5644FF43F
:101CF00000751968C6F850E04FF4806EB7654FF470
:101D0000006732664FF48052B5664FF40055A1F17A
:101D10001403C6F870E0B7674FF4804EC6F8802011
:101D20004FF40047C6F888504FF480324FF4003526
:101D30000344C6F890E04FF4802EC6F898704FF434
:101D40000027C6F8A0200222C6F8A8500125B163DA
:101D50007363C6F8B0E03261F060C6F8B8705D60D9
:101D6000756275600AF010F80DF0D6FD35637AE7FC
:101D700023682046F363F8BD002010F021F854F8E2
:101D8000041C611A0B68002B90D18CE7581BD6F805
:101D9000B8703D4A041DBB420C4472D2D2F8B070F8
:101DA000BB426CD2D2F8A870BB4266D2D2F8A07007
:101DB000BB4260D2D2F898709F425AD9D2F8907044
:101DC000BB4254D2D2F88870BB424ED2D2F8807057
:101DD000BB4248D2926F934243D2376F2A4ABB42EA
:101DE0003DD2976EBB4238D2176EBB4233D2976D4D
:101DF000BB422ED2176DBB4229D2976CBB4224D274
:101E0000126C93420CD2F2687369521B2B44F2603D
:101E1000736110B944F8045C53E709F0B5FFF9E7C2
:101E200000223768D1F808E0FF1ACB683760BEF1AE
:101E3000000F01D0CEF8043013B1C3F800E0E2E7A0
:101E400006EBC202C2F844E0DDE70122E9E7022224
:101E5000E7E70322E5E70422E3E70522E1E70622BC
:101E6000DFE70722DDE70822DBE70922D9E70A22BC
:101E7000D7E70B22D5E70C22D3E70D22D1E70E22BC
:101E8000CFE70F22CDE700BFE8690320B466032047
:101E9000F8B54A4C94F82830002B3DD0D4F8BC302B
:101EA000464A3BBBD2F8B43023BBD2F8AC300BBBB4
:101EB000D2F8A430F3B9D2F89C30DBB9D2F8943020
:101EC000C3B9D2F88C30ABB9D2F8843093B9D36FA0
:101ED00083B9536F73B9E36E63B9536E53B9D36D5E
:101EE00043B9536D33B9D36C23B9536C13B96FF045
:101EF0000B00F8BD9B68002BF9D0002201E09B6825
:101F000043B159681046914201D90A4608469B6878
:101F1000002BF4D10C38F8BD294B01219A6884F8C4
:101F2000281058680AB982089A605A26102220257B
:101F300040272662802622644FF48072A5644FF405
:101F40000075196827654FF48067A6654FF4006631
:101F500022664FF48052A5664FF40055A1F1140398
:101F60002767A6674FF48047C4F880204FF40046E7
:101F7000C4F888504FF480324FF400350344C4F85D
:101F800090704FF48027C4F898604FF40026C4F88E
:101F9000A0200222C4F8A8500125A1636363226136
:101FA000E060C4F8B070C4F8B8605D6065626560F8
:101FB00009F0EAFE0DF0B0FC25636FE7E869032045
:101FC000B466032030B1044B5B6B03EBC000436885
:101FD00058680C38704700BFE8690320024A9369CB
:101FE00001339361704700BFE8690320084AD16953
:101FF000536B013110B4D16103EBC00413F83020EE
:10200000013203F8302060685DF8044B08307047F7
:10201000E8690320F8B5584C01F0DCF994F8283051
:10202000002B57D0D4F8BC30534A9BBBD2F8B43005
:1020300083BBD2F8AC306BBBD2F8A43053BBD2F820
:102040009C303BBBD2F8943023BBD2F88C300BBB16
:10205000D2F88430F3B9D36FE3B9536FD3B9E36ED9
:10206000C3B9536EB3B9D36DA3B9536D93B9D36CE0
:1020700083B9536C73B96FF00B034049DA1781FBD6
:102080000313C2EB6313246A04FB03F403F04CFF55
:102090002046F8BD9B68002BF5D0002201E09B682C
:1020A00043B159681046914201D90A4608469B68D7
:1020B000002BF4D10C38B0F5800F0346DDD8226A2E
:1020C0002E4B02FB00F0A3FB00235C0903F02CFF66
:1020D0002046F8BD2A4B01219A6884F828105868D8
:1020E0000AB982089A605A261022202540272662C3
:1020F000802622644FF48072A5644FF4007519683D
:1021000027654FF48067A6654FF4006622664FF49A
:102110008052A5664FF40055A1F114032767A66706
:102120004FF48047C4F880204FF40046C4F888502C
:102130004FF480324FF400350344C4F890704FF4EC
:102140008027C4F898604FF40026C4F8A02002222B
:10215000C4F8A8500125A16363632261E060C4F85C
:10216000B070C4F8B8605D606562656009F00CFE2F
:102170000DF0D2FB256355E7E86903201F85EB517D
:10218000B4660320024A9369013B9361704700BF24
:10219000E869032003680B4A30B4044653F8085C2E
:1021A000506B10F83530012B03D9D16909B10139D1
:1021B000D1610022013B00F835301046226030BC6E
:1021C000704700BFE8690320034B5B6B03EBC00063
:1021D00040680830704700BFE86903202DE9F04FE0
:1021E0000E4683B0804601F0F5F8B400304600F0AA
:1021F000ABFFDFF81891A3198246D9F8002009EB4C
:1022000083035F68002A32D0BAF1000F3BD1A519D1
:10221000012309EB85056869C5F804802B72002845
:1022200063D1B8F1000F1CD034444FF0010AD8F844
:102230000820334609EB8404D8F80410D8F80000CD
:10224000CDF800A02569AA1AE568691A03F030F8EC
:102250006061304600F078FF00284BD1237A002BD4
:102260003AD103F061FE384603B0BDE8F08F264A4C
:102270004846012340F82C2FC9F8003004F0E0FF55
:10228000BAF1000FC3D05046344403F0A3F883469C
:10229000002009EB840403F0BDF8012500F0DEF80E
:1022A0000022D8F80000114600F0A2FBD8F8003058
:1022B00050465A88198803F005F95846C4F8048036
:1022C000257203F087F8304600F03EFF0028C5D0A5
:1022D000294603F007F9C4E7606902F0B5FF03F08F
:1022E00023FE384603B0BDE8F08F02F05FFCC5F86E
:1022F00014A096E7514603F0F5F803F015FE3846B2
:1023000003B0BDE8F08F00BFD5162100646703203D
:102310002DE9F04114460646884601F05BF8204658
:1023200000F012FFE8B9A7001B4D3B1905EB830332
:10233000DA68B24206D11B69434503D1BDE8F041DA
:1023400003F0F2BD3B1905EB83035869D0B93C4457
:1023500005EB8404E660C4F81080BDE8F04103F0AA
:10236000E3BD0D4B04EB840403EB840463689A68BB
:102370005968C2EB0802711A03F094F8BDE8F04105
:1023800003F0D2BD5B689A685968C2EB0802711A03
:1023900002F03CFCDBE700BF64670320174B1B68BF
:1023A00070B55D7C01F016F8154B012605EB850430
:1023B00003EB840463682672BBB1284600F0C4FEB8
:1023C00060B9237A1BB9BDE8704003F0ADBD606908
:1023D00002F03AFFBDE8704003F0A6BD314603F0BD
:1023E00081F8BDE8704003F09FBD29460548FFF71E
:1023F000F5FEBDE8704003F097BD00BFC4000020AB
:1024000064670320A8D42100C3B2CAB29A1A92B258
:1024100010B414B2002C1EDBC1F30722C0F3072353
:102420009B1A9BB21AB2002A12DB090C02FB02F2C1
:10243000C1EB104104FB042089B20CB2002C01DA7C
:1024400049420CB2A1B25DF8044B01FB0100704798
:102450005B421AB2E9E7524214B2DDE700212DE9EE
:10246000F041084682B000F0DFFE184F00F0B2FFE6
:10247000042005F079FF164B43F6FF763D461B69B5
:10248000804634466846DA6C1B6D174416441D447A
:102490001C44ADF80070ADF80460ADF80250ADF822
:1024A000064008F03FFE48B12346324629463846EA
:1024B00005F0D2FA08F0C8FC0028F5D1404605F036
:1024C00053FF03F031FD02B0BDE8F08101C0FFFF12
:1024D000B40000202DE9F047044682B00D461646B0
:1024E000002B37D09A46009651460B9B2046266813
:1024F0000A9AB047074618B9384602B0BDE8F087D7
:1025000006F0DCFE618A8046384606F02BFA013D73
:10251000384608F079FA404608F076FA002D1DDDBD
:102520004FF0000903E008F06FFA013D16D054F8AF
:102530001C6F0023CDF80090414620461A46B04754
:1025400006460028EFD1384606F002FC304602B0BD
:10255000BDE8F08706F0C0FE8246C4E740461D2174
:1025600008F054F8BAF1FF3FC6D000F033FF06F090
:1025700039FF60B9BA4502D0384608F059F903F07E
:10258000D3FC384602B0BDE8F0870028F4D0FFF74E
:102590001BFE80698742F8D1F1E700BF012B17DCF1
:1025A0002DE9F04107461C2090460D461E46FFF7D8
:1025B00053FB0446D0B16DB1056100232046A661EE
:1025C000A4F81480E76023606360A360BDE8F08135
:1025D00000207047074B53F826200AB9EDE71A464A
:1025E0001368002BFBD113692361E6E70020BDE8E7
:1025F000F08100BFC06A0320012B3BDC2DE9F843CA
:1026000081461C2090460F461E46FFF725FB0546D7
:1026100000287FD0414A002F31D00023DFF804E1A9
:1026200052F8264003609EF8001007618E428661D2
:10263000A0F81480C0F80C904360836002DB731C28
:102640008EF80030002C5DD021464C68002CFBD168
:10265000D9F80000CB681B6883422CDD096800298B
:10266000F8D148B92E4B163628461A6842F826503B
:10267000BDE8F883002070472846BDE8F88352F88B
:102680002610002930D0084600E018460368002BC9
:10269000FBD10069DFF88CE02B6028619EF8000018
:1026A000AE618642A5F81480C5F80C906B60AB60F3
:1026B000CBDB0C46C3E70AD04B6843B31D606B60AD
:1026C0008D4214BF0B4600234D602B60C9E7B8F163
:1026D000010FF1D104E0DC68194623688342EBDB8B
:1026E0000B68002BF7D1E7E7DFF838E001609EF8D0
:1026F000003086619E42A0F81480C0F80C904160C2
:102700008160D6DA42F82650D9F80000A9E742F8ED
:102710002650D5E70020BDE8F88300BFC06A03203B
:10272000C4000020B96A0320FFF734BA00283DD066
:1027300070B48469012C03DD0123184670BC704716
:102740001F4B1A78944221DA1E4D55F824300BB9EC
:1027500032E013465A68002AFBD1C268116802E0D1
:102760001B68002BE8D0DA6812689142F8DB10D0C1
:102770005A68F2B110604260984214BF1A460022B3
:10278000586000230260184670BC7047621C1A70C3
:10279000DAE7828A012AEBD104E0D6681346326870
:1027A0009142E5DC1A68002AF7D1E1E701231846D7
:1027B000704745F82400DFE745F82400BDE700BF77
:1027C000B96A0320C06A032000284DD02DE9F041EA
:1027D000DFF89CE0254F9EF80060BC4601E02846EB
:1027E0003DB384690568012CF9DCB44201DB661C49
:1027F000F6B257F824300BB933E013465A68002A72
:10280000FBD1C268116802E01B68002BE7D0DA68D0
:1028100012688A42F8DC10D05A68A2B11060426097
:10282000984214BF1A460022586002602846002DC4
:10283000D7D18EF80060BDE8F081828A012A0CD0E1
:102840005A68002AEAD147F82400E9E7D2F80C8058
:102850001346D8F800208A42DEDB1A68002AF5D138
:10286000DAE74CF82400BAE7704700BFC06A0320DB
:10287000B96A03200F4A816952F8213098420AD080
:1028800042680AB103681360036803B15A60002309
:10289000036043607047036842F821302BB1002287
:1028A0005A604268002AEED1F0E74268002AEAD175
:1028B000EDE700BFC06A03200020704701280EDC4E
:1028C000084B53F8200058B1C3681B681BB908E0D7
:1028D000C3681B6823B100680028F9D17047002045
:1028E00070477047C06A032000B970472DE9F04176
:1028F00082B01E4615460C460746FFF777FB02AB33
:10290000026843F8040D1846D2F80080FFF742FC35
:1029100033462A4621463846C04702B0BDE8F0811A
:102920002DE9F843074611F089FCDFF86C90074465
:1029300011F084FCDFF864803E1A002E22DD00F0E6
:102940007DFAD9F800309E42A8BF1E4600F042FD35
:10295000D8F80040FFF742FBB4B1254603F0E4FA93
:10296000013DFBD1304611F05FFC00F033FD013C2E
:10297000FBD1FFF707FC03F0D7FA11F05FFC3E1A1A
:10298000002EDCDCBDE8F883304611F04DFCFFF78B
:10299000F9FB03F0C9FAF0E7D0000020E868032053
:1029A00020B3F0B50C4683B00546164600F012FD84
:1029B000D4B1204608F018F8074638B1024621463F
:1029C000684604F011FB684608F00EF832462146CE
:1029D00047F6FF73284603F053FD384608F004F825
:1029E00003F0A2FA03B0F0BD2746EFE7704700BF3F
:1029F0002DE9F04FDFF8F89089B0044690460F4675
:102A000000F0E8FCD9F8003006A82588DA6C1E6DC5
:102A1000013D63881744B044013B7A19ADF8187042
:102A20004344ADF81A80ADF81C20ADF81E3008F014
:102A300079FB002851D0CB46DFF8B8A01BE040F06E
:102A4000020002F0FFFC26692EB3E0680122D4F8F0
:102A500008E041466388039202922288019038463A
:102A6000CDF800E03668B047284602F0EBFC08F0ED
:102A7000EBF9002831D0E668002002F0E3FC0546BF
:102A800016B13379002BDAD125F0020002F0DAFC1E
:102A90002669002ED9D1D9F800202146DAF8003075
:102AA000527CE0689847E188E0B16388012622887B
:102AB0000590A0680291414604903846B4F804E0BD
:102AC0000196CDF80CE0009604F0BEFD284602F019
:102AD000B9FC08F0B9F90028CDD103F025FA09B006
:102AE000BDE8F08F0129E0D1DBF80030986BDCE71E
:102AF000C4000020B40000202DE9F04F91B08046C2
:102B00001E460F46914600F065FC674B0EA81C68F8
:102B1000E56C246D05EB080305EB0902E11934446B
:102B20000793089202910194ADF83830ADF83C203B
:102B3000ADF83A10ADF83E4008F0F4FA002800F085
:102B40009780019B029A1A99C2EB030B9DF86820AB
:102B5000C1F307241B99BBF1000F5B46C1F30727A4
:102B60001A99B8BF0BF101030BFB02FEC1F307403A
:102B70001B995B109DF86CC0C1F307461A9903EBD3
:102B80000E05090E0A950BFB04353C1B03940BFB49
:102B90000034301A0BFB01335E460B950D931B9BE3
:102BA0000C94C1EB136304900593C2EB0C030693E2
:102BB00000F0BEFA1A9B1B9A0990934269D0002E2E
:102BC00052D0029D019A95425BDC0AAF86464FF0D7
:102BD000010B97E8800706E00BF1010B0135019B23
:102BE000A646AB422FDB70469AFBF6F499FBF6F152
:102BF00097FBF6F398FBF6FC2206059C43EA0C23B0
:102C0000A24442EA0144049A1C43029B9144069A5E
:102C1000AB421744039A9044E0DA7445DCD005F0E7
:102C200071FBBBF1010FCBEB050105F1FF33089AF6
:102C3000079822D004F010FF0135019B4FF0010BE3
:102C4000A646AB42CFDA204605F05CFBBBF1010F94
:102C500019D0019B089ACBEB03010798013104F0CE
:102C6000FBFE099805F04EFB08F0EEF800289FD116
:102C700003F05AF911B0BDE8F08F691E04F06AFE46
:102C8000ACE705F03FFB089A0199079804F062FE53
:102C9000E7E7184605F036FB019B089A029907986A
:102CA00004F0DAFEDDE700BFC4000020F0B5144FE9
:102CB00083B006460D46144600F08CFB3B68684620
:102CC000196DDA6C0E441544144433B2ADF800505B
:102CD000ADF80440ADF80230ADF8063008F022FA45
:102CE00050B13B682246314628465B6E1B689847C8
:102CF00008F0AAF80028F4D103F016F903B0F0BDEB
:102D0000C400002070B5134E82B005460C4600F09A
:102D100061FB33686846DA6C1B6D15441C442AB2AB
:102D200023B2ADF80420ADF80020ADF80630ADF8C0
:102D3000023008F0F7F948B13368214628465B6E47
:102D40005B68984708F080F80028F5D103F0ECF8AC
:102D500002B070BDC40000202DE9F04782B00446E7
:102D600089469246984600F035FB1E4B68461F6820
:102D70003E7EFD6C013E3F6D2C445544B2B2B944D9
:102D8000B844A61A5119C2EB09034244ADF80060D9
:102D9000ADF80410ADF80230ADF8062008F0C2F925
:102DA000D8B109F1010708F1FF362A464946204605
:102DB00004F0D0FD2A464146204604F0CBFD3246C1
:102DC0003946204604F020FE32463946284604F0B3
:102DD0001BFE08F039F80028E7D103F0A5F802B08F
:102DE000BDE8F087C400002070B582B006461446E6
:102DF0000D4600F0EFFA104B68461A68D36C126D5E
:102E00001E441544144433B2ADF80250ADF80640E8
:102E1000ADF80030ADF8043008F084F940B1224636
:102E20002946304604F0F0FD08F00EF80028F6D1EF
:102E300003F07AF802B070BDC40000202DE9F04123
:102E40000025124F124EDFF84C803C681CB1A047A1
:102E5000041C18BF012406F0B5F83368002818BF19
:102E600001244BB1984738B1D8F8003013B1012490
:102E700098473CB10125E8E7D8F80030002BF7D19E
:102E8000002CF7D12846BDE8F08100BFE46A03209A
:102E9000E86A0320E06A0320F0B583B007461646CF
:102EA0001C460D4600F096FA104B68461B68DA6C1B
:102EB0001B6D174416441D441C44ADF80070ADF85A
:102EC0000460ADF80250ADF8064008F02BF948B1A7
:102ED000234632462946384604F0BEFD07F0B4FFCB
:102EE0000028F5D103F020F803B0F0BDC4000020A5
:102EF000F0B583B0B0F90070B0F90260B0F90450D9
:102F0000B0F9064000F066FA104B68461B68DA6CB0
:102F10001B6D174415441E441C44ADF80070ADF8F9
:102F20000450ADF80260ADF8064008F0FBF848B177
:102F300023462A463146384604F08EFD07F084FFCA
:102F40000028F5D102F0F0FF03B0F0BDC40000206E
:102F5000002850D0C388013B10B5848880681F2B9F
:102F600047D8DFE803F0162346314646463C46463E
:102F700046464646464046464646464646464646F7
:102F8000464646464610A31002FB031150F82100A6
:102F900010BD02FB04F200EBD104C843A35C00F0B7
:102FA000070023FA00F000F0010010BD02FB04F25C
:102FB00000EB91046FEA4100A35C00F0060023FAE5
:102FC00000F000F0030010BD02FB04F200EB51041E
:102FD000CB07A05C4CBF00F00F00000910BD02FB46
:102FE0000404605C10BD631002FB031130F8110093
:102FF00010BD002010BD7047013800B51F2853D800
:10300000DFE800F0182752375252524452525252BF
:103010005252524A52525252525252525252525298
:10302000525252100198891000FB013352F82300CC
:103030005DF804FB019802EBD302DB4300FB01F0D7
:1030400003F00703105C20FA03F303F001005DF8BE
:1030500004FB019802EB93026FEA430300FB01F0CB
:1030600003F00603105C20FA03F303F003005DF89D
:1030700004FB019802EB5302DB0700FB01F0105C3C
:103080004CBF00F00F0000095DF804FB019800FB45
:103090000122D05C5DF804FB0198491000FB01336C
:1030A00032F813005DF804FB00205DF804FB00BF5C
:1030B000034B082153F82000C3689B6A184700BFE0
:1030C000C06A032010B500F085F904F005FD04F096
:1030D000A3FE044602F028FF204610BD10B50446AA
:1030E00000F078F9054B002120461B68DB695B681E
:1030F0009847044602F018FF204610BDC400002087
:1031000038B504460D4600F065F9064B29462046C1
:103110001B68DB695B689847044602F005FF2046A0
:1031200038BD00BFC400002008B106F0ADB870473C
:1031300010B500F04FF904F0D7FC04F06DFE044622
:1031400002F0F2FE204610BD012801D90020704790
:10315000014B53F820007047B067032010B500F012
:1031600039F9034B1B681C7C02F0DEFE204610BDC3
:10317000C400002010B500F02DF9044B1B68DB697A
:103180005C7E02F0D1FE204610BD00BFC4000020CE
:1031900070B504460E46154600F01CF9204631462F
:1031A0002A4604F00FFD044610B1002333602B6063
:1031B00002F0BAFE204670BD38B505460C4600F058
:1031C00009F9064A064BB2F90020B3F900302A602B
:1031D0002360BDE8384002F0A7BE00BFAE6A0320FE
:1031E000B06A0320044B3422352061219A70187094
:1031F00018461971DA707047AC000020027EC07E5C
:1032000002FB00F0704700BF024B53F820301B69EF
:1032100018687047C06A0320024B53F820301B69BE
:1032200058687047C06A032038B505460C4600F060
:10323000D1F8044B1B685D849C8402F075FE00206D
:1032400038BD00BFC400002090B583B000AF544A21
:10325000534B1B6823F001031360524B1B68C3F3ED
:103260000A0340F2494293420CBF01230023DAB221
:103270004C4B1B68C3F30A0340F251418B420CBF15
:1032800001230023DBB21343DBB21946454B1B6815
:10329000C3F30A0340F2524293420CBF01230023BE
:1032A000DBB20B43002B10D03F4B01221A6000BF52
:1032B0003D4B1B68002BFBD13C4B3D4A1A603B4BFE
:1032C0001B683C4A934218D0FEE73B4B1B68C3F394
:1032D0000A03B3F58A6F10D1384B01221A6000BF80
:1032E000364B1B68002BFBD1354B314A1A60344BEF
:1032F0001B68304A934200D0FEE703F01DF8314BC3
:103300002E221A7010F09EFF2F480DF0D5FF10F0FE
:10331000A9F9786004F0D0FC0346002B0CBF012310
:103320000023DCB204F00EFD0346002B0CBF01238A
:103330000023DBB22343DBB2002B09D004F0D2FC24
:10334000044604F015FD03461946204605F006F82C
:103350000021002002F0D4F806F092FBFEF716FBE5
:103360001A4B1B68002B12D00DE0184B1B681B6812
:10337000002B03D0154B1B681B689847134B1B6829
:103380005B68124A1360114B1B68002BEDD1104B88
:1033900001221A707B6818460C37BD4690BD00BFED
:1033A000002000E0002004E008300240003002402D
:1033B000C2A507F4CDB5E8B50010005C084C025872
:1033C000004C0258AC6A0320C86603204067032003
:1033D000B86A03202DE9F041224D6B6823B110F04B
:1033E00029FFAB68984204D010F044FF10F022FF90
:1033F000A8606B680133012B6B6001D0BDE8F081E0
:10340000194F3B68002B28DD0024264605E03AB31F
:1034100001363B687C349E421FDA10F00BFF2B68AC
:103420001A5923449042F2D17B68B342E6D0002B74
:1034300010DBC3EB43132A6802EB8308FFF73CFA67
:103440002A680A4B1444C8F87800221DA06F1A603D
:10345000FFF7BAF97E60BDE8F08100242646E3E775
:103460001860E1E7E46803208C010020C40000201C
:1034700010B582B028B9134B1B681C6E14B902B08A
:1034800010BD0446FFF7A6FF2046FEF7AFFD02ABD6
:10349000446943F8080D1846FEF77CFE1CB902F09B
:1034A00043FD02B010BD204602ACFEF79FFD8268CE
:1034B00044F8040D936898472046FEF76BFE02F02F
:1034C00033FDEEE7C400002000B97047014A114601
:1034D00000F002B801F0FFFF2DE9F047DFF8F880B7
:1034E00084B00C4615460646FFF774FF002001F035
:1034F000A9FFD8F80030814630461F6EFEF776FDF2
:1035000003680090986901F065FF324B82469C4247
:10351000009B53D01A895B89013AADF80840013B02
:10352000ADF80A5022442B44ADF80C20ADF80E3013
:1035300005F03EFA6846FEF72DFE02A807F0F2FD00
:1035400048BB504601F046FFFFF744FF002F3DD037
:10355000D8F800301B6EB3BB05F0BAFB3846FEF757
:1035600045FD04ACD8F8003044F80C0D1F66006827
:10357000FFF7DCF82046FEF70DFE04F093FF04F0A1
:10358000B3FE02F0D1FC484601F05CFF02F0CCFC37
:1035900004B0BDE8F0872A462146304600F0B0FC72
:1035A00007F052FC0028CCD02A462146304600F0D5
:1035B000A7FC07F049FC0028EDD1C2E7B3F90440AD
:1035C000B3F90650A6E701F0F7FEC5E701F0F4FEF7
:1035D000D7E700BF01F0FFFFC40000202DE9F04352
:1035E00085B00646904699460F46FFF7F3FE1C4A03
:1035F0001C4B1268507C53F8204001E02468FCB159
:10360000E3681A68042AF9D1DB6A01212046984749
:103610000546D8B12469A3689847013018D00C99A1
:103620004B4602944246009130460195394600F0DF
:10363000E3FA044602F078FC204605B0BDE8F083CA
:10364000FFF73CF9044648B1C368DDE70446F1E7FB
:103650000C9B054C43F001030C93E0E72046ECE79C
:10366000C4000020C06A032054C0210000B9704784
:1036700010B582B00446FFF7ADFE104B1B681B6E01
:103680009C4217D02046FEF7B1FC4369019063B914
:103690000068FFF749F801A8FEF77CFD2046FEF719
:1036A00059FA02F041FC02B010BD184602F022FCAB
:1036B0000198EDE701F080FEE4E700BFC4000020C0
:1036C0002DE9F04F87B0044692461D468946FFF724
:1036D00081FE574B1A68574B577CDB573846012BF6
:1036E00040F39A8004F0EEFA0646384604F030FBC8
:1036F0000746002C00F08D8005A904A8FFF75CFDAB
:10370000049A059B1644B4F900201F44B4F9023012
:1037100022EAE272013E23EAE373013F114602927C
:103720001846B4F9042003939642D4BFC1EB0601B6
:10373000C1EB0201B4F9063002460E469F42D4BFE7
:10374000C2EB0702C2EB030201361746013705B987
:103750007D42002E4FDD002F4DDD109B3246039938
:1037600000932B460298FFF739FF8046002848D087
:1037700000F098F88742064604D02D4B1B68986CE1
:10378000002851D140463D460024DFF8ACB000F09F
:1037900095F90EE0AD1BACB950463444C847DBF890
:1037A0000030FF2003B198474046FFF78DFEA74247
:1037B00012DDAE42EEDD2946404600F05FF9AD1B5A
:1037C000002CE9D0039B404602991A1900F0A6F993
:1037D0004046FFF74DFEDFE74046FFF747FF00207A
:1037E00000F06CF9B74206D0114B1B68986C10B111
:1037F000332108F0DBF902F097FB002007B0BDE8A9
:10380000F08F5046C84702F08FFB012007B0BDE89B
:10381000F08F039402949AE704F0FEF906463846C6
:1038200004F024FA074664E7322108F0BFF9A9E75B
:10383000C4000020BC6A03202869032030B5044678
:1038400083B098B1FFF7C6FD2046FEF7CFFB0368B3
:1038500002AD1B6945F8040D9B68984704F042FFD0
:1038600004462846FEF796FC02F05EFB204603B0B5
:1038700030BD00BFA0B110B5044682B0FFF7AAFD6D
:103880002046FEF7B3FB02AB00F1180443F8040D29
:103890001846FEF77FFC02F047FB204602B010BD41
:1038A000704700BF10B5044682B0FFF793FD7CB1AE
:1038B0002046FEF79BFB02ABB0F90A4043F8040D2B
:1038C0001846FEF767FC02F02FFB204602B010BD41
:1038D000044B1B681C6E002CEAD102F025FB20462D
:1038E00002B010BDC40000202DE9F04F804687B023
:1038F000002758E0002E7ED105F0EEFC804500F058
:103900009A80584B01264946224602935846564B08
:10391000009601932B4600F06FF981464046FEF772
:1039200065FB03460590C0F82490B9F1000F79D0EB
:10393000826A05A8DFF840B142F480329A62FEF74D
:1039400029FC484600F0BAF882463046474E02F05D
:1039500043FB4846FFF78EFF454B05FB04F2454C01
:10396000197892003568A84740462568CBF8008052
:1039700005F074FD2060404607F0EAFF0022256054
:103980001046CBF8002002F027FB504600F096F8D6
:103990004046FEF719FC406AB0FA80F35B09013734
:1039A000042F22DC0BB34046FEF720FB034605A89C
:1039B000B3F900B0B3F90290B3F90440B3F906507B
:1039C000CBEB04040593C9EB05055E6A0134FEF7F1
:1039D000E1FB0135002DC8BF002CD4BF012300231B
:1039E00088DC01370020042FDCDD08B100F0D2F8BC
:1039F00007B0BDE8F08F3046FEF7F8FA034606A898
:103A0000B3F9065040F8083DB3F90440FEF7C2FB95
:103A1000A94501D1A345BBD04A465946304600F0DE
:103A20007DF8B5E705A8FEF7B5FB404607F090FF27
:103A300033464846B3E704F029F9064604F06CF92A
:103A4000B44202DC85427FF75CAFB442A8BF344683
:103A50008542A8BF0546214640462A4606F092FF09
:103A60004FE700BF54C0210058F521009801002005
:103A70002C690320E46903206873032030B50D46E8
:103A800083B028B90C4B1B681C6E14B903B030BD51
:103A90000446FFF79FFC2046FEF7A8FAB0F90A306B
:103AA0000190AB42C8BF458101A8FEF773FB02F04D
:103AB0003BFA03B030BD00BFC4000020F0B5164F84
:103AC00083B00446FFF786FC3B681E6EE4B1C6B9BE
:103AD00005F0FEF82046FEF789FA02AD3B6845F88E
:103AE000040D1C660068FEF721FE2846FEF752FB17
:103AF00004F0D8FC04F0F8FB02F016FA304603B0EC
:103B0000F0BD01F059FCE3E701F056FC02F00CFABD
:103B1000304603B0F0BD00BFC400002070B50D46B4
:103B200082B0164628B91A4B1B681C6E14B902B035
:103B300070BD044636B22DB2FFF74CFC2046FEF7AE
:103B400055FAC6808580009004F0CEFB009B586932
:103B500030B96846FEF71EFB02F0E6F902B070BD10
:103B6000FEF744FA009B0190B3F90820B3F90A303C
:103B70008280C38013B10AB10580468001A8FEF798
:103B800009FB6846FEF706FB02F0CEF9E6E700BF48
:103B9000C400002000B9704770B5044684B0FFF738
:103BA00019FC2046FEF722FA014601A8B1F904608B
:103BB000B1F906500A894B89324401912B44ADF882
:103BC0000860013AADF80A50013BADF80C20ADF8A1
:103BD0000E30FEF7DFFA02A807F0A4FA40B12A4639
:103BE0003146204600F06EF907F02EF90028F6D194
:103BF00002F09AF904B070BD2DE9F04FDFF82C8186
:103C000087B082468B46D8F8000017461E461299A8
:103C1000437C00221198FEF7C1FC00284DD00369B7
:103C200005469B68984704F05DFD00FB07F481465C
:103C3000FEF7F0F9109B073413F001034FEAD404A8
:103C40003FD0002E2CDD002B42D004FB06F01830B4
:103C5000FDF728FF024668B3002302931046039243
:103C6000FEF7C4F9029A034606A8A3F804A0A3F835
:103C700006B01F815E81DC60C3F810905A6140F885
:103C8000043D1D60FEF786FA129AD8F800302A61CA
:103C9000039A1046AA605B7CAB6107B0BDE8F08F69
:103CA000002C34D1204676428642A8BF064693B304
:103CB000002ECADC2846FEF737FD002007B0BDE81D
:103CC000F08F0028B8BF0330801000EB4000B8E749
:103CD00000933A4633465946504602F07BF802902C
:103CE00004FB06F01830FDF7EBFE02460028B5D1C4
:103CF00028460392FEF718FD029B002BDDD01846E4
:103D0000FDF728FF039A104607B0BDE8F08F18387A
:103D1000B0FBF4F0C7E700933A46334659465046A5
:103D200002F058F8002E0290DADCC3E7C40000204D
:103D30002DE9F04FDFF880918BB05D4BD9F800C0D2
:103D4000DFF878819CF811E053F82E40D8F8003065
:103D5000D4F810E0002B00F0A6801646DCF86020B6
:103D600007460D46002A75D0E2681268072A78D007
:103D7000504AC2EB0E02B2FA82F25209002A70D007
:103D80003846FEF733F903460AA8B3F908B040F8FD
:103D9000083DB3F90AA00BEB0504DB68013C059371
:103DA000FEF7F8F9D9F80010B1F90C30B1F90800B4
:103DB000E41A002CCCBFC4EB0B045C4685425EDBEE
:103DC0000023002C43DD0AEB0600B1F90EE00138B8
:103DD000CEEB00000028C8BFC0EB0A0AB1F90A0008
:103DE000B04247DC0021BAF1000F079306912EDDA7
:103DF0003846FFF73FFD079BD9F80020069901FBE5
:103E00000B31136E00EB8107002B3CD01846FEF7F8
:103E1000EDF802460AA8B2F90410B2F906306D1A9C
:103E200040F8042DF31AA900D56801F1180605FB26
:103E300003661644FEF7AEF94EB1059B2246009587
:103E40003946019330465346D8F80040A0470BB09E
:103E5000BDE8F08FE2681268B2FA82F25209002AD5
:103E60008ED173463246294638460FF07BF90BB0A7
:103E7000BDE8F08F811B0646C1EB0A0AB3E7431B7E
:103E80000546E41A9DE7507C4FEA8B02DFF830E0EC
:103E90003B4602922946CDF804A032460094DEF853
:103EA0000040A047D3E773460FF05CF9CFE700BFAF
:103EB000C06A032054C02100C4000020CC6A032043
:103EC000C86A03202DE9F04182B00F4690460646AD
:103ED000FEF78CF8034602AC16211D68002044F85A
:103EE000043DEB685B6A984705462046FEF752F9A9
:103EF0001DB1424639463046A84702B0BDE8F081C0
:103F000000B970472DE9F04FA3B08B4692460446A6
:103F1000FEF76CF822AB456943F81C0D1846FEF716
:103F200039F92046FFF78AFC0828814640DD002D3C
:103F30003ED12046FEF75AF822AA0346B0F90810EF
:103F400042F8100D10460D92B3F90A200A91099219
:103F50001968DA680E690B930E92FEF71BF9924806
:103F600092490068D6F80480407C51F820100D6911
:103F70002B680C93FFF79CF808280B9B14D910288A
:103F80008BBF20221022042702270B92AE4200F0A2
:103F9000F882B9F1200F00F0B381B9F1100F00F0F1
:103FA000458123B0BDE8F08F082201270B92EDE791
:103FB0000021012320467C4E20910DF188080B91B1
:103FC00021930A93FEF712F8074630683A68FB68B7
:103FD000B7F908101269139314913B69B7F90A10E5
:103FE000407C0993169148F8147D5568D7F81490D1
:103FF000FFF75EF832680E90507CFFF70DF9074628
:104000004046FEF7C7F8099A0A9B082A0B9940F226
:104010009D80102A13460A918CBF042302230C931F
:10402000BD4200F0C1813368587CFFF7EDF8149B66
:1040300006469800FDF736FD10900028B1D02046C6
:10404000FFF718FC0446B9F1000F00F088804846DD
:10405000FDF7CCFF169B1E90002B40F3A18100239F
:10406000DDF83880CDF834A00B93139BCDF848B021
:10407000E31815931FAB19460F93836800225B6901
:104080001F920B9A9847159B139A04469B1A0E93FE
:10409000149B834200F0F680099B012B00F088807E
:1040A000002842D01CAB11931098FDF79FFF099B8D
:1040B00007461C90082B1F9A65D90C9BA3460E99A6
:1040C000824602FB031939F8020BA847B047BBF13F
:1040D000010B4AF8040BF6D1B8F11F0F04D838468B
:1040E0004246214601F08EFF0A9901231F9822467D
:1040F000059112991C9F084400210193009303919C
:10410000CDF808800D99049703F09EFA1198FEF7F8
:1041100041F81F9B1E981C440B9A83680F991F94AB
:104120005B69984704460028BED1159A13990B9BEA
:104130000A44013315920D9A0B9301320D92169A8F
:104140009A4200F02D811E980F9996E7012A03D11B
:1041500020AB0C920A9363E70C930A9160E7012568
:104160000A9B139A09990593049058460392029169
:104170005146169B149A0195009503F065FA109824
:10418000FDF7E8FC0DE70C9BA2460E99814602FB69
:10419000031B1BF8010BA847B047BAF1010A49F805
:1041A000040BF6D198E700BFC4000020C06A0320CA
:1041B0000028BAD0CDF8608019960B9F0A9EDDF8D2
:1041C0003880DDF83490DDF848A0DDF83CB0179574
:1041D0001192DDF87CE02246119D01230EF00700CC
:1041E00049460395012506900AEB0E00BEF1000F2B
:1041F00005960295B8BF0EF1070E0195009508EBE4
:10420000EE0ECDF810E004F05FF91F9B1E983A46C1
:104210001C44594683681F945B69984704460028EC
:10422000D7D1179DDDF86080199E7EE70A9B03FBBE
:1042300007F0FDF737FC109000283FF4B2AEFDF711
:10424000D5FE20902046FDF7D1FE00F118031E9008
:104250000E932B69002B00F0A6817369002B00F0F0
:10426000A281B0F908008000FDF71CFC1190002825
:1042700040F0BA811F900D98FDF78CFF20A8FDF744
:1042800089FF7CE71098FDF7B1FE099B81461C90E1
:10429000082B149F0446DDF838A028D93AF8020B01
:1042A000A847B047013F44F8040BF7D1B8F11F0FFE
:1042B00004D848464246149901F0A4FE22AB129855
:1042C0000D991A460A9B059300230393012352F884
:1042D00018EDCDF8088017460193149A0093CDF895
:1042E00010E003F0B1F93846FDF754FF1DE71AF866
:1042F000010BA847B047013F44F8040BF7D1D5E7BD
:104300000A9B07FB03F0FDF7CDFB0E9000283FF45E
:1043100048AEFDF76BFE20902046FDF767FE1E902D
:104320002C6900F11808002C00F0EB800A9A5C461A
:1043300001260A954FEA82099346CDF83090DDF8C0
:10434000249017E0042F21D0012F15D00B9B0020C3
:10435000209D51460293012305905A460390204622
:1043600001969A440096049503F06EF9B9F101099B
:1043700000F0E880022FE5D10C9D40463B465A46AE
:10438000A8440A9D20992D69A847DFE70C9B404669
:104390000A9D5A46984420993B462D69A847D5E77F
:1043A0001EA8FDF7F7FEEAE62046FFF763FA80460F
:1043B000B9F1000F00F0D4804846FDF717FE169BB8
:1043C0001E90002B40F3C88000261FABCDF834A010
:1043D0000125B146DA461F4683683246CDF87C9007
:1043E00039465B699847149B0446834231D0099B48
:1043F000012B57D020B30D9B0B9603EB060B1F9898
:1044000001230C990A9A01FB008E099E13995044CE
:104410000592224603915946CDF810E00296019587
:10442000009503F011F91F9B1E9839461C440B9A06
:1044300083681F945B69984704460028DFD10B9E70
:10444000139B01369844169BB34240F385801E9817
:10445000C2E7CDF82C80B346984600E0A3461E98EC
:104460000BF101043946836822465B699847804511
:10447000F4D00A9AC6EB0B03DDF82C805046059267
:1044800001330D9ACDF810809119139E099A039665
:1044900002920195149A06FB03880095264603F0C4
:1044A000D3F8D0E70028CBD00D9B0B9603EB060B7F
:1044B000DDF87CE022460A9E01230EF007005946F3
:1044C000059606900AEB0E00BEF1000F139E0295B2
:1044D000B8BF0EF1070E0396019508EBEE0E00959E
:1044E000CDF810E003F0F0FF1F9B1E9839461C44E6
:1044F0000B9A83681F945B69984704460028D7D1BC
:104500009DE7A1460125099E0123022F51460A9AE3
:1045100058460AEB030E00F0A981042F00F07D81BC
:104520009F4200F052810B9CF246CDF81490029409
:10453000209CCDF80C9001950095049403F084F82C
:10454000013EE1D10D98FDF725FE20A8FDF722FEE2
:104550000E98FDF7FFFA24E51EA8FDF71BFE20E5E7
:1045600001240A9B139A09990593049058460392D3
:1045700002915146169B149A0194009403F064F83A
:104580000FE50E9A01241833002503925146049337
:104590005846099BCDF808900A9A05950194009415
:1045A00003F052F8FDE40125DDF82890099E01236F
:1045B000022F51464A4658460AEB030E00F0D480BB
:1045C000042F00F0A0809F426DD00024019500953B
:1045D000F246059403940B9C0294209C049403F0EF
:1045E00033F8013EE3D146E6FDF700FD1F900028B9
:1045F0003FF441AE0A9A0124CDF828B04FEA4209AF
:1046000090460C95CDF83C90B146DDF838B017E0F7
:10461000042F2ED0012F28D00B9B0020209D514627
:10462000029301230590424603909A44019400941A
:104630000A98049503F008F8099B013B09932BD0D5
:10464000022FE5D1209B1E463B4642461F99584605
:10465000D9F81450A8470F9D31463B46AB440C9DFA
:1046600042461F982D69A847D6E7209B1E46022385
:10467000EBE7209B42460F9E58461D461F9902239A
:10468000B344D9F81460B04729460C9D3B464246D6
:104690001F982D69A847BFE71FA8FDF77BFD11985C
:1046A000FDF758FAE7E50A9B444609965D000C9E23
:1046B0000C95209DDDF83880DDF8289038F8020B45
:1046C000A047B047B9F1010905F8010BF6D10E9DDD
:1046D00001230B985146AE460C9D02905846AE44BD
:1046E000209DCDF814909A440A9ACDF80C90019729
:1046F00000970495CDF838E002F0A6FF099B013B36
:104700000993D6D1B7E50A9B0125099644465E0078
:104710000C9F0C96209EDDF83880DDF8289038F844
:10472000020BA047B847B9F1010946F8040BF6D1CE
:104730000E9E01230B985146B6460C9E0290584699
:10474000B644209ECDF814909A440A9ACDF80C9065
:10475000019500950496CDF838E002F075FF099BAD
:10476000013B0993D6D186E50A9B0125099644466B
:104770005E000C9F0C96209EDDF83880DDF82890B6
:1047800038F8020BA047B847B9F1010926F8020B27
:10479000F6D10E9E01230B985146B6460C9E029010
:1047A0005846B644209ECDF814909A440A9ACDF803
:1047B0000C90019500950496CDF838E002F044FF86
:1047C000099B013B0993D6D155E595000C9C0996B0
:1047D0000C95209D4646DDF8289056F8040BA0471E
:1047E000B9F1010905F8010BF7D10B980123209EBF
:1047F000514602905846CDF814909A440A9ACDF842
:104800000C900197009704960C9D02F01DFF099BE8
:10481000A844013B0993DCD194E609960125960052
:104820000C9C0C96209E4746DDF8289057F8040B08
:10483000A047B9F1010946F8040BF7D10B98012301
:10484000209F514602905846CDF814909A440A9AF7
:10485000CDF80C900195009504970C9E02F0F4FEA3
:10486000099BB044013B0993DCD16BE60996012515
:1048700096000C9C0C96209E4746DDF8289057F831
:10488000040BA047B9F1010926F8020BF7D10B98E8
:104890000123209F514602905846CDF814909A4427
:1048A0000A9ACDF80C900195009504970C9E02F0A1
:1048B000CBFE099BB044013B0993DCD142E600BF2B
:1048C00058B311B30AB3B1F90030F0B5B2F90050E2
:1048D000B2F902E0B1F902409D42B2F90470B2F9B6
:1048E0000660A8BF1D46B1F904207445B1F9063031
:1048F000A8BF7446BA420580B8BF3A46B342448066
:10490000B8BF33468280C380F0BD002908BF11467E
:104910000A684B68026043607047704778B189B29B
:10492000C38892B270B40688448885880E441444C3
:104930001A442944068044808180C28070BC70473C
:1049400070B4124D04462B686A6893420FD0104E23
:10495000B34293E8070014BF0C333C3B84E80700E4
:104960002B60207A003070BC18BF01207047094AC4
:10497000934204D013E9070084E80700F1E73C33D1
:1049800093E8070084E80700EBE700BFA0020020DF
:104990009C69032060690320034B09CBC01AB0FA5D
:1049A00080F04009704700BFA0020020F0B53C4EE7
:1049B00085B00446336D002B55D03A4A01AD3A49D3
:1049C000F36C116094E8070085E807000BB12846F6
:1049D0009847364F3C687B689C4232D0B342304A9D
:1049E00032D09DF80C00A3F10C0113F804EC8C46B6
:1049F000864535D18C4233D091423BD002F13C0EFA
:104A000011F8042C82423DD0734595E8070083E8F5
:104A100007000BD00C339C427B600BD0B36C0BB106
:104A20002846984700F09CFD05B0F0BD1C4B9C4209
:104A30007B60F3D11E4B9C4214BF0C343C3C3C6069
:104A4000ECE7DFF86CE0DFE79DF80C0096F8442017
:104A500082421DD106F13C0E744519D07146CFE754
:104A600002F13C0ED0E7134B304640F8503F02F0C5
:104A7000E7FBA2E791F8442001F13C0E8242C3D14A
:104A80006346C1E7B34208D0A3F10C0C6346BBE711
:104A900095E8070086E80700BCE7054BB4E700BFD0
:104AA000606903207473032019952000A002002080
:104AB0009C690320E517210010B5FEF78BFC0D4A19
:104AC000136851688B420FD00B4CA3424FF0010486
:104AD00093E8030014BF0833503B136005F094FCC7
:104AE00001F022FA204610BD002401F01DFA2046F4
:104AF00010BD00BF8401002098680320F0B5164C5B
:104B0000059F2568069CB5F908E0B5F90C6070456D
:104B1000B8BF7046B242A8BF324690421ADCB5F91F
:104B20000A60B5F90E50B142B8BF3146AB42A8BFDA
:104B30002B468B4203DAF0BD25682DB12C46E56883
:104B40002D6835F00405F7D106940597BDE8F040CF
:104B500003F06CBAF0BD00BFC4000020B0F9022021
:104B6000B1F906309A4214DCB1F90220B0F90630EE
:104B70009A420EDCB0F90020B1F904309A4208DC08
:104B8000B0F90400B1F900308342CCBF002001200D
:104B900070470020704700BF08B5034B01467422E0
:104BA0001868FBF7D8FB08BDC400002000B97047A7
:104BB00030B5044683B0FEF70DFC02AD20460EF082
:104BC000C5F92046FDF712FA45F8040D0068FDF717
:104BD00051FE2846FDF7DEFA2046FDF707FA019060
:104BE0000068FCF7D7FF019BD868FCF7B3FF019B77
:104BF000D869FCF7AFFF2846FDF7CCFA2046FCF752
:104C0000A9FF01F091F903B030BD00BF00B97047B2
:104C10002DE9F04F0446ABB00D4616461C921B9191
:104C2000FEF7D8FB2046FDF7E1F9B0F9043004683F
:104C30009D422790119400F05A810020FEF73EFF1C
:104C4000AE4B119A1B689269597C1F900846279DAC
:104C500019928242209118BF5A74B5F90430B5F9FF
:104C6000062019460793B5F90830104612925B1AD0
:104C7000B5F90A201C46121A0893164613922246CA
:104C80002B8A01329B071A92324602F101021D92D1
:104C900040F10E811B9B6A695B1A0392002B1C9AE0
:104CA0001493A2EB000440F3A78109934FF0010B8A
:104CB0000023DDF868901093002C40F3A8811D9B21
:104CC0004FF0000A1794169301231593119E8C4BF5
:104CD000B0691B56012B40F389810023ADF8A23047
:104CE000ADF8A03002F0EEFF431EB069ADF8A4307D
:104CF00003F02EF80138ADF8A60027985A4600F1C7
:104D0000140107F0E7FE2190002800F0D0802798DA
:104D10005A4600F1140107F0DDFE2390002800F050
:104D2000C180279BD868002840F08181169A52459F
:104D300000F0B4801A9B10999A00CDF810900AFBED
:104D40000313C4EB0A01D946229005EB83030D91AE
:104D500015990E93129B01FB02F223441E921893A5
:104D60004FEA8B03D3460593179B139A5B45109C20
:104D7000CCBF002301235A45B8BF00230B93129BDD
:104D80005B440F93189B5B440A93049B1A46A24210
:104D900075D01498079BC0EB040A0E9D03440C9336
:104DA0005A4621460398FEF7D3F8030E06465FD015
:104DB000099B089AA3420799CCBF00230123A24272
:104DC0000C9A214402EB0407BDF9A020B8BF0023D0
:104DD0000691BA420B9903EA01030DDCBDF9A2204A
:104DE0000A98824208DCBDF9A420BA4204DBBDF96E
:104DF000A620824280F2A9804FF00008002B00F02C
:104E00008580BAF1000F09DB0D9B002B06DB1A46EB
:104E100051460398FEF79CF8030E77D0BDF9A030F9
:104E20009F4223DBBDF9A2300A9883421EDCBDF904
:104E3000A430BB421ADBBDF9A630834216DB3046F4
:104E4000304B229EFF221B6846F07F419847199AFB
:104E50002D4B53F822301B691B689847219B024653
:104E60000A9900933846119B0DF09CFAC5F82080F2
:104E7000059B4C44CA441D44049BA34290D10E9B05
:104E80001E99159A0B4493440E930D9B1946169B3D
:104E900011445B450D917FF467AF279B23991868F8
:104EA0000CF048FF279B219918680CF043FF279DC1
:104EB0001B991A9B1C980B44A980421E1D99013B0B
:104EC000E8800A442B81199B6A811946209A9142F5
:104ED00002D00A4B1B685A741F98FEF7EFFD27A8F3
:104EE000FDF758F901F020F82BB0BDE8F08FB0F9CC
:104EF00006309E427FF4A1AEF1E700BFC40000205F
:104F0000BC6A0320D4000020C06A0320BDF9A03091
:104F1000069A934284DCBDF9A2200F9882423FF7A3
:104F20007FAFBDF9A42006998A42FFF679AFBDF99B
:104F3000A62001468242FFF673AF239B2A6A069899
:104F40000093119B0DF02EFA68E7DDF89C80B8F90C
:104F50000420BA422FDCB8F90810B9422BDBB8F9AB
:104F600006E00146864526DCB8F90A00884222DBC5
:104F7000D8F81400F8B12593BB1A194622930A9B5E
:104F8000CEEB03031A462493FDF7E2FF030E259BA5
:104F900011D0B8F90410B8F90820521A249902FB6C
:104FA000011222990A4408EB8208D8F8202042F026
:104FB0007F4090460FE0119A1068002833D0D0F857
:104FC0000CE039460A9ADEF814802293C047229BEF
:104FD000804640F07F402493199A9A4B53F8222040
:104FE000126952689047249B229007E7F368304685
:104FF00028A91B6B984780E60022089B4FF0FF39D9
:105000000992149ACB4610931344089354E61399CB
:1050100000224FF0FF3317920A4616938A46224425
:105020001593139252E680464FF07F40D3E7FCF78A
:10503000DDFF169B2690534500F099801A9B10992E
:105040009A00CDF810900AFB0313C4EB0A01D9466D
:105050000D9105EB830312990F934FEA8B032144C3
:10506000D346059318911599079B01FB02F22292F2
:10507000149A13440C93179B139A5B45CCBF0023DF
:1050800001235A45109AB8BF00230B93129B5B442F
:105090001E93189B5B440A93049B93425AD0144678
:1050A000149A0F9DC2EB040A5A4621460398FDF755
:1050B0004FFF0646002846D0099B089AA3420B9949
:1050C000CCBF00230123A242BDF9A020B8BF00231A
:1050D0001F460C9B03EB0408079B0F4042452344EB
:1050E0000CDCBDF9A2200A98824207DCBDF9A4209D
:1050F000424503DBBDF9A620824257DA0022069220
:10510000002F39D0BAF1000F0E9309DB0D9B002B55
:1051100006DB1A4651460398FDF71AFF0E9B58B35B
:10512000BDF9A02090450CDBBDF9A2300A998B4255
:1051300007DCBDF9A430434503DBBDF9A6308B4243
:1051400057DA069B2B62059B4C44CA441D44049BC2
:105150009C42A9D10F9B2299159A0B4493440F931B
:105160000D9B1946169B11449B450D9183D126A892
:10517000FDF710F8279B91E6BDF9A0209A42D1DCFB
:10518000BDF9A2101E9FB942CCDCBDF9A410994212
:10519000C8DBBDF9A610B942C4DB1846239B2A6AB6
:1051A00039460093119B0DF0FDF8B9E7279A069256
:1051B000B2F9042042450DDC0698B0F908104145CB
:1051C00008DBB0F906E00A998E4503DCB0F90A0065
:1051D000884218DA119A106800288FD0D0F80CE0B5
:1051E00041460E930A9ADEF8143098470E9B0690BB
:1051F00086E7269A4046119B52F82620219E00966B
:105200000DF0D0F89DE72593C2EB0803CEEB010229
:1052100006990E93486919462492FDF799FE259B3D
:105220000028D7D00698B0F90410B0F90820521A17
:10523000249902FB01120E990A4400EB8202126AC1
:1052400006925DE7C06A032000B9704770B5044656
:1052500082B0FEF7BFF82046FCF7C8FE038A009034
:105260009B0707D56D462846FCF794FF00F05CFECF
:1052700002B070BD204602AEFCF7B8FE03460068DF
:105280006D4646F8043DFDF751FA3046FCF782FFC3
:105290006846FCF77FFF20460DF06AFC2046FCF7CD
:1052A000A5FE038A009043F002030382DBE700BF00
:1052B0002DE9F047048882B0BDF82860002C4FD05B
:1052C0004488002C4CD0C468002C46D0A468002C24
:1052D00046D017468846054606F0010200213048B0
:1052E000FDF75CF98246002847D06B88B5F800903E
:1052F00003FB09F9FEF76EF84FEA890909F120006E
:10530000FCF7DEFB044678B3CAF80800FCF76EFE33
:1053100029886A880346013902A8013A1E8241445D
:1053200040F8083D3A445D61A3F80480DF801981AC
:105330005A81C3F800A0FCF72DFFEB682BB105F1F3
:105340000C01204607F06EFCA8B9B30717D400F093
:10535000EBFD204602B0BDE8F087C588202DB8D00F
:10536000204602B0BDE8F0875046FDF7DDF900F0B9
:10537000DBFD2046F5E700F0D7FD0020F1E72046F1
:1053800002ADFCF733FE0346006845F8043DFDF727
:10539000CDF92846FCF7FEFE20460DF0E9FBD6E7E6
:1053A0000CD6210008B5034B74221968FAF7D3FF15
:1053B00008BD00BFC400002008B5FEF70BF802F0DE
:1053C00045FF03F06FF803F0F3FABDE8084000F082
:1053D000ABBD00BF70B50D4D04462B685E7CFDF77C
:1053E000F9FF012C03D900F09FFD304670BD204627
:1053F000FDF764FA0028F6D02B685C74FFF7DCFF39
:10540000034B1C6000F090FD304670BDC4000020CE
:105410000C73032010B50446FDF7DCFF204602F0B4
:1054200037FFBDE8104000F07FBD00BF10B5044657
:10543000FDF7D0FF204602F065FFBDE8104000F008
:1054400073BD00BF10B50446FDF7C4FF204602F04F
:105450008BFF044600F068FD204610BD38B50446B9
:10546000FDF7B8FF044B1B68DD6904B1DC6100F097
:105470005BFD284638BD00BFC400002010B418B141
:1054800011B10346002002E0002101200B46034C2D
:10549000034A216013605DF8044B7047C86A03201B
:1054A000CC6A032070B504460D461646FDF792FF00
:1054B00029462046324602F077FF044600F034FDCC
:1054C000204670BD70B504460D461646FDF782FFB6
:1054D00029462046324602F081FF044600F024FDB2
:1054E000204670BD38B504460D46FDF773FF2946CA
:1054F000204602F0BFFF044600F016FD204638BDEE
:1055000070B505460C46FDF765FF094A094B29466B
:1055100010682246084E407C358053F82000074D25
:10552000C3682C801B6A9847BDE8704000F0FCBC43
:10553000C4000020C06A0320AE6A0320B06A0320C2
:1055400038B50546FDF746FF044B1B68B3F92A4002
:105550005D8500F0E9FC204638BD00BFC400002096
:10556000024B1B6803B11847704700BFF86803205F
:10557000024B1A6802B91860FFF7F2BF44680320B3
:1055800000B970472DE9F041DFF8C48082B00546CC
:10559000FDF720FFD8F80040A54244D06E461CB964
:1055A00019E0FCF7F7FDB4B12046FCF71FFD0346F8
:1055B00030469C680093A542F3D12846FCF716FDBF
:1055C0000346009A01A8996801939160FCF7E2FDF7
:1055D0003046FCF7DFFD2846FCF708FDD8F804400C
:1055E0000090A5421A4B2CD094B101AF02E0FCF719
:1055F000D1FD6CB12046FCF7F9FC034638465C68E7
:105600000193A542F3D1009A52685A60FCF7C2FD9B
:105610003046FCF7BFFD2846FCF79CFA00F084FCFE
:1056200002B0BDE8F08102AF2846FCF7DFFC8368DA
:1056300047F8040D38466E46C8F80030FCF7AAFD5E
:10564000C9E7426830465A60FCF7A4FDE3E700BFB3
:10565000B869032030B583B018B90124204603B0DF
:1056600030BD04460D46FDF7B5FE2046FCF7BEFCF6
:10567000828902AB2A4243F8040D184614BF012464
:105680000024FCF787FD00F04FFC204603B030BD3E
:105690000A4A002330B5146883B003605CB1054644
:1056A0002046FCF7A3FC02AB026943F8040D184640
:1056B0002A60FCF76FFD204603B030BDB8690320B7
:1056C000002370B50B6082B018B90446204602B0C2
:1056D00070BD0D46FCF78AFC846801AE01902CB9C0
:1056E0003046FCF757FD204602B070BD3046FCF74F
:1056F00051FD2046FCF77AFC036901902B60EFE72F
:10570000F0B50228CB4D4FF000062DED068B8DB085
:105710002E60189C00F00C8140F30581032800F0F6
:105720004B810996043C069604390096043A0A9681
:1057300003EB80070B96079608960496059601964C
:105740000296DDED0B5ADDED0A4A9DED085A9DEDFE
:10575000074ADDED052A9DED041A9DED022ADDEDD7
:10576000011ADDED000A9DED063ADDED093A54F827
:10577000046FB3EC017A07EE906A51F8046FB8EE4B
:10578000C77ABB4206EE106A52F8046FF8EEE77A69
:1057900006EE906AB8EEC66A32EE072AF8EEE66ABE
:1057A000E7EE070AE7EE271A72EEA72AA7EEA71A76
:1057B000A7EE063A35EE065AA7EE864AE7EE263AF7
:1057C00075EEA65AE7EEA64AD1D107EE900AB7EEDB
:1057D000006AF8EEE77A86EE020A86EE227AC6EED4
:1057E000276A23EE003A63EE803A60EE800A21EEEB
:1057F000800A8DED063ACDED093A27EE044A67EEB0
:10580000244A67EE211A27EE011A8DED074ACDEDE5
:105810000A4A26EE855A66EEA55A26EE822A66EEDA
:10582000A22A8DED085ACDED0B5A72EEC06A31EE08
:10583000C27A30EEC24A71EE623A27EE267AA4EEC0
:10584000237AB5EE407AF1EE10FA6CD09DED068A1F
:10585000F7EE009A9DED089A012362EE485ADDEDBD
:10586000094ADDED0B8A89EE875ADDED0A7A9DED56
:10587000073A2B6022EE646AE9EE205A21EEC9AAAB
:10588000A8EEA06A61EEE89AA3EE02AA65EE815A3C
:10589000E7EE829A26EE017A20EEC31AB0EE656A30
:1058A00060EEE70AA8EE211A33EE493AE4EEA10AC7
:1058B000AAEE006AA9EE807A77EEE85A74EEE84A1A
:1058C00072EE617A38EE498A66EE831AA1EE226A98
:1058D00066EEA56A28EE272AA0EEA27A67EEA47AE1
:1058E000F0EE612AE3EEA46AE4EE257AE3EE882A7C
:1058F000A4EE032A26EE056A27EE057A66EE856A8F
:1059000067EE857A85ED036A62EE854A85ED067A53
:1059100062EE055AC5ED046AC5ED057AC5ED014A8A
:10592000C5ED025A3FE001200DB0BDEC068BF0BD85
:105930001F6801264868D1F800E007EE907A5B689E
:10594000CEEB00006168DB1BB8EEE75A05EE900A6B
:10595000506806EE103A23681468F8EEE55AC91A42
:10596000B8EEC66A001B002207EE901A2E6006EE03
:10597000900AC5EE864AAA602A61B8EEE77A07EE79
:10598000903AF8EEE66AF8EEE77A86EE876A24EE59
:10599000C57AC5ED014A85ED037A66EE677A85ED35
:1059A000056AC5ED067A199B0020EB611A9B2B62F4
:1059B0000DB0BDEC068BF0BDD1ED007A91ED015A32
:1059C000B8EEE74AD2ED007AD1ED025AB8EEC55AE8
:1059D00092ED016AF8EEE74AD2ED026AF8EEE55A76
:1059E000D3ED007AB8EEC66AF8EEE66AD3ED011A96
:1059F000F8EEE70A93ED022AD4ED007AF8EEE11A08
:105A000094ED011AB8EEC22AD4ED022AB8EEE70AE4
:105A10008DED064AB8EEC11ACDED094AF8EEE22A3C
:105A20008DED075ACDED085A8DED0A6ACDED0B6A62
:105A3000FBE600BFB4680320012801D901207047AC
:105A400030B52A4C85B0256822D0E16005F006010A
:105A50002261062941D005F00505012D3DD0636185
:105A6000089BA36194F82C3043FA00F2D20758BF88
:105A70005AB24FF0010348BF002203FA00F010436E
:105A8000C0B2032884F82C0010D0002005B030BD2F
:105A9000E16105F005012262052922D005F0060525
:105AA000022D1ED06362089BA362DBE7104C2368C3
:105AB000587C02F007F923680546587C02F048F943
:105AC0000C4902900220A1F110030091A1F10802FB
:105AD00001951839FFF714FED8E7089AA3616261AF
