:020000040020DA
:1000000088480420D10220002DEC200047E2200087
:1000100029EC200015B92000D1F3200000000000D9
:100020000000000000000000000000000D022000A1
:100030000DBC20000000000069022000B7EC200089
:10004000EB022000EB022000EB022000EB0220007C
:10005000EB022000EB0220000FBC2000EB0220008E
:1000600025BC20002FBC2000EB022000EB0220006A
:10007000EB022000EB022000EB022000EB0220004C
:10008000EB022000EB022000EB022000EB0220003C
:10009000EB022000EB022000EB02200039BC200024
:1000A000EB022000EB022000EB022000EB0220001C
:1000B000EB022000EB022000EB022000EB0220000C
:1000C000EB022000EB022000EB022000EB022000FC
:1000D000EB022000C1F32000EB022000EB02200025
:1000E00019BC2000EB022000EB022000EB022000F4
:1000F000EB022000EB022000EB022000EB022000CC
:10010000EB022000EB022000EB022000EB022000BB
:10011000EB022000EB022000EB022000EB022000AB
:10012000EB022000EB022000EB022000EB0220009B
:10013000EB022000EB022000EB022000EB0220008B
:10014000EB022000EB022000EB022000EB0220007B
:10015000EB022000EB022000EB022000EB0220006B
:10016000EB022000EB022000EB022000EB0220005B
:10017000EB022000EB022000EB0220000000000058
:10018000EB022000EB022000EB022000EB0220003B
:10019000EB022000EB022000EB022000EB0220002B
:1001A000EB022000EB022000EB022000EB0220001B
:1001B000EB022000EB022000EB022000EB0220000B
:1001C000EB022000EB02200000000000EB02200008
:1001D000EB022000EB022000EB022000EB022000EB
:1001E000EB022000EB022000EB022000EB022000DB
:1001F000EB022000EB022000DFF80CD000F0FEF84C
:1002000000480047A1F52000884804202D4B1968BC
:100210000868B0E8F04F80F30988BFF36F8F4FF0A4
:10022000000080F311887047000000000848006853
:10023000006880F308884FF0000080F3148862B6ED
:1002400061B6BFF34F8FBFF36F8F00DF00BF00BFFA
:1002500008ED00E0DFF80C00016841F47001016076
:10026000704700BF88ED00E0EFF30980BFF36F8FA8
:10027000144B1A681EF0100F08BF20ED108A20E9F9
:10028000F04F106009B44FF0500072B680F311883F
:10029000BFF34F8FBFF36F8F62B610F031F94FF09D
:1002A000000080F3118809BC19680868B0E8F04FB5
:1002B0001EF0100F08BFB0EC108A80F30988BFF35E
:1002C0006F8F70472C000020EFF30580704700000F
:1002D0000648804706480047FEE7FEE7FEE7FEE7E0
:1002E000FEE7FEE7FEE7FEE7FEE7FEE7B5ED2000EE
:1002F000F90120002DE9F05F0546002092469B465B
:1003000088460646814640241BE02846414647462B
:10031000224600F062F853465A46C01A914110D363
:1003200011461846224600F049F82D1A67EB0108DD
:100330004F4622460120002100F040F817EB00094B
:100340004E41201EA4F10104DFDC484631462A4616
:100350004346BDE8F09F10B5441A0346944209D2C3
:100360008418114403E011F8013D04F8013D521EC8
:10037000F9D210BD40EA0104A40703D009E010C976
:10038000121F10C3042AFAD203E011F8014B03F83C
:10039000014B521EF9D210BDD2B201E000F8012B80
:1003A000491EFBD270470022F6E710B513460A46F5
:1003B00004461946FFF7F0FF204610BD202A04DB53
:1003C000203A00FA02F1002070479140C2F1200368
:1003D00020FA03F3194390407047202A04DB203AA7
:1003E00021FA02F00021704721FA02F3D040C2F155
:1003F000200291400843194670470000064C074D03
:1004000006E0E06840F0010394E8070098471034E4
:10041000AC42F6D3FFF7F4FED85B2100F85B210075
:10042000204B70B51E6801F0C9F91F4C00253046FD
:1004300004F020FC02F08CFF1C4B1E6801F0BEF99A
:10044000304604F051FC02F083FF01F0B7F90122BD
:1004500023681A7602F07CFF01F0B0F923689D85CD
:1004600002F076FF01F0AAF923685D8502F070FFC3
:1004700001F0A4F9284604F04FFC02F069FF0C4B90
:100480001D6801F09BF9236805B1DD6102F060FF92
:1004900001F094F9236800229A76BDE8704002F0DA
:1004A00057BF00BFA8000020AC000020A40000201F
:1004B000A00000202DE9F04F5C4E8DB03368DA6962
:1004C000B3F92250D469B4F80CB0834500F2978098
:1004D000E1898142C0F093802168CBEB000B089149
:1004E0004FF0FF310A91BBF1FF3F00F0828092F89C
:1004F0001880A27CB3F92A10B3F9249018FB02F3F8
:10050000084607911F4694F810A004F005FCD6F8A1
:1005100000E008994346DEF838C05246099007FBD0
:100520000B10DEF81CE00B97012704904946CDF82C
:1005300014C0284694F812C00297CDF80CC09EF85B
:100540001BC0DFF8E8B0CDF804C09EF81AE0CDF883
:1005500000E003F00FFE0A9F7B1C25D0079941F0B5
:10056000020004F0D9FBDBF800100B9A4346089810
:10057000D1F838C002FB0700D1F81CE00127CDF804
:1005800014C00490524694F812C049460297284677
:10059000CDF80CC09EF81BC0CDF804C09EF81AE040
:1005A000CDF800E003F0E6FD3368DFF88080DB691A
:1005B0005A7E1B7E9A4215D9079B022B12D083F0DC
:1005C000040004F0A9FBD8F800302846DB691F7E40
:1005D000D97E9A7E5B7E07FB01910AFB02524B4457
:1005E00003F0A8FF9DF8240004F096FB3368B3F9EC
:1005F0002250627C15445D840DB0BDE8F08FA16887
:100600000029F6D00F88B842F3D3B1F802E086454E
:10061000EFD3C01B4968676880B2089701EB800779
:1006200031F920B0B7F902100A915CE7AC00002064
:10063000044B1B68DB69DB6909B11A7C0A60587CD2
:10064000704700BFAC00002002230B80704700BF42
:10065000C3699A898A4202D8DA898A4211D2986893
:1006600018B10388994201D20020704742888A421B
:10067000FAD3C91A436833F82100C043C0F3C0302D
:1006800070470120704700BF2DE9F04F3A4D89B007
:100690002B68DA69B3F92A90D36943B11A8890427A
:1006A00002D35988814205D29B68002BF6D109B04C
:1006B000BDE8F08F841AD3F80480484608EBC406DE
:1006C00096F802B004F028FB8246286818F8342017
:1006D0004FF0010EC769D0F838C0B0F92410B0F956
:1006E00022003B7E0790CDF814C07068CDF80CB0A6
:1006F0000490CDF808E097F81BE00798CDF804E0E7
:10070000BF7E009703F036FD2B68DA69537E177EB3
:10071000BB4223D9B9F1020F07931FD092F81BB047
:1007200000F0F2FE814600F0BDFE02F0BBFB124B72
:1007300018F834E01868079BC169B0F92240CA7EF6
:10074000B0F9241020460EFB02420BFB03130BFBF7
:10075000071103F0EFFE484602F0A4FB504604F0F8
:10076000DBFA2B687178D8695A8C807E00FB0122F5
:100770005A8409B0BDE8F08FAC000020114B1B6813
:1007800070B4DD69EB6943B11A88904202D35C888A
:10079000844205D29B68002BF6D1184670BC704786
:1007A000821A5E68AC7E06EBC2035B7813FB04F032
:1007B0000029F3D016F8323014FB03F370BC0B6041
:1007C000704700BFAC00002001230B80704700BFC2
:1007D000C06950B103888B4202D843888B4203D250
:1007E00080680028F6D17047012070472DE9F04756
:1007F000244F3D68002D3FDD234EC5EB4515DFF846
:100800008C804FF0000A3468D8F8009004EB85051E
:100810000C340C35A4F10803742249461846FFF73E
:100820009AFD221F2063A06344F80CAC6263E4606D
:100830007C34A542EED10024254603E082B13A681B
:10084000954213DA0BF0D2FB336801351A591919A6
:100850007C349042F2D10431C8F80010BDE8F08732
:1008600008600431C8F80010BDE8F087194604316B
:10087000C8F80010BDE8F087034BDFF81080196856
:10088000E9E700BFC0000020C4420420AC00002003
:10089000F8B5184F184B3846184E40F80C3F03F087
:1008A000A7FB3468C4EB4414A400204600F0ACF865
:1008B000134B224600211B68386098474FF0FF33E6
:1008C00073600BF09DFB3368002B0FDD0024254681
:1008D00003E062B133689D4208DA0BF087FB3B68A6
:1008E00001351A5923447C349042F2D1F8BD186086
:1008F000F8BD00BFC442042095A82000C00000201D
:10090000CC00002000B9704710B5044600F056FF37
:10091000204606F07FFD044602F01AFD204610BD79
:10092000F8B5054600F04AFF25B9002402F010FD95
:100930002046F8BD00F042FF284606F06BFD044655
:1009400002F006FD002CF0D0144E2A46144F002170
:10095000F069736B013003EBC405F06113F83400E8
:10096000013003F834006D683B6805F108009847D2
:100970002968726B12F83130012B01D9F06930B956
:10098000013B02F8313002F0E3FC2046F8BD0138AB
:10099000013BF06102F83130F5E700BF7C430420F1
:1009A000CC00002021F00301014B83E803007047D5
:1009B000AC41042000B9704770B50D4C054600F0FD
:1009C000FDFEEE00636B33445968486806F074FB23
:1009D0006368626B0021606A013316446360706073
:1009E00002F835106562BDE8704002F0B1BC00BF8E
:1009F0007C43042028B1034AD36B036003B15860E1
:100A0000D06370477C430420F8B58B4E044696F8BB
:100A10002830002B2FD00334356CF26B24F0030404
:100A20000434A54238BF254662B152F8043C14464E
:100A30009D4204D114E054F8043C9D4210D0246837
:100A4000002CF8D1F368B46B1C4454F8041C611AF0
:100A50000B68002B68D14B689D426FDD002408E0D5
:100A600023680BB161685960616801B10B60A242F3
:100A700056D02046F8BD714B01219A6886F828109F
:100A800058680AB982089A605A27102220254FF028
:100A9000400E3762802732644FF48072B5644FF4A1
:100AA00000751968C6F850E04FF4806EB7654FF4D2
:100AB000006732664FF48052B5664FF40055A1F1DD
:100AC0001403C6F870E0B7674FF4804EC6F8802074
:100AD0004FF40047C6F888504FF480324FF4003589
:100AE0000344C6F890E04FF4802EC6F898704FF497
:100AF0000027C6F8A0200222C6F8A8500125B1633D
:100B00007363C6F8B0E03261F060C6F8B8705D603B
:100B10007562756006F0D0FA08F0DCFD35637AE79F
:100B200023682046F363F8BD00200AF05FF854F80C
:100B3000041C611A0B68002B90D18CE7581BD6F867
:100B4000B8703D4A041DBB420C4472D2D2F8B0705A
:100B5000BB426CD2D2F8A870BB4266D2D2F8A07069
:100B6000BB4260D2D2F898709F425AD9D2F89070A6
:100B7000BB4254D2D2F88870BB424ED2D2F88070B9
:100B8000BB4248D2926F934243D2376F2A4ABB424C
:100B90003DD2976EBB4238D2176EBB4233D2976DAF
:100BA000BB422ED2176DBB4229D2976CBB4224D2D6
:100BB000126C93420CD2F2687369521B2B44F260A0
:100BC000736110B944F8045C53E706F075FAF9E76D
:100BD00000223768D1F808E0FF1ACB683760BEF111
:100BE000000F01D0CEF8043013B1C3F800E0E2E703
:100BF00006EBC202C2F844E0DDE70122E9E7022287
:100C0000E7E70322E5E70422E3E70522E1E706221E
:100C1000DFE70722DDE70822DBE70922D9E70A221E
:100C2000D7E70B22D5E70C22D3E70D22D1E70E221E
:100C3000CFE70F22CDE700BF7C430420AC41042066
:100C4000024A936901339361704700BF7C430420DB
:100C5000084AD169536B013110B4D16103EBC00470
:100C600013F83020013203F8302060685DF8044B3F
:100C7000083070477C430420F8B5584C00F09EFDC6
:100C800094F82830002B57D0D4F8BC30534A9BBB83
:100C9000D2F8B43083BBD2F8AC306BBBD2F8A430FE
:100CA00053BBD2F89C303BBBD2F8943023BBD2F874
:100CB0008C300BBBD2F88430F3B9D36FE3B9536FE8
:100CC000D3B9E36EC3B9536EB3B9D36DA3B9536D42
:100CD00093B9D36C83B9536C73B96FF00B0340496C
:100CE000DA1781FB0313C2EB6313246A04FB03F4DA
:100CF00002F02EFB2046F8BD9B68002BF5D00022A9
:100D000001E09B6843B159681046914201D90A46F7
:100D100008469B68002BF4D10C38B0F5800F0346D1
:100D2000DDD8226A2E4B02FB00F0A3FB00235C09F6
:100D300002F00EFB2046F8BD2A4B01219A6884F888
:100D4000281058680AB982089A605A26102220256D
:100D500040272662802622644FF48072A5644FF4F7
:100D60000075196827654FF48067A6654FF4006623
:100D700022664FF48052A5664FF40055A1F114038A
:100D80002767A6674FF48047C4F880204FF40046D9
:100D9000C4F888504FF480324FF400350344C4F84F
:100DA00090704FF48027C4F898604FF40026C4F880
:100DB000A0200222C4F8A8500125A1636363226128
:100DC000E060C4F8B070C4F8B8605D6065626560EA
:100DD00006F072F908F07EFC256355E77C43042099
:100DE0001F85EB51AC410420024A9369013B93619A
:100DF000704700BF7C43042003680B4A30B40446AC
:100E000053F8085C506B10F83530012B03D9D169C9
:100E100009B10139D1610022013B00F8353010469B
:100E2000226030BC704700BF7C430420034B5B6BE7
:100E300003EBC00040680830704700BF7C430420CB
:100E4000C3B2CAB29A1A92B210B414B2002C1EDB0A
:100E5000C1F30722C0F307239B1A9BB21AB2002AE0
:100E600012DB090C02FB02F2C1EB104104FB04206F
:100E700089B20CB2002C01DA49420CB2A1B25DF881
:100E8000044B01FB010070475B421AB2E9E7524292
:100E900014B2DDE700212DE9F041084682B000F0F0
:100EA000B7FB184F00F08AFC042003F035FF164B07
:100EB00043F6FF763D461B69804634466846DA6C49
:100EC0001B6D174416441D441C44ADF80070ADF86A
:100ED0000460ADF80250ADF8064005F0A7FB48B13C
:100EE000234632462946384603F024FB05F05AFAD9
:100EF0000028F5D1404603F00FFF02F029FA02B0B6
:100F0000BDE8F08101C0FFFF9C000020012B17DC31
:100F10002DE9F04107461C2090460D461E46FFF77E
:100F200073FD0446D0B16DB1056100232046A66172
:100F3000A4F81480E76023606360A360BDE8F081DB
:100F400000207047074B53F826200AB9EDE71A46F0
:100F50001368002BFBD113692361E6E70020BDE88D
:100F6000F08100BF54440420012B3BDC2DE9F84301
:100F700081461C2090460F461E46FFF745FD05465C
:100F800000287FD0414A002F31D00023DFF804E150
:100F900052F8264003609EF8001007618E42866179
:100FA000A0F81480C0F80C904360836002DB731CCF
:100FB0008EF80030002C5DD021464C68002CFBD10F
:100FC000D9F80000CB681B6883422CDD0968002932
:100FD000F8D148B92E4B163628461A6842F82650E2
:100FE000BDE8F883002070472846BDE8F88352F832
:100FF0002610002930D0084600E018460368002B70
:10100000FBD10069DFF88CE02B6028619EF80000BE
:10101000AE618642A5F81480C5F80C906B60AB6099
:10102000CBDB0C46C3E70AD04B6843B31D606B6053
:101030008D4214BF0B4600234D602B60C9E7B8F109
:10104000010FF1D104E0DC68194623688342EBDB31
:101050000B68002BF7D1E7E7DFF838E001609EF876
:10106000003086619E42A0F81480C0F80C90416068
:101070008160D6DA42F82650D9F80000A9E742F894
:101080002650D5E70020BDE8F88300BF5444042073
:10109000AC0000204D440420FFF7ACBC00283DD03C
:1010A00070B48469012C03DD0123184670BC7047BD
:1010B0001F4B1A78944221DA1E4D55F824300BB993
:1010C00032E013465A68002AFBD1C268116802E078
:1010D0001B68002BE8D0DA6812689142F8DB10D068
:1010E0005A68F2B110604260984214BF1A4600225A
:1010F000586000230260184670BC7047621C1A706A
:10110000DAE7828A012AEBD104E0D6681346326816
:101110009142E5DC1A68002AF7D1E1E7012318467D
:10112000704745F82400DFE745F82400BDE700BF1D
:101130004D4404205444042000284DD02DE9F041B2
:10114000DFF89CE0254F9EF80060BC4601E0284691
:101150003DB384690568012CF9DCB44201DB661CEF
:10116000F6B257F824300BB933E013465A68002A18
:10117000FBD1C268116802E01B68002BE7D0DA6877
:1011800012688A42F8DC10D05A68A2B1106042603E
:10119000984214BF1A460022586002602846002D6B
:1011A000D7D18EF80060BDE8F081828A012A0CD088
:1011B0005A68002AEAD147F82400E9E7D2F80C80FF
:1011C0001346D8F800208A42DEDB1A68002AF5D1DF
:1011D000DAE74CF82400BAE7704700BF5444042013
:1011E0004D4404200F4A816952F8213098420AD0B8
:1011F00042680AB103681360036803B15A600023B0
:10120000036043607047036842F821302BB100222D
:101210005A604268002AEED1F0E74268002AEAD11B
:10122000EDE700BF544404200020704701280EDC85
:10123000084B53F8200058B1C3681B681BB908E07D
:10124000C3681B6823B100680028F9D170470020EB
:1012500070477047544404202DE9F84307460AF0CC
:10126000C9FEDFF86C9007440AF0C4FEDFF8648022
:101270003E1A002E22DD00F0DDF8D9F800309E4243
:10128000A8BF1E4600F09AFAD8F80040FFF7D8FC35
:10129000B4B1254602F05CF8013DFBD130460AF0BE
:1012A0009FFE00F08BFA013CFBD1FFF79DFD02F0A1
:1012B0004FF80AF09FFE3E1A002EDCDCBDE8F883F2
:1012C00030460AF08DFEFFF78FFD02F041F8F0E79F
:1012D000B0000020C84204202DE9F04F4A4D83B0F1
:1012E000044600F06BFA00F01BF92B680646B3F9D0
:1012F000228000F059F92B681FFA80F99A8CC9EB0B
:10130000020212B29A84217800294FD0B6B22F4639
:1013100047F6FF71204602F009FD0146834620464C
:1013200002F0C4FC29688B8D03F00303012B5AD013
:10133000022B5CD01FFA80FA4FF0000E4B8C0AF1A2
:10134000FF3CB1F92420CEEB0303ADF80220013AB3
:101350009BB2B0186A460FFA83FE6344ADF80600EC
:101360002046A1F822E05946ADF800E0ADF804307F
:1013700002F038FA2B682046BDF8022059469A84BC
:1013800001F0BCFE235C04440A2B1BD00D2B19D0AA
:10139000BDF800003B688244A3F822A022781AB16D
:1013A00062780134002AB3D1B3F92420998D914495
:1013B00021F00302A3F824909A8501F0C9FF03B03D
:1013C000BDE8F08F2B689A8D02F00302013A012AE2
:1013D00016D8A3F8228022780A2AE0D19A8C3244C7
:1013E0009A842278DBE71FFA80FEF246A6E70028FF
:1013F00003461FFA80FAB8BF431CC3F34F0E9DE7A4
:101400001A8C5A84E7E700BFAC00002070B50E4686
:101410001546044600F0D2F9054B1B685E849D8496
:1014200014B12046FFF758FFBDE8704001F090BFAF
:10143000AC0000202DE9F0410025124F124EDFF8DC
:101440004C803C681CB1A047041C18BF012404F068
:10145000CDF83368002818BF01244BB1984738B144
:10146000D8F8003013B1012498473CB10125E8E7D2
:10147000D8F80030002BF7D1002CF7D12846BDE872
:10148000F08100BF784404207C440420744404208C
:10149000034B082153F82000C3689B6A184700BF1C
:1014A0005444042010B500F089F903F083F803F0E8
:1014B00021FA044601F04CFF204610BD10B5044649
:1014C00000F07CF9054B002120461B68DB695B6856
:1014D0009847044601F03CFF204610BDAC000020B8
:1014E00038B504460D4600F069F9064B29462046FA
:1014F0001B68DB695B689847044601F029FF2046BA
:1015000038BD00BFAC00002010B500F057F903F063
:1015100059F803F0EFF9044601F01AFF204610BD18
:1015200010B500F04BF9044B1B68DB695C7E01F0E1
:101530000FFF204610BD00BFAC00002070B5044670
:101540000E46154600F03AF9204631462A4603F089
:10155000A7F8044610B1002333602B6001F0F8FEB9
:10156000204670BD38B505460C4600F027F9064AFE
:10157000064BB2F90020B3F900302A602360BDE8C1
:10158000384001F0E5BE00BF42440420444404203A
:10159000044B3422352061219A7018701846197155
:1015A000DA7070479400002010B500F007F90F4B77
:1015B0001A68938D03F00C03082B08D00C2B06D06F
:1015C000042B0BD0002401F0C3FE204610BDD369CC
:1015D0001C7E01F0BDFE6408204610BDD3691C7E50
:1015E00001F0B6FE013C204610BD00BFAC0000205B
:1015F000024B53F820301B6918687047544404208C
:10160000024B53F820301B6958687047544404203B
:1016100038B505460C4600F0D1F8044B1B685D84D4
:101620009C8401F095FE002038BD00BFAC00002076
:1016300090B583B000AF544A534B1B6823F00103AD
:101640001360524B1B68C3F30A0340F249429342B2
:101650000CBF01230023DAB24C4B1B68C3F30A030F
:1016600040F251418B420CBF01230023DBB21343F4
:10167000DBB21946454B1B68C3F30A0340F25242E2
:1016800093420CBF01230023DBB20B43002B10D08D
:101690003F4B01221A6000BF3D4B1B68002BFBD162
:1016A0003C4B3D4A1A603B4B1B683C4A934218D066
:1016B000FEE73B4B1B68C3F30A03B3F58A6F10D1F7
:1016C000384B01221A6000BF364B1B68002BFBD140
:1016D000354B314A1A60344B1B68304A934200D074
:1016E000FEE702F03DF8314B2E221A700AF086FC1C
:1016F0002F4808F0C1FE0AF085F8786003F04AF838
:101700000346002B0CBF01230023DCB203F088F852
:101710000346002B0CBF01230023DBB22343DBB2C3
:10172000002B09D003F04CF8044603F08FF8034671
:101730001946204603F0EAFA0021002001F0DAFB06
:1017400004F0D6F8FFF752F81A4B1B68002B12D0A2
:101750000DE0184B1B681B68002B03D0154B1B6852
:101760001B689847134B1B685B68124A1360114B48
:101770001B68002BEDD1104B01221A707B681846B4
:101780000C37BD4690BD00BF002000E0002004E003
:101790000830024000300240C2A507F4CDB5E8B5DC
:1017A0000010005C084C0258004C025840440420D1
:1017B000C0410420384204204C4404202DE9F0416B
:1017C000224D6B6823B10AF011FCAB68984204D03B
:1017D0000AF02CFC0AF00AFCA8606B680133012BAC
:1017E0006B6001D0BDE8F081194F3B68002B28DD0C
:1017F0000024264605E03AB301363B687C349E421D
:101800001FDA0AF0F3FB2B681A5923449042F2D1F5
:101810007B68B342E6D0002B10DBC3EB43132A688E
:1018200002EB8308FFF700FD2A680A4B1444C8F84E
:101830007800221DA06F1A60FFF77EFC7E60BDE875
:10184000F08100242646E3E71860E1E7C442042063
:10185000C0000020AC00002010B582B028B9134BA6
:101860001B681C6E14B902B010BD0446FFF7A6FF3A
:101870002046FFF7EDF902AB446943F8080D18461E
:10188000FFF7BAFA1CB901F063FD02B010BD2046A3
:1018900002ACFFF7DDF9826844F8040D93689847BD
:1018A0002046FFF7A9FA01F053FDEEE7AC00002057
:1018B00000B97047014A114600F002B801F0FFFF7D
:1018C0002DE9F047DFF8F88084B00C46154606464F
:1018D000FFF774FF002001F0F1FAD8F800308146DC
:1018E00030461F6EFFF7B4F903680090986901F065
:1018F000ADFA324B82469C42009B53D01A895B89D9
:10190000013AADF80840013BADF80A5022442B449F
:10191000ADF80C20ADF80E3003F0BEFB6846FFF7C3
:101920006BFA02A804F082FE48BB504601F08EFA22
:10193000FFF744FF002F3DD0D8F800301B6EB3BB3B
:1019400003F0F2FC3846FFF783F904ACD8F8003016
:1019500044F80C0D1F660068FFF7A0FB2046FFF758
:101960004BFA03F045FA03F0B1F901F0F1FC4846F7
:1019700001F0A4FA01F0ECFC04B0BDE8F0872A46BF
:101980002146304600F0B0FC04F00CFD0028CCD01D
:101990002A462146304600F0A7FC04F003FD00284B
:1019A000EDD1C2E7B3F90440B3F90650A6E701F060
:1019B0003FFAC5E701F03CFAD7E700BF01F0FFFFAF
:1019C000AC0000202DE9F04385B0064690469946CC
:1019D0000F46FFF7F3FE1C4A1C4B1268507C53F86D
:1019E000204001E02468FCB1E3681A68042AF9D1B8
:1019F000DB6A0121204698470546D8B12469A368CF
:101A00009847013018D00C994B46029442460091F9
:101A100030460195394600F0E3FA044601F098FC9F
:101A2000204605B0BDE8F083FFF700FC044648B14E
:101A3000C368DDE70446F1E70C9B054C43F0010366
:101A40000C93E0E72046ECE7AC000020544404206F
:101A5000345B210000B9704710B582B00446FFF72F
:101A6000ADFE104B1B681B6E9C4217D02046FFF743
:101A7000EFF84369019063B90068FFF70DFB01A817
:101A8000FFF7BAF92046FEF795FF01F061FC02B0BE
:101A900010BD184601F042FC0198EDE701F0C8F9CD
:101AA000E4E700BFAC0000202DE9F04F87B004460A
:101AB00092461D468946FFF781FE574B1A68574BE1
:101AC000577CDB573846012B40F39A8002F068FEC2
:101AD0000646384602F0AAFE0746002C00F08D802C
:101AE00005A904A8FFF73EFD049A059B1644B4F926
:101AF00000201F44B4F9023022EAE272013E23EAD8
:101B0000E373013F114602921846B4F9042003938F
:101B10009642D4BFC1EB0601C1EB0201B4F9063015
:101B200002460E469F42D4BFC2EB0702C2EB03023D
:101B300001361746013705B97D42002E4FDD002FD3
:101B40004DDD109B3246039900932B460298FFF718
:101B500039FF8046002848D000F098F887420646B2
:101B600004D02D4B1B68986C002851D140463D464F
:101B70000024DFF8ACB000F095F90EE0AD1BACB975
:101B800050463444C847DBF80030FF2003B1984783
:101B90004046FFF78DFEA74212DDAE42EEDD29463C
:101BA000404600F05FF9AD1B002CE9D0039B404696
:101BB00002991A1900F0A6F94046FFF74DFEDFE73B
:101BC0004046FFF747FF002000F06CF9B74206D00F
:101BD000114B1B68986C10B1332105F0BBF901F073
:101BE000B7FB002007B0BDE8F08F5046C84701F0B2
:101BF000AFFB012007B0BDE8F08F039402949AE791
:101C000002F078FD0646384602F09EFD074664E77E
:101C1000322105F09FF9A9E7AC00002050440420D0
:101C20006C43042030B5044683B098B1FFF7C6FD7D
:101C30002046FFF70DF8036802AD1B6945F8040D57
:101C40009B68984703F0F4F904462846FFF7D4F858
:101C500001F07EFB204603B030BD00BFA0B110B53F
:101C6000044682B0FFF7AAFD2046FEF7F1FF02AB63
:101C700000F1180443F8040D1846FFF7BDF801F011
:101C800067FB204602B010BD704700BF10B5044688
:101C900082B0FFF793FD7CB12046FEF7D9FF02AB7F
:101CA000B0F90A4043F8040D1846FFF7A5F801F013
:101CB0004FFB204602B010BD044B1B681C6E002C6D
:101CC000EAD101F045FB204602B010BDAC00002077
:101CD0002DE9F04F804687B0002758E0002E7ED1D6
:101CE00003F0D0FD804500F09A80584B012649460C
:101CF000224602935846564B009601932B4600F01D
:101D00006FF981464046FEF7A3FF03460590C0F8F1
:101D10002490B9F1000F79D0826A05A8DFF840B1AC
:101D200042F480329A62FFF767F8484600F0BAF84A
:101D300082463046474E01F063FB4846FFF78EFF70
:101D4000454B05FB04F2454C197892003568A847CD
:101D500040462568CBF8008003F0BCFD206040467B
:101D600005F02EF8002225601046CBF8002001F087
:101D700047FB504600F096F84046FFF757F8406A98
:101D8000B0FA80F35B090137042F22DC0BB3404625
:101D9000FEF75EFF034605A8B3F900B0B3F9029061
:101DA000B3F90440B3F90650CBEB04040593C9EB37
:101DB00005055E6A0134FFF71FF80135002DC8BF25
:101DC000002CD4BF0123002388DC01370020042F1E
:101DD000DCDD08B100F0D2F807B0BDE8F08F304686
:101DE000FEF736FF034606A8B3F9065040F8083D53
:101DF000B3F90440FFF700F8A94501D1A345BBD0D2
:101E00004A465946304600F07DF8B5E705A8FEF78A
:101E1000F3FF404604F0D4FF33464846B3E702F0F0
:101E2000A3FC064602F0E6FCB44202DC85427FF7E2
:101E30005CAFB442A8BF34468542A8BF05462146E0
:101E400040462A4604F07EF94FE700BF345B21008C
:101E50004C5B2100CC000020704304207843042018
:101E6000FC48042030B50D4683B028B90C4B1B68E4
:101E70001C6E14B903B030BD0446FFF79FFC20462A
:101E8000FEF7E6FEB0F90A300190AB42C8BF4581CB
:101E900001A8FEF7B1FF01F05BFA03B030BD00BF4F
:101EA000AC000020F0B5164F83B00446FFF786FC67
:101EB0003B681E6EE4B1C6B903F036FA2046FEF761
:101EC000C7FE02AD3B6845F8040D1C660068FFF7CD
:101ED000E5F82846FEF790FF02F08AFF02F0F6FED2
:101EE00001F036FA304603B0F0BD00F0A1FFE3E7A1
:101EF00000F09EFF01F02CFA304603B0F0BD00BFA9
:101F0000AC00002070B50D4682B0164628B91A4BB9
:101F10001B681C6E14B902B070BD044636B22DB2F7
:101F2000FFF74CFC2046FEF793FEC68085800090AC
:101F300002F0CCFE009B586930B96846FEF75CFFA2
:101F400001F006FA02B070BDFEF782FE009B019020
:101F5000B3F90820B3F90A308280C38013B10AB103
:101F60000580468001A8FEF747FF6846FEF744FF5C
:101F700001F0EEF9E6E700BFAC00002000B97047C1
:101F800070B5044684B0FFF719FC2046FEF760FEEA
:101F9000014601A8B1F90460B1F906500A894B89DC
:101FA000324401912B44ADF80860013AADF80A5073
:101FB000013BADF80C20ADF80E30FEF71DFF02A876
:101FC00004F034FB40B12A463146204600F06EF959
:101FD00004F0E8F90028F6D101F0BAF904B070BDB8
:101FE0002DE9F04FDFF82C8187B082468B46D8F878
:101FF000000017461E461299437C00221198FEF7F6
:1020000085FF00284DD0036905469B68984703F07B
:102010000FF800FB07F48146FEF72EFE109B0734F5
:1020200013F001034FEAD4043FD0002E2CDD002B27
:1020300042D004FB06F01830FEF764FC024668B399
:102040000023029310460392FEF702FE029A034613
:1020500006A8A3F804A0A3F806B01F815E81DC6087
:10206000C3F810905A6140F8043D1D60FEF7C4FEAD
:10207000129AD8F800302A61039A1046AA605B7C55
:10208000AB6107B0BDE8F08F002C34D1204676421A
:102090008642A8BF064693B3002ECADC2846FEF748
:1020A000FBFF002007B0BDE8F08F0028B8BF033069
:1020B000801000EB4000B8E700933A46334659469B
:1020C000504601F09BF8029004FB06F01830FEF732
:1020D00027FC02460028B5D128460392FEF7DCFF14
:1020E000029B002BDDD01846FEF764FC039A1046D5
:1020F00007B0BDE8F08F1838B0FBF4F0C7E70093E5
:102100003A4633465946504601F078F8002E029080
:10211000DADCC3E7AC0000202DE9F04FDFF8809156
:102120008BB05D4BD9F800C0DFF878819CF811E0E6
:1021300053F82E40D8F80030D4F810E0002B00F00F
:10214000A6801646DCF8602007460D46002A75D0AA
:10215000E2681268072A78D0504AC2EB0E02B2FA3F
:1021600082F25209002A70D03846FEF771FD03460C
:102170000AA8B3F908B040F8083DB3F90AA00BEB80
:102180000504DB68013C0593FEF736FED9F8001024
:10219000B1F90C30B1F90800E41A002CCCBFC4EB43
:1021A0000B045C4685425EDB0023002C43DD0AEB1A
:1021B0000600B1F90EE00138CEEB00000028C8BFE0
:1021C000C0EB0A0AB1F90A00B04247DC0021BAF1BB
:1021D000000F079306912EDD3846FFF73FFD079B62
:1021E000D9F80020069901FB0B31136E00EB810733
:1021F000002B3CD01846FEF72BFD02460AA8B2F988
:102200000410B2F906306D1A40F8042DF31AA90033
:10221000D56801F1180605FB03661644FEF7ECFDD0
:102220004EB1059B224600953946019330465346F0
:10223000D8F80040A0470BB0BDE8F08FE268126804
:10224000B2FA82F25209002A8ED1734632462946EA
:10225000384609F0DFF80BB0BDE8F08F811B064669
:10226000C1EB0A0AB3E7431B0546E41A9DE7507C1D
:102270004FEA8B02DFF830E03B4602922946CDF868
:1022800004A032460094DEF80040A047D3E773462E
:1022900009F0C0F8CFE700BF54440420345B2100AC
:1022A000AC000020604404205C4404202DE9F0418F
:1022B00082B00F4690460646FEF7CAFC034602ACC3
:1022C00016211D68002044F8043DEB685B6A9847BE
:1022D00005462046FEF790FD1DB142463946304680
:1022E000A84702B0BDE8F08100B970472DE9F04F72
:1022F000A3B08B4692460446FEF7AAFC22AB456982
:1023000043F81C0D1846FEF777FD2046FFF78AFCC0
:102310000828814640DD002D3ED12046FEF798FC7E
:1023200022AA0346B0F9081042F8100D10460D928B
:10233000B3F90A200A9109921968DA680E690B93B9
:102340000E92FEF759FD924892490068D6F8048033
:10235000407C51F820100D692B680C93FFF798F81A
:1023600008280B9B14D910288BBF20221022042789
:1023700002270B92AE4200F0F882B9F1200F00F074
:10238000B381B9F1100F00F0458123B0BDE8F08FA3
:10239000082201270B92EDE70021012320467C4E05
:1023A00020910DF188080B9121930A93FEF750FCC0
:1023B000074630683A68FB68B7F90810126913934A
:1023C00014913B69B7F90A10407C0993169148F8BB
:1023D000147D5568D7F81490FFF75AF832680E90BC
:1023E000507CFFF70DF907464046FEF705FD099AB8
:1023F0000A9B082A0B9940F29D80102A13460A91E5
:102400008CBF042302230C93BD4200F0C1813368CA
:10241000587CFFF7EDF8149B06469800FEF772FA19
:1024200010900028B1D02046FFF718FC0446B9F1FF
:10243000000F00F088804846FEF70AFC169B1E90AD
:10244000002B40F3A1810023DDF83880CDF834A0C3
:102450000B93139BCDF848B0E31815931FAB1946A7
:102460000F93836800225B691F920B9A9847159B14
:10247000139A04469B1A0E93149B834200F0F68035
:10248000099B012B00F08880002842D01CAB1193DF
:102490001098FEF7DDFB099B07461C90082B1F9A3E
:1024A00065D90C9BA3460E99824602FB031939F8A5
:1024B000020BA847B047BBF1010B4AF8040BF6D159
:1024C000B8F11F0F04D838464246214600F0AEFF4F
:1024D0000A9901231F982246059112991C9F0844CE
:1024E0000021019300930391CDF808800D99049782
:1024F00001F040FE1198FEF77FFC1F9B1E981C44C4
:102500000B9A83680F991F945B69984704460028CB
:10251000BED1159A13990B9B0A44013315920D9A5B
:102520000B9301320D92169A9A4200F02D811E985B
:102530000F9996E7012A03D120AB0C920A9363E727
:102540000C930A9160E701250A9B139A0999059358
:1025500004905846039202915146169B149A019595
:10256000009501F007FE1098FEF724FA0DE70C9B8A
:10257000A2460E99814602FB031B1BF8010BA847DC
:10258000B047BAF1010A49F8040BF6D198E700BF49
:10259000AC000020544404200028BAD0CDF860805C
:1025A00019960B9F0A9EDDF83880DDF83490DDF82F
:1025B00048A0DDF83CB017951192DDF87CE022468A
:1025C000119D01230EF00700494603950125069051
:1025D0000AEB0E00BEF1000F05960295B8BF0EF192
:1025E000070E0195009508EBEE0ECDF810E002F015
:1025F00011FC1F9B1E983A461C44594683681F9441
:102600005B69984704460028D7D1179DDDF86080A4
:10261000199E7EE70A9B03FB07F0FEF773F9109003
:1026200000283FF4B2AEFEF713FB20902046FEF7E1
:102630000FFB00F118031E900E932B69002B00F086
:10264000A6817369002B00F0A281B0F90800800018
:10265000FEF758F91190002840F0BA811F900D98AC
:10266000FEF7CAFB20A8FEF7C7FB7CE71098FEF731
:10267000EFFA099B81461C90082B149F0446DDF855
:1026800038A028D93AF8020BA847B047013F44F8D0
:10269000040BF7D1B8F11F0F04D8484642461499ED
:1026A00000F0C4FE22AB12980D991A460A9B0593BE
:1026B00000230393012352F818EDCDF80880174644
:1026C0000193149A0093CDF810E001F053FD3846C1
:1026D000FEF792FB1DE71AF8010BA847B047013F30
:1026E00044F8040BF7D1D5E70A9B07FB03F0FEF78C
:1026F00009F90E9000283FF448AEFEF7A9FA2090A1
:102700002046FEF7A5FA1E902C6900F11808002C4F
:1027100000F0EB800A9A5C4601260A954FEA82098E
:102720009346CDF83090DDF8249017E0042F21D0A7
:10273000012F15D00B9B0020209D514602930123B1
:1027400005905A460390204601969A4400960495B7
:1027500001F010FDB9F1010900F0E880022FE5D188
:102760000C9D40463B465A46A8440A9D20992D6937
:10277000A847DFE70C9B40460A9D5A46984420999B
:102780003B462D69A847D5E71EA8FEF735FBEAE6CC
:102790002046FFF763FA8046B9F1000F00F0D480BD
:1027A0004846FEF755FA169B1E90002B40F3C88052
:1027B00000261FABCDF834A00125B146DA461F46EE
:1027C00083683246CDF87C9039465B699847149B04
:1027D0000446834231D0099B012B57D020B30D9B77
:1027E0000B9603EB060B1F9801230C990A9A01FB29
:1027F000008E099E13995044059222460391594632
:10280000CDF810E002960195009501F0B3FC1F9BF6
:102810001E9839461C440B9A83681F945B6998473D
:1028200004460028DFD10B9E139B01369844169B6B
:10283000B34240F385801E98C2E7CDF82C80B346A2
:10284000984600E0A3461E980BF1010439468368C0
:1028500022465B6998478045F4D00A9AC6EB0B0381
:10286000DDF82C805046059201330D9ACDF810808A
:102870009119139E099A039602920195149A06FBE8
:1028800003880095264601F075FCD0E70028CBD0E0
:102890000D9B0B9603EB060BDDF87CE022460A9EAF
:1028A00001230EF007005946059606900AEB0E002C
:1028B000BEF1000F139E0295B8BF0EF1070E0396EE
:1028C000019508EBEE0E0095CDF810E002F0A2FAAB
:1028D0001F9B1E9839461C440B9A83681F945B69A2
:1028E000984704460028D7D19DE7A1460125099EB7
:1028F0000123022F51460A9A58460AEB030E00F0B4
:10290000A981042F00F07D819F4200F052810B9C31
:10291000F246CDF814900294209CCDF80C900195CD
:102920000095049401F026FC013EE1D10D98FEF7DC
:1029300063FA20A8FEF760FA0E98FEF73BF824E54C
:102940001EA8FEF759FA20E501240A9B139A09995B
:10295000059304905846039202915146169B149A8F
:102960000194009401F006FC0FE50E9A012418333F
:1029700000250392514604935846099BCDF80890D0
:102980000A9A05950194009401F0F4FBFDE40125F9
:10299000DDF82890099E0123022F51464A465846E9
:1029A0000AEB030E00F0D480042F00F0A0809F42B9
:1029B0006DD0002401950095F246059403940B9C7C
:1029C0000294209C049401F0D5FB013EE3D146E63D
:1029D000FEF73EF91F9000283FF441AE0A9A012409
:1029E000CDF828B04FEA420990460C95CDF83C90BE
:1029F000B146DDF838B017E0042F2ED0012F28D0D3
:102A00000B9B0020209D51460293012305904246D6
:102A100003909A44019400940A98049501F0AAFB4B
:102A2000099B013B09932BD0022FE5D1209B1E4629
:102A30003B4642461F995846D9F81450A8470F9D67
:102A400031463B46AB440C9D42461F982D69A84732
:102A5000D6E7209B1E460223EBE7209B42460F9EB3
:102A600058461D461F990223B344D9F81460B04755
:102A700029460C9D3B4642461F982D69A847BFE753
:102A80001FA8FEF7B9F91198FDF794FFE7E50A9B37
:102A9000444609965D000C9E0C95209DDDF838801B
:102AA000DDF8289038F8020BA047B047B9F10109CA
:102AB00005F8010BF6D10E9D01230B985146AE4649
:102AC0000C9D02905846AE44209DCDF814909A4437
:102AD0000A9ACDF80C90019700970495CDF838E04C
:102AE00001F048FB099B013B0993D6D1B7E50A9B4E
:102AF0000125099644465E000C9F0C96209EDDF849
:102B00003880DDF8289038F8020BA047B847B9F1B3
:102B1000010946F8040BF6D10E9E01230B9851468D
:102B2000B6460C9E02905846B644209ECDF81490AE
:102B30009A440A9ACDF80C90019500950496CDF828
:102B400038E001F017FB099B013B0993D6D186E5DC
:102B50000A9B0125099644465E000C9F0C96209E18
:102B6000DDF83880DDF8289038F8020BA047B84728
:102B7000B9F1010926F8020BF6D10E9E01230B983C
:102B80005146B6460C9E02905846B644209ECDF85B
:102B900014909A440A9ACDF80C90019500950496E9
:102BA000CDF838E001F0E6FA099B013B0993D6D154
:102BB00055E595000C9C09960C95209D4646DDF840
:102BC000289056F8040BA047B9F1010905F8010B4C
:102BD000F7D10B980123209E514602905846CDF81C
:102BE00014909A440A9ACDF80C9001970097049695
:102BF0000C9D01F0BFFA099BA844013B0993DCD16D
:102C000094E60996012596000C9C0C96209E47465A
:102C1000DDF8289057F8040BA047B9F1010946F8F0
:102C2000040BF7D10B980123209F51460290584680
:102C3000CDF814909A440A9ACDF80C90019500951D
:102C400004970C9E01F096FA099BB044013B09934E
:102C5000DCD16BE60996012596000C9C0C96209E13
:102C60004746DDF8289057F8040BA047B9F1010951
:102C700026F8020BF7D10B980123209F51460290B2
:102C80005846CDF814909A440A9ACDF80C900195C4
:102C9000009504970C9E01F06DFA099BB044013B2E
:102CA0000993DCD142E600BF58B311B30AB3B1F9BE
:102CB0000030F0B5B2F90050B2F902E0B1F90240CB
:102CC0009D42B2F90470B2F90660A8BF1D46B1F981
:102CD00004207445B1F90630A8BF7446BA42058095
:102CE000B8BF3A46B3424480B8BF33468280C380FF
:102CF000F0BD002908BF11460A684B6802604360B6
:102D00007047704778B189B2C38892B270B40688B0
:102D1000448885880E4414441A442944068044801B
:102D20008180C28070BC704710B5FEF747FD0D4A28
:102D3000136851688B420FD00B4CA3424FF0010433
:102D400093E8030014BF0833503B136003F01AF9F3
:102D500000F0FEFA204610BD002400F0F9FA2046EB
:102D600010BD00BFB8000020B8420420F0B5164CDA
:102D7000059F2568069CB5F908E0B5F90C6070451B
:102D8000B8BF7046B242A8BF324690421ADCB5F9CD
:102D90000A60B5F90E50B142B8BF3146AB42A8BF88
:102DA0002B468B4203DAF0BD25682DB12C46E56831
:102DB0002D6835F00405F7D106940597BDE8F0407D
:102DC00001F026BEF0BD00BFAC000020B0F902202B
:102DD000B1F906309A4214DCB1F90220B0F906309C
:102DE0009A420EDCB0F90020B1F904309A4208DCB6
:102DF000B0F90400B1F900308342CCBF00200120BB
:102E000070470020704700BF08B5034B014674228D
:102E10001868FDF7A0FA08BDAC00002008B5034B08
:102E200074221968FDF797FA08BD00BFAC000020B6
:102E300008B5FEF7C3FC01F0FBFE01F0D9FF02F07C
:102E40002BF9BDE8084000F083BA00BF70B50D4D06
:102E500004462B685E7CFEF7B1FC012C03D900F020
:102E600077FA304670BD2046FEF7E0F90028F6D02C
:102E70002B685C74FFF7DCFF034B1C6000F068FA02
:102E8000304670BDAC000020A048042010B50446B8
:102E9000FEF794FC204601F0EDFEBDE8104000F086
:102EA00057BA00BF10B50446FEF788FC204601F073
:102EB0001BFFBDE8104000F04BBA00BF10B5044640
:102EC000FEF77CFC204601F027FF044600F040FAA4
:102ED000204610BD38B50446FEF770FC044B1B6855
:102EE000DD6904B1DC6100F033FA284638BD00BF6B
:102EF000AC00002070B505460C46FEF75FFC094AA1
:102F0000094B294610682246084E407C358053F80C
:102F10002000074DC3682C801B6A9847BDE87040AD
:102F200000F016BAAC0000205444042042440420AF
:102F300044440420024B1B6803B11847704700BF8C
:102F4000D8420420024B1A6802B91860FFF7F2BF9A
:102F50006442042000B970472DE9F041DFF8C480D5
:102F600082B00546FEF72AFCD8F80040A54244D0BE
:102F70006E461CB919E0FDF73FFFB4B12046FDF7DE
:102F800067FE034630469C680093A542F3D128466D
:102F9000FDF75EFE0346009A01A8996801939160CF
:102FA000FDF72AFF3046FDF727FF2846FDF750FEC4
:102FB000D8F804400090A5421A4B2CD094B101AF30
:102FC00002E0FDF719FF6CB12046FDF741FE034614
:102FD00038465C680193A542F3D1009A52685A6062
:102FE000FDF70AFF3046FDF707FF2846FDF7E2FC34
:102FF00000F0AEF902B0BDE8F08102AF2846FDF75F
:1030000027FE836847F8040D38466E46C8F800303E
:10301000FDF7F2FEC9E7426830465A60FDF7ECFE64
:10302000E3E700BF2043042030B583B018B9012482
:10303000204603B030BD04460D46FEF7BFFB2046D8
:10304000FDF706FE828902AB2A4243F8040D1846BA
:1030500014BF01240024FDF7CFFE00F079F92046CB
:1030600003B030BD0A4A002330B5146883B0036052
:103070005CB105462046FDF7EBFD02AB026943F863
:10308000040D18462A60FDF7B7FE204603B030BD98
:1030900020430420002370B50B6082B018B90446A9
:1030A000204602B070BD0D46FDF7D2FD846801AE2A
:1030B00001902CB93046FDF79FFE204602B070BD4E
:1030C0003046FDF799FE2046FDF7C2FD03690190E9
:1030D0002B60EFE7F8B5084E0546046833682046D4
:1030E0001B6898473368074620465B689847044446
:1030F00038462C60F8BD00BF68440420F8B569B1BB
:1031000005460C460026064F3B6828465B689847F4
:10311000013C05440644F7D13046F8BD0E46FBE7B6
:10312000684404202DE9F843089C054689469846E2
:10313000A96843462846561C4F684946B847013C93
:103140003246F5D1BDE8F883F8B5B0F90040B0F9E2
:1031500004500C1BAC422ADA2344B0F90250E710A9
:10316000FF21013B551B026904F00704DE4302FB0B
:10317000057541FA04F406F00706D7EBE30205F102
:103180001405E4B201FA06F600EB050EF6B20FD014
:10319000435D013A0EF101071C43002A445503DD4B
:1031A00038461744FDF701F93C7834433C70F8BDCC
:1031B000435D34401C434455F8BD00BF30B4B0F902
:1031C000024080250369121BB0F9004003FB02F3A3
:1031D000091B143301F0070203EBE1011541435CC5
:1031E0002B4330BC435470470346B0F906200021FE
:1031F00014301B6903FB02F2FDF7D7B82DE9F04349
:1032000002F10F04804683B0914624111E460F46FA
:10321000640003FB04F01430FDF782FB0546B8B1EF
:10322000FEF7CCFA2846FDF713FD012301460A4AB2
:1032300002A8A1F8049040F8041DCE800C61A1F80A
:1032400000804F808A608B81FDF7D6FD00F080F80A
:10325000284603B0BDE8F083C05B2100B0F906301A
:1032600093423BDDB0F90430F0B40D689D4232DA90
:10327000EE1007695C1E05F0070307FB0262C6EB50
:10328000E4061432845C013204FA03F3104413F0B0
:10329000FF0308D126B3083510F8013B013E25F0A5
:1032A0000705002BF6D01C0634D45B000135DBB2D9
:1032B0001A06FAD55F062A4604D55B000132DBB256
:1032C0005C06FAD402F00703072B0CD0561B0D60E6
:1032D000701CF0BC70470020F0BC704700207047A5
:1032E0003046F0BC7047002EF0DD0478471CFF2C00
:1032F0000DD1831903E017F8014BFF2C07D1BB4216
:1033000002F10802F7D1E1E764000132E4B22306DA
:10331000FAD4DBE7FF2BCDD1EA1DD3E730B5054664
:1033200083B0FEF74BFA2846FDF792FC034602A84D
:103330009C8940F8043D013C24B29C81FDF75CFD72
:1033400014B92846FDF736FB00F002F803B030BD93
:10335000034A5368013B536003B1704708F070BEE5
:10336000C4420420F0B583B0C0B9224C054623699D
:10337000CBB1E0681F4E18B91F4B1868F060D8B188
:1033800023681C4F2BB3002663681A4FC3B115B1D5
:10339000A368184C2BB3304603B0F0BD154C01ADFB
:1033A0002369002BE5D1154A2046012340F8142F4C
:1033B000236100F01DFEDCE701F0ACF9F060DFE70F
:1033C000F8688000FDF720FB0028786008BF012620
:1033D000DDE78000FDF718FBB0FA80F6386076096B
:1033E000D2E7E0688000FDF70FFB0028A06008BF6F
:1033F0000126D0E7344304204844042065A9200076
:10340000094B10B51C7838B902464FF07F401A704E
:1034100000F09AFE204610BD012200201A7000F034
:1034200093FE204610BD00BF4E440420082A10B46D
:103430000EDD102A1CDC00EB4101034650F8042B82
:1034400023F8022B9942F9D101205DF8044B704713
:10345000022A11D0042A00F09A80012A3FD00144A8
:10346000034650F8042B03F8012B9942F9D1EBE7FE
:1034700000205DF8044B704700F1100252F8103C38
:1034800001294FEA8313DBB226D052F80C4C0229F3
:103490004FEA041404F0300443EA04031CD052F849
:1034A000084C03294FEA840404F00C0443EA0403A3
:1034B00012D052F8044C043902F1100204F0030453
:1034C00043EA040300F8013BBED052F8103C012946
:1034D0004FEA8313DBB2D8D103700120B5E700F1C6
:1034E000200252F8203C01294FEAC313DBB2F3D08B
:1034F00052F81C4C02294FEA841404F0400443EAB9
:103500000403E9D052F8184C03294FEA441404F09C
:10351000200443EA0403DFD052F8144C04294FEA94
:10352000041404F0100443EA0403D5D052F8104CFC
:1035300005294FEAC40404F0080443EA0403CBD08D
:1035400052F80C4C06294FEA840404F0040443EAC0
:103550000403C1D052F8084C073902F120024FEAA7
:10356000440404F0020443EA0403B5D052F8244CA6
:10357000012904F0010443EA040300F8013B52F876
:10358000203C4FEAC313DBB2B2D10370A5E700F1D0
:10359000080454F8083C01294FEA0313DBB213D0A6
:1035A00054F8042C023904F1080402F00F0243EA33
:1035B000020300F8013B3FF447AF54F8083C0129EF
:1035C0004FEA0313DBB2EBD1037008465DF8044BFE
:1035D000704700BF082A2DE9F0410C4605461F68D8
:1035E0000CDD102A21DC1E69002E00F0918022469D
:1035F00029460223B0470120BDE8F081013A072A9D
:1036000010D8DFE802F004510F770F0F0F9A00F186
:10361000200858F8200CB847012C4FEAC010C6B259
:1036200006D12E700120BDE8F0810020BDE8F081B8
:1036300058F81C0CB847022C46EA8010C6B2F0D0ED
:1036400058F8180CB847032C46EA4010C6B2E8D028
:1036500058F8140CB847042C46EA0010C6B2E0D063
:1036600058F8100CB847052C46EAC000C6B2D8D0AE
:1036700058F80C0CB847062C46EA8000C6B2D0D0E9
:1036800058F8080CB847072C46EA4000C6B2C8D024
:1036900058F8040C08F12008B847083C40EA060036
:1036A00005F8010BB5D1BDE700F1100858F8100C72
:1036B000B847012C4FEA8010C6B2B2D058F80C0CB3
:1036C000B847022C46EA0010C6B2AAD058F8080C37
:1036D000B847032C46EA8000C6B2A2D058F8040CC2
:1036E00008F11008B847043C40EA060005F8010B51
:1036F000DCD197E700F1080858F8080CB847012C0E
:103700004FEA0010C6B20CD12E702046BDE8F08101
:10371000861E55F8040BB847013C26F8020FF8D175
:1037200080E758F8040C08F10808B847023C40EA62
:10373000060005F8010BDFD174E71E693EB128468B
:10374000224601232946B0470120BDE8F0816E1EC4
:1037500055F8040BB847013C06F8010FF8D161E7B2
:10376000F0B51C4E85B0F36F0BB105B0F0BD1A4B30
:103770006F4604AD4FF0010E06F18004C6F87CE000
:103780000FCB07C7190C15F8102D27F8023B39701D
:1037900004F8012B15F8012F002AF9D1FDF7F8FEE6
:1037A000234610F8012B194603F8012B0278002A52
:1037B000F7D14A7008F00AFCFDF76AF80AF0B6FD86
:1037C000064B0748C6F8943005B0BDE8F04000F05D
:1037D0000FBC00BFC04104202414210051A82000C8
:1037E000544204202E4B1B682DE9F041044682B060
:1037F0000D4683B1002002F019FF48B16E463246F3
:103800002946204604F07EF802F0CCFD0028F6D1CF
:1038100002B0BDE8F081DFF88C806B4610686E4620
:10382000D8F800705168B7F84CC0B7F850E003C33F
:10383000BDF800706846BDF80410BDF8022067446A
:10384000BDF8063061447244ADF800707344ADF8C1
:103850000410ADF80220ADF8063002F0E7FE60B9C2
:10386000D8F80030598C9A8CDC6C186D091B121A30
:1038700059849A8402B0BDE8F081D8F8003032460D
:10388000BDF802002946BDF80070988420465F8488
:1038900004F038F802F086FD0028EED1E0E700BF22
:1038A00064440420AC0000202DE9F04F8FB00024C8
:1038B0001F46934605909348199B006907911C6029
:1038C000002800F0F1808F4BDC681D462CB98E4B30
:1038D0001C68EC60002C00F0F1808A4B894D1B685D
:1038E0000293002B00F0FD80864B864D5B680393AE
:1038F000002B00F0E880A742844B854A4FF0000679
:10390000A8BF27461968059B3446487CBA463B4405
:1039100052F820200C93013B0892099313690D93F0
:10392000FDF7B6FD794B04901B68587CFDF768FEE7
:10393000784B794A0B90904218BF984214BF0123EC
:1039400000230A935F46189B57F8040B984781465B
:103950004FEA1068B8F1FF0F47D0002C2BD16B4B0A
:10396000059A1B689519B3F90830AB4259DD5A1B0B
:103970001D461446069202983444089B079900EBB2
:103980008404019328460B46099A0094FFF7EEF948
:10399000049B172B7EDD0A9B002B44D00C9B0696C4
:1039A0005D1B2E460B9D2068A847013E44F8040B82
:1039B000F9D1069E0124534BDD69002D38D15FFA01
:1039C00088F2B8F1000F1AD1029B039A53F82630FF
:1039D00042F82630BAF1010A06F10106BB46B1D120
:1039E000039C20460FB0BDE8F08F199B039A1B681B
:1039F00042F8260043F00103199A1360EAE702999E
:103A000049F07F40454B51F826101B689847199B99
:103A1000039A1B6842F8260043F00103199A1360C9
:103A2000D8E70694A7E7374B0124DD69002DC6D0FF
:103A3000B600029A53465846324457461446039AF3
:103A4000164421463246A847ABF1040208E0236839
:103A5000013F04F1040406F1040646F8043C0ED0CC
:103A600052F8043F13F07F4FF1D02168043604343C
:103A700011F07F4F08BF46F8043C013FF0D1199B7D
:103A8000039C1B68199A204643F0010313600FB092
:103A9000BDE8F08F1A46069B20460124C3EB0A01BD
:103AA0000D9B00F03FF886E71D4A0123154840F8BA
:103AB000142F144A136100F09BFA04E700F02AFE69
:103AC0000446E86009E7E8688000FCF79DFF039082
:103AD000686000287FF40FAF002420460FB0BDE8D7
:103AE000F08FA000FCF790FF286008B10290FBE681
:103AF0006C68002CF0D1E8688000FCF785FF6860F6
:103B00006FE700BF3443042048440420AC00002089
:103B100054440420454920004D492000D80000208D
:103B200065A9200000292ADD082A2DE9F04704466E
:103B30005D6803DD102A0CDDBDE8F087531E072BFE
:103B400005D8DFE803F02A51047B0404041DBDE816
:103B5000F0875E6936B10A46B44621460223BDE8C5
:103B6000F047604749000C446618671A34F8020DA4
:103B7000A84746F8040DBC42F8D1BDE8F08770476D
:103B8000661804EB8104771A16F8010DA84744F86B
:103B9000040DBE42F8D1BDE8F0874F1E80266FF0BD
:103BA000404AFB1007F007088A4446FA08F6591EF7
:103BB00014F8039004EB8A0AF6B20C4406EA0900F2
:103BC000C8F1070376001841A8474AF80409B8F17C
:103BD000000F5FD194F800900126013C4FF00708D8
:103BE000002FB4D0013FE9E74F1EC0266FF0404AD6
:103BF00007F00309BB108A444FEA4900591E14F824
:103C0000038004EB8A0A06410C44F6B206EA080374
:103C1000C0F10600B60043FA00F0A8474AF80409CC
:103C2000B9F1000F3ED1032694F80080013CB14663
:103C3000002F8CD0013F4FEA4900E7E74F1EF026E6
:103C40006FF0404A07F001097B108A444FEA89006F
:103C5000591E14F8038004EB8A0A06410C44F6B29C
:103C600006EA0803C0F10400360143FA00F0A84751
:103C70004AF80409B9F1000F10D194F800800F261A
:103C8000013C4FF00109002F3FF461AF013F4FEAC3
:103C90008900E5E708F1FF38F6B2A1E7F6B24FF088
:103CA0000009F0E709F1FF39F6B2C1E770B584B059
:103CB0001C4A04AB019043F8101D1946136898473D
:103CC000019050B3184B1B68DB695B692BB11B6813
:103CD0001BB10099984704B070BD009B013B002BBD
:103CE00000931CDB002401A8FFF7F4F90546FDF75B
:103CF000E5FB009B0444013B002B0093F3DA002614
:103D000004A9284641F8046DFDF7EAFB039B98429D
:103D1000B8BF1E1A301904B070BD04B070BD0025C4
:103D20002C46ECE7B4000020AC00002030B583B096
:103D30000190E0B1104B0D461B68DB695B6923B154
:103D40005B6813B1984703B030BD002D11DD00242E
:103D500001A8FFF7BFF938B10A2805D00134A54200
:103D6000F6D1284603B030BD204603B030BD03B0C5
:103D700030BD0020E7E700BFAC000020B1F9003003
:103D8000B0F900209A42B0F90220B8BF0380B1F91F
:103D900002309A42B0F90420B8BF4380B1F9043030
:103DA0009A42B0F90620C8BF8380B1F906309A4222
:103DB000C8BFC380704700BFB2F90030F0B5B1F999
:103DC0000040B1F90250B2F902E0A342B2F9047026
:103DD000B8BF2346AE457446B2F90660B8BF2C465C
:103DE000B1F90450B1F906203946AF42038044804E
:103DF000A8BF2946B242A8BF324681809442D8BFAC
:103E00008B42C280CCBF0123002383F00100F0BDB0
:103E10003A4B1B682DE9F0415D7C82B0012D03DD3A
:103E2000012002B0BDE8F081354E0446736813B13D
:103E3000014628469847012C27D0022C0FD0002C91
:103E4000EED1AC00DFF8B8803719BB68012B3AD04F
:103E500001202644002B18BF013BB360E1E7284650
:103E6000FDF7E4F901900028DAD0C3680D2101A81C
:103E70005B6A984704460028D2D0336803B198475C
:103E800002210198A0470020CBE706EB8506B76822
:103E90001FB101372046B760C3E72846FDF7C6F9D2
:103EA00001900028BCD0C3680D2101A85B6A984727
:103EB00003460028B4D0214601989847B368384695
:103EC0000133B360ADE72846FDF7B0F9019088B142
:103ED000C3680D2101A85B6A9847054650B1D8F820
:103EE000003003B1984700210198A84733190020FA
:103EF0009B68AEE7BB680120ABE700BFAC000020C9
:103F0000544304200B0E4FEA1063F0B408BF20F0B6
:103F10007F41114C02FB03F200F0FF160D0A01F085
:103F2000FF13A4FB0212C0F3072005F0FF15D2090E
:103F300040F08074C2F1FF0702FB06F107FB05F0B9
:103F400007FB031102FB0400090A00F0FF2001F047
:103F5000FF11F0BC08437047818080802DE9F04F4D
:103F600087B09246139A01900291109B9DF8509051
:103F7000002A35D0129A0021DFF86CB09200DFF8E9
:103F80006C80039102EB830305920493129C5746C5
:103F9000029E019D55F8040BDBF80030020E56F826
:103FA000041B40F07F4009FB02F2A8FB02E2C2F3CF
:103FB000C7129847013C40F07F4047F8040BE9D115
:103FC000019A05991046029A8A44039B0844049971
:103FD00001330A44019003930292139A9A42D5D175
:103FE00007B0BDE8F08F00BFD8000020818080803E
:103FF00080B483B000AF7860064B1A687B685A6063
:10400000044A7B68136000BF0C37BD465DF8047B33
:10401000704700BF34420420F8B506464AB1840711
:10402000C9B208D001E0830705D0013A00F8011BAE
:10403000F9D13046F8BD97083B464FB301EB012458
:10404000032F02F0030204EB044415D900F110031E
:104050003D46043D43F8104C43F80C4C1033032DFF
:1040600043F8184C43F8144CF3DC043FBB085D1CC8
:10407000A7EB830300EB051043B1012B046003D0D1
:10408000022B446018BF846000EB8300002AD0D06C
:10409000FCF78BF93046F8BD70B4840702D5018077
:1040A000013A023056080DD0032E334601EB01448D
:1040B0000DD8012B046003D0022B446018BF84602C
:1040C00000EB8300D30770BC48BF0180704700F14C
:1040D00010033546043D43F8104C43F80C4C1033A4
:1040E000032D43F8184C43F8144CF3DC043EB3089A
:1040F0005D1CB6EB830300EB0510DAD1E2E700BFED
:1041000008B50B0E03D1030EFF2B0FD04BB102EB02
:1041100002120B4BD2B21B6898470A4B5A681043E5
:1041200008BD084B5A6841EA020008BD054B20F063
:104130007F4002EB02125B68184340EA026008BD50
:10414000D8000020E0000020024B5A68586010465A
:10415000704700BFE0000020044A054B1268527C03
:1041600053F822301B691B68184700BFAC000020C1
:10417000544404202DE9F04FB64C91B0D4F800E03F
:104180001B9D1D9E1E9F1F9C0F9005920C93DDF89A
:1041900068A00D95DDF870C00E9607970894BEF1E3
:1041A000000F06D0DEF80040A44611B0BDE8F04F85
:1041B00060474AEA05038946012B00F09380CCF161
:1041C000080302930C9B002B40F38980A24BF0461E
:1041D000E146CDF828E0186804910D9A0499531827
:1041E0001A460B93B0F90A30013A9342099269DCFE
:1041F000B0F90E308B4265DB059B002B62DD00269B
:104200000F9B079F03EB0A04354606974DE0C9EB69
:104210000606029B48FA03F208FA09F812F0FF02B8
:104220005FFA88F802D1037C9B0739D4D0F83CC0F0
:10423000DCF800300393089B0BB153F82220B0F94F
:10424000083004F1FF3EB0F90CB09942CCF80020E0
:10425000B8BF1946DE457346A8BF5B468B421CDBE0
:10426000B0F90A20049FB0F90EE0BA42B8BF3A464E
:10427000099FBE45A8BFBE4672450EDC407C774F05
:1042800057F82000D0F80CC0CDF800E0DCF810B0F2
:10429000D847714B1868D0F83CC0039BCCF800306D
:1042A0000135059B5444AB420CD0CAEB0401002EEF
:1042B000ADD1069A029E134692F800800133069310
:1042C0003346A7E7079A0E990A9B0A4401330792DF
:1042D0000B9A0A9304920C9A9A427FF47EAF11B023
:1042E000BDE8F08F5C4B1968B1F90A20C9EB0203F5
:1042F000002B40F3C1800C98C41A002CEFDD06FBA4
:10430000037307930C9B4B44B1F90E00013B1B1A3E
:10431000002B02DDE41A002CE1DD0F98059D431906
:10432000B1F90C00013B1B1A002B01DDEB1A0593C0
:10433000B1F908300F9D9D4215DB0025059B002B30
:10434000CDDD4E7C4548089F50F826000F99C66881
:104350001E95079D1F971D950E9DCDF86CC01C9551
:104360001A94746820E7059E5D1B0CF1FF30761BE4
:1043700005961F28E2D801A656F820F061442000D7
:104380003D4420003D432000254420003D432000C3
:104390003D4320003D432000194420003D432000C0
:1043A0003D4320003D4320003D4320003D4320008D
:1043B0003D4320003D4320000B4420003D432000AE
:1043C0003D4320003D4320003D4320003D4320006D
:1043D0003D4320003D432000FD4320003D4320009D
:1043E0003D4320003D4320003D4320003D4320004D
:1043F0003D4320003D432000FD43200007980F93DC
:1044000000EB85000025079098E707980F9300EBD5
:1044100045000025079091E707980F932844002551
:1044200007908BE7079825F0010300EB650005F086
:10443000010507900F9818440F907FE7079825F023
:10444000030300EBA50005F0030507900F9818443F
:104450000F9073E764440420AC000020544404200F
:10446000079825F0070300EBE50005F00705079026
:104470000F9818440F9061E70C9C4A46234642E788
:10448000114B30B41C68B4F90A308B420FDCB4F91C
:104490000E3099420BDCB4F90850B4F90C30A84244
:1044A000B8BF28469342A8BF1346984201DD30BCEE
:1044B0007047657C0A46054C014654F82500C468DF
:1044C000A468A44630BC6047AC00002054440420DB
:1044D000164B1B68B3F90A208A421CDCB3F90E2084
:1044E000914218DCB3F90820824214DCB3F90C20A5
:1044F000904210DC30B41A7CD2070DD45D7C0A46A1
:104500000B4C0146DB6B54F825001B68C468A4699A
:10451000A44630BC604770475C7C0A46044B0146A9
:1045200053F82400C36830BCDB691847AC00002096
:104530005444042070B5154C82B02468B4F9085076
:10454000B4F90C60A842B8BF2846B242A8BF3246B0
:1045500082420BDBB4F90A60B4F90E50B142B8BF25
:1045600031469D42A8BF1D46A94201DD02B070BD83
:10457000667C1346064C0A46014654F82600C46879
:1045800000952469A04702B070BD00BFAC000020B8
:1045900054440420012801DD0020704710B5FCF7C9
:1045A00045FE28B1C36808219B6ABDE81040184742
:1045B000002010BD024B1B689B6B1868704700BF42
:1045C000AC000020024B1B68DB6B1868704700BF13
:1045D000AC000020012801DD0020704710B5FCF779
:1045E00025FE28B1C3680C219B6ABDE8104018471E
:1045F000002010BD012801DD0020704710B5FCF738
:1046000015FE28B1C3680D219B6ABDE8104018470C
:10461000002010BD094B1B68587C012801DD0020DB
:10462000704710B5FCF702FE28B1C36809219B6AE8
:10463000BDE810401847002010BD00BFAC000020AE
:10464000012801DD0020704710B5FCF7EFFD28B10F
:10465000C36809219B6ABDE810401847002010BDBF
:1046600010B50020FCF7E2FD041C4FF0010018BF5C
:104670000124FCF7DBFD00B10134204610BD00BF72
:10468000064B1B6810B5587CFCF7D0FD28B1C368F9
:104690000221DB6ABDE81040184710BDAC000020C5
:1046A00030B583B00C461546FCF7C0FD019070B1E3
:1046B000C36804215B6A0DEB01009847034630B1E3
:1046C00001982A4621469847002003B030BD0120BA
:1046D00003B030BD012801DD0020704710B5FCF7A4
:1046E000A5FD28B1C3680E219B6ABDE8104018479C
:1046F000002010BD012801DD0020704710B5FCF737
:1047000095FD28B1C36803219B6ABDE81040184796
:10471000002010BD38B5012500242846FCF786FD91
:10472000032178B1C3689B6A98478442B8BF0446A6
:104730000DB9204638BD00252846FCF777FD03213A
:104740000028EFD1F1E700BF012801DD002070470C
:1047500010B5FCF76BFD28B1C36804219B6ABDE866
:1047600010401847002010BD094B1B68587C0128D9
:1047700001DD0020704710B5FCF758FD28B1C36873
:1047800001219B6ABDE810401847002010BD00BF02
:10479000AC000020014B1868704700BF5C42042049
:1047A000012801DD0020704710B5FCF73FFD28B15E
:1047B000C36801219B6ABDE810401847002010BD66
:1047C00038B5012500242846FCF730FD012178B1D9
:1047D000C3689B6A98478442B8BF04460DB9204617
:1047E00038BD00252846FCF721FD01210028EFD126
:1047F000F1E700BF094B1B68587C012801DD002050
:10480000704710B5FCF712FD28B1C36802219B6AFE
:10481000BDE810401847002010BD00BFAC000020CC
:10482000014B5868704700BF5C420420012801DD3D
:104830000020704710B5FCF7F9FC28B1C3680221CD
:104840009B6ABDE810401847002010BD38B501250F
:1048500000242846FCF7EAFC022178B1C3689B6A71
:1048600098478442B8BF04460DB9204638BD00259C
:104870002846FCF7DBFC02210028EFD1F1E700BF5E
:104880002DE9F84360B3856865B3DFF86480D8F834
:10489000006006B30768B7F5807F1FDC124B8146C6
:1048A0001B689F42A8BF1F46002F0DDD043D00245A
:1048B00001E0D8F8006055F8040FFFF74DFC46F80A
:1048C00024000134BC42F4D1084B1B680BB14846AC
:1048D0009847D8F800603046BDE8F8830026FAE72C
:1048E0000646F8E72E46F6E7D4000020E042042012
:1048F00080440420044A054B1268527C53F822304D
:104900001B695B68184700BFAC00002054440420BA
:104910000A49C0F3C422C0F3451300F01F008A5CAB
:10492000085C120410B4064CE35C5DF8044B02EB27
:104930000323184440F07F40704700BFE835210052
:10494000A835210040F07F40704700BF704700BF8E
:1049500038B50B4D2C680CB1002038BD094B1868D8
:104960008000FCF751F8286038B1074B074840F841
:10497000043FFFF73DFB204638BD012038BD00BF96
:1049800080440420D4000020A9A82000E042042094
:104990002DE9F84FFFF764FEB0F100092FDD002587
:1049A000184FDFF868B02846FCF740FC20B33B689E
:1049B000284693F811805D74FFF7ECFD082818DC99
:1049C0005BF82530104A1B69934212D02846FFF746
:1049D00037FE061E0DDD00245FFA84FA01345046CE
:1049E000FFF788FF51460246284600F09BF9A64291
:1049F000F2D13B6883F811800135A945D3D1BDE8D8
:104A0000F88F00BFAC0000201C5B21005444042040
:104A10002DE9F04F85B017469A4681460F9C0E4609
:104A2000E2680E9C536AD2F814807BB101210FA872
:104A30009847054650B10F983B4601943246CDF851
:104A400000A04946A84705B0BDE8F08F774B1B682A
:104A5000587CFCF71DFD082830DC01235645F2DCAC
:104A6000022B0AD0042B1BD0012B2CD00136B245CF
:104A7000F6DAE8E701365645E5DCB945FADC4D469D
:104A80002946013532460F98C047AF4224F8020B41
:104A9000F6DA0136B245F0DAD5E70136B245D2DBB7
:104AA000B94500F3BA804D462946013532460F9884
:104AB000C047AF4244F8040BF6DAEEE71128B4BF62
:104AC00002230423CAE7431E0025CDF808A0039360
:104AD000039B072B00F29B80DFE803F0446D18185E
:104AE00004040404B94538DC4346CB46A8461D46B9
:104AF00059460BF1010B32460F98A8475F4504F861
:104B0000010BF5DA2B464546984626E0B94524DCEC
:104B10000E94CA4644464FF00F0BDDF838805146DC
:104B200032460F980AF1010AA04798F80010AB002E
:104B30005745C3F104020BFA03F300FA02F003EA4B
:104B4000010343EA000388F80030A84485F001051A
:104B5000E5DACDF83880A0460E9C0136029BB342C0
:104B6000B6DA70E7A3464446DDF80880B94559DC5B
:104B7000CA46514632460F980AF1010AA0474FF63D
:104B80007F729BF800E0C5F1070342FA05F16A1C49
:104B9000984057450EEA010122F0070540EA01005E
:104BA00042FA05F58BF800000BEBE20BE1DA013677
:104BB000B045DBDA47E70E944FF63F7B4446DDF81D
:104BC0003880B945C5DCCA46514632460F980AF1CD
:104BD000010AA0476A1C6D0098F800105745C5F1FE
:104BE00006034BFA05F500FA03F005EA010522F089
:104BF000030340EA050042FA03F588F8000008EBD9
:104C0000A208E1DA0136029BB342DADA1BE7013689
:104C1000029B9E427FF75CAF15E7013656457FF752
:104C20003FAF10E7A0465C4697E700BFAC0000200E
:104C300010B50E4C0E4B2268517C53F8210038B150
:104C4000C36813B11B68042B0BD000680028F7D190
:104C5000002102F1080311665361BDE8104000F025
:104C600035B8FCF7BFFA2268F2E700BFAC000020BD
:104C700054440420014B1B685B681847D000002097
:104C8000044B1B681A7C52074CBFDB6B9B6B186094
:104C9000704700BFAC00002030B50A4C05460A4BF7
:104CA00083B022686946527C53F82200C3681B6BAC
:104CB000984720686A4629460830FFF77DF803B018
:104CC00030BD00BFAC00002054440420044A054B12
:104CD00011684A7C083153F82200C3681B6B1847DF
:104CE000AC00002054440420014B1B681B6818478B
:104CF000D0000020044B1B681A7C52074CBF9B6BF2
:104D0000DB6B1860704700BFAC000020014B83E8EC
:104D1000030070475C420420014B1B689B681847E6
:104D2000D000002030B583B00C461546FCF77EFA63
:104D3000019068B1C368102101A85B6A98470346D7
:104D400030B101982A4621469847002003B030BD73
:104D5000012003B030BD00BF30B583B00C4615460E
:104D6000FCF764FA019068B1C3680B2101A85B6A83
:104D70009847034630B101982A46214698470020BB
:104D800003B030BD012003B030BD00BF10B582B00C
:104D90000C46FCF74BFA019060B1C368092101A8E9
:104DA0005B6A9847034628B101982146984700203E
:104DB00002B010BD012002B010BD00BF30B583B0FD
:104DC0000C461546FCF732FA019068B1C3680A2117
:104DD00001A85B6A9847034630B101982A462146EC
:104DE0009847002003B030BD012003B030BD00BFA4
:104DF00010B5074C2368186BFFF7AEF9FFF77AFF81
:104E00002368586BFFF7A8F9BDE81040FFF738BFDB
:104E1000AC0000202DE9F04F91B0824C1B9D24681E
:104E20002E460E951D9D0F900C951E9D0592069584
:104E30001F9D0D930895DDF868A0DDF870E0209DBA
:104E40002CB12468A44611B0BDE8F04F60474AEA8F
:104E500006038946012B00F09280CEF108030293ED
:104E60000D9B002B40F388806F4BA046F1460A94BF
:104E7000186804910E9A049953181A460B93B0F9C6
:104E80000A30013A9342099269DCB0F90E308B4244
:104E900065DB059B002B62DD00260F9B069F03EB65
:104EA0000A04354607974DE0C9EB0606029B48FA0F
:104EB00003F208FA09F812F0FF025FFA88F802D14B
:104EC000037C9B0739D4D0F83CC0DCF80030039356
:104ED000089B0BB153F82220B0F9083004F1FF3ED3
:104EE000B0F90CB09942CCF80020B8BF1946DE45A5
:104EF0007346A8BF5B468B421CDBB0F90A20049FB7
:104F0000B0F90EE0BA42B8BF3A46099FBE45A8BF05
:104F1000BE4672450EDC407C444F57F82000D0F866
:104F20000CC0CDF800E0DCF810B0D8473E4B186854
:104F3000D0F83CC0039BCCF800300135059B5444AD
:104F4000AB420CD0CAEB0401002EADD1079A029EF1
:104F5000134692F80080013307933346A7E7069A79
:104F60000C990A9B0A44013306920B9A0A93049205
:104F70000D9A9A427FF47EAF11B0BDE8F08F2A4BB4
:104F80001868B0F90A20531A002B46DD0D99CC1A87
:104F9000002CF1DD069E0C9901FB036306930D9B2B
:104FA0004B44B0F90E10013B5B1A002B02DDE41AF2
:104FB000002CE1DD0F99059E8B19B0F90C10013B17
:104FC0005B1A002B01DDF31A05930F9B591BB0F9F7
:104FD000083099420DDA5B1A059F1D4423F007063D
:104FE000FB1A31440593069B03EBE50305F0070527
:104FF0000693059B002BBFDD467C0C48089F50F8AC
:105000002600C6681E95069D1F971D950C9DCDF820
:105010006CE01C951A94746814E70D9C0A462346AC
:10502000BEE700BF64440420AC00002054440420C8
:10503000B8B130F0010315D030F0030301D10820DE
:10504000704730F00703FAD030F00F03F7D030F09C
:105050001F03F4D030F0FF03F1D00B4B03401BB91A
:105060001020704701207047084B0340002BF7D0F9
:10507000074B0340002BF3D0064B0340002B0CBF23
:1050800010202020704700BF00FEFFFF00F0FFFF50
:105090000080FFFF0000FFFF024B01221B6883F826
:1050A00054207047AC0000202DE9F043044687B03F
:1050B000FCF784FB24B9FEF74BF907B0BDE8F08399
:1050C000204604ADFBF7C4FD0190076AD0F82880A4
:1050D00003C885E8030001A8FBF78EFE204601F017
:1050E0008BFA06460028E6D0FCF768FB2046FBF763
:1050F0009DFED0F81890FEF72BF918F0020F20D182
:105100002046FBF7A5FD01904846FBF7A1FD039063
:105110003046FBF79DFD039A03460199D56901A826
:105120001F620D62D4610293FBF766FE03A8FBF7D2
:1051300063FE02A8FBF760FEFEF70AF907B0BDE8C0
:10514000F08328463A46494601F0D8FDD8E700BF2B
:105150002DE9F04F87B01E4681468A461546DDF898
:105160004080139CFCF72AFB684B1F68B8F1000FC6
:105170000FD1674B1B88002B6CD104F12C00FBF77F
:10518000CFFB044630BBFEF7E3F8204607B0BDE88E
:10519000F08FB8F1FF3F68D04046FBF759FDB0F9FA
:1051A0000020B0F90230914401909A441DB9B0F941
:1051B0000450AD1A01351EB9B0F90660F61A013671
:1051C00001A8FBF719FE04F12C00FBF7A9FB04462C
:1051D0000028D8D04E4A4D44119B56440DF1180B6F
:1051E000013D1F431388013E01331380FBF730FD5F
:1051F000484A0346816A3A4012984BF8183D0A43E0
:1052000018619D805846DE80A3F80090A3F802A0A4
:105210009A62FBF7F1FD404B1868002857D11C60DB
:105220004146204601F0CEFABA062CD4F8071FD426
:10523000790624D4BB0758D4012306A92046039439
:1052400041F8103D01F068FEFEF782F8204607B0F5
:10525000BDE8F08F314A324B1268527C53F822304D
:105260005A1C012A89D9984696E74FF0000884E72E
:105270002C4A7906136803F101031360DAD520463E
:10528000FFF712FFD6E7254EFCF798FA254633685C
:105290009C6400E005462846FBF7C8FD80690028AD
:1052A000F8D11F4B1A6895421CD05B689D4218D0FC
:1052B000FFF70CFD2046FBF7B9FD3368B0F900108D
:1052C000B0F90220D9641A65FEF742F8AEE7FBF7A1
:1052D000ADFD05462046FBF7A9FD6B6943616C6196
:1052E0009EE70120FDF7B2FDE2E72046FBF7B0FCA8
:1052F000034658469A6A009342F002029A62FBF70C
:105300007BFD0021204600F0A1FB95E78C4804209E
:105310009A4804209F3F3F0090480420AC000020A2
:10532000E8480420A448042008B5064B00221B6866
:1053300083F85420FCF742FAFFF7C8FCBDE80840A8
:10534000FEF706B8AC00002003680E3B10B504461B
:1053500040681A2B12D8DFE803F01B11111111114C
:105360000E11112011111111111111111111221110
:10537000111111111400E16800F0F2FF0023E36045
:1053800010BD0028FCD00021BDE8104000F05EBB3D
:105390002146BDE8104000F0B5BEE06010BD6FF0E2
:1053A0007043E36010BD00BF2DE9F047844E86B026
:1053B0000446FCF703FA306848B1A04202D10BE082
:1053C000844209D0FBF732FD40690028F8D1FDF78F
:1053D000BFFF06B0BDE8F087254600E01D46284621
:1053E000FBF724FD8369002BF8D1764F3A6895428C
:1053F00000F0DE807B689D4214BF4FF0FF35012531
:105400000B230DF118082046039448F8103D41463F
:1054100001F082FD204600F063FF2046FBF718FCF8
:10542000436A0190002B40F0A280674B0021674A3D
:105430001B686748816052F82300844208BF42F825
:105440002310644A52F823108C4200F09480624B7F
:105450001B6853B1002101E01B6833B15A689442C4
:10546000FAD159601B68002BF8D12046072100F0C3
:1054700069FDDDF80490D9F81C0000285DD12046B4
:10548000FBF7E6FB81690290002962D14046FBF7F9
:10549000B3FC306858B1FBF7C9FC804640698442D0
:1054A000F8D12046FBF7C2FC4369C8F81430019BD1
:1054B0009B6AD90703D549490A68013A0A609A06E6
:1054C00042D401A8FBF798FC454A20461388013BCB
:1054D0001380FBF76FFA6B1C3FF479AF57F8255038
:1054E000FCF76CF9DFF80081D8F8003005B93568B1
:1054F0009D642C4600E01C462046FBF797FC836920
:10550000002BF8D139682F4A8C4253D053689C4203
:1055100054D0FFF7DBFB2846FBF788FCD8F80030B7
:10552000B0F90010B0F90220D9641A65FDF710FF38
:10553000FDF70EFF06B0BDE8F087FFF735FFD9F89D
:105540001C00002899D19AE7264A1388013B138052
:10555000B7E7026A202301F065FB2046FBF766FCF3
:105560008146806958B9029B00229A618EE71846ED
:10557000FCF770FA59E7002142F8231067E7FBF7C0
:1055800055FCC36982469C420BD0002BEBD01846D9
:10559000FBF74CFC036A9C42F7D1D9F82030036238
:1055A000E1E72046FBF742FC036ACAF81C30DAE761
:1055B0001D4625E71846FDF749FCAAE70120FAE752
:1055C00090480420E8480420A0480420F048042023
:1055D000F0420420E048042004490420A4480420A8
:1055E0009A48042098480420AC0000202DE9F04F90
:1055F000ABB0FCF7E3F8994B1B6803B19847002365
:105600001C4600E0012404F0D5F80028FAD1DFF8A8
:105610005CA20694DAF8003093F8543023B1904B32
:105620001B88002B40F096800793DFF84CB2FDF703
:105630008FFE20E0184605938A4B1E68FDF7EEFBAF
:1056400023681A6B5B6B03920493002E32D1864B56
:1056500003989E60FDF726FC0498FDF717FC05985B
:10566000FDF7D2FBFDF774FEB8F80030002B00F018
:10567000D08001230693DAF800307C4C93F8543044
:10568000002B00F0C680DFF8D881B8F80030002B7E
:1056900000F0BF80FCF792F8734B9E680DAB002EB4
:1056A000C8D018460593FDF7B9FB23681A6B5B6BEE
:1056B000039204930BAD30460896FBF7C9FA00F14C
:1056C0000803826A0990D0F818901746046902927C
:1056D00093E8030085E8030009A8FBF78DFB44F27B
:1056E00020033B40002B3ED0D4B1089C09E0FEF7DC
:1056F00045FB0A9B0AA89F69002F3BD03C46FBF75D
:105700007BFB2046FBF7A4FA02462846936A114623
:105710000A9213F00203EAD10AA81C46FBF76CFBBD
:105720000898FBF795FA524B826A0990134092044D
:1057300048BF43F00403836209A8FBF75DFBB8F898
:105740000030013BA8F800306CB13046FBF76EFB2F
:1057500046697CE7474B1B68002B7AD001221B6807
:105760000792984761E73046FBF760FB4669002ED9
:10577000A1D16CE7FBF740FBDBF80020A24205D08B
:105780003D4B5A68944201D03C46C9E7089CFCF75F
:1057900015F8DAF800300CB9324A14689C642746D0
:1057A00000E01F463846FBF741FB8369002BF8D128
:1057B000DBF800108F4242D0DBF804309F423AD031
:1057C000FFF784FA2046FBF731FBDAF80030B0F936
:1057D0000010B0F90220D9641A65FDF7B9FD029AEC
:1057E000510711D5B9F1000F0CD002F0010383F07D
:1057F00001030093002308AA204928461C46FCF711
:1058000053F98DE70123F4E70898012401F034FBF4
:1058100086E7FBF7D3FF079B3BB1164B186880B1B7
:1058200043689847164B00221A60FDF791FD0698D1
:105830002BB0BDE8F08F0120FDF708FBC0E718464C
:10584000FAE7FEF7E5FAFDF783FD06982BB0BDE811
:10585000F08F01200790FEF7DBFAE6E6004904200E
:105860009848042090480420F0420420AC00002016
:10587000DFBFFFFF88480420E848042095B72000D8
:1058800094480420034A044B1268527C53F82200C7
:10589000704700BFAC000020E848042010B5044663
:1058A00038B1FBF78BFF2046FBF7C0FAC469FDF760
:1058B0004FFD204610BD00BF10B5044638B1FBF7C0
:1058C0007DFF2046FBF7B2FA8469FDF741FD2046D3
:1058D00010BD00BF10B5044640B1FBF76FFF204676
:1058E000FBF7A4FAB0F90040FDF732FD204610BDE9
:1058F0002DE9F04F454D85B02B78002B7AD1444FE0
:105900001C46DFF840919A4638684249424ADFF81F
:105910002881424EDFF830B1AB604364C9F80030F3
:105920000B8013802046FBF781FC43F6FF730021B8
:105930004FF0020C4FF0FF3E1A4688B1CDF80CA094
:1059400008460296CDF804C0CDF800E0FFF700FC51
:105950006FF0704248F824004BF82420002850D102
:105960000134022CDED12E4800F0B2FC2D4800F0AC
:10597000AFFC2D4800F0ACFC2C4800F0A9FC2C48F2
:1059800000F0A6FC2B4800F0A3FCD8F80060FBF761
:1059900015FF3B680EB9D9F800609E64344600E0FC
:1059A00004462046FBF742FA80690028F8D1D8F86F
:1059B0000030214A9C4221D053689C421DD0FFF701
:1059C00085F93046FBF732FA3B68B0F90010B0F9C0
:1059D0000220D9641A65FDF7BBFC01233968174A18
:1059E000174881F854302B706A6205B0BDE8F04F5B
:1059F000FEF7FEBA05B0BDE8F08F0120FDF726FAEC
:105A0000DDE7002100F022F8AAE700BFF042042001
:105A1000AC000020984804209A480420E5B62000F5
:105A2000C0480420B0480420D0480420C8480420BE
:105A3000B8480420D8480420E8480420C5A820001D
:105A40001443042090480420A84804202DE9F04184
:105A5000074686B00C46FBF7B1FE3846FBF7F8F870
:105A6000D0F82880009018F0020F2FD004AE18F460
:105A7000803F03C886E8030045D17CB1206802ABB3
:105A80006168009C03C3B4F9022002A8B4F90010B5
:105A9000FDF738F902A93046FEF770F93D4608E0F7
:105AA000FEF76CF9019B01A89C69BCB12546FBF788
:105AB000A3F92846FBF7CCF8034630469A6A194604
:105AC00001939307ECD401A8FBF796F96846FBF71E
:105AD00093F9FDF73DFC06B0BDE8F081FBF78CF9CA
