:020000040020DA
:1000000048840020D1022000E1B1210007A721008F
:10001000DDB1210095662100C9CE2100000000005D
:100020000000000000000000000000000D022000A1
:10003000B76A21000000000069022000A1C721006A
:10004000EB022000EB022000EB022000EB0220007C
:10005000EB022000EB022000EB022000EB0220006C
:10006000EB022000EB022000EB022000EB0220005C
:10007000EB022000EB022000EB022000EB0220004C
:10008000EB022000EB022000EB022000EB0220003C
:10009000EB022000EB022000EB022000B96A2100F5
:1000A000EB022000EB022000EB022000EB0220001C
:1000B000EB022000EB022000EB022000EB0220000C
:1000C000EB022000EB022000EB022000EB022000FC
:1000D000EB022000B9CE2100EB022000EB02200051
:1000E000EB022000EB022000EB022000EB022000DC
:1000F000EB022000EB022000EB022000EB022000CC
:10010000EB02200045B62100EB022000EB022000AC
:10011000EB022000EB022000EB022000EB022000AB
:10012000EB022000EB022000EB0220008D69210091
:10013000EB022000EB022000EB022000EB0220008B
:10014000EB022000EB022000EB022000EB0220007B
:10015000EB0220009D692100EB022000EB02200051
:10016000EB022000EB022000EB022000EB0220005B
:10017000EB022000EB022000EB0220000000000058
:10018000EB022000EB022000EB022000EB0220003B
:10019000EB022000EB022000EB022000EB0220002B
:1001A000EB022000EB022000EB022000EB0220001B
:1001B000EB022000EB022000EB022000EB0220000B
:1001C000EB022000EB02200000000000EB02200008
:1001D000EB022000EB022000EB022000EB022000EB
:1001E000EB022000EB022000EB022000EB022000DB
:1001F000EB022000EB022000DFF80CD000F036F913
:10020000004800474DF62100488400202D4B196816
:100210000868B0E8F04F80F30988BFF36F8F4FF0A4
:10022000000080F311887047000000000848006853
:10023000006880F308884FF0000080F3148862B6ED
:1002400061B6BFF34F8FBFF36F8F00DF00BF00BFFA
:1002500008ED00E0DFF80C00016841F47001016076
:10026000704700BF88ED00E0EFF30980BFF36F8FA8
:10027000144B1A681EF0100F08BF20ED108A20E9F9
:10028000F04F106009B44FF0500072B680F311883F
:10029000BFF34F8FBFF36F8F62B620F057FE4FF062
:1002A000000080F3118809BC19680868B0E8F04FB5
:1002B0001EF0100F08BFB0EC108A80F30988BFF35E
:1002C0006F8F704788000020EFF3058070470000B3
:1002D0000648804706480047FEE7FEE7FEE7FEE7E0
:1002E000FEE7FEE7FEE7FEE7FEE7FEE7ADC821001A
:1002F000F90120002DE9F05F0546002092469B465B
:1003000088460646814640241BE02846414647462B
:10031000224600F09AF853465A46C01A914110D32B
:1003200011461846224600F081F82D1A67EB0108A5
:100330004F4622460120002100F078F817EB000913
:100340004E41201EA4F10104DFDC484631462A4616
:100350004346BDE8F09F10B5441A0346944209D2C3
:100360008418114403E011F8013D04F8013D521EC8
:10037000F9D210BD40EA0104A40703D009E010C976
:10038000121F10C3042AFAD203E011F8014B03F83C
:10039000014B521EF9D210BDD2B201E000F8012B80
:1003A000491EFBD270470022F6E710B513460A46F5
:1003B00004461946FFF7F0FF204610BD421E12F812
:1003C000013F002BFBD111F8013B02F8013B002B50
:1003D000F9D1704730B504460020034600E05B1CAD
:1003E000934203D2E05CCD5C401BF8D030BD0346A5
:1003F00011F8012B00F8012B002AF9D1184670479B
:1004000030B50B46014600202022012409E021FAE4
:1004100002F59D4205D303FA02F5491B04FA02F5E1
:100420002844151EA2F10102F1DC30BD202A04DBB4
:10043000203A00FA02F1002070479140C2F12003F7
:1004400020FA03F3194390407047202A04DB203A36
:1004500021FA02F00021704721FA02F3D040C2F1E4
:10046000200291400843194670470000064C074D92
:1004700006E0E06840F0010394E807009847103474
:10048000AC42F6D3FFF7BCFEBC902200DC90220009
:1004900070B58C1810F8015B15F0070301D110F846
:1004A000013B2A1106D110F8012B03E010F8016B73
:1004B00001F8016B5B1EF9D12B0705D40023521EF6
:1004C0000DD401F8013BFAE710F8013BCB1A921C5E
:1004D00003E013F8015B01F8015B521EF9D5A1425C
:1004E000D8D3002070BD0000204B70B51E6803F00B
:1004F000E3FB1F4C0025304608F0D0F806F030FC36
:100500001C4B1E6803F0D8FB304608F001F906F0DA
:1005100027FC03F0D1FB012223681A7606F020FCA9
:1005200003F0CAFB23689D8506F01AFC03F0C4FBA8
:1005300023685D8506F014FC03F0BEFB284608F036
:10054000FFF806F00DFC0C4B1D6803F0B5FB2368AB
:1005500005B1DD6106F004FC03F0AEFB2368002268
:100560009A76BDE8704006F0FBBB00BF0401002096
:100570000801002000010020FC0000202DE9F04FC0
:100580005C4E8DB03368DA69B3F92250D469B4F89F
:100590000CB0834500F29780E1898142C0F09380DE
:1005A0002168CBEB000B08914FF0FF310A91BBF1B2
:1005B000FF3F00F0828092F81880A27CB3F92A10E5
:1005C000B3F9249018FB02F3084607911F4694F8EC
:1005D00010A008F0B5F8D6F800E008994346DEF818
:1005E00038C05246099007FB0B10DEF81CE00B9751
:1005F000012704904946CDF814C0284694F812C04B
:100600000297CDF80CC09EF81BC0DFF8E8B0CDF81B
:1006100004C09EF81AE0CDF800E007F0BFFA0A9F88
:100620007B1C25D0079941F0020008F089F8DBF81F
:1006300000100B9A43460898D1F838C002FB070017
:10064000D1F81CE00127CDF814C00490524694F86C
:1006500012C0494602972846CDF80CC09EF81BC030
:10066000CDF804C09EF81AE0CDF800E007F096FA45
:100670003368DFF88080DB695A7E1B7E9A4215D989
:10068000079B022B12D083F0040008F059F8D8F829
:1006900000302846DB691F7ED97E9A7E5B7E07FB91
:1006A00001910AFB02524B4407F058FC9DF82400CC
:1006B00008F046F83368B3F92250627C15445D8433
:1006C0000DB0BDE8F08FA1680029F6D00F88B842C0
:1006D000F3D3B1F802E08645EFD3C01B49686768E1
:1006E00080B2089701EB800731F920B0B7F902100A
:1006F0000A915CE708010020044B1B68DB69DB6999
:1007000009B11A7C0A60587C704700BF08010020BC
:1007100002230B80704700BFC3699A898A4202D8BE
:10072000DA898A4211D2986818B10388994201D2B5
:100730000020704742888A42FAD3C91A436833F8C6
:100740002100C043C0F3C03070470120704700BF94
:100750002DE9F047244F3D68002D3FDD234EC5EBCA
:100760004515DFF88C804FF0000A3468D8F8009007
:1007700004EB85050C340C35A4F1080374224946BA
:100780001846FFF7E8FD221F2063A06344F80CAC75
:100790006263E4607C34A542EED10024254603E088
:1007A00082B13A68954213DA16F0B6FD3368013526
:1007B0001A5919197C349042F2D10431C8F800104A
:1007C000BDE8F08708600431C8F80010BDE8F08784
:1007D00019460431C8F80010BDE8F087034BDFF874
:1007E00010801968E9E700BF64010020247E002022
:1007F00008010020F8B5184F184B3846184E40F83D
:100800000C3F07F009F93468C4EB4414A4002046F7
:1008100000F0ACF8134B224600211B683860984763
:100820004FF0FF33736016F081FD3368002B0FDD4E
:100830000024254603E062B133689D4208DA16F0D1
:100840006BFD3B6801351A5923447C349042F2D148
:10085000F8BD1860F8BD00BF247E0020A141210032
:10086000640100207801002000B9704710B50446EB
:1008700003F022FA20460AF0D7FE044606F070FA8A
:10088000204610BDF8B5054603F016FA25B9002438
:1008900006F066FA2046F8BD03F00EFA28460AF084
:1008A000C3FE044606F05CFA002CF0D0144E2A4633
:1008B000144F0021F069736B013003EBC405F06144
:1008C00013F83400013003F834006D683B6805F11B
:1008D000080098472968726B12F83130012B01D952
:1008E000F06930B9013B02F8313006F039FA2046A0
:1008F000F8BD0138013BF06102F83130F5E700BF87
:10090000407F00207801002021F00301014B83E8A3
:1009100003007047607B002000B9704770B50D4C34
:10092000054603F0C9F9EE00636B33445968486823
:100930000AF0CCFC6368626B0021606A01331644E4
:100940006360706002F835106562BDE8704006F0C3
:1009500007BA00BF407F002028B1034AD36B036071
:1009600003B15860D0637047407F0020F8B58B4ECC
:10097000044696F82830002B2FD00334356CF26BE8
:1009800024F003040434A54238BF254662B152F86E
:10099000043C14469D4204D114E054F8043C9D42AA
:1009A00010D02468002CF8D1F368B46B1C4454F8C0
:1009B000041C611A0B68002B68D14B689D426FDDE7
:1009C000002408E023680BB161685960616801B1D7
:1009D0000B60A24256D02046F8BD714B01219A68A7
:1009E00086F8281058680AB982089A605A27102297
:1009F00020254FF0400E3762802732644FF480721A
:100A0000B5644FF400751968C6F850E04FF4806E75
:100A1000B7654FF4006732664FF48052B5664FF405
:100A20000055A1F11403C6F870E0B7674FF4804E8B
:100A3000C6F880204FF40047C6F888504FF4803243
:100A40004FF400350344C6F890E04FF4802EC6F80A
:100A500098704FF40027C6F8A0200222C6F8A850CC
:100A60000125B1637363C6F8B0E03261F060C6F887
:100A7000B8705D60756275600AF028FC10F01EFDAC
:100A800035637AE723682046F363F8BD002014F04D
:100A9000AFF854F8041C611A0B68002B90D18CE756
:100AA000581BD6F8B8703D4A041DBB420C4472D2A4
:100AB000D2F8B070BB426CD2D2F8A870BB4266D2FA
:100AC000D2F8A070BB4260D2D2F898709F425AD937
:100AD000D2F89070BB4254D2D2F88870BB424ED24A
:100AE000D2F88070BB4248D2926F934243D2376FA4
:100AF0002A4ABB423DD2976EBB4238D2176EBB42E8
:100B000033D2976DBB422ED2176DBB4229D2976C60
:100B1000BB4224D2126C93420CD2F2687369521B0E
:100B20002B44F260736110B944F8045C53E70AF097
:100B3000CDFBF9E700223768D1F808E0FF1ACB684F
:100B40003760BEF1000F01D0CEF8043013B1C3F806
:100B500000E0E2E706EBC202C2F844E0DDE7012272
:100B6000E9E70222E7E70322E5E70422E3E70522BB
:100B7000E1E70622DFE70722DDE70822DBE70922BB
:100B8000D9E70A22D7E70B22D5E70C22D3E70D22BB
:100B9000D1E70E22CFE70F22CDE700BF407F002034
:100BA000607B0020F8B54A4C94F82830002B3DD0EB
:100BB000D4F8BC30464A3BBBD2F8B43023BBD2F8A1
:100BC000AC300BBBD2F8A430F3B9D2F89C30DBB90F
:100BD000D2F89430C3B9D2F88C30ABB9D2F88430A3
:100BE00093B9D36F83B9536F73B9E36E63B9536E1F
:100BF00053B9D36D43B9536D33B9D36C23B9536C27
:100C000013B96FF00B00F8BD9B68002BF9D00022E0
:100C100001E09B6843B159681046914201D90A46E8
:100C200008469B68002BF4D10C38F8BD294B0121F4
:100C30009A6884F8281058680AB982089A605A2677
:100C40001022202540272662802622644FF48072DD
:100C5000A5644FF40075196827654FF48067A66591
:100C60004FF4006622664FF48052A5664FF400559B
:100C7000A1F114032767A6674FF48047C4F88020CA
:100C80004FF40046C4F888504FF480324FF40035DA
:100C90000344C4F890704FF48027C4F898604FF470
:100CA0000026C4F8A0200222C4F8A8500125A163A0
:100CB00063632261E060C4F8B070C4F8B8605D603E
:100CC000656265600AF002FB10F0F8FB25636FE7D0
:100CD000407F0020607B002030B1044B5B6B03EB56
:100CE000C000436858680C38704700BF407F002040
:100CF000024A936901339361704700BF407F00202F
:100D0000084AD169536B013110B4D16103EBC004BF
:100D100013F83020013203F8302060685DF8044B8E
:100D200008307047407F0020F8B5584C02F0C4FFEF
:100D300094F82830002B57D0D4F8BC30534A9BBBD2
:100D4000D2F8B43083BBD2F8AC306BBBD2F8A4304D
:100D500053BBD2F89C303BBBD2F8943023BBD2F8C3
:100D60008C300BBBD2F88430F3B9D36FE3B9536F37
:100D7000D3B9E36EC3B9536EB3B9D36DA3B9536D91
:100D800093B9D36C83B9536C73B96FF00B034049BB
:100D9000DA1781FB0313C2EB6313246A04FB03F429
:100DA00005F0DEFF2046F8BD9B68002BF5D0002241
:100DB00001E09B6843B159681046914201D90A4647
:100DC00008469B68002BF4D10C38B0F5800F034621
:100DD000DDD8226A2E4B02FB00F0A3FB00235C0946
:100DE00005F0BEFF2046F8BD2A4B01219A6884F821
:100DF000281058680AB982089A605A2610222025BD
:100E000040272662802622644FF48072A5644FF446
:100E10000075196827654FF48067A6654FF4006672
:100E200022664FF48052A5664FF40055A1F11403D9
:100E30002767A6674FF48047C4F880204FF4004628
:100E4000C4F888504FF480324FF400350344C4F89E
:100E500090704FF48027C4F898604FF40026C4F8CF
:100E6000A0200222C4F8A8500125A1636363226177
:100E7000E060C4F8B070C4F8B8605D606562656039
:100E80000AF024FA10F01AFB256355E7407F002092
:100E90001F85EB51607B0020024A9369013B9361FF
:100EA000704700BF407F002003680B4A30B40446FF
:100EB00053F8085C506B10F83530012B03D9D16919
:100EC00009B10139D1610022013B00F835301046EB
:100ED000226030BC704700BF407F0020034B5B6B3B
:100EE00003EBC00040680830704700BF407F00201F
:100EF000B0F1004F2DE9F04346D0002851DB00252A
:100F00004D1B4FF0000EEDB20AB1013DEDB275B3CD
:100F10006C1EAA42274F4FF03108DFF89CC0E4B2A4
:100F20001ED057F8246090FBF6F1C9B20A2901F1EE
:100F3000010906FB11001AD824B9BEF1000F01D037
:100F40005FFA89F10A2901F1300115D01D686E1C84
:100F50001E6029705CB125466C1EAA42E4B2E0D145
:100F600019684E1C1E609CF800600E70D9E71B6863
:100F700000221A70BDE8F08319682C464D1C1D60D4
:100F8000254681F80080E7E71C684FF0010E4D1EF2
:100F90002D2104EB0E066FF00040EDB21E602170B3
:100FA000B2E71C6801252D26404267191F60267094
:100FB000A6E700BFAC5A2200048000202DE9F04FC4
:100FC0000E4683B0804602F077FEB400304600F053
:100FD00055FEDFF81891A3198246D9F8002009EBD5
:100FE00083035F68002A32D0BAF1000F3BD1A51904
:100FF000012309EB85056869C5F804802B72002878
:1010000063D1B8F1000F1CD034444FF0010AD8F876
:101010000820334609EB8404D8F80410D8F80000FF
:10102000CDF800A02569AA1AE568691A04F094FFB2
:101030006061304600F022FE00284BD1237A002B5D
:101040003AD105F08DFE384603B0BDE8F08F264A50
:101050004846012340F82C2FC9F8003006F0DCFC8C
:10106000BAF1000FC3D05046344405F007F8834668
:10107000002009EB840405F021F8012500F0DEF8DA
:101080000022D8F80000114600F04EFCD8F80030DD
:1010900050465A88198805F055F85846C4F8048017
:1010A000257204F0EBFF304600F0E8FD0028C5D0C3
:1010B000294605F057F8C4E7606904F019FF05F008
:1010C0004FFE384603B0BDE8F08F04F0C3FBC5F80F
:1010D00014A096E7514605F045F805F041FE384664
:1010E00003B0BDE8F08F00BFE9402100107C002074
:1010F0002DE9F04114460646884602F0DDFD204603
:1011000000F0BCFDE8B9A7001B4D3B1905EB8303BC
:10111000DA68B24206D11B69434503D1BDE8F0410C
:1011200005F01EBE3B1905EB83035869D0B93C445A
:1011300005EB8404E660C4F81080BDE8F04105F0DA
:101140000FBE0D4B04EB840403EB840463689A68C0
:101150005968C2EB0802711A04F0E4FFBDE8F041DF
:1011600005F0FEBD5B689A685968C2EB0802711A07
:1011700004F0A0FBDBE700BF107C0020174B1B68CE
:1011800070B55D7C02F098FD154B012605EB8504DA
:1011900003EB840463682672BBB1284600F06EFD41
:1011A00060B9237A1BB9BDE8704005F0D9BD60690C
:1011B00004F09EFEBDE8704005F0D2BD314604F05B
:1011C000D1FFBDE8704005F0CBBD29460548FFF7CB
:1011D000F5FEBDE8704005F0C3BD00BF080100206A
:1011E000107C002060822200C3B2CAB29A1A92B266
:1011F00010B414B2002C1EDBC1F30722C0F3072386
:101200009B1A9BB21AB2002A12DB090C02FB02F2F3
:10121000C1EB104104FB042089B20CB2002C01DAAE
:1012200049420CB2A1B25DF8044B01FB01007047CA
:101230005B421AB2E9E7524214B2DDE700212DE920
:10124000F041084682B000F09DFD184F02F034FDD9
:10125000042007F075FA164B43F6FF763D461B69EE
:10126000804634466846DA6C1B6D174416441D44AC
:101270001C44ADF80070ADF80460ADF80250ADF854
:10128000064009F02DFA48B1234632462946384631
:1012900006F064FE09F0E0F80028F5D1404607F0BA
:1012A0004FFA05F05DFD02B0BDE8F08101C0FFFF1F
:1012B000F800002080B582B000AF7860054B1B6855
:1012C000002B03D0034B1B687868984700BF083792
:1012D000BD4680BD00800020012B17DC2DE9F041C8
:1012E00007461C2090460D461E46FFF73FFB04466E
:1012F000D0B16DB1056100232046A661A4F8148029
:10130000E76023606360A360BDE8F0810020704760
:10131000074B53F826200AB9EDE71A461368002B4D
:10132000FBD113692361E6E70020BDE8F08100BF2F
:1013300018800020012B3BDC2DE9F84381461C205E
:1013400090460F461E46FFF711FB054600287FD04A
:10135000414A002F31D00023DFF804E152F8264043
:1013600003609EF8001007618E428661A0F8148029
:10137000C0F80C904360836002DB731C8EF8003071
:10138000002C5DD021464C68002CFBD1D9F8000020
:10139000CB681B6883422CDD09680029F8D148B965
:1013A0002E4B163628461A6842F82650BDE8F883B8
:1013B000002070472846BDE8F88352F8261000291F
:1013C00030D0084600E018460368002BFBD10069C6
:1013D000DFF88CE02B6028619EF80000AE61864249
:1013E000A5F81480C5F80C906B60AB60CBDB0C46A5
:1013F000C3E70AD04B6843B31D606B608D4214BFD6
:101400000B4600234D602B60C9E7B8F1010FF1D105
:1014100004E0DC68194623688342EBDB0B68002B91
:10142000F7D1E7E7DFF838E001609EF80030866129
:101430009E42A0F81480C0F80C9041608160D6DA1A
:1014400042F82650D9F80000A9E742F82650D5E71F
:101450000020BDE8F88300BF1880002008010020AC
:1014600011800020FFF778BA00283DD070B484695D
:10147000012C03DD0123184670BC70471F4B1A78FE
:10148000944221DA1E4D55F824300BB932E0134650
:101490005A68002AFBD1C268116802E01B68002B61
:1014A000E8D0DA6812689142F8DB10D05A68F2B1DD
:1014B00010604260984214BF1A4600225860002310
:1014C0000260184670BC7047621C1A70DAE7828AA4
:1014D000012AEBD104E0D668134632689142E5DC7C
:1014E0001A68002AF7D1E1E701231846704745F84A
:1014F0002400DFE745F82400BDE700BF118000208D
:101500001880002000284DD02DE9F041DFF89CE044
:10151000254F9EF80060BC4601E028463DB3846933
:101520000568012CF9DCB44201DB661CF6B257F801
:1015300024300BB933E013465A68002AFBD1C26845
:10154000116802E01B68002BE7D0DA6812688A4253
:10155000F8DC10D05A68A2B110604260984214BF03
:101560001A460022586002602846002DD7D18EF816
:101570000060BDE8F081828A012A0CD05A68002AF6
:10158000EAD147F82400E9E7D2F80C801346D8F8EE
:1015900000208A42DEDB1A68002AF5D1DAE74CF82F
:1015A0002400BAE7704700BF188000201180002097
:1015B0000F4A816952F8213098420AD042680AB134
:1015C00003681360036803B15A600023036043603B
:1015D0007047036842F821302BB100225A604268FC
:1015E000002AEED1F0E74268002AEAD1EDE700BF19
:1015F000188000200020704701280EDC084B53F8AB
:10160000200058B1C3681B681BB908E0C3681B6899
:1016100023B100680028F9D1704700207047704757
:10162000188000202DE9F843074615F079FEDFF811
:101630006C90074415F074FEDFF864803E1A002EAB
:1016400022DD00F0F5F9D9F800309E42A8BF1E4611
:1016500002F032FBD8F80040FFF74AFBB4B1254650
:1016600005F07EFB013DFBD1304615F04FFE02F048
:1016700023FB013CFBD1FFF70FFC05F071FB15F0DC
:101680004FFE3E1A002EDCDCBDE8F883304615F034
:101690003DFEFFF701FC05F063FBF0E714010020BD
:1016A000287E0020F0B585B01F460D46164604ABD7
:1016B00001AC3946002243F8104DFFF719FC3246C1
:1016C0002946204600F01CF905B0F0BD082BF0B506
:1016D00085B074D804AC00265D1E1C44EDB204F83D
:1016E0000C6C002B6BD0384C00F00F0604AF264476
:1016F00007EB050E9F1E96F828C00609FFB20EF8EC
:101700000CCC002D5BD006F00F0504AE254406EB93
:10171000070EDE1E95F828C0050AF6B20EF80CCCAE
:10172000002F4CD005F00F0504AF254407EB060E43
:101730001F1F95F828C0050BFFB20EF80CCC002E29
:101740003DD005F00F0504AEA3F1050E254406EBD0
:10175000070C5FFA8EFE95F82850060C0CF80C5C0E
:101760006FB306F00F0604AD070D264405EB0E0C13
:101770009D1F96F82860EDB20CF80C6CBEF1000FBE
:101780001DD007F00F0704AE073B274406EB050EFC
:10179000DBB297F82870060E0EF80C7C7DB106F0CF
:1017A0000F0504AE000F25441E4495F8285006F896
:1017B0000C5C23B1204490F828308DF8043001A847
:1017C00000F09EF805B0F0BDAC5A22002DE9F04FB4
:1017D0004A4D83B0044602F06FFA00F059FA2B68C4
:1017E0000646B3F9228000F099FA2B681FFA80F9B7
:1017F0009A8CC9EB020212B29A84217800294FD048
:10180000B6B22F4647F6FF71204605F097FF014616
:101810008346204605F052FF29688B8D03F00303B1
:10182000012B5AD0022B5CD01FFA80FA4FF0000E29
:101830004B8C0AF1FF3CB1F92420CEEB0303ADF849
:101840000220013A9BB2B0186A460FFA83FE634445
:10185000ADF806002046A1F822E05946ADF800E0B8
:10186000ADF8043005F0C6FC2B682046BDF8022018
:1018700059469A8405F04AF9235C04440A2B1BD08C
:101880000D2B19D0BDF800003B688244A3F822A0BC
:1018900022781AB162780134002AB3D1B3F9242036
:1018A000998D914421F00302A3F824909A8505F0C4
:1018B00057FA03B0BDE8F08F2B689A8D02F003024F
:1018C000013A012A16D8A3F8228022780A2AE0D108
:1018D0009A8C32449A842278DBE71FFA80FEF24623
:1018E000A6E7002803461FFA80FAB8BF431CC3F3DB
:1018F0004F0E9DE71A8C5A84E7E700BF08010020CD
:1019000070B50E461546044602F0D6F9054B1B6825
:101910005E849D8414B12046FFF758FFBDE87040F7
:1019200005F01EBA080100202DE9F04FDFF8F8900D
:1019300089B0044690460F4602F0BEF9D9F800304F
:1019400006A82588DA6C1E6D013D63881744B044F3
:10195000013B7A19ADF818704344ADF81A80ADF820
:101960001C20ADF81E3008F0BBFE002851D0CB463D
:10197000DFF8B8A01BE040F0020004F0B7FB2669D6
:101980002EB3E0680122D4F808E041466388039250
:101990000292228801903846CDF800E03668B047C0
:1019A000284604F0A3FB08F057FD002831D0E66874
:1019B000002004F09BFB054616B13379002BDAD1E9
:1019C00025F0020004F092FB2669002ED9D1D9F847
:1019D00000202146DAF80030527CE0689847E18820
:1019E000E0B16388012622880590A06802914146F3
:1019F00004903846B4F804E00196CDF80CE0009667
:101A000006F0CCF8284604F071FB08F025FD00280C
:101A1000CDD105F0A5F909B0BDE8F08F0129E0D1DD
:101A2000DBF80030986BDCE708010020F8000020AC
:101A30002DE9F0410025124F124EDFF84C803C6832
:101A40001CB1A047041C18BF012407F03BFB3368FE
:101A5000002818BF01244BB1984738B1D8F800309E
:101A600013B1012498473CB10125E8E7D8F80030CC
:101A7000002BF7D1002CF7D12846BDE8F08100BF3C
:101A80003C8000204080002038800020002850D07A
:101A9000C388013B10B5848880681F2B47D8DFE8D6
:101AA00003F0162346314646463C464646464646E1
:101AB00046404646464646464646464646464646CC
:101AC0004610A31002FB031150F8210010BD02FBC9
:101AD00004F200EBD104C843A35C00F0070023FA32
:101AE00000F000F0010010BD02FB04F200EB9104D5
:101AF0006FEA4100A35C00F0060023FA00F000F05A
:101B0000030010BD02FB04F200EB5104CB07A05C04
:101B10004CBF00F00F00000910BD02FB0404605C24
:101B200010BD631002FB031130F8110010BD00203E
:101B300010BD7047013800B51F2853D8DFE800F00A
:101B40001827523752525244525252525252524A0B
:101B500052525252525252525252525252525210A7
:101B60000198891000FB013352F823005DF804FB53
:101B7000019802EBD302DB4300FB01F003F0070303
:101B8000105C20FA03F303F001005DF804FB0198F8
:101B900002EB93026FEA430300FB01F003F006033C
:101BA000105C20FA03F303F003005DF804FB0198D6
:101BB00002EB5302DB0700FB01F0105C4CBF00F0AE
:101BC0000F0000095DF804FB019800FB0122D05CC6
:101BD0005DF804FB0198491000FB013332F8130053
:101BE0005DF804FB00205DF804FB00BF034B0821F7
:101BF00053F82000C3689B6A184700BF1880002074
:101C000010B502F059F806F0E9F906F087FB044632
:101C100005F0A6F8204610BD10B5044602F04CF8B9
:101C2000054B002120461B68DB695B68984704462A
:101C300005F096F8204610BD0801002038B504468E
:101C40000D4602F039F8064B294620461B68DB6931
:101C50005B689847044605F083F8204638BD00BF0E
:101C60000801002010B502F027F806F0BFF906F0D1
:101C700055FB044605F074F8204610BD012801D933
:101C800000207047014B53F820007047107D002062
:101C900010B502F011F8044B1B68DB695C7E05F09F
:101CA0005FF8204610BD00BF0801002070B5044653
:101CB0000E46154602F000F8204631462A4606F048
:101CC00003FA044610B1002333602B6005F048F896
:101CD000204670BD38B505460C4601F0EDFF064ABA
:101CE000064BB2F90020B3F900302A602360BDE84A
:101CF000384005F035B800BF06800020088000207D
:101D000015F00EBB044B3422352061219A701870F7
:101D100018461971DA707047F000002010B501F014
:101D2000CBFF0F4B1A68938D03F00C03082B08D0E0
:101D30000C2B06D0042B0BD0002405F011F8204604
:101D400010BDD3691C7E05F00BF86408204610BD59
:101D5000D3691C7E05F004F8013C204610BD00BF8D
:101D600008010020024B53F820301B6918687047A7
:101D700018800020024B53F820301B6958687047C8
:101D80001880002038B505460C4601F095FF044B3D
:101D90001B685D849C8404F0E3FF002038BD00BF15
:101DA0000801002090B583B000AF544A534B1B6824
:101DB00023F001031360524B1B68C3F30A0340F284
:101DC000494293420CBF01230023DAB24C4B1B68FB
:101DD000C3F30A0340F251418B420CBF012300239D
:101DE000DBB21343DBB21946454B1B68C3F30A034E
:101DF00040F2524293420CBF01230023DBB20B435B
:101E0000002B10D03F4B01221A6000BF3D4B1B68D6
:101E1000002BFBD13C4B3D4A1A603B4B1B683C4AB4
:101E2000934218D0FEE73B4B1B68C3F30A03B3F59C
:101E30008A6F10D1384B01221A6000BF364B1B68E5
:101E4000002BFBD1354B314A1A60344B1B68304AAA
:101E5000934200D0FEE705F08BF9314B2E221A7029
:101E600015F062FA2F4811F087F914F015FB78602D
:101E700006F0A4F90346002B0CBF01230023DCB2BB
:101E800006F0E2F90346002B0CBF01230023DBB26E
:101E90002343DBB2002B09D006F0A6F9044606F076
:101EA000E9F903461946204606F044FC00210020CB
:101EB00004F066F907F02AFDFEF74AFC1A4B1B688E
:101EC000002B12D00DE0184B1B681B68002B03D0B1
:101ED000154B1B681B689847134B1B685B68124ABD
:101EE0001360114B1B68002BEDD1104B01221A70AF
:101EF0007B6818460C37BD4690BD00BF002000E04F
:101F0000002004E00830024000300240C2A507F47F
:101F1000CDB5E8B50010005C084C0258004C0258E2
:101F200004800020747B0020EC7B002010800020C7
:101F3000F0B5204C85B015461E46246803910290EA
:101F400004B302A91C48A047044614B9204605B0B2
:101F5000F0BD01F0B1FE48F29840FEF793FC074651
:101F600028B9012404F0FCFE204605B0F0BD00961F
:101F70002B4602AA10490CF0FFF904463846FEF73A
:101F8000CBFCEFE701F098FE48F29840FEF77AFCB0
:101F9000074618B9012404F0E3FED6E700962B4665
:101FA00002AA05490CF0E8F904463846FEF7B4FCED
:101FB000F1E700BF5C7C00201D3120002DE9F041DD
:101FC00084B006460F46984604AC154601F074FEF0
:101FD000039744F8086D01F06FFE0B9B21462A46DB
:101FE000074801930A9B009343460CF073FB044699
:101FF00004F0B6FE04F0B4FE204604B0BDE8F08163
:102000001D31200047F288432DE9F04FC358AFB08F
:102010000990002B40F02F8247F20943C35C002B4C
:1020200000F0528211F078FD002840F0668247F2FD
:102030002043099AD358099D47F20841012047F2ED
:1020400088426854AB50099B03F5E9442368002B90
:1020500000F0BA87079347F27443099CE058FEF7F3
:102060004FFE0D90002800F04F8247F21843E358CE
:10207000002B40F3468247F2184301460020E31844
:1020800008900B936D4B0A93034601EBC3110A9B17
:1020900080220EA81B6898470DF1480E19E03EF902
:1020A000103C0EF1100E9B001BB22EF8203C2EF8B7
:1020B0001E3C2EF81C3C2EF81A3C2EF8183C2EF82C
:1020C000163C2EF8143C2EF8123C32AB734500F04F
:1020D000AC803EF90E0C3EF90C5C3EF9062C3EF944
:1020E0000A1C40EA0503564F02EB000A56183EF957
:1020F000089C0B433EF9048C07FB06F63EF902CC24
:1021000049EA030305EB080402920CEB00071343B2
:1021100001964CF2DF4241F2511648EA030318FBE4
:1021200002FB06FB04F441F67E020CEB01065CEABE
:102130000303444B05FB0245434A5C44009506EB10
:102140000A0502FB07F742F2A15202FB05F503FB69
:1021500006563E4B03FB0A55A1D03EF910BCBB19F5
:10216000019A2F440EF1100E02EB050A0BEB090544
:102170001644009A6D03C9EB0B0B02EB0508AD1A70
:1021800043F20B024FEA4B3B10FB027740F68E12F4
:1021900004EB0B09C4EB0B041CFB023C44F2B3132D
:1021A000BDF8082008EB0700C7EB080712FB03ABDC
:1021B00046F2542300F5806007F5806711FB036643
:1021C00005EB0C0104EB0B03CCEB050509EB060258
:1021D000CBEB040BC6EB090601F5806105F58065C4
:1021E00002F5806206F5806603F580630BF5806B6F
:1021F000C012DB12FF122EF8200CC9122EF81C3C64
:10220000ED122EF8127CD2122EF81A1CF6122EF8AD
:10221000185C4FEAEB2B2EF81E2C2EF8146C32AB08
:102220002EF816BC73457FF454AF0DF1380EDDF86F
:102230001C800823F346C44602932AE07401002060
:10224000FDADFFFF3BC1FFFF33E3FFFF84F3FFFF63
:10225000BBF9003010335B11803383F30803DBB22A
:102260008CF800308CF808308CF810308CF818306E
:102270008CF820308CF828308CF830308CF83830DE
:10228000029B0BF1020B0CF1010C013B029300F0DD
:10229000E785BBF910E0BBF92010BBF930904EEA9E
:1022A0000102BBF94050BBF9504049EA0202BBF9B8
:1022B0006030BBF970002A430094019022431A4316
:1022C0000243C5D002460446944F01EB03084A443A
:1022D000BBF900A01646009A02EB0E0004EB0E02BA
:1022E000344607FB02F741F251120444049742F2CC
:1022F000A15702FB08F841F67E0207FB04F40AEB43
:102300000507C5EB0A0501FB02814CF2DF42069589
:10231000834D13FB02F343F20B0205FB00407D03E8
:10232000049F4344039507EB000A009D7D4F1EFB6D
:1023300002A24D4407FB06447B4E1746059206FB5E
:1023400005F5039E01EB060A049E28440AEB070EDE
:102350002644069F2C440EF5003E324646F2542594
:10236000039E4FEAAE4E4FEA4738711A0EF1800EC7
:1023700040F68E16BDF8047019FB05441FFA8EFE58
:1023800017FB0622BDF800700FFA8EF544F2B31663
:1023900017FB060015F47F4F03EB0807C3EB080398
:1023A00040F02C855FFA8EFE059D8CF800E0C5EBB1
:1023B0000A0606F50036B6148036B6B235B215F404
:1023C0007F4F40F04785F6B23D198CF8386005F52F
:1023D0000035AD148035ADB22EB216F47F4F40F00B
:1023E0003385EDB23C1B8CF8085004F50034A4147E
:1023F0008034A4B225B215F47F4F40F01F85E5B2BA
:102400001C188CF8305004F50034A4148034A4B2A5
:1024100025B215F47F4F40F00B85E4B21B1A8CF8FF
:10242000104003F500339B1480339BB218B210F4B4
:102430007F4F40F0F784D8B28B188CF8280003F552
:1024400000339B1480339BB218B210F47F4F40F0DE
:10245000E384DBB28A1A8CF8183002F500339B143F
:1024600080339BB21AB212F47F4F40F0CF84DBB2BC
:102470008CF8203004E747F208420146825C002ACB
:102480007FF4E1AD47F20A428A5C042A0ED8DFE805
:1024900012F027025102970305004D00DA0740F1C0
:1024A000F38447F29442012109988154099E47F22E
:1024B0008441013B47F28844725800203351013A6D
:1024C00072502FB0BDE8F08F0AF0CCFFA8B909997F
:1024D00047F2204447F284420B598A589A423FF708
:1024E000AAAD08460EA912F0C7F830B99DF83830E9
:1024F000D92B02D1099B1B599DE501202FB0BDE8C6
:10250000F08F0DA8FEF7D0FC099C002147F288430C
:1025100047F20842E358A1542146B3E733E3FFFFF3
:1025200084F3FFFF3BC1FFFFFDADFFFFD907B8D428
:10253000099E47F2204147F28C427458B058E41A81
:10254000FEF7DEFB47F290430D900546F058FEF78C
:10255000D7FB072C0E9000F32B8506F5E94319688D
:1025600001EBC40A631047F20C42099CDB00A2583D
:10257000002A039240F3A58103F5827320300AF10B
:10258000400A05F12002CB18DFF8A4B300900193B4
:10259000E54B02F1400650469DE82200029695F870
:1025A0003C70203215F804EC40300BEB870710F834
:1025B00080CC0BEB8E0E0435D7F8D0442031DEF8FA
:1025C000D068D7F8D070DEF8D0EC34441F4403EB69
:1025D00024449E4407EB0C0904EB0C08F44499F8DE
:1025E000D89098F8D8809CF8D8C002F83F8C02F8B0
:1025F0003E9C02F840CC10F87FCC07EB0C0904EBB2
:102600000C08F44499F8D89098F8D8809CF8D8C071
:1026100002F83A9C02F83B8C02F83CCC10F878CCDB
:1026200007EB0C0904EB0C08F44499F8D89098F8DF
:10263000D8809CF8D8C001F83E9C01F83F8C01F886
:1026400040CC10F877CC67446444E64497F8D870DF
:1026500094F8D84001F83A7C01F83B4C9EF8D840F9
:1026600001F83C4C95F8397015F807EC0BEB87072F
:1026700010F87ECC0BEB8E0ED7F8D044DEF8D06885
:10268000D7F8D070DEF8D0EC34441F4403EB244478
:102690009E4407EB0C0904EB0C08F44499F8D8901D
:1026A00098F8D8809CF8D8C002F8378C02F8369C8D
:1026B00002F838CC10F87DCC07EB0C0904EB0C08C1
:1026C000F44499F8D89098F8D8809CF8D8C002F8CB
:1026D000329C02F8338C02F834CC10F876CC07EB3D
:1026E0000C0904EB0C08F44499F8D89098F8D880B9
:1026F0009CF8D8C001F8369C01F8378C01F838CC2A
:1027000010F875CC67446444E64497F8D87001F833
:10271000327C94F8D8709EF8D84001F8337C01F8E8
:10272000344C95F83A7015F806EC0BEB870710F867
:102730007CCC0BEB8E0ED7F8D044DEF8D068D7F8FF
:10274000D070DEF8D0EC34441F4403EB24449E44A4
:1027500007EB0C0904EB0C08F44499F8D89098F8AE
:10276000D8809CF8D8C002F82F8C02F82E9C02F872
:1027700030CC10F87BCC07EB0C0904EB0C08F444CC
:1027800099F8D89098F8D8809CF8D8C002F82A9C7C
:1027900002F82B8C02F82CCC10F874CC07EB0C0947
:1027A00004EB0C08F44499F8D89098F8D8809CF879
:1027B000D8C001F82E9C01F82F8C01F830CC10F80D
:1027C00073CC6444E644674497F8D8C094F8D87052
:1027D0009EF8D84001F82ACC01F82B7C01F82C4C4B
:1027E00095F83B7015F805EC0BEB870710F87ACCE1
:1027F0000BEB8E0ED7F8D044DEF8D068D7F8D07047
:10280000DEF8D0EC34441F4403EB24449E4407EB31
:102810000C0904EB0C08F44499F8D89098F8D88087
:102820009CF8D8C002F8278C02F8269C02F828CC25
:1028300010F879CC07EB0C0904EB0C08F44499F878
:10284000D89098F8D8809CF8D8C002F8229C02F85A
:10285000238C02F824CC10F872CC07EB0C0904EBA3
:102860000C08F44499F8D89098F8D8809CF8D8C00F
:1028700001F8269C01F8278C01F828CC10F871CCBF
:102880006444E644674494F8D8C09EF8D84097F86A
:10289000D87001F8244C029C01F823CC944201F832
:1028A000227C7FF47CAE00990AF5C07A4031009119
:1028B000019901F5C07101910399013903917FF4E8
:1028C00068AE0DA8FEF7F0FA0EA8FEF7EDFA099C27
:1028D00047F29442002147F28843A154E358E5E5CA
:1028E000099D47F2204147F28C426C58A858E41ADF
:1028F000FEF706FA47F20C4105F5E94306460E904D
:102900006D581A68002D02EBC404DDDD074B1F462D
:10291000214630463B6808229847013D04F14004B7
:1029200006F10806F4D1CFE7F46B22007401002011
:10293000FC5A2200099E47F2204147F28C4271580E
:10294000B058CD1AFEF7DCF947F20C4206F5E94320
:102950000E90B4581968002C01EBC501B4DD00F1EC
:102960002002DFF858B2944B91F88070013C08784F
:1029700002F120020BEB870791F84060184401F147
:10298000C001D7F8D0500BEB8606054495F8D85017
:1029900002F83E5CD7F8D074D6F8D0583D4400EB2E
:1029A000254595F8D85002F83F5CD6F8D05C28440D
:1029B00090F8D80002F8400C11F83F7C11F8BF0CD9
:1029C0000BEB870711F87F6C1844D7F8D0500BEB4E
:1029D0008606054495F8D85002F83A5CD7F8D074CA
:1029E000D6F8D0583D4400EB254595F8D85002F86C
:1029F0003B5CD6F8D05C284490F8D80002F83C0C38
:102A000011F83E7C11F8BE0C0BEB870711F87E6CB9
:102A10001844D7F8D0500BEB8606054495F8D850EB
:102A200002F8365CD7F8D074D6F8D0583D4400EBA5
:102A3000254595F8D85002F8375CD6F8D05C284484
:102A400090F8D80002F8380C11F83D7C11F8BD0C54
:102A50000BEB870711F87D6C1844D7F8D0500BEBBF
:102A60008606054495F8D85002F8325CD7F8D07441
:102A7000D6F8D0583D4400EB254595F8D85002F8DB
:102A8000335CD6F8D05C284490F8D80002F8340CB7
:102A900011F83C7C11F8BC0C0BEB870711F87C6C2F
:102AA0001844D7F8D0500BEB8606054495F8D8505B
:102AB00002F82E5CD7F8D074D6F8D0583D4400EB1D
:102AC000254595F8D85002F82F5CD6F8D05C2844FC
:102AD00090F8D80002F8300C11F83B7C11F8BB0CD0
:102AE0000BEB870711F87B6C1844D7F8D0500BEB31
:102AF0008606054495F8D85002F82A5CD7F8D074B9
:102B0000D6F8D0583D4400EB254595F8D85002F84A
:102B10002B5CD6F8D05C284490F8D80002F82C0C36
:102B200011F83A7C11F8BA0C0BEB870711F87A6CA4
:102B30001844D7F8D0500BEB8606054495F8D850CA
:102B400002F8265CD7F8D074D6F8D0583D4400EB94
:102B5000254595F8D85002F8275CD6F8D05C284473
:102B600090F8D80002F8280C11F8397C11F8B90C4B
:102B70000BEB870711F8796C1844D7F8D0500BEBA2
:102B80008606054495F8D85002F8225CD7F8D07430
:102B9000D6F8D0583D4400EB254595F8D85002F8BA
:102BA000235CD6F8D05C284490F8D80002F8240CB6
:102BB0007FF4DAAE88E600BFF46B2200FC5A2200F4
:102BC000099D47F2204147F28C426C58A858E41AFC
:102BD000FEF796F847F20C4205F5E941E3000E9046
:102BE000AA580D68002A00927FF76EAE03F14006E6
:102BF000843300F12002DFF88CB22E441D44A04B38
:102C000002F140072C463046019594F83CC0203232
:102C100014F804EC40300BEB8C0C10F8808C0BEBB0
:102C20008E0E0434DCF8D014DEF8D058DCF8D0C0B6
:102C3000DEF8D0EC29449C4403EB0E0903EB214160
:102C40000CEB080A01EB080EC8449AF8D8A09EF8CD
:102C5000D8E098F8D88002F83EAC02F8408C02F830
:102C60003FEC10F87FECF4447144CE449CF8D880DB
:102C700091F8D8C09EF8D81002F83A8C02F83BCCF4
:102C800002F83C1C94F839E014F8078C0BEB8E0E1C
:102C900010F87E9C0BEB8808DEF8D014D8F8D058DA
:102CA000DEF8D0C02944D8F8D0EC9C4403EB0E08E1
:102CB00003EB21410CEB090A01EB090EC1449AF820
:102CC000D8A09EF8D8E099F8D89002F837EC02F82E
:102CD00036AC02F8389C10F87DEC7144F444C644DC
:102CE0009CF8D8C091F8D8809EF8D81002F8338CA0
:102CF00002F832CC02F8341C94F83AE014F8069C3E
:102D00000BEB8E0E10F87C8C0BEB8909DEF8D014DF
:102D1000D9F8D058DEF8D0C02944D9F8D0EC9C447A
:102D200003EB0E0903EB21410CEB080A01EB080E43
:102D3000C8449AF8D8A09EF8D8E098F8D88002F84D
:102D40002EAC02F8308C02F82FEC10F87BECF44437
:102D50007144CE449CF8D88091F8D8C09EF8D81021
:102D600002F82A8C02F82BCC02F82C1C94F83BC0F9
:102D700014F805EC0BEB8C0C0BEB8E0EDCF8D0147E
:102D8000DEF8D058DCF8D0C02944DEF8D0EC9C4402
:102D900010F87A9C03EB0E0803EB21410CEB090AB7
:102DA00001EB090EC1449AF8D8A09EF8D8E099F832
:102DB000D89002F827EC02F826AC02F8289C10F80C
:102DC00079ECF4447144C6449CF8D88091F8D8C09A
:102DD0009EF8D81002F8228C02F823CC02F8241CAA
:102DE00097427FF412AF009906F58076019D013974
:102DF00005F5807500917FF403AF65E5002DACBF4C
:102E00004FF0FF0E4FF0000EFFF7CEBA002AACBF16
:102E1000FF230023FFF72CBB0028ACBFFF230023B8
:102E2000FFF718BB0028ACBFFF200020FFF704BB52
:102E3000002DACBFFF240024FFF7F0BA002DACBF7B
:102E4000FF250025FFF7DCBA002EACBFFF250025CB
:102E5000FFF7C8BA002DACBFFF260026FFF7B4BAB3
:102E6000089B0799013340311A4608930B9B079141
:102E70001B689A42BFF645AB0D991346FFF705B99B
:102E8000F46B2200FC5A2200099E47F2204147F2CF
:102E90008C427558B058ED1AFDF732FF47F2904357
:102EA0000D900446F058FDF72BFF072D0E9075DCB2
:102EB00006F5E943196801EBC5026B1047F20C46B1
:102EC000099DDB00AD59002D05957FF7FAAC7F33E6
:102ED0000430013A0434CB18DFF804B103900493B2
:102EE0003E4B0292049F04F12002029907F1400830
:102EF000039E01F1080C8E4601920097009A04345B
:102F000018F8011F043612F8015F0BEB81011EF85F
:102F1000010F0BEB85050092D1F8D024D5F8D078BD
:102F2000D1F8D010D5F8D05C3A44194403EB2242D2
:102F30001D4401EB000A02EB000928449AF8D8A0CE
:102F400090F8D80099F8D89004F806AC04F8079CDB
:102F500004F8080C1CF8010F02440144054491F8E0
:102F6000D80092F8D81095F8D82006F8060C06F884
:102F7000082C019A06F8071C9442BFD1039A20320C
:102F80000392049A02F580720492029A02F580720A
:102F90000292059A013A0592A4D192E4099B05F0A8
:102FA000070203F5E943196801EBC202403284E7E6
:102FB000099B04F0070A03F5E943196801EBCA0A03
:102FC0000AF1800AFFF7CEBA47F27C43099AD0583B
:102FD000FDF796FE20600790FFF73DB8F46B2200E6
:102FE000FC5A220010B5044600F5E94003680BB115
:102FF000FDF75AFF47F28C43E058002858D147F2BA
:103000009043E058002850D147F27443E05800281C
:1030100048D147F27C43E058002840D147F21C33A6
:10302000E35C002B32D047F2C433E058002857D17C
:1030300047F28433E05800284FD147F21C33E35C59
:10304000012B23DD47F2D433E058002842D147F268
:103050009433E05800283AD147F21C33E35C022B4A
:1030600014DD47F2E433E05870BB47F2A433E05874
:1030700038BB47F21C33E35C032B07DD47F2F43324
:10308000E058D8B947F2B433E058A0B947F27843D2
:10309000E05800B910BDBDE81040FDF73DBCFDF79C
:1030A0003BFCBBE7FDF738FCB3E7FDF735FCABE7CE
:1030B000FDF732FCA3E7FDF72FFCE7E7FDF72CFC5B
:1030C000E0E7FDF729FCD4E7FDF726FCCDE7FDF7A7
:1030D00023FCC1E7FDF720FCB9E7FDF71DFCACE7D9
:1030E000FDF71AFCA4E700BF03681A78194402EB45
:1030F0000223016002EB0320704700BF026810B496
:10310000937802EB810154781B041278016043EA42
:1031100004205DF8044B1043704700BF30B445688D
:10312000EC1A002C08DD0568A2422B44A8BF2246F9
:103130000B60104630BC7047002030BC704700BFA9
:103140002DE9F04784B00D460646FDF7D9FD744BD6
:103150000446002003A902944FF4805223600346E2
:10316000A061E06020776768A068B84768B3E2684C
:10317000034603990244A0616161E2600A46511C62
:10318000013BD4F800802046616103A91778A36150
:10319000C047FF2F04D118B99DF80C30D82B19D097
:1031A000012402A8FDF780FE5DB13046FDF7A8FDC1
:1031B000034603A8198A5A8A039385E80600FDF797
:1031C00073FE204604B0BDE8F087A369002BE7D06A
:1031D0006269D4E704A9029801F80B3D11F04CFA9A
:1031E0000028DDD19DF80530C02BC0F09580C12BA3
:1031F00040F29480C22B40F08F80029C47F209433A
:103200000122E254236820460DF107019847002867
:10321000C6D1236803A9204698470028C0D1236857
:103220000DF1060120469DF807809DF80C70984727
:103230000028B5D123680DF10701204698470028E2
:10324000AED1236803A9204698470028A8D19DF84D
:103250000C300DF107019DF80720204643EA0222B9
:1032600023686282984700289AD1236803A92046E0
:103270009847002894D19DF8071047F21C399DF813
:103280000C202046A144236842EA012249462282BA
:103290009847002884D1638A002B81D0238A002B91
:1032A0003FF47EAF47F21C33E25C042A3FF678AF6E
:1032B00047EA082302EB4202083B93427FF470AFD7
:1032C000CA4600271DE02368984703A900287FF419
:1032D00067AF2368204698470AF1090100287FF468
:1032E0005FAF9DF80C3020461A0903F00F038AF8EF
:1032F0000120C24688F804302368984700287FF4EC
:103300004FAF99F800300AF101080AF10D0120468B
:103310009F4207F10107D6DB002442E7029C71E7D8
:103320004D3021002DE9F04F97B0064600F0A2FB8A
:10333000044610B117B0BDE8F08F3046FDF7E0FC51
:1033400047F21C330E90C35C012B0BD0032B00F013
:10335000C8800EAB18460493FDF7A6FD012017B0F8
:10336000BDE8F08F082247F2204747F2144547F2A4
:103370001C4E4FF0070C904640F80E2047F20A41D1
:10338000C2519146435162461D466FF002072346E3
:103390004454018A002BB0F812E04FF6F07401EBB0
:1033A000020347F21842F44401F10F0193FBF9F3D1
:1033B00005FB03F504EA010447F20C49855014BFEC
:1033C0000422012240F8093047F2284302FB04F4AA
:1033D0009CFBF8F147F2104C47F2244840F80820D3
:1033E00047F28442C4504FF0000840F80C1047F2F6
:1033F00088430EA940F802E040F803800846049193
:10340000FDF752FDE801FDF73DFA8146A801FDF701
:1034100039FA82462846FDF735FA05462046FDF77B
:1034200031FA012F834640F292824446B9F1000FEF
:1034300051D0BAF1000F4ED0002D4CD0BBF1000F8F
:1034400049D00CB9012F46D93046FDF759FC47F257
:103450007441034647F27C4247F278400E9343F8AA
:10346000019047F28C4143F802A047F290421D5070
:10347000284643F801B09C50FDF742FC0E9A47F2F3
:1034800018431290D358002B0CDD0023402400E099
:103490001298C45447F218420E9901330A44126834
:1034A0009342F5DB12A8FDF7FFFC0E9B13B10498C5
:1034B000FDF7FAFC3046FDF723FC47F209420C9079
:1034C000835C002B4ED10FF097FE04460CA8FDF74D
:1034D000EBFC20462EE70E9B002B3FF43FAF0498F9
:1034E0003AE747F21E32825C012A7FF432AF47F29C
:1034F0002232825C012A7FF42CAF47F21F32825CB9
:10350000012A7FF426AF47F22332825C012A7FF43E
:1035100020AF47F21D32825C012A00F06682022A47
:103520007FF417AF47F22133C35C012B00F04382D5
:10353000022B7FF40EAF102247F2204747F21C4EB9
:1035400047F20A44042347F2144106254FF00F0CBA
:1035500040F80E209046C2519146035562464550B0
:10356000012716E70CA8FDF79FFC3046FDF7C8FBC6
:1035700047F21C32034616A99F5C41F8240D084609
:103580000B91FDF791FC042F3FF4E8AE002F00F003
:10359000AC8000254FF0020830462C01FDF7B0FB4F
:1035A00047F2783312902344D8423FF4D7AE00EB71
:1035B000050C47F20C4E47F21D320119864447F2C2
:1035C000783A624447F22133DEF800908A4492F858
:1035D00000E047F21042634401F5E74B0EFB09FEA1
:1035E000024447F27C3912A8CAF800E01268894404
:1035F0001B7803FB02F3C9F80030CBF80080FDF71D
:1036000053FCD9F80030DAF80020DBF8000003FBA7
:1036100002F300FB03F0FDF735F9814600283FF483
:103620009DAE3046FDF76CFB05F5E762034612A838
:10363000129303EB0213C3F80490FDF735FC3046F8
:10364000FDF75EFB47F2B83312902344D8423FF4B3
:1036500085AE00EB050E47F20C4147F21D320444E3
:10366000014447F2B83B724447F22133D1F800C01D
:10367000A344117847F21042734447F2BC3A01FB6D
:103680000CF10244A24447F2C039CBF8001012A852
:103690001268A1441B7803FB02F3CAF800308023B0
:1036A000C9F80030FDF700FCDBF80020DAF8003044
:1036B000D9F8000003FB02F300FB03F0FDF7E2F88A
:1036C000044600283FF44AAE3046FDF719FB05F2E8
:1036D0003C7203460135129012A803EB02135C60A2
:1036E000FDF7E2FBBD427FF457AF3046FDF708FB24
:1036F0000D900FF081FD002840F02E81DDF834B0F0
:1037000047F2743147F2753247F2773359445A44DD
:103710005B44097812781B78914200F28C80002972
:1037200040F0F880002A40F08680002B40F0FC80BA
:10373000BF4B029347F244431022002112A85B447E
:103740001C460A93BB4B1B6898472368002B40F329
:10375000DF8047F2404347F2344247F2384147F2B4
:103760002D305B4406930BEB020308930BEB010334
:1037700007930BEB0003039300230993AD4B102237
:10378000002104981B689847069B1B68002B64DD8A
:1037900047F2484A0023DA440593089B1B6823B18B
:1037A000079B1B68002B00F0CE80DAF80030002B5E
:1037B00047DD4FF00009D0464E46CDF804900AE0B0
:1037C00001361B789E4224D0019ADAF8003001328B
:1037D0009A42019235DA58F8044F16AB5846029FC8
:1037E00003EB840521465C4455F8103C55F8202C29
:1037F0004B443244B84747F21D33E0B9039A23449F
:103800001278012ADCD155F8203C013345F8203CE0
:10381000DAE747F2213309F1010923441B7899457E
:1038200001D00646D0E755F8203C81463344064691
:1038300045F8203CC8E701240B98FDF735FB2046EE
:1038400078E5059A07980132036811460592069AB1
:10385000013B1268036091429FDB039B1B78012BA5
:1038600000F09C80002B4AD047F22E3247F22130E4
:1038700016AC012B5A4412780BEB020104EB8202C6
:10388000084452F8101C0078014442F8101C36D04D
:1038900047F22F3247F22131022B5A4412780BEBB8
:1038A000020004EB8202014452F8100C0978014432
:1038B00042F8101C23D047F2303247F22131032B5B
:1038C0005A4412780BEB020004EB8202014452F8D6
:1038D000100C0978014442F8101C10D047F2313323
:1038E00047F221315B441B780BEB030204EB8303AB
:1038F000114453F8100C0A78024443F8102C099B29
:1039000001331A4609930A9B1B689A42FFF636AFA9
:103910000D98EEE647F22D3212F80B20012A8AD1DB
:1039200013B9454B029305E747F27632013B5A44FF
:1039300012789A427FF47FAF404B414A002908BF7A
:1039400013460293F6E6584610F042FE2DE7204655
:10395000FCF798FF044669E50D9847F21C3347F2DF
:103960002D32C35C8354ABB147F22E320021012BC0
:1039700081540FD047F22F320121022B815409D0FC
:1039800047F230320221032B815403D047F2313306
:103990000322C254002408F001F84DE747F22E3309
:1039A00016AA13F80B3002EB830353F8102C0132E4
:1039B00043F8102CA3E7102247F20A4C47F21C47A9
:1039C0000821022347F2144E042547F2204400F850
:1039D0000C30914640F80E508846C2514FF0070C0B
:1039E00001514FF0FF370F22D3E447F22132815CBF
:1039F000012927D002297FF4ACAC47F20A414FF0ED
:103A0000030C082247F21C4700F801C047F2144E8D
:103A10001021042547F22044914640F80E50884674
:103A2000C2514FF00F0C015100270722B1E400BF33
:103A3000D5D020007801002045C2200049C82000D0
:103A400005D32000082247F2204747F2144547F2E9
:103A50001C4E47F20A444FF0070C40F80E209046E7
:103A6000C25191464351624601550B466FF0010722
:103A700003258EE42DE9F04184B0FDF741F96B4A4E
:103A80000446002003A902940346A06122604FF47B
:103A90008052E06020776568A068A847F8B1E268C6
:103AA000034603990244A0616161E2600A46551C25
:103AB000013B26682046656103A91578A361B047DC
:103AC000FF2D04D118B99DF80C30D82B0CD001244F
:103AD00002A8FDF7E9F9204604B0BDE8F081A3692A
:103AE000002BF4D06269E2E704A9029801F80B3DCB
:103AF00010F0C2FD0028EAD19DF80530C02BC0F0BF
:103B00009180C12B40F29080C22B40F08B80029CB0
:103B100047F209430122E254236820460DF10701D0
:103B200098470028D3D1236803A920469847002846
:103B3000CDD123680DF1060120469DF807609DF860
:103B40000C5098470028C2D123680DF10701204688
:103B500098470028BBD1236803A92046984700282E
:103B6000B5D19DF807200DF107019DF80C302046D6
:103B700043EA02232268638290470028A7D1236882
:103B800003A9204698470028A1D19DF8071047F2C5
:103B90001C379DF80C3020462744226843EA012355
:103BA000394623829047002891D1638A002B8ED01A
:103BB000238A002B8BD047F21C33E25C042A86D880
:103BC00045EA062302EB4202083B93427FF47FAFB3
:103BD0003D4600261CE02368984703A900287FF48F
:103BE00076AF23682046984705F1090100287FF445
:103BF0006EAF9DF80C3020461A0903F00F036A706F
:103C0000454688F804302368984700287FF45FAF62
:103C10003B7805F1010805F10D0120469E4206F1B1
:103C20000106D8DB002453E7029C75E74D302100E4
:103C300047F28843C35870B5044682B06BB147F26F
:103C400084428258013B013A47F2884547F2844159
:103C500000206351625002B070BD47F20943C35C5B
:103C60004BB10FF059FFB0B947F2204347F28442FD
:103C7000E358A258E6E709F0F5FB60B947F284453E
:103C800047F220466259A3599A4207DD47F208419C
:103C900001206054D6E7012002B070BD0DF107018C
:103CA000204610F0E9FC0028F5D19DF80730D92B0B
:103CB000F1D1A3596259E9E72DE9F041224D6B6832
:103CC00023B113F029FBAB68984204D013F044FBF6
:103CD00013F022FBA8606B680133012B6B6001D0ED
:103CE000BDE8F081194F3B68002B28DD00242646F3
:103CF00005E03AB301363B687C349E421FDA13F08C
:103D00000BFB2B681A5923449042F2D17B68B342D3
:103D1000E6D0002B10DBC3EB43132A6802EB8308C9
:103D2000FDF768FC2A680A4B1444C8F87800221D85
:103D3000A06F1A60FDF7E6FB7E60BDE8F08100240D
:103D40002646E3E71860E1E7247E002064010020B6
:103D50000801002010B582B028B9134B1B681C6EF7
:103D600014B902B010BD0446FFF7A6FF2046FCF7C9
:103D7000C7FF02AB446943F8080D1846FDF794F8F5
:103D80001CB902F0EDFF02B010BD204602ACFCF7FA
:103D9000B7FF826844F8040D936898472046FDF702
:103DA00083F802F0DDFFEEE70801002000B970475C
:103DB000014A114600F002B801F0FFFF2DE9F0477B
:103DC000DFF8F88084B00C4615460646FFF774FF0E
:103DD000002002F08BF9D8F80030814630461F6E83
:103DE000FCF78EFF03680090986902F047F9324BA8
:103DF00082469C42009B53D01A895B89013AADF8F8
:103E00000840013BADF80A5022442B44ADF80C2089
:103E1000ADF80E3004F0ACFE6846FDF745F802A898
:103E200006F05EFC48BB504602F028F9FFF744FF5D
:103E3000002F3DD0D8F800301B6EB3BB04F0E0FF7C
:103E40003846FCF75DFF04ACD8F8003044F80C0DA0
:103E50001F660068FDF708FB2046FDF725F804F013
:103E600033FD04F047FC02F07BFF484602F03EF9C8
:103E700002F076FF04B0BDE8F0872A4621463046BE
:103E800000F0B0FC06F0E8FA0028CCD02A46214623
:103E9000304600F0A7FC06F0DFFA0028EDD1C2E7BB
:103EA000B3F90440B3F90650A6E702F0D9F8C5E724
:103EB00002F0D6F8D7E700BF01F0FFFF08010020AD
:103EC0002DE9F04385B00646904699460F46FFF728
:103ED000F3FE1C4A1C4B1268507C53F8204001E052
:103EE0002468FCB1E3681A68042AF9D1DB6A01216D
:103EF000204698470546D8B12469A3689847013001
:103F000018D00C994B4602944246009130460195D8
:103F1000394600F0E3FA044602F022FF204605B0DD
:103F2000BDE8F083FDF768FB044648B1C368DDE7F0
:103F30000446F1E70C9B054C43F001030C93E0E7CA
:103F40002046ECE708010020188000200C6F2200BA
:103F500000B9704710B582B00446FFF7ADFE104BB4
:103F60001B681B6E9C4217D02046FCF7C9FE4369B4
:103F7000019063B90068FDF775FA01A8FCF794FF9A
:103F80002046FCF7C9FC02F0EBFE02B010BD18465B
:103F900002F0CCFE0198EDE702F062F8E4E700BF22
:103FA000080100202DE9F04F87B0044692461D46D7
:103FB0008946FFF781FE574B1A68574B577CDB57F2
:103FC0003846012B40F39A8004F0FEF80646384646
:103FD00004F040F90746002C00F08D8005A904A8E4
:103FE000FDF778FE049A059B1644B4F900201F449F
:103FF000B4F9023022EAE272013E23EAE373013FA0
:10400000114602921846B4F9042003939642D4BF95
:10401000C1EB0601C1EB0201B4F9063002460E46BF
:104020009F42D4BFC2EB0702C2EB03020136174620
:10403000013705B97D42002E4FDD002F4DDD109B6D
:104040003246039900932B460298FFF739FF8046CA
:10405000002848D000F098F88742064604D02D4B3F
:104060001B68986C002851D140463D460024DFF87B
:10407000ACB000F095F90EE0AD1BACB9504634443D
:10408000C847DBF80030FF2003B198474046FFF7F0
:104090008DFEA74212DDAE42EEDD2946404600F01D
:1040A0005FF9AD1B002CE9D0039B404602991A1919
:1040B00000F0A6F94046FFF74DFEDFE74046FFF768
:1040C00047FF002000F06CF9B74206D0114B1B6887
:1040D000986C10B1332107F00BF802F041FE00207C
:1040E00007B0BDE8F08F5046C84702F039FE012006
:1040F00007B0BDE8F08F039402949AE704F00EF83D
:104100000646384604F034F8074664E7322106F0E4
:10411000EFFFA9E70801002014800020507D002057
:1041200030B5044683B098B1FFF7C6FD2046FCF7D2
:10413000E7FD036802AD1B6945F8040D9B689847CD
:1041400004F0E2FC04462846FCF7AEFE02F008FE4E
:10415000204603B030BD00BFA0B110B5044682B008
:10416000FFF7AAFD2046FCF7CBFD02AB00F11804D7
:1041700043F8040D1846FCF797FE02F0F1FD2046C7
:1041800002B010BD704700BF10B5044682B0FFF703
:1041900093FD7CB12046FCF7B3FD02ABB0F90A40B9
:1041A00043F8040D1846FCF77FFE02F0D9FD2046C7
:1041B00002B010BD044B1B681C6E002CEAD102F04B
:1041C000CFFD204602B010BD080100202DE9F04FC0
:1041D000804687B0002758E0002E7ED105F0BEF85B
:1041E000804500F09A80584B0126494622460293AA
:1041F0005846564B009601932B4600F06FF98146C6
:104200004046FCF77DFD03460590C0F82490B9F1C7
:10421000000F79D0826A05A8DFF840B142F48032FD
:104220009A62FCF741FE484600F0BAF882463046F2
:10423000474E02F0EDFD4846FFF78EFF454B05FB6C
:1042400004F2454C197892003568A8474046256825
:10425000CBF8008005F0B4F82060404606F03CFE44
:10426000002225601046CBF8002002F0D1FD504618
:1042700000F096F84046FCF731FE406AB0FA80F351
:104280005B090137042F22DC0BB34046FCF738FDF5
:10429000034605A8B3F900B0B3F90290B3F904409E
:1042A000B3F90650CBEB04040593C9EB05055E6A30
:1042B0000134FCF7F9FD0135002DC8BF002CD4BF37
:1042C0000123002388DC01370020042FDCDD08B146
:1042D00000F0D2F807B0BDE8F08F3046FCF710FDD3
:1042E000034606A8B3F9065040F8083DB3F9044068
:1042F000FCF7DAFDA94501D1A345BBD04A46594692
:10430000304600F07DF8B5E705A8FCF7CDFD404646
:1043100006F0E2FD33464846B3E703F039FF0646B0
:1043200003F07CFFB44202DC85427FF75CAFB4420D
:10433000A8BF34468542A8BF0546214640462A46C6
:1043400005F05AFF4FE700BF0C6F22004890220093
:10435000780100209C7E00203C7F0020C08400204B
:1043600030B50D4683B028B90C4B1B681C6E14B9D0
:1043700003B030BD0446FFF79FFC2046FCF7C0FCAD
:10438000B0F90A300190AB42C8BF458101A8FCF7E3
:104390008BFD02F0E5FC03B030BD00BF080100203A
:1043A000F0B5164F83B00446FFF786FC3B681E6EDF
:1043B000E4B1C6B904F024FD2046FCF7A1FC02AD2F
:1043C0003B6845F8040D1C660068FDF74DF828466B
:1043D000FCF76AFD04F078FA04F08CF902F0C0FCF6
:1043E000304603B0F0BD01F03BFEE3E701F038FEDC
:1043F00002F0B6FC304603B0F0BD00BF080100205B
:1044000070B50D4682B0164628B91A4B1B681C6E53
:1044100014B902B070BD044636B22DB2FFF74CFCA1
:104420002046FCF76DFCC6808580009004F062F9A0
:10443000009B586930B96846FCF736FD02F090FCE5
:1044400002B070BDFCF75CFC009B0190B3F9082042
:10445000B3F90A308280C38013B10AB10580468067
:1044600001A8FCF721FD6846FCF71EFD02F078FC70
:10447000E6E700BF0801002000B9704770B50446A8
:1044800084B0FFF719FC2046FCF73AFC014601A86E
:10449000B1F90460B1F906500A894B89324401919F
:1044A0002B44ADF80860013AADF80A50013BADF875
:1044B0000C20ADF80E30FCF7F7FC02A806F010F95E
:1044C00040B12A463146204600F06EF905F0C4FF9F
:1044D0000028F6D102F044FC04B070BD2DE9F04F85
:1044E000DFF82C8187B082468B46D8F8000017464B
:1044F0001E461299437C00221198FCF7EDFE00281D
:104500004DD0036905469B68984704F0FDFA00FB0F
:1045100007F48146FCF708FC109B073413F00103F5
:104520004FEAD4043FD0002E2CDD002B42D004FBF8
:1045300006F01830FCF798F9024668B3002302939E
:1045400010460392FCF7DCFB029A034606A8A3F888
:1045500004A0A3F806B01F815E81DC60C3F8109050
:104560005A6140F8043D1D60FCF79EFC129AD8F891
:1045700000302A61039A1046AA605B7CAB6107B0E9
:10458000BDE8F08F002C34D1204676428642A8BF89
:10459000064693B3002ECADC2846FCF763FF0020D2
:1045A00007B0BDE8F08F0028B8BF0330801000EBE3
:1045B0004000B8E700933A4633465946504602F069
:1045C00025FB029004FB06F01830FCF75BF902466D
:1045D0000028B5D128460392FCF744FF029B002B2C
:1045E000DDD01846FCF798F9039A104607B0BDE8ED
:1045F000F08F1838B0FBF4F0C7E700933A46334623
:104600005946504602F002FB002E0290DADCC3E766
:10461000080100202DE9F04FDFF880918BB05D4B51
:10462000D9F800C0DFF878819CF811E053F82E40EB
:10463000D8F80030D4F810E0002B00F0A680164621
:10464000DCF8602007460D46002A75D0E268126843
:10465000072A78D0504AC2EB0E02B2FA82F252090F
:10466000002A70D03846FCF74BFB03460AA8B3F982
:1046700008B040F8083DB3F90AA00BEB0504DB686D
:10468000013C0593FCF710FCD9F80010B1F90C308F
:10469000B1F90800E41A002CCCBFC4EB0B045C4653
:1046A00085425EDB0023002C43DD0AEB0600B1F9F6
:1046B0000EE00138CEEB00000028C8BFC0EB0A0AAC
:1046C000B1F90A00B04247DC0021BAF1000F0793AC
:1046D00006912EDD3846FFF73FFD079BD9F80020F5
:1046E000069901FB0B31136E00EB8107002B3CD0C8
:1046F0001846FCF705FB02460AA8B2F90410B2F905
:1047000006306D1A40F8042DF31AA900D56801F19E
:10471000180605FB03661644FCF7C6FB4EB1059B65
:10472000224600953946019330465346D8F800405A
:10473000A0470BB0BDE8F08FE2681268B2FA82F2CF
:104740005209002A8ED1734632462946384611F066
:1047500025FC0BB0BDE8F08F811B0646C1EB0A0AB1
:10476000B3E7431B0546E41A9DE7507C4FEA8B02F2
:10477000DFF830E03B4602922946CDF804A03246ED
:104780000094DEF80040A047D3E7734611F006FC22
:10479000CFE700BF188000200C6F22000801002026
:1047A00024800020208000202DE9F04182B00F46B7
:1047B00090460646FCF7A4FA034602AC16211D6893
:1047C000002044F8043DEB685B6A984705462046A4
:1047D000FCF76AFB1DB1424639463046A84702B095
:1047E000BDE8F08100B970472DE9F04FA3B08B46CA
:1047F00092460446FCF784FA22AB456943F81C0D47
:104800001846FCF751FB2046FFF78AFC0828814632
:1048100040DD002D3ED12046FCF772FA22AA034665
:10482000B0F9081042F8100D10460D92B3F90A20A5
:104830000A9109921968DA680E690B930E92FCF7D7
:1048400033FB924892490068D6F80480407C51F8C6
:1048500020100D692B680C93FDF7C8F908280B9BF5
:1048600014D910288BBF20221022042702270B9274
:10487000AE4200F0F882B9F1200F00F0B381B9F137
:10488000100F00F0458123B0BDE8F08F082201270A
:104890000B92EDE70021012320467C4E20910DF183
:1048A00088080B9121930A93FCF72AFA074630688F
:1048B0003A68FB68B7F908101269139314913B69C1
:1048C000B7F90A10407C0993169148F8147D556891
:1048D000D7F81490FDF78AF932680E90507CFDF7F6
:1048E00049FA07464046FCF7DFFA099A0A9B082A6C
:1048F0000B9940F29D80102A13460A918CBF042325
:1049000002230C93BD4200F0C1813368587CFDF74F
:1049100029FA149B06469800FBF7A6FF1090002882
:10492000B1D02046FFF718FC0446B9F1000F00F0A3
:1049300088804846FCF7E4F9169B1E90002B40F354
:10494000A1810023DDF83880CDF834A00B93139BB0
:10495000CDF848B0E31815931FAB19460F93836841
:1049600000225B691F920B9A9847159B139A044685
:104970009B1A0E93149B834200F0F680099B012B37
:1049800000F08880002842D01CAB11931098FCF7EF
:10499000B7F9099B07461C90082B1F9A65D90C9BF9
:1049A000A3460E99824602FB031939F8020BA84769
:1049B000B047BBF1010B4AF8040BF6D1B8F11F0F59
:1049C00004D838464246214602F038FA0A990123B3
:1049D0001F982246059112991C9F084400210193BB
:1049E00000930391CDF808800D99049703F0D6F851
:1049F0001198FCF759FA1F9B1E981C440B9A836868
:104A00000F991F945B69984704460028BED1159AF8
:104A100013990B9B0A44013315920D9A0B930132A3
:104A20000D92169A9A4200F02D811E980F9996E7E2
:104A3000012A03D120AB0C920A9363E70C930A91ED
:104A400060E701250A9B139A09990593049058463B
:104A5000039202915146169B149A0195009503F01A
:104A60009DF81098FBF758FF0DE70C9BA2460E9996
:104A7000814602FB031B1BF8010BA847B047BAF1A4
:104A8000010A49F8040BF6D198E700BF080100209D
:104A9000188000200028BAD0CDF8608019960B9FAE
:104AA0000A9EDDF83880DDF83490DDF848A0DDF8A6
:104AB0003CB017951192DDF87CE02246119D012350
:104AC0000EF0070049460395012506900AEB0E00FB
:104AD000BEF1000F05960295B8BF0EF1070E0195C5
:104AE000009508EBEE0ECDF810E003F0FFFE1F9BE3
:104AF0001E983A461C44594683681F945B69984740
:104B000004460028D7D1179DDDF86080199E7EE706
:104B10000A9B03FB07F0FBF7A7FE109000283FF469
:104B2000B2AEFCF7EDF820902046FCF7E9F800F172
:104B300018031E900E932B69002B00F0A681736959
:104B4000002B00F0A281B0F908008000FBF78CFE7A
:104B50001190002840F0BA811F900D98FCF7A4F93D
:104B600020A8FCF7A1F97CE71098FCF7C9F8099B8D
:104B700081461C90082B149F0446DDF838A028D9E4
:104B80003AF8020BA847B047013F44F8040BF7D1AD
:104B9000B8F11F0F04D848464246149902F04EF966
:104BA00022AB12980D991A460A9B05930023039392
:104BB000012352F818EDCDF8088017460193149A96
:104BC0000093CDF810E002F0E9FF3846FCF76CF9ED
:104BD0001DE71AF8010BA847B047013F44F8040B42
:104BE000F7D1D5E70A9B07FB03F0FBF73DFE0E90DC
:104BF00000283FF448AEFCF783F820902046FCF7ED
:104C00007FF81E902C6900F11808002C00F0EB8052
:104C10000A9A5C4601260A954FEA82099346CDF826
:104C20003090DDF8249017E0042F21D0012F15D00B
:104C30000B9B0020209D51460293012305905A466C
:104C40000390204601969A440096049502F0A6FF30
:104C5000B9F1010900F0E880022FE5D10C9D404632
:104C60003B465A46A8440A9D20992D69A847DFE78C
:104C70000C9B40460A9D5A46984420993B462D6914
:104C8000A847D5E71EA8FCF70FF9EAE62046FFF78C
:104C900063FA8046B9F1000F00F0D4804846FCF773
:104CA0002FF8169B1E90002B40F3C88000261FABE8
:104CB000CDF834A00125B146DA461F468368324656
:104CC000CDF87C9039465B699847149B0446834233
:104CD00031D0099B012B57D020B30D9B0B9603EBD2
:104CE000060B1F9801230C990A9A01FB008E099E5E
:104CF000139950440592224603915946CDF810E08D
:104D000002960195009502F049FF1F9B1E983946B7
:104D10001C440B9A83681F945B69984704460028DB
:104D2000DFD10B9E139B01369844169BB34240F390
:104D300085801E98C2E7CDF82C80B346984600E0E7
:104D4000A3461E980BF101043946836822465B692D
:104D500098478045F4D00A9AC6EB0B03DDF82C8007
:104D60005046059201330D9ACDF810809119139E8B
:104D7000099A039602920195149A06FB03880095FE
:104D8000264602F00BFFD0E70028CBD00D9B0B96F8
:104D900003EB060BDDF87CE022460A9E01230EF0B1
:104DA00007005946059606900AEB0E00BEF1000F6B
:104DB000139E0295B8BF0EF1070E0396019508EBFE
:104DC000EE0E0095CDF810E003F090FD1F9B1E98AD
:104DD00039461C440B9A83681F945B6998470446C4
:104DE0000028D7D19DE7A1460125099E0123022F66
:104DF00051460A9A58460AEB030E00F0A981042F87
:104E000000F07D819F4200F052810B9CF246CDF86C
:104E100014900294209CCDF80C9001950095049478
:104E200002F0BCFE013EE1D10D98FCF73DF820A850
:104E3000FCF73AF80E98FBF76FFD24E51EA8FCF787
:104E400033F820E501240A9B139A099905930490ED
:104E50005846039202915146169B149A019400946D
:104E600002F09CFE0FE50E9A0124183300250392F0
:104E7000514604935846099BCDF808900A9A059527
:104E80000194009402F08AFEFDE40125DDF82890EB
:104E9000099E0123022F51464A4658460AEB030E4B
:104EA00000F0D480042F00F0A0809F426DD0002439
:104EB00001950095F246059403940B9C0294209C66
:104EC000049402F06BFE013EE3D146E6FBF718FFC7
:104ED0001F9000283FF441AE0A9A0124CDF828B073
:104EE0004FEA420990460C95CDF83C90B146DDF86A
:104EF00038B017E0042F2ED0012F28D00B9B0020B4
:104F0000209D5146029301230590424603909A4406
:104F1000019400940A98049502F040FE099B013B1D
:104F200009932BD0022FE5D1209B1E463B464246DB
:104F30001F995846D9F81450A8470F9D31463B4653
:104F4000AB440C9D42461F982D69A847D6E7209B8D
:104F50001E460223EBE7209B42460F9E58461D4605
:104F60001F990223B344D9F81460B04729460C9D19
:104F70003B4642461F982D69A847BFE71FA8FBF78D
:104F800093FF1198FBF7C8FCE7E50A9B4446099696
:104F90005D000C9E0C95209DDDF83880DDF8289092
:104FA00038F8020BA047B047B9F1010905F8010B29
:104FB000F6D10E9D01230B985146AE460C9D0290F2
:104FC0005846AE44209DCDF814909A440A9ACDF8E4
:104FD0000C90019700970495CDF838E002F0DEFDC3
:104FE000099B013B0993D6D1B7E50A9B0125099698
:104FF00044465E000C9F0C96209EDDF83880DDF85C
:10500000289038F8020BA047B847B9F1010946F8D3
:10501000040BF6D10E9E01230B985146B6460C9E0A
:1050200002905846B644209ECDF814909A440A9AAD
:10503000CDF80C90019500950496CDF838E002F07B
:10504000ADFD099B013B0993D6D186E50A9B01255D
:10505000099644465E000C9F0C96209EDDF8388031
:10506000DDF8289038F8020BA047B847B9F10109DC
:1050700026F8020BF6D10E9E01230B985146B64638
:105080000C9E02905846B644209ECDF814909A4447
:105090000A9ACDF80C90019500950496CDF838E069
:1050A00002F07CFD099B013B0993D6D155E59500A3
:1050B0000C9C09960C95209D4646DDF8289056F8E4
:1050C000040BA047B9F1010905F8010BF7D10B98C2
:1050D0000123209E514602905846CDF814909A44E0
:1050E0000A9ACDF80C900197009704960C9D02F057
:1050F00055FD099BA844013B0993DCD194E6099630
:10510000012596000C9C0C96209E4746DDF82890C1
:1051100057F8040BA047B9F1010946F8040BF7D181
:105120000B980123209F514602905846CDF81490C9
:105130009A440A9ACDF80C900195009504970C9E1C
:1051400002F02CFD099BB044013B0993DCD16BE6D6
:105150000996012596000C9C0C96209E4746DDF88A
:10516000289057F8040BA047B9F1010926F8020B63
:10517000F7D10B980123209F514602905846CDF855
:1051800014909A440A9ACDF80C90019500950497D2
:105190000C9E02F003FD099BB044013B0993DCD156
:1051A00042E600BF2DE9F04383B00E460746914624
:1051B00002ACFEF781FD3046002344F804DD0422F2
:1051C0002146B847042805D001F0CAFD002003B0ED
:1051D000BDE8F083204602F019FC80464FF46C7065
:1051E000FBF750FB054680B3FBF78AFD274A0346D1
:1051F00008F0DF30904201935F649E64C3F84C90E6
:1052000037D002F1E06202F5423202F2F53290420A
:1052100021D028460025FBF77FFB0198C26F9047FD
:1052200058B12046FBF740FE01F09AFD2846FBF7F7
:1052300073FB002003B0BDE8F08301980DF058F82F
:105240000028EED12046FBF72FFE01F089FD28460D
:1052500003B0BDE8F0830E4918460E4F0E4E0A46C5
:10526000D9670E49C3F88070C3F88460C3F888100A
:10527000D5E70B4A00210B4F18460B4EDA67C3F8EF
:105280008070C3F88460C3F88810C8E75249464666
:10529000952D2100B5252100B1282100455121007F
:1052A000092A21005D23210095282100F0B5ADB029
:1052B0000E46054617462CACFEF7FEFC02AB304608
:1052C000042244F8903D00232146A847042804D036
:1052D00001F046FD00202DB0F0BD204602F096FB07
:1052E00010F0DF30F4D02B4B199598421A9617D056
:1052F00003F1E06303F5423303F2F533984221D121
:105300002CA9304602AE0023182241F8B06DA84700
:10531000182819D0012401F023FD20462DB0F0BD3E
:1053200020460DF071FB04460028F4D1BDF82E0094
:105330000C99BDF82A20BDF82C30B860F96087E8D8
:105340000C00E8E70024F1E702A9134B0A222046EB
:1053500001912CAD1B6800249847019B0A3345F846
:10536000AC3D284602F04CFBADF82A00284602F07E
:1053700047FBADF82C00284602F042FBADF82E00AA
:10538000284602F043FB0C90284602F03FFB0D90AC
:10539000CCE700BF524946467401002070B505466F
:1053A00082B0FEF789FC2846FBF7AAFC036D01904A
:1053B000EBB9044619462A46174800F011FF019E32
:1053C0002065346DE4B1F36C23B1B26A0221284642
:1053D0009847019E114B1B6823B1B26A28460221EF
:1053E0009847019EFCF78CFC0024F06200E0012449
:1053F00001A8FBF759FD01F0B3FC204602B070BDD7
:1054000001A8FBF751FD01F0ABFC2846FBF784FA3D
:10541000204602B070BD00BF21422100607C002008
:105420002DE9F04383B020B90124204603B0BDE844
:10543000F08306461C460F469146FEF73DFC30467B
:10544000FBF75EFC231C05464FF0010218BF012349
:105450000DF10808076330462B64AA63EA63C5F8B8
:10546000349048F8045DFFF799FF04464046FBF787
:105470001BFD01F075FC204603B0BDE8F08300BFC2
:105480001B4B1C4A1968136AF0B5002B487C1A4B59
:1054900083B00CBF044600241D57012D26DD02EB0E
:1054A00084010B695E1C0E6103BB8E681F4652F8B7
:1054B0002420334603E0A2428C60134607D15C1CD3
:1054C000AC42F8D100248F601346A242F7D0FCF71B
:1054D00093F8019050B1C368212101A85B6A9847F5
:1054E000034618B1224631460198984703B0F0BDF3
:1054F00008010020E47C002014800020174A184B8B
:1055000011681A6A70B5002A4D7C164A82B00CBF29
:105510002C4600241257012A05DD03EB840423697D
:10552000013B23610BB102B070BD0120A840FBF725
:10553000C1FEA6682846A661FCF75EF80190002827
:10554000F1D0C368222101A85B6A9847034600286E
:10555000E9D031460198984702B070BD080100209B
:10556000E47C00201480002058B311B30AB3B1F9D1
:105570000030F0B5B2F90050B2F902E0B1F90240E2
:105580009D42B2F90470B2F90660A8BF1D46B1F998
:1055900004207445B1F90630A8BF7446BA420580AC
:1055A000B8BF3A46B3424480B8BF33468280C38016
:1055B000F0BD002908BF11460A684B6802604360CD
:1055C0007047704778B189B2C38892B270B40688C8
:1055D000448885880E4414441A4429440680448033
:1055E0008180C28070BC704770B4124D04462B6835
:1055F0006A6893420FD0104EB34293E8070014BF7D
:105600000C333C3B84E807002B60207A003070BCF0
:1056100018BF01207047094A934204D013E90700DC
:1056200084E80700F1E73C3393E8070084E80700CB
:10563000EBE700BF9C010020087F0020CC7E00200B
:10564000034B09CBC01AB0FA80F04009704700BF85
:105650009C010020F0B53C4E85B00446336D002B14
:1056600055D03A4A01AD3A49F36C116094E807000D
:1056700085E807000BB128469847364F3C687B68A1
:105680009C4232D0B342304A32D09DF80C00A3F194
:105690000C0113F804EC8C46864535D18C4233D08E
:1056A00091423BD002F13C0E11F8042C82423DD0D5
:1056B000734595E8070083E807000BD00C339C4244
:1056C0007B600BD0B36C0BB12846984700F078FD97
:1056D00005B0F0BD1C4B9C427B60F3D11E4B9C423D
:1056E00014BF0C343C3C3C60ECE7DFF86CE0DFE7D7
:1056F0009DF80C0096F8442082421DD106F13C0E24
:10570000744519D07146CFE702F13C0ED0E7134B38
:10571000304640F8503F02F07FF9A2E791F844206C
:1057200001F13C0E8242C3D16346C1E7B34208D0C7
:10573000A3F10C0C6346BBE795E8070086E8070079
:10574000BCE7054BB4E700BFCC7E0020CC84002032
:10575000DD9320009C010020087F002009422100E9
:1057600010B5FEF7A9FA0D4A136851688B420FD0A5
:105770000B4CA3424FF0010493E8030014BF08331D
:10578000503B136004F018FC01F0EAFA204610BD0B
:10579000002401F0E5FA204610BD00BF5C010020A6
:1057A000D87D0020F0B5164C059F2568069CB5F9FC
:1057B00008E0B5F90C607045B8BF7046B242A8BFAA
:1057C000324690421ADCB5F90A60B5F90E50B14282
:1057D000B8BF3146AB42A8BF2B468B4203DAF0BDBF
:1057E00025682DB12C46E5682D6835F00405F7D104
:1057F00006940597BDE8F04002F01EBEF0BD00BF64
:1058000008010020B0F90220B1F906309A4214DCF8
:10581000B1F90220B0F906309A420EDCB0F900204E
:10582000B1F904309A4208DCB0F90400B1F9003053
:105830008342CCBF0020012070470020704700BF8A
:1058400008B5034B014674221868FAF784FD08BDB9
:105850000801002000B9704730B5044683B0FEF758
:105860002BFA02AD204610F08DFA2046FBF748FADD
:1058700045F8040D0068FBF79BFE2846FBF714FB78
:105880002046FBF73DFA01900068FBF765F8019BA5
:10589000D868FBF741F8019BD869FBF73DF828462B
:1058A000FBF702FB2046FBF737F801F059FA03B08B
:1058B00030BD00BF00B970472DE9F04F0446ABB0D2
:1058C0000D4616461C921B91FEF7F6F92046FBF793
:1058D00017FAB0F9043004689D422790119400F043
:1058E0005A810020FEF75CFDAE4B119A1B6892694D
:1058F000597C1F900846279D19928242209118BF1B
:105900005A74B5F90430B5F9062019460793B5F96C
:105910000830104612925B1AB5F90A201C46121A7A
:1059200008931646139222462B8A01329B071A923D
:10593000324602F101021D9240F10E811B9B6A6901
:105940005B1A0392002B1C9A1493A2EB000440F301
:10595000A78109934FF0010B0023DDF868901093A5
:10596000002C40F3A8811D9B4FF0000A179416935A
:1059700001231593119E8C4BB0691B56012B40F3EC
:1059800089810023ADF8A230ADF8A03002F01CFCF4
:10599000431EB069ADF8A43002F05CFC0138ADF8EC
:1059A000A60027985A4600F1140106F017FB219033
:1059B000002800F0D08027985A4600F1140106F024
:1059C0000DFB2390002800F0C180279BD868002899
:1059D00040F08181169A524500F0B4801A9B1099CC
:1059E0009A00CDF810900AFB0313C4EB0A01D946C4
:1059F000229005EB83030D9115990E93129B01FBE9
:105A000002F223441E9218934FEA8B03D346059368
:105A1000179B139A5B45109CCCBF002301235A456A
:105A2000B8BF00230B93129B5B440F93189B5B44FE
:105A30000A93049B1A46A24275D01498079BC0EBA8
:105A4000040A0E9D03440C935A4621460398FCF722
:105A50001DF8030E06465FD0099B089AA3420799DA
:105A6000CCBF00230123A2420C9A214402EB04077D
:105A7000BDF9A020B8BF00230691BA420B9903EAF2
:105A800001030DDCBDF9A2200A98824208DCBDF9B1
:105A9000A420BA4204DBBDF9A620824280F2A9808C
:105AA0004FF00008002B00F08580BAF1000F09DBF1
:105AB0000D9B002B06DB1A4651460398FBF7E6FFC9
:105AC000030E77D0BDF9A0309F4223DBBDF9A23091
:105AD0000A9883421EDCBDF9A430BB421ADBBDF933
