:020000040020DA
:1000000090650020D50320003556200013532000B2
:1000100031562000890F2000CD7420000000000020
:10002000000000000000000000000000DD022000D1
:100030000B1520000000000039032000FD6920009E
:10004000EF032000EF032000EF032000EF03200068
:10005000EF032000EF032000EF032000EF03200058
:10006000EF032000EF032000EF032000EF03200048
:10007000EF032000EF032000EF032000EF03200038
:10008000EF032000EF032000EF032000EF03200028
:10009000EF032000EF032000EF0320000D152000E8
:1000A000EF032000EF032000EF032000EF03200008
:1000B000EF032000EF032000EF032000EF032000F8
:1000C000EF032000EF032000EF032000EF032000E8
:1000D000EF032000BD742000EF032000EF03200099
:1000E000EF032000EF032000EF032000EF032000C8
:1000F000EF032000EF032000EF032000EF032000B8
:10010000EF032000DD582000EF032000EF03200064
:10011000EF032000EF032000EF032000EF03200097
:10012000EF032000EF032000EF032000E113200085
:10013000EF032000EF032000EF032000EF03200077
:10014000EF032000EF032000EF032000EF03200067
:10015000EF032000F1132000EF032000EF03200045
:10016000EF032000EF032000EF032000EF03200047
:10017000EF032000EF032000EF0320000000000049
:10018000EF032000EF032000EF032000EF03200027
:10019000EF032000EF032000EF032000EF03200017
:1001A0002953200019532000E9122000EF032000FA
:1001B000EF032000EF032000EF032000EF032000F7
:1001C000EF032000EF03200000000000EF032000F9
:1001D000EF032000EF032000EF032000EF032000D7
:1001E000EF032000EF032000EF032000EF032000C7
:1001F000EF032000EF03200000F002F800F05FF8AA
:100200000AA090E8000C82448344AAF10107DA4571
:1002100001D100F054F8AFF2090EBAE80F0013F064
:10022000010F18BFFB1A43F001031847D433040031
:10023000F43304000A4410F8014B14F00F0508BF12
:1002400010F8015B240908BF10F8014B6D1E05D0A2
:1002500010F8013B6D1E01F8013BF9D1641E03D07B
:10026000641E01F8015BFBD19142E4D370470000AA
:100270000023002400250026103A28BF78C1FBD8AF
:10028000520728BF30C148BF0B607047642900F097
:100290009581732900F06E84002070471FB516F019
:1002A0000EFB9DE8030000F0DFFC00F074FA00F0A4
:1002B0007FFB1FBD10B5002000F072FC10BD00F0E8
:1002C0005CFD1146FFF7EAFF12F00EFF00F094FD0F
:1002D00003B4FFF7EFFF03BC11F0FBFC2D4B1968D3
:1002E0000868B0E8F04F80F30988BFF36F8F4FF0D4
:1002F000000080F311887047000000000848006883
:10030000006880F308884FF0000080F3148862B61C
:1003100061B6BFF34F8FBFF36F8F00DF00BF00BF29
:1003200008ED00E0DFF80C00016841F470010160A5
:10033000704700BF88ED00E0EFF30980BFF36F8FD7
:10034000144B1A681EF0100F08BF20ED108A20E928
:10035000F04F106009B44FF0500072B680F311886E
:10036000BFF34F8FBFF36F8F62B614F08BF84FF06F
:10037000000080F3118809BC19680868B0E8F04FE4
:100380001EF0100F08BFB0EC108A80F30988BFF38D
:100390006F8F704768000020EFF305807047000002
:1003A0000B49D1F800C04A685CF8043B1068184457
:1003B00042F8040B8C4528BFA1F1DC0C8A4228BF0F
:1003C000A1F1DC02C1F800C04A6020F00040704793
:1003D000E85800200948804709480047FEE7FEE743
:1003E000FEE7FEE7FEE7FEE7FEE7FEE7FEE7FEE7E5
:1003F00004480549054A064B70470000056B20007C
:10040000F9012000905F002090650020906100209D
:100410009061002053EA020C00F069802DE9F04B56
:100420004FF00006002B1FBFB3FA83F503FA05F463
:1004300024FA05F65E4012BF1643B2FA82F502FABC
:1004400005F4C5F120051EBF22FA05FC44EA0C04A0
:10045000203556EA044C4FEA144418BF641C4FF090
:1004600000084FF00009904271EB030C39D30029CA
:1004700019BFB1FA81F701FA07F6B0FA80F700FA6E
:1004800007F6C7F120071EBF20FA07FC46EA0C0654
:100490002037B6FBF4FCA7EB0507103F07F01F0B56
:1004A000CBF120060CFA0BFB2CFA06F644BFB34640
:1004B0000026202FA4BF5E464FF0000B5BEA060C1F
:1004C00008BF4FF0010B19EB0B09ABFB027C48EBAB
:1004D0000608C01B06FB02CC0BFB03CC71EB0C0126
:1004E000C1E70B46024641464846BDE8F08B13B5CE
:1004F0004FF000004FF00001AFF30080BDE81C405A
:10050000704700000FB4044910B503AA029800F028
:1005100035FB10BC5DF814FB0800002070B50446E4
:1005200085690068C10601D5302600E02026C00795
:1005300007D070BDD4E9012130469047206A401CA5
:1005400020626D1EF6D570BD70B5044685690078D1
:10055000C00707D170BDD4E9012120209047206A4F
:10056000401C20626D1EF6D570BD70B50C46054668
:10057000012A05D02878800600D5EA69002302E028
:10058000012305E05B1C934202D2E05C0028F9D114
:10059000A869E618C01AA861286A18442862284683
:1005A000FFF7BCFF04E0D5E9012114F8010B9047E7
:1005B000B442F8D32846FFF7C7FF70BD2DE9F041DC
:1005C0000646002410687529314616A510D0AFF3F1
:1005D0000080002802DA404213A507E031688A074C
:1005E00001D512A502E0490704D511A5012401E0B7
:1005F000AFF3008000210A2206F1240709E0B0FBD6
:10060000F2FCB0FBF2F302FB1C00303078541846C9
:10061000491C0028F3D123462A463046BDE8F04164
:1006200000F03DBA000000002D0000002B0000008B
:10063000200000002DE9F05F894604464FF0000AD3
:10064000DFF824B1FB44C0F820A02046E1688847C9
:1006500000287DD0252806D0D4E901219047206AC2
:10066000401C2062F1E700255F462046E16888478C
:100670002028064607DB312E05D2B81910F8200CC9
:1006800008B10543F1E7A80701D525F00405C4F832
:100690001CA00027C4F818A02A2E09D0304611F05B
:1006A00011FB38B304EB8708303EC8F8186019E036
:1006B00059F8041B204604EB87029161E1688847E2
:1006C000012F064618D1E069002820DA25F0200520
:1006D0001DE0D8F8180000EB800006EB4000303831
:1006E000C8F818002046E1688847064611F0EAFA83
:1006F0000028EED1012F0AD02E2E08D12046E16825
:1007000088477F1C0646022F45F02005C4DBA06900
:10071000002803DA404245F00105A061E80701D056
:1007200025F01005A6B1A6F14100192802D82036FF
:1007300045F400654A463146204625604D46FFF7A0
:10074000A5FD60B1012807D0ED1D25F0070000E0F0
:1007500007E000F1080978E705F1040975E730467C
:100760007AE7206ABDE8F09F9C1104000B4910B5A0
:10077000A1F17C020A4CC2E93712372106E000EBF6
:10078000104342F82130074B00FB03400B1EA1F140
:100790000101F4DC10BD0120E8E7000088580020CA
:1007A000E119D666CD0D010010B5002000F019FA50
:1007B000FFF780FDBDE81040012011F08ABA2DE955
:1007C000F041074615460E46102000F007F90400D8
:1007D0000AD06760C4E9026500F0FCF80168216096
:1007E00004600020BDE8F0810120FBE70EB505465E
:1007F00014460E4613A000F002FA284600F0FFF956
:1008000016A000F0FCF9304600F0F9F915A000F050
:10081000F6F900218DF80B100A210DF10A008DF870
:100820000A1008E094FBF1F201FB124294FBF1F490
:10083000303200F8012D002CF4DC00F0E0F9FFF775
:10084000B3FF00002A2A2A20617373657274696FEE
:100850006E206661696C65643A2000002C20666930
:100860006C6520002C206C696E652000032A40F224
:10087000308010F0030C00F0158011F8013BBCF142
:10088000020F624498BF11F801CB00F8013B38BF5A
:1008900011F8013BA2F1040298BF00F801CB38BF68
:1008A00000F8013B11F0030300F02580083AC0F086
:1008B000088051F8043B083A51F804CBA0E808102E
:1008C000F5E7121D5CBF51F8043B40F8043BAFF361
:1008D0000080D20724BF11F8013B11F801CB48BFBB
:1008E00011F8012B24BF00F8013B00F801CB48BFF1
:1008F00000F8012B704710B5203AC0F00B80B1E82A
:100900001850203AA0E81850B1E81850A0E8185044
:10091000BFF4F5AF5FEA027C24BFB1E81850A0E84D
:10092000185044BF18C918C0BDE810405FEA827C67
:1009300024BF51F8043B40F8043B08BF7047D2077E
:1009400028BF31F8023B48BF11F8012B28BF20F81F
:10095000023B48BF00F8012B70474FF0000200B582
:10096000134694469646203922BFA0E80C50A0E8D2
:100970000C50B1F12001BFF4F7AF090728BFA0E880
:100980000C5048BF0CC05DF804EB890028BF40F84C
:10099000042B08BF704748BF20F8022B11F0804F8E
:1009A00018BF00F8012B7047704770477047000070
:1009B00070B5064C7C44064D7D4403E0206820441D
:1009C0008047241DAC42F9D170BD0000682C0400A2
:1009D000702C0400004870472859002070B5064666
:1009E00000F022F9056806F10B0020F00704B4427C
:1009F0009CBF002070BD2B466A68BAB11068A04247
:100A000010D304F1080188423CBF5068586007D3F6
:100A10005168101941601168091B01605860146029
:100A2000101D70BD13465268002AE7D121462846A2
:100A300000F006F90028DED170BD70B50446051F30
:100A400000F0F2F80068002C14BF446870BD002C60
:100A500018BFAC423CBF20466468F8D301680A184E
:100A6000AA4218BF456003D12A68054611440160B7
:100A700028684119A1421CBF6C6070BD6168696043
:100A800021680844286070BD10B500F0D1F80068F6
:100A900010BD10B5044600F0CBF8046010BD2DE980
:100AA000F0470D4699469246044600F12408016835
:100AB000880604D5E06921F01001216000E00120E2
:100AC000A84201DD471B00E00027A1697A1902EB6B
:100AD0000900081AA0612078C00602D42046FFF75A
:100AE0001DFD002608E0D4E901211AF80600904710
:100AF000206A401C761C20624E45F4DB2078C0063C
:100B00000AD52046FFF70AFD06E0D4E9012130208E
:100B10009047206A401C2062381EA7F10107F4DCD0
:100B200007E0D4E9012118F805009047206A401C2D
:100B30002062281EA5F10105F3DC2046FFF704FD25
:100B40002078000602D50220BDE8F0870120FBE7EF
:100B500010B5436913B1AFF3008001E0FFF705FD65
:100B6000012010BD127800F124010A7000224A70A1
:100B70000122EDE711684FF0FF32E9E7074B70B54E
:100B80000D467B4400F0ABF80446284600F0BAF866
:100B900010B14FF0FF3070BD204670BD9F210100A5
:100BA0002DE9F0410646FFF715FF8046454613E064
:100BB00016B1E068B0420ED120682860D4E9010186
:100BC000D8F8007088472046FFF737FFD8F80000B4
:100BD000B842EBD100E025462C68002CE8D1BDE8F6
:100BE000F08110B500F098F8BDE8104000F08EB824
:100BF00010B500F0A9F8BDE8104000F087B810B5B6
:100C0000044602E0641C00F004F820780028F9D1C2
:100C100010BD08B569468DF800000320ABBE08BDC5
:100C200000487047F058002000487047F8580020EE
:100C300000487047F0580020704770477047704771
:100C400038B504460A4600206946AFF30080002804
:100C500008BF38BD02460099204600F0B3F80120D5
:100C600038BD012000F0EAB8F8B5AFF300800546C2
:100C700000200C46102000BF0646A819A0420DD93E
:100C8000324669460020AFF30080070008BF00F03D
:100C9000D5F80098A04218BF0546C419FFF7C4FF55
:100CA00005600746F01D20F007004619284600F0B1
:100CB0000AF8B44208BFF8BDA21B31463868BDE847
:100CC000F84000F07FB800210160C0E901107047D2
:100CD0001020704701694A1C02610878704700B50E
:100CE0008FB0CDE901310021059105497944CDE965
:100CF000031011466846FFF79DFC0FB000BD0000D1
:100D0000E5FFFFFF007B00F080007047002801D066
:100D100010F0DFBF7047000010B5002102A000F006
:100D200074F8012010BD0000534947414252543A23
:100D30002041626E6F726D616C207465726D696EB8
:100D40006174696F6E00000010B5002102A000F010
:100D50005CF8012010BD00005349475056464E3AFA
:100D60002050757265207669727475616C20666EAC
:100D70002063616C6C65640070477546FFF750FF37
:100D8000AE4605006946534620F00700854618B078
:100D900020B5FFF72DFBBDE820404FF000064FF0D7
:100DA00000074FF000084FF0000B21F00701AC46A0
:100DB000ACE8C009ACE8C009ACE8C009ACE8C009BF
:100DC0008D467047034640688C46002818BF88420D
:100DD0003CBF03464068F8D318681844884207D0DF
:100DE0000CF1030020F00700001D411A521A0146C1
:100DF000081D0A60FFF721BE10B50446AFF300805E
:100E00002046BDE81040FFF763BA70B505460C46B2
:100E10000A2000E06D1CFFF7FCFE35B128780028A1
:100E2000F8D102E0641CFFF7F4FE14B1207800282A
:100E3000F8D1BDE870400A20FFF7EBBE10B500F016
:100E400005F8BDE81040FFF761BF000010B50128AC
:100E500005D0002103A0FFF7D8FF012010BD09A194
:100E6000F8E7000053494752544D454D3A204F751D
:100E700074206F662068656170206D656D6F727992
:100E8000000000003A2048656170206D656D6F724A
:100E90007920636F7272757074656400704700002A
:100EA00010B504462146024803F0E2FC10BD0000E4
:100EB000E001002010B5044803F0EDFC042801D047
:100EC000012010BD0020FCE7E001002010B5002447
:100ED00000F014F8012801D0022010BD064803F0EC
:100EE000E3FD044634B94FF40061034803F073FB9B
:100EF00000B101242046F0E7E001002008B5012000
:100F000000909DF8000008BD2DE9F04104460D4613
:100F10001646002733462A462146044803F0E4FEDD
:100F200000B101273846BDE8F0810000E001002053
:100F300010B54FF0FF3201210248006812F0D8F9D5
:100F400010BD00001C0000202DE9F04104460D46B4
:100F50001646002733462A462146044803F062FF1E
:100F600000B101273846BDE8F0810000E001002013
:100F700010B54FF0FF3202210248006812F0B8F9B4
:100F800010BD00001C00002000BFFEE7144A10B591
:100F9000136823F001031360124A12680123AAB9EF
:100FA000114A12684FF08A44B4EB025F0ED10F4A27
:100FB00013601368002BFCD10C4A083A10601068CB
:100FC000884201D0002010BD012010BD084A936066
:100FD0009368002BFCD1106010688842F4D0F1E7D0
:100FE000002000E0002004E00010005C084C0258E3
:100FF0000030024010B5022011F0F5F810BD0000DD
:1010000010B500224021114801F076FCFFF7F2FFF5
:101010000F48006820F0C0000D49086008460068CD
:1010200040F04000086000220821094801F064FCFB
:1010300001224021054801F05FFCFFF7DBFF0022A1
:101040004021024801F058FC10BD0000001C024085
:101050000020024000B587B000BF1648006840F08D
:101060008000144908600846006800F08000019084
:1010700000BF00BF00BF0846006840F480700860F1
:101080000846006800F48070019000BF00BF402057
:1010900002900120039004900320059002A90648C5
:1010A00001F016FB0820029002A9044801F010FB91
:1010B00007B000BD30380240001C02400020024052
:1010C00010B500224021114801F016FCFFF792FFF5
:1010D0000F48006820F0C0000D490860084600680D
:1010E00040F04000086001220821094801F004FC9A
:1010F00001224021054801F0FFFBFFF77BFF0022A2
:101100004021024801F0F8FB10BD0000001C024025
:101110000020024070B5054600241748006820F002
:10112000C00015490860084600680860FFF762FFC4
:10113000002616E000224021104801F0DDFBFFF7F9
:1011400059FF012240210D4801F0D6FB6006040E34
:101150000821094801F0C8FB08B1601CC4B2701C2A
:10116000C6B2082EE6DB15B9FFF7AAFF01E0FFF7CC
:1011700047FF204670BD000000200240001C0240D6
:1011800070B504461A48006820F0C000184908608D
:101190000846006840F040000860002240211548E1
:1011A00001F0AAFBFFF726FF00251EE0E00928B1A9
:1011B000012208210E4801F09FFB04E000220821D3
:1011C0000B4801F099FB6006040E012240210948FA
:1011D00001F092FBFFF70EFF00224021054801F0CD
:1011E0008BFBFFF707FF681CC5B2082DDEDB70BD67
:1011F00000200240001C024010B50E48006820F09C
:10120000C0000C4908600846006840F040000860D3
:1012100001224021084801F06FFB01220821054806
:1012200001F06AFBFFF7E6FE00220821014801F009
:1012300063FB10BD00200240001C024010B50F48A7
:10124000006820F0C0000D4908600846006840F0C2
:101250004000086001224021094801F04DFBFFF7E2
:10126000C9FE00220821054801F046FBFFF7C2FE37
:1012700001220821014801F03FFB10BD002002407F
:10128000001C024010B5002401220821144801F07E
:1012900033FB01224021134801F02EFB1048006867
:1012A00020F0C0000E49086008460068086009E0A8
:1012B000601CC4B2FA2C03DDFFF7C0FF012010BD93
:1012C000FFF798FE0821064801F00EFB0028EFD139
:1012D00000224021034801F00FFB0020EFE700004F
:1012E00000200240001C024010B5024800F054FDEE
:1012F00010BD0000541700202DE9F0470C4617469A
:101300009C46DDF82080D0F80090D9F8449009F090
:10131000404948EA0C4A49EA0A09D0F800A0CAF84C
:101320004490D0F80090C9F83C70D0F80490B9F51A
:10133000403F4ED104F07F4604F47F0104F47F4225
:10134000E3B2D0F80890B9F1000F06D142EA0109E2
:1013500049EA060949EA030536E0D0F80890B9F1F0
:10136000010F04D142EA010949EA03052CE0D0F853
:101370000890B9F1020F09D1C90C920ADB084FEAB3
:10138000421949EAC12949EA03051DE0D0F808904D
:10139000B9F1030F0CD1F60FC90CD20ADB084FEAE2
:1013A000421949EA812949EAC63949EA03050BE0AD
:1013B000360F090D120B1B094FEA021949EA0129E0
:1013C00049EA063949EA0305D0F80090C9F83850CF
:1013D00003E0D0F80090C9F80C40BDE8F0870000A9
:1013E00010B5024800F040FE10BD0000640200206D
:1013F00010B5024800F038FE10BD0000C402002005
:101400000146087810381823B0FBF3F20848805CD6
:10141000C865032A05D908686FF30900001D8865AF
:1014200003E008686FF309008865886D7047000065
:10143000DC152400014600208A6A8B69CBB932B1E1
:10144000012A0DD0022A03D0032A10D10EE000BFDA
:10145000CB6A03F08073B3F1807F00D1012007E0F5
:10146000CB6AB3F1C07F00D1012001E000E000BFF2
:1014700034E08B69B3F5005F1AD132B1012A07D08D
:10148000022A03D0032A11D10AE000BF01200EE096
:10149000CB6A03F08073B3F1807F00D1012006E0B6
:1014A000CB6AB3F1C07F00D1012000E000BF15E09E
:1014B00032B1012A05D0022A04D0032A0CD103E05C
:1014C00000BF00BF012008E0CB6A03F08073B3F1D6
:1014D000807F00D1012000E000BF00BF704730B521
:1014E0000468246824F4802405682C600468636020
:1014F0008468402C04D10468A2600468E16003E0C1
:101500000468A1600468E26030BD704710B58020B7
:1015100001F0D0F810BD704730B504460D460022EA
:101520002946204600F002F830BD0000F0B5034621
:10153000012500241148407A01281CDA00200F4EB2
:10154000767A0E4FB8553846467A001D40F8263058
:10155000001F467A083082553E46707A461C7E72DD
:10156000044604F1300008703A2048702F2088703B
:101570000020C87000252846F0BD0000101800208B
:1015800030B50246002300240868012816D01368ED
:101590006FF30E03D1E901052843CD6828430D6997
:1015A00028434D6928438D692843CD6928430D6A36
:1015B00028434D6A28430343136019E0136823F45A
:1015C000F843D1E9070528434D6A2843034354688B
:1015D0006FF30E04D1E901052843CD6828430D6956
:1015E00028434D6928438D692843044313605460A0
:1015F000002030BD0246506940EA410050610020A1
:10160000704718B5034600200090D1E9000420433C
:101610008C68641E40EA4410CC6840EA4420009084
:1016200000981861002018BD70B5034615460022C9
:101630000024012D1FD09A6802F070420868401EF5
:101640004E68761E40EA06168868401E46EA002666
:10165000C868401E46EA0036088A401E46EA004630
:10166000888A401E46EA0056087E401E46EA006010
:1016700002439A6022E09A6811480240C868401EFE
:101680000603888A401E46EA00500243DC6804F0E4
:1016900070440868401E4E68761E40EA0616886848
:1016A000401E46EA0026088A401E46EA0046087E9A
:1016B000401E46EA006004439A60DC60002070BD72
:1016C000FF0F0FFF30B5CC1000F1200353F824308A
:1016D0004C07E50E0F24AC40A343CD1000F12004CD
:1016E00044F82530CC1000F1200353F824304C0787
:1016F000E40E02FA04F42343CD1000F1200444F870
:10170000253030BD2DE9F0470C46DDE908670021A2
:1017100000258C4600BF60E04FF0010808FA01F593
:1017200004EA050CAC4557D1D0F800804FEA410AD5
:101730004FF0030909FA0AF928EA0908C0F80080FD
:10174000D0F800804FEA410902FA09F948EA09088D
:10175000C0F80080012A01D0022A27D1D0F80880E1
:101760004FEA410A4FF0030909FA0AF928EA090881
:10177000C0F80880D0F808804FEA410906FA09F954
:1017800048EA0908C0F80880D0F804904FF0010832
:1017900008FA01F829EA0809C0F80490D0F8048092
:1017A00003FA01F948EA0908C0F80480D0F80C806F
:1017B0004FEA410A4FF0030909FA0AF928EA090831
:1017C000C0F80C80D0F80C804FEA410907FA09F9FB
:1017D00048EA0908C0F80C80491C10299CD3BDE8D0
:1017E000F087000000B587B08020009000200190B5
:1017F000012002900320039069461F4800F068FF13
:101800004FF4807000900120019069461B4800F061
:101810005FFFFFF71FFC00224FF48071174801F0B3
:101820006BF8012010F0D6FC01221102134801F0E0
:1018300063F80A2010F0CEFC802000901048019040
:101840000020029069460C4800F042FF3C2010F056
:10185000C1FC042205A948F2401000F01BF800204A
:101860008DF8180005A907A0FEF74CFE012000F036
:1018700043F8012007B000BD001C024000200240D8
:10188000000011104354502049443A307825730D1C
:101890000A0000002DE9F04105460F461646FFF705
:1018A000ABFC2820FFF76CFCFFF7ECFC2812FFF7DD
:1018B00067FCFFF7E7FCE8B2FFF762FCFFF7E2FC2A
:1018C000FFF79AFC2920FFF75BFCFFF7DBFC002405
:1018D0000BE0711EA14201D0012100E00021084669
:1018E000FFF718FC3855601CC4B2B442F1DBFFF7B7
:1018F000A5FCBDE8F081000038B5054600240020B5
:101900008DF800008DF8015000BF09E09DF800003F
:101910000F49095D0844C0B28DF80000601CC4B2D4
:10192000B82CF3D39DF80000C043401CC0B28DF822
:101930000000B822064948F2470000F00BF80222E6
:10194000694648F2FF0000F005F8002038BD0000AD
:10195000D26821002DE9F04104460E4617464FF0AB
:101960000008FFF749FC2820FFF70AFCFFF78AFC74
:101970002012FFF705FCFFF785FCE0B2FFF700FC43
:10198000FFF780FC00250BE0705DFFF7F9FBFFF728
:1019900079FC8046B8F1000F00D003E0681CC5B2A6
:1019A000BD42F1DB00BFFFF749FC4046BDE8F081D6
:1019B00070B503460C4600201F2100BF0D1EA1F18B
:1019C000010106D001F01F060125B5402540002D7C
:1019D000F4D08AB1082A0BD0102A05D0182A0CD1CD
:1019E000072900D301200AE0082900D3012006E0DE
:1019F000102900D3012002E001E0012000BF00BF58
:101A000040B91D686C611D68AD6825F01805154367
:101A10001E68B56070BD000010B504460CB9012009
:101A200010BD607F20B900202077204600F036F8F6
:101A300002206077207948B91748216848612068FA
:101A4000806820F018002168886007E02046D4E90B
:101A50000212FFF7ADFF08B10120E1E7607920B97C
:101A60004FF0FF302168086102E0216820690861B9
:101A70002068806820F06000616908432168886000
:101A80002068806820F08000A16908432168886090
:101A9000012060770020C3E7B71DC10408B5094ADB
:101AA000016891420DD100BF0749096841F4805196
:101AB000054A11601146096801F48051009100BF88
:101AC00000BF08BD003002403038024070B5044607
:101AD0002068006820F00500001D2168086000F003
:101AE00011FF054613E000F00DFF401BB0F57A7FB3
:101AF0000DD9606D40F020006065032084F851002E
:101B000000BF002084F8500000BF032070BD206893
:101B1000006800F001000028E5D12068006820F48A
:101B20000C5021680860012084F8510000BF00209B
:101B300084F8500000BF00BFE8E72DE9F8430446F1
:101B40000F4615461E46DDE9088900BF94F850008F
:101B5000012802D10220BDE8F883012084F850005A
:101B600000BF022084F85100206845614346324698
:101B700039462046CDF80090FFF7BEFB206800688C
:101B800040F40C50216808602068006840F00100B3
:101B9000216808600020DEE770472DE9F041044627
:101BA0000E46206800F124072068006840F0040019
:101BB00021680860012E02D1206800F11C0700F0A6
:101BC000A1FE054614E000F09DFE401BB0F57A7FB3
:101BD0000ED9606D40F020006065032084F851004C
:101BE00000BF002084F8500000BF0320BDE8F08152
:101BF000386800F020000028E5D12068006820F453
:101C0000645021680860012084F8510000BF002062
:101C100084F8500000BF00BFE8E7000070B502463E
:101C20000C465068B0F5403F02D0506800B100BF8C
:101C300000BF92F85000012801D1022070BD0120A0
:101C400082F8500000BF022082F8510004EB4406E5
:101C500002F1200000EBC6010E89486840EA064008
:101C60000E8A40EA06508E8A40EA4653214D486863
:101C70000A2802D04868092804D1C86800F07F40CB
:101C8000034302E0087B43EA0063A4B91068406A9A
:101C9000A84318431668706208681668B0614868FF
:101CA0000A2802D04868092819D1C86820F07F4066
:101CB0001668B06213E01068C069A843184316683C
:101CC000F06108681668306148680A2802D04868E0
:101CD000092804D1C86820F07F40166830620120CE
:101CE00082F8510000BF002082F8500000BF00BF02
:101CF000A4E700000F0033FF10B504460CB9012023
:101D000010BD2448006800F4000020B3206800687B
:101D100000F0010028B12046FFF7D8FED8B101201D
:101D2000EEE72068406A00F02000202806D100215C
:101D30002046FFF732FF70B10120E1E72068C0695B
:101D400000F02000202806D101212046FFF725FFC2
:101D500008B10120D4E70020216808603F202168F5
:101D60008860002021680861216888612168C86155
:101D70002168486221684863204600F0FDF8002091
:101D8000606584F8510000BF84F8500000BF00BFB8
:101D9000B6E700003038024070B504462068456858
:101DA0002068066805F00100E0B106F48070C8B153
:101DB0002068006820F4807021680860606D40F041
:101DC00001006065012021688860042084F85100CA
:101DD00000BF002084F8500000BFE06910B1204629
:101DE000E169884705F02000E0B106F40050C8B171
:101DF0002068006820F400502168086020202168D5
:101E00008860606D40F002006065042084F8510035
:101E100000BF002084F8500000BFE06910B12046E8
:101E2000E169884705F00800E0B106F40060C8B138
:101E30002068006820F4006021680860082021689C
:101E40008860606D40F004006065042084F85100F3
:101E500000BF002084F8500000BFE06910B12046A8
:101E6000E169884705F0040070B106F4806058B15C
:101E70002068006820F480602168086004202168E0
:101E80008860204600F077F805F00200D0B106F433
:101E90000070B8B12068006820F400702168086004
:101EA000022021688860606D6065012084F851001F
:101EB00000BF002084F8500000BFA06910B1204688
:101EC000A169884705F01000C0B106F48050A8B1A0
:101ED0002068006820F48050216808601020216884
:101EE0008860606D6065012084F8510000BF0020AB
:101EF00084F8500000BF2046FFF74EFE70BD10B5BD
:101F000004460CB9012010BD94F8510028B90020F6
:101F100084F85000204600F043F8022084F8510075
:101F20002068006820F44030616808432168086038
:101F30002068406B20F00700A168084321684863CF
:101F40002068006C6FF30D00E168084321680864A5
:101F5000208A0105A08A41EA40502168496B21F49A
:101F6000401108432168486300206065012084F81F
:101F700051000020C7E7704710B5044606492068A5
:101F8000884208D10548006820F400000349086031
:101F90005A2001F081F810BD00B0024030380240F4
:101FA00038B504460C492068884214D100BF0B485C
:101FB000006840F40000094908600846006800F421
:101FC0000000009000BF002205215A2001F096F881
:101FD0005A2001F083F838BD00B00240303802408A
:101FE0002DE9F84304460D4616461F46DDF82080CD
:101FF00000BF94F85000012802D10220BDE8F88308
:10200000012084F8500000BF022084F851003B46B4
:10201000324629462046CDF80080FFF76DF920684A
:10202000006840F40C50216808602068006840F0A7
:102030000100216808600020E0E7014691F83500C2
:10204000022803D08020486501207047052081F8D0
:1020500035000868006820F001000A681060002060
:10206000F3E70146486D7047F8B50446002000903C
:102070008C4800684FF41651B0FBF1F7A56D2E683F
:1020800094F85C1008208840304098B120680068BF
:1020900000F0040070B12068006820F0040021689E
:1020A000086094F85C1008208840A860606D40F0DB
:1020B0000100606594F85C1001208840304068B1F0
:1020C0002068406900F0800040B194F85C10012065
:1020D0008840A860606D40F00200606594F85C1074
:1020E00004208840304068B12068006800F0020099
:1020F00040B194F85C1004208840A860606D40F006
:102100000400606594F85C1010208840304078B37B
:102110002068006800F0080050B394F85C101020AC
:102120008840A8602068006800F4802080B12068A2
:10213000006800F4002028B9206CC8B12046216C4A
:10214000884715E0A06C98B12046A16C88470FE045
:102150002068006800F4807028B92068006820F0CA
:10216000080021680860206C10B12046216C884767
:1021700094F85C10202088403040002865D020680A
:10218000006800F0100000285FD094F85C10202058
:102190008840A86094F83500052828D12068006898
:1021A00020F01600216808602068406920F0800057
:1021B00021684861206C08B9A06C28B120680068CB
:1021C00020F008002168086094F85C103F208840E7
:1021D000A86000BF002084F8340000BF012084F80C
:1021E0003500206D10B12046216D8847F8BD20686C
:1021F000006800F4802080B12068006800F40020AE
:1022000028B9606C10B12046616C88471DE0E06B16
:10221000D8B12046E16B884717E02068006800F4D9
:10222000807068B92068006820F01000216808609C
:1022300000BF002084F8340000BF012084F835007E
:10224000E06B10B12046E16B8847606D38B3606D7C
:1022500000F00100F0B1052084F835002068006826
:1022600020F001002168086000BF0098401C009029
:10227000B84200D905E02068006800F0010000289D
:10228000F3D100BF00BF002084F8340000BF01205C
:1022900084F83500E06C10B12046E16C884700BF3F
:1022A000A4E70000500000202DE9F041044600257D
:1022B00000F028FB074614B90120BDE8F081606AF0
:1022C00000B100BF00BF002084F8340000BF02202E
:1022D00084F835002068006820F00100216808605B
:1022E0000AE000F00FFBC01B052805D9202060651F
:1022F000032084F83500E0E72068006800F0010062
:102300000028EED12068056821480540D4E9010184
:102310000843E16808432169084361690843A169EA
:102320000843E1690843216A08430543606A0428B9
:1023300003D1D4E90B0108430543206805602068F8
:10234000456925F00705606A0543606A04280DD1D8
:10235000A06A0543E06A48B12046FFF76BF828B150
:1023600040206065012084F83500A6E720684561BB
:102370002046FFF745F8064694F85C103F20884059
:10238000B06000206065012084F83500002094E7EB
:102390003F8010E02DE9F04704460D4616461F46E3
:1023A0004FF00008D4F8589000BF94F8340001288A
:1023B00002D10220BDE8F087012084F8340000BF7C
:1023C00094F8350001282BD1022084F83500002034
:1023D00060653B46324629462046FFF780F894F870
:1023E0005C103F208840C9F808002068006840F071
:1023F0001600216808602068406940F0800021686C
:102400004861206C28B12068006840F0080021680D
:1024100008602068006840F001002168086006E05C
:1024200000BF002084F8340000BF4FF0020840468F
:10243000C0E7000070B5044600F064FA0646254681
:10244000681C10B104480078054400BF00F05AFA37
:10245000801BA842FAD370BD64000020F0B50C4682
:1024600000250022002300219CE0012606FA01F548
:1024700004EA0502AA427CD14C4E8F0856F8273058
:102480008E07370F0F26BE403340494EB04201D170
:1024900000262DE0474EB04201D1012628E0464EED
:1024A000B04201D1022623E0444EB04201D10326BE
:1024B0001EE0434EB04201D1042619E0414EB04225
:1024C00001D1052614E0404EB04201D106260FE0AE
:1024D0003E4EB04201D107260AE03D4EB04201D146
:1024E000082605E03B4EB04201D1092600E00A264D
:1024F0008F073F0FBE409E4222D18E07370F0F2617
:1025000006FA07F3294E8F0856F827609E43274F97
:102510004FEA910C47F82C602F4E366896432E4FA9
:102520003E603E1D366896433F1D3E603E1D366848
:1025300096433F1D3E603E1D366896433F1D3E60FC
:1025400006684FEA410C032707FA0CF7BE43066002
:10255000CF0800F1200656F827604F074FEAD76CE6
:102560000F2707FA0CF7BE434FEAD10C00F1200702
:1025700000E016E047F82C6086684FEA410C03271C
:1025800007FA0CF7BE438660466801278F40BE43BA
:102590004660C6684FEA410C032707FA0CF7BE43B2
:1025A000C660491C1029FFF460AFF0BD0838014037
:1025B000000002400004024000080240000C0240FB
:1025C000001002400014024000180240001C0240AB
:1025D0000020024000240240003C014030B589B098
:1025E00005460024002007900690802D5AD1012234
:1025F00007A948F24E10FFF74DF99DF81C0000F0B6
:10260000800068B19DF81C0000F00F00062807DA72
:1026100000200690012206A948F24E10FFF79AF911
:102620009DF81C0000F00F0080B39DF81C0000F026
:102630000F0006282ADA00241AE01B4931F814009A
:10264000042208A9FFF726F99DF820009DF8211023
:1026500000EB012003A921F814009DF822009DF849
:10266000231000EB012080B22DF81400601CC4B2CE
:102670009DF81C0000F00F00A042DEDCBDF80C004D
:102680000A490880BDF80000094908809DF81C002F
:1026900000F08F00802805D14FF6FF7003490880B5
:1026A0000349088009B030BDC8682100000000203F
:1026B0000200002010B5044604480068204020B104
:1026C000024804602046FFF789FF10BD143C01401A
:1026D000F8B502460B46002100250024002000BF6B
:1026E000E4E0012606FA01F51E6806EA0504AC429C
:1026F00071D15E68022E02D05E68122E13D1CF080F
:1027000002F1200656F827004E07F70E0F26BE40AE
:10271000B0434F07FF0E1E69BE403043CF0802F1A1
:10272000200646F8270010684F000326BE40B0433D
:102730001E7906F003064F00BE40304310605E680D
:10274000012E08D05E68022E05D05E68112E02D0E0
:102750005E68122E13D190684F000326BE40B0432E
:102760004F00DE68BE4030439060506801268E40C6
:10277000B0431E79C6F300168E4030435060D068D7
:102780004F000326BE40B0434F009E68BE4030431A
:10279000D0605E6806F08056B6F1805FA8D100BFB9
:1027A000444E366846F48046424F3E603E463668A8
:1027B00006F48046009600BF00BF3F4E8F0856F8D3
:1027C00027008E07370F0F26BE40B0433B4EB24264
:1027D00002D100262EE068E0394EB24201D1012636
:1027E00028E0384EB24201D1022623E0364EB242F2
:1027F00001D103261EE0354EB24201D1042619E074
:10280000334EB24201D1052614E0324EB24201D11C
:1028100006260FE0304EB24201D107260AE02F4EC5
:10282000B24201D1082605E02D4EB24201D109265F
:1028300000E00A268F073F0FBE4030431E4E8F0830
:1028400046F82700274E3068A0435E6806F48036BD
:10285000B6F5803F00D12043224E3060361D3068EF
:10286000A0435E6806F40036B6F5003F00D1204371
:102870001C4E361D3060361D3068A0435E6806F47D
:102880008016B6F5801F00D12043164E0836306002
:10289000361D3068A0435E6806F40016B6F5001FCA
:1028A00000D120430F4E0C363060491C1029FFF434
:1028B00018AFF8BD4438024008380140000002401B
:1028C0000004024000080240000C024000100240D8
:1028D0000014024000180240001C02400020024088
:1028E00000240240003C0140024613690B400BB13A
:1028F000012000E0002070470AB1816101E00B0473
:102900008361704701480068704700005C00002048
:102910000348006803490978084401490860704782
:102920005C0000206400002010B50A48006840F4F4
:102930000070084908600846006840F4807008602C
:10294000032000F019FC0F2000F006F800F07EFBD9
:10295000002010BD003C024070B504460E480078CF
:102960004FF47A71B1FBF0F00C490968B1FBF0F556
:10297000284602F0EBFA08B1012070BD102C07D2F6
:1029800000222146501E00F0B9FB0548046001E01A
:102990000120F2E70020F0E7640000205000002052
:1029A0006000002070B504460E46154600BF94F83E
:1029B000A000012801D1022070BD012084F8A000F0
:1029C00000BF022084F8A10005EB850101EBC502E0
:1029D00004F1380101EB820034223146FDF78BFF10
:1029E0002A463146204602F0A7FC012021684862B1
:1029F00084F8A10000BF002084F8A00000BF00BF41
:102A0000DAE710B50446204600F050F90020C4F87B
:102A1000A40084F8A10000BF84F8A00000BF10BD8E
:102A2000704770B504462068856B2068466B05F0DA
:102A30000400E0B106F00400C8B12068406B20F04B
:102A400004002168486304202168C863D4F8A40006
:102A500040F00100C4F8A400042084F8A10000BFE5
:102A6000002084F8A00000BF2046FFF7D9FF05F042
:102A70000200E0B106F00200C8B12068406B20F00F
:102A800002002168486302202168C863D4F8A400CA
:102A900040F00200C4F8A400042084F8A10000BFA4
:102AA000002084F8A00000BF2046FFF7B9FF05F022
:102AB0000100A8B106F0010090B12068406B20F041
:102AC00001002168486301202168C86384F8A100DF
:102AD00000BF002084F8A00000BF204600F0A8F846
:102AE00005F00800B0B106F0080098B12068406B0E
:102AF00020F008002168486308202168C86301208D
:102B000084F8A10000BF002084F8A00000BF204688
:102B100000F0D2F970BD000070B504460CB9012078
:102B200070BD94F8A10028B9002084F8A0002046C8
:102B300000F0F0F8022084F8A1002068806920F0FD
:102B4000704021688861D4E901010843E1680843C5
:102B500021690843216889690843216888612068E0
:102B600080683249084021688860A08A050420688E
:102B70008068A16929430843216888602068C0688B
:102B80002A4908402168C860A08B05042068C068F5
:102B9000216A294308432168C860206800692349E5
:102BA000084021680861A08C050420680069A16ABA
:102BB0002943084321680861206840691B4908408F
:102BC00021684861A08D050420684069216B294374
:102BD00008432168486194F83500050294F83600EE
:102BE00006042068C06A00F07F402168C86246EA97
:102BF000050094F8341008432168C96A0843216825
:102C0000C8622068406B40F0060021684863206875
:102C1000806940F00100216888610020C4F8A400A8
:102C2000012084F8A10000207AE7000000F800F0FD
:102C300070B50546194800681949098888421AD1B3
:102C400018480188284600F00DF900BF16490868A9
:102C500000BF90F85610491C80F8561000BF06F0CF
:102C600083FE00BF10480068044608F06FFC002097
:102C700009F029FE11E00A480188284600F0F2F820
:102C8000002009F022FE00BF0748046800BF20684A
:102C900081692046884700BF00BF70BD4068014081
:102CA00044000020460000205401002010B50446D6
:102CB0001249206888421FD11148006820F08060C6
:102CC0000F49086040F2F7610E48FFF7C7FB4FF469
:102CD00080610D48FFF7C2FB4FF47E410B48FFF7C0
:102CE000BDFB4FF40C610A48FFF7B8FB582000F019
:102CF000D3F9592000F0D0F910BD00000068014060
:102D0000443802400020024000140240001C0240EF
:102D10000018024010B586B00446142101A8FDF742
:102D20001CFE4A49206888427ED100BF484800689E
:102D300040F08060464908600846006800F0806006
:102D4000009000BF00BF42481438006840F4807013
:102D50003F49143908600846006800F4807000900C
:102D600000BF00BF0846006840F020000860084629
:102D7000006800F02000009000BF00BF0846006817
:102D800040F0800008600846006800F08000009075
:102D900000BF00BF0846006840F0400008600846D9
:102DA000006800F04000009000BF40F2F760019022
:102DB0000220029000200390032004900E20059032
:102DC00001A92448FFF784FC4FF4806001900220A1
:102DD000029000200390032004900E20059001A98A
:102DE0001D48FFF775FC4FF47E40019002200290D1
:102DF00000200390032004900E20059001A917489D
:102E0000FFF766FC4FF40C60019002200290002056
:102E10000390032004900E20059001A91048FFF7AD
:102E200057FC0022052100E00DE0582000F066F973
:102E3000582000F053F900220521592000F05EF9D6
:102E4000592000F04BF906B010BD000000680140A9
:102E5000443802400020024000140240001C02409E
:102E600000180240024600BF92F8A000012801D1DC
:102E700002207047012082F8A00000BF022082F8E3
:102E8000A1001068406B20F00100136858630948E6
:102E900001601068406B40F0010013685863012026
:102EA00082F8A10000BF002082F8A00000BF00BF90
:102EB000DFE700004068014070470000F0B50346BE
:102EC0000D4600BF93F8A000012801D10220F0BDFB
:102ED000012083F8A00000BF022083F8A10002EBCC
:102EE000820000EBC20703F1380000EB87000169A4
:102EF00009B904240EE0012901D103240AE00429C0
:102F000005D0022903D0032901D0072901D10224C9
:102F100000E0012405FB04F00604186884308027D3
:102F200007FB0200C06A154F38401F6884374FF016
:102F3000800C0CFB0277F8621148006840F0010039
:102F40000F4F386018688430802707FB0200C06A82
:102F500030431F6884370CFB0277F862084800682A
:102F600040F00100064F3860012083F8A10000BF47
:102F7000002083F8A00000BF00BFA8E7FFFF00E02B
:102F8000246801404178154A11600178F9B1121D99
:102F900041681160017B0907C27A41EA0261827AC5
:102FA00041EAC241427B41EA8241827B41EA42419D
:102FB000C27B41EA0241427A41EA0221027A41EAB5
:102FC000420102781143054A0832116005E00021F0
:102FD000024A121D1160121D1160704798ED00E049
:102FE00000BF00BF00BFBFF35F8F00BF00BF00BFC7
:102FF0000548006820F48030034908600020024939
:10300000703108607047000024ED00E040F00101DD
:103010000D4A11600C497039096841F480310A4A3F
:10302000703A116000BF00BF00BFBFF34F8F00BFF9
:1030300000BF00BF00BF00BF00BFBFF36F8F00BF66
:1030400000BF00BF7047000094ED00E008B500BF6E
:103050001048006840F080500E490860084600683B
:1030600000F08050009000BF00BF00BF081D006846
:1030700040F48040091D08600846006800F4804064
:10308000009000BF00BF00220F21901E00F036F814
:1030900008BD00004038024010B50146084600282F
:1030A00017DB00F01F0301229A400B4B440943F841
:1030B000242000BF00BF00BFBFF34F8F00BF00BF81
:1030C00000BF00BF00BF00BFBFF36F8F00BF00BFD6
:1030D00000BF00BF10BD000080E100E001460846CF
:1030E000002809DB00F01F0301229A4043099B00DE
:1030F00003F1E023C3F8002100BF70472DE9F05F22
:1031000080460D46164600270EF088FA07463946D7
:103110002A46334601F00700C0F1070ABAF1040F4E
:1031200002D94FF0040A01E0C0F1070AD14600F1CC
:10313000040ABAF1070F02D24FF0000A01E0A0F131
:10314000030AD4464FF0010A0AFA09FAAAF1010A61
:103150000AEA020A0AFA0CFA4FF0010B0BFA0CFB0E
:10316000ABF1010B0BEA030B4AEA0B042146404684
:103170000EF05CFABDE8F09F00BF00F00702064BBE
:1031800019684FF6FF031940044B0B4343EA022131
:10319000014B196000BF70470CED00E00000FA051C
:1031A00038B5002400BF2048006840F080501E4918
:1031B00008600846006800F08050009000BF00BF23
:1031C0001A48006840F4803018490860FFF79AFBFD
:1031D000044607E0FFF796FB001BB0F57A7F01D9A4
:1031E000032038BD1148406800F48030B0F5803FBE
:1031F000F0D10E48006840F400300C490860FFF739
:1032000081FB044607E0FFF77DFB001BB0F57A7FEA
:1032100001D90320E5E70548406800F40030B0F527
:10322000003FF0D10020DCE7403802400070004051
:103230002DE9F84304460D4616460127FFF762FBC9
:103240008046A86900B100BFE86900B100BF286AE4
:1032500000B100BF00BF94F84000012802D1022055
:10326000BDE8F883012084F8400000BF94F84100D5
:10327000012828D100206064022084F841004346E0
:10328000002220212046009602F002FB0746DFB90B
:1032900000222946204602F0CEF9686A78B94346F2
:1032A000012202212046009602F0F2FA07465FB999
:1032B00002202168C860012084F8410004E0012058
:1032C00084F8410000E0022700BF002084F840009D
:1032D00000BF3846C4E70000F8B504460125FFF7F3
:1032E00011FB06460CB90120F8BD206A402800D029
:1032F00000BF00BF94F84000012801D10220F3E78D
:10330000012084F8400000BF94F8410050B900202B
:1033100084F84000204600F0A3F841F288312046AE
:1033200000F018F92068006820F4F851A068401EE9
:1033300041EA002021680860A06C33460022202169
:103340000090204602F0A4FA054635BB2179E068DA
:1033500040EA0160E1690843216A0843216809687D
:10336000114A1140084321680860208A616941EAD6
:103370000040A1690843216849680C4A114008438C
:10338000216848602068006840F0010021680860FA
:1033900000206064012084F8410000BF002084F810
:1033A000400000BF28469FE72FFFFF00FEF8E0FF28
:1033B0002DE9F84304460D4616460127FFF7A2FA09
:1033C0008046A86900B100BFE86900B100BF286A63
:1033D00000B100BF00BF94F84000012802D10220D4
:1033E000BDE8F883012084F8400000BF94F8410054
:1033F00001282CD100206064822084F84100A06C58
:103400004346002220210090204602F041FA074660
:10341000F7B92068006820F0080071680843216847
:103420000860706808280BD1306821680863102094
:103430002168C8602068006840F480102168086036
:103440004FF040622946204602F0F5F800E00227DE
:1034500000BF002084F8400000BF3846C0E70000ED
:1034600010B586B00446142101A8FDF776FA354957
:103470002068884263D100BF3348006840F00200F2
:10348000314908600846006800F00200009000BF63
:1034900000BF00BF2C480838006840F020002A49CF
:1034A000083908600846006800F02000009000BF5E
:1034B00000BF00BF0846006840F0020008600846F0
:1034C000006800F00200009000BF00BFC020019023
:1034D0000220029000200390032004900920059010
:1034E00001A91A48FFF7F4F84FF440700190022048
:1034F000029000200390032004900A20059001A967
:103500001248FFF7E5F80420019002200290002005
:103510000390032004900920059001A90C48FFF7AF
:10352000D7F8402001900220029000200390032051
:1035300004900A20059001A90548FFF7C9F806B0D4
:1035400010BD0000001000A03838024000140240F6
:1035500000040240816470472DE9F84304460E469A
:1035600017460025FFF7CEF98046206800F12009B4
:1035700000BF94F84000012802D10220BDE8F88382
:10358000012084F8400000BF94F84100012844D194
:1035900000206064002E3AD0122084F84100206898
:1035A0000069401CE06220680069401CA0626662FD
:1035B0002068406920F040602168486112E043467D
:1035C000012204212046009702F062F9054605B168
:1035D0000BE0616A481C6062087889F80000E06AC4
:1035E000401EE062E06A0028E9D100BF5DB94346B1
:1035F000012202212046009702F04AF9054615B93A
:1036000002202168C860012084F8410006E0606C57
:1036100040F008006064012500E0022500BF0020A2
:1036200084F8400000BF2846A8E700002DE9F843D1
:103630000446002600250027A846A946207800F069
:10364000010088B100BFFE48006820F40000FC497A
:10365000086008460068616B0843F949086000BFCC
:10366000606B08B94FF00108206800F40020B0F545
:10367000002F13D1F2488430006820F44010E16B31
:103680000843EF4984310860E06BB0F5801F01D139
:103690004FF00108E06B08B94FF00109206800F411
:1036A0008010B0F5801F13D1E5488430006820F405
:1036B0004000216C0843E24984310860206CB0F579
:1036C000800F01D14FF00108206C08B94FF00109BB
:1036D000206800F08070B0F1807F01D14FF00108C8
:1036E000207800F02000202870D100BFD448383066
:1036F000006840F08050D2493831086008460068C0
:1037000000F08050009000BF00BFCE48006840F439
:103710008070CC490860FFF7F5F8064607E0FFF730
:10372000F1F8801B642802D90320BDE8F883C5485E
:10373000006800F480700028F1D0C148683000684B
:1037400000F4407585B3208E00F44070A8422BD061
:10375000BB486830006820F44075B948683000689C
:1037600040F48030B649683108600846006820F4AB
:103770008030086008460560006800F0010098B1DC
:10378000FFF7C0F8064608E0FFF7BCF8801B41F2DF
:103790008831884201D90320C7E7A948683000680A
:1037A000C0F340000028EFD000BF208E00F440702E
:1037B000B0F5407F0BD1A248006820F4F810A24A6F
:1037C000216B114008439E49086006E010E09C48C8
:1037D000006820F4F8109A49086099486830006839
:1037E000218EC1F30B01084395496831086000BF81
:1037F000207800F01000102810D100BF90488430CD
:10380000006820F080708E498431086008460068A6
:10381000A16B08438A498431086000BF208800F406
:103820008040B0F5804F09D185488830006820F489
:103830004030616E0843824988310860208800F476
:103840000040B0F5004F09D17D488830006820F471
:103850004020A16E08437A4988310860206800F44E
:103860008030B0F5803F09D175488830006820F479
:103870004010E16E0843724988310860206800F406
:103880000030B0F5003F09D16D488830006820F461
:103890004000216F08436A4988310860207800F0B1
:1038A0004000402809D166488830006820F00300B5
:1038B000616C0843624988310860207800F080001C
:1038C000802809D15E488830006820F00C00A16C87
:1038D00008435B4988310860208800F48070B0F5A7
:1038E000807F09D156488830006820F03000E16CB4
:1038F0000843534988310860208800F40070B0F50F
:10390000007F09D14E488830006820F0C000216D4A
:1039100008434B4988310860208800F48060B0F586
:10392000806F09D146488830006820F44070616D8E
:103930000843434988310860208800F40060B0F5EE
:10394000006F09D13E488830006820F44060A16DC6
:1039500008433B4988310860208800F48050B0F566
:10396000805F09D136488830006820F44050E16D0E
:103970000843334988310860208800F40050B0F5CE
:10398000005F09D12E488830006820F44040216E45
:1039900008432B4988310860206800F48000B0F5A6
:1039A000800F09D126488830006820F08060A16F20
:1039B0000843234988310860206800F40010B0F5FE
:1039C000001F0FD11E488830006820F00060E16FB2
:1039D00008431B4988310860E06FB0F1006F01D1E6
:1039E0004FF00109207800F00800082801D14FF0BD
:1039F0000109206800F48020B0F5802F09D110481B
:103A00008830006820F04070616F08430C498831AD
:103A10000860206800F40000B0F5000F0AD10848E3
:103A20008830006820F08050D4F8801008430449A2
:103A300088310860206800F08060B0F1806F05E098
:103A40000838024000700040FFFCFF0F08D1CC484E
:103A5000006820F00050D4F884100843C84908607A
:103A6000206800F00060B0F1006F0AD1C448001F68
:103A7000006820F00070D4F888100843C049091F7E
:103A80000860206800F08050B0F1805F0AD1BC4827
:103A9000001F006820F08060D4F88C100843B849FB
:103AA000091F0860B8F1010F03D02068B0F1007F52
:103AB0007ED1B3489038006820F08060B0499039DA
:103AC0000860FEF71FFF064606E0FEF71BFF801B9F
:103AD000642801D9032028E6A94890380068C0F37B
:103AE000C0600028F1D1207800F00100B8B1606B0F
:103AF000A8B9A3480C380068C0F30145A0480C38A9
:103B00000068C0F303676068800140EA054040EA4E
:103B10000761207A41EA007099490C3908602068F1
:103B200000F40020B0F5002F03D1E06BB0F5801F4A
:103B300009D0206800F48010B0F5801F24D1206CDB
:103B4000B0F5800F20D18E480C380068C0F30145D5
:103B50008B480C380068C0F302776068800140EA47
:103B60000541207B41EA006040EA077084490C3936
:103B700008608348001F006820F01F00616A491E2A
:103B800008437F49091F0860206800F08070B0F189
:103B9000807F17D17A480C380068C0F303657848F5
:103BA0000C380068C0F3027760688101208A00E069
:103BB00036E041EA004040EA056040EA077070499B
:103BC0000C390860206800F00070B0F1007F0DD162
:103BD00060688101208A41EA0041207B41EA00615E
:103BE000207A41EA007066490C39086064489038D0
:103BF000006840F08060624990390860FEF782FEFC
:103C0000064606E0FEF77EFE801B642801D90320ED
:103C10008BE55B4890380068C0F3C0600028F1D0A5
:103C2000B9F1010F7ED156489038006820F08050DD
:103C3000534990390860FEF765FE064606E0FEF738
:103C400061FE801B642801D903206EE54C48903842
:103C50000068C0F340700028F1D1206800F4002013
:103C6000B0F5002F01D1E06B38B1206800F480106E
:103C7000B0F5801F22D1206C00BB41480838006895
:103C8000C0F301453E4808380068C0F30277606918
:103C9000800140EA0541207E41EA006040EA077069
:103CA000374908390860081D006820F4F851A06AF7
:103CB000401E41EA00203249091F0860206800F4D4
:103CC0000010B0F5001F19D1E06FB0F1006F15D1F1
:103CD0002B4808380068C0F3036529480838006895
:103CE000C0F3027760698101208C41EA004040EA1C
:103CF000056040EA0770224908390860207800F022
:103D00000800082820D11E4808380068C0F3036561
:103D10001B4808380068C0F301476069800140EA29
:103D2000074000E02AE040EA0561207F41EA007098
:103D3000134908390860081D006820F44030E16A22
:103D400008430F49091F08600D489038006840F08B
:103D500080500B4990390860FEF7D4FD064606E016
:103D6000FEF7D0FD801B642801D90320DDE4044860
:103D700090380068C0F340700028F1D00020D4E4EF
:103D80009038024070B504460D4600260CB901205B
:103D900070BD5C48006800F00F00A8420ED2594880
:103DA000006820F00F002843564908600846006864
:103DB00000F00F00A84201D00120E9E7207800F0D0
:103DC000020002281DD1207800F00400042805D14B
:103DD0004D48006840F4E0504B490860207800F0FE
:103DE0000800082805D14848006840F4604046496A
:103DF00008604548006820F0F000A1680843424987
:103E00000860207800F0010090B36068012807D1B5
:103E10003D4808380068C0F34040A0B90120B7E72A
:103E20006068022807D1384808380068C0F340604D
:103E300048B90120ACE7344808380068C0F34000B6
:103E400008B90120A4E73048006820F00300616849
:103E500008432D490860FEF755FD064609E0FEF7C8
:103E600051FD801B41F28831884202D903208FE73F
:103E700007E02548006800F00C006168B0EB810F96
:103E8000EDD12048006800F00F00A8420ED91D486F
:103E9000006820F00F0028431A49086008460068AF
:103EA00000F00F00A84201D0012071E7207800F057
:103EB0000400042807D11448006820F4E050E168A9
:103EC000084311490860207800F00800082808D14C
:103ED0000D48006820F46040216940EAC1000A49A9
:103EE000086000F069F808490968C1F30311074A3E
:103EF000515CC840064908600F20FEF72DFD0020E8
:103F000046E70000003C024008380240E469210016
:103F1000500000200348006840F400200149086078
:103F200070470000003802400F2202600D4A1268FC
:103F300002F0030242600B4A126802F0F002826053
:103F4000084A126802F4E052C260064A126802F49B
:103F50006042D2080261044A126802F00F020A604D
:103F60007047000008380240003C024001480068E9
:103F7000704700005000002000B5FFF7F7FF04492C
:103F80000968C1F38221034A515CC84000BD0000AA
:103F900008380240F469210000B5FFF7E7FF044943
:103FA0000968C1F34231034A515CC84000BD0000BA
:103FB00008380240F46921002DE9F047002400256B
:103FC0000026A1462548006800F00C0020B1042816
:103FD00005D008283AD105E0DFF8849039E0DFF811
:103FE000849036E01D48001F006800F03F041B4825
:103FF000001F006800F4800078B11A481749091FB3
:104000000968C1F38811A0FB017001462246002314
:104010003846FCF7FFF905460EE011480F49091F25
:104020000968C1F38811A0FB0170014622460023F4
:104030003846FCF7EFF905460848001F0068C0F352
:104040000140401C4600B5FBF6F902E0DFF8109095
:1040500000BF00BF4846BDE8F087000008380240B6
:104060000024F40040787D01F8B5044600260CB920
:104070000120F8BD207800F00100002871D0F84838
:10408000006800F00C0004280DD0F548006800F02E
:104090000C00082813D1F248001F006800F48000CB
:1040A000B0F5800F0BD1EE4808380068C0F34040EF
:1040B000002869D06068002866D10120D9E700BFD8
:1040C0006068B0F5803F08D1E5480838006840F4E2
:1040D0008030E349083908602EE0606868B9E0483C
:1040E0000838006820F48030DD4908390860084647
:1040F000006820F4802008601EE06068B0F5A02F02
:104100000DD1D7480838006840F48020D4490839D8
:1041100008600846006840F4803008600CE0D04831
:104120000838006820F48030CD4908390860084616
:10413000006820F48020086000BF606890B1FEF73E
:10414000E1FB054606E0FEF7DDFB401B642801D9D4
:1041500003208EE7C24808380068C0F340400028BA
:10416000F1D011E0FEF7CEFB054606E0FEF7CAFBF4
:10417000401B642801D903207BE7B9480838006850
:10418000C0F340400028F1D1207800F0020002285E
:1041900069D1B348006800F00C0058B1B04800681D
:1041A00000F00C0008281CD1AD48001F006800F486
:1041B0008000B0B9AA4808380068C0F3400020B1B8
:1041C000E068012801D0012053E7A54808380068BD
:1041D00020F0F800216940EAC100A14908390860CF
:1041E00041E0E06828B39E480838006840F00100CC
:1041F0009B4908390860FEF785FB054606E0FEF797
:1042000081FB401B022801D9032032E7944808387B
:104210000068C0F340000028F1D0914808380068D9
:1042200020F0F800216940EAC1008D490839086092
:1042300019E08B480838006820F0010088490839E7
:104240000860FEF75FFB054606E0FEF75BFB401BE0
:10425000022801D903200CE7814808380068C0F320
:1042600040000028F1D1207800F00800082836D15D
:104270006069D0B17A486C30006840F0010078493C
:104280006C310860FEF73EFB054606E0FEF73AFBA0
:10429000401B022801D90320EBE671486C3000680E
:1042A000C0F340000028F1D019E06D486C30006880
:1042B00020F001006A496C310860FEF723FB0546D7
:1042C00006E0FEF71FFB401B022801D90320D0E6C1
:1042D00063486C300068C0F340000028F1D12078BA
:1042E00000F00400042874D15D483830006800F004
:1042F000805080B900BF5A483830006840F0805084
:104300005749383108600846006800F08050009036
:1043100000BF00BF01265348006800F48070B0B9A8
:104320005048006840F480704E490860FEF7EAFA91
:10433000054606E0FEF7E6FA401B642801D9032093
:1043400097E64848006800F480700028F2D000BF6B
:10435000A068012808D142486830006840F0010098
:104360003F49683108602DE0A06868B93C48683072
:10437000006820F001003A4968310860084600688A
:1043800020F0040008601DE0A06805280DD1344825
:104390006830006840F00400314968310860084620
:1043A000006840F0010008600CE02D4868300068AB
:1043B00020F001002A49683108600846006820F0B2
:1043C0000400086000BFA068A8B1FEF79BFA05468C
:1043D00009E02EE0FEF796FA401B41F28831884250
:1043E00001D9032045E61E4868300068C0F340004C
:1043F0000028EFD013E0FEF785FA054608E0FEF747
:1044000081FA401B41F28831884201D9032030E60D
:10441000134868300068C0F340000028EFD1012E37
:1044200007D10F483830006820F080500C493831EF
:104430000860A069F0B30A48006800F00C00082882
:1044400068D0A06902284DD105480838006820F0DE
:104450008070034908390860FEF754FA05460AE0FF
:104460000838024000700040FEF74CFA401B02285A
:1044700001D90320FDE529480068C0F34060002809
:10448000F2D1D4E907010843616A40EA81110122AF
:10449000A06AC2EB500041EA00412C20005D41EAD5
:1044A00000613020005D41EA00701C49091D086070
:1044B000081F00E030E0006840F08070091F0860CD
:1044C000FEF720FA054606E0FEF71CFA401B02281C
:1044D00001D90320CDE511480068C0F340600028F1
:1044E000F2D019E00D48006820F080700B49086098
:1044F000FEF708FA054606E0FEF704FA401B02281C
:1045000001D90320B5E505480068C0F340600028E4
:10451000F2D101E00120ACE50020AAE5003802401C
:1045200070B504460D460CB9012070BD94F82C00FE
:1045300028B9002084F82D00204600F011F8022050
:1045400084F82C00211D2068FDF71AF82946D4E9CB
:104550000002FDF769F8012084F82C000020E4E750
:1045600010B5044603F048FA10BD70B504460D4678
:1045700094F82C00022800D170BD022084F82C0091
:1045800029462068FDF736F8012084F82C00002029
:10459000F2E770B504460D46164694F82C00022842
:1045A00000D170BD022084F82C00324629462068D4
:1045B000FDF727F82868022803D1052084F82C008D
:1045C00002E0012084F82C000020EAE710B5044640
:1045D000FCF764FC10BD70B58AB004460D46002699
:1045E000032084F83400606C032820D0B5F5805F88
:1045F00004D1A06B40F08050A0631CE0B5F5006FC3
:1046000007D1204602F06CF80646A06B3043A06349
:1046100011E03DB9204602F02EF80646A06B30436B
:10462000A06308E0A06B40F00060A06303E0A06B13
:1046300040F08050A063A06B40B140F2FF50216871
:104640008863012084F834000AB070BD606804906B
:10465000A0680590E0680690079560690890A069D9
:10466000099007A807C88DE80700206804A90EC9AB
:1046700001F016FD012084F834000020E4E77047C3
:1046800030B503460022586E020E90090870C2F33E
:104690008300487002F003008870586EC0F3074230
:1046A000CA70B3F86400C0F307220A7193F864205B
:1046B0004A71986E020E4FF6FF7000EA0210C88031
:1046C000986EC0F30742C88840EA1210C88002F012
:1046D0000F0008726820C05AC0F30722D009487240
:1046E000C2F380108872C2F34010C872C2F3001087
:1046F000087300204873586C00283ED19007000DC5
:1047000008616820C25C086940EA82000861D86ECE
:10471000020E086940EA92100861C2F3C2000875EF
:1047200002F007004875D86EC0F30742500988753B
:10473000C2F38200C8759007400F08766C20C05AFB
:10474000C0F30722087E40EAD21008760869401CB0
:1047500058650C7E586DA41C0125A540684358651A
:104760000C7A0120A0409865D3E91504640A6043DF
:10477000D8654FF400741C6630E0586C012821D1D4
:104780006820C25C9006800A0861D86E020E086933
:1047900040EA02200861D86EC0F30742086910435E
:1047A00008616C20C05AC0F307220869441C4FF40A
:1047B0008060A4FB00045865D8654FF400749C65C4
:1047C0001C660BE040F2FF501C68A063986B40F041
:1047D00080509863012083F8340030BDC2F380100C
:1047E00001F8190F9006400E48706C20C25C4878A2
:1047F00040EAD210487002F07F008870186F020EF5
:10480000D009C870C2F341100871C2F38200487128
:104810009007000F8871186FC0F30742887940EA4B
:1048200092108871C2F34010C8710020087202F023
:10483000010048727020C05AC0F30722D009887264
:10484000C2F38010C872C2F340100873C2F30010A4
:104850004873C2F38100887302F00300C8737020AC
:10486000C25C500808740120487419390020B4E76C
:104870000246506C0860906C4860D06C8860106D87
:10488000C860506D0861906D4861D06D8861106E90
:10489000C86100207047F8B50446042600250020B2
:1048A00000906946204601F0CDFE054615B1A06B8B
:1048B0002843A0630098C0F343263046F8BD0000AB
:1048C00070B5044600252068406BC0F30020002826
:1048D00062D04FF48070216888632068C06B20F438
:1048E0009D702168C863206B00F0080048B3206BFE
:1048F00000F0020018B9206B00F0200050B12068D1
:1049000001F080F905462DB1A06B2843A063204635
:10491000FFF7B5FE40F2FF5021688863012084F85C
:104920003400206B00F0010018B9206B00F0020089
:1049300018B1204600F06CFAB1E0204600F06DFAA4
:10494000ADE0206B00F080000028F5D0206B00F077
:10495000200050B1206801F055F905462DB1A06B3B
:104960002843A0632046FFF78AFE206B00F0010079
:104970000028E1D1206B00F002000028DCD1206883
:10498000C06A20F008002168C862012084F8340061
:10499000204600F042FA82E02068406BC0F380308D
:1049A00038B14FF4804021688863204601F0CDFE85
:1049B00075E02068406BC0F3C03038B14FF4004060
:1049C00021688863204601F02AFE68E02068406B79
:1049D00000F03A0008B1012000E0002000285ED07D
:1049E0002068406BC0F3400018B1A06B40F002009B
:1049F000A0632068406BC0F3C00018B1A06B40F00A
:104A00000800A0632068406BC0F3401018B1A06B91
:104A100040F02000A0632068406BC0F3001018B184
:104A2000A06B40F01000A06340F2FF502168886343
:104A30002068C06B20F49D702168C863206B00F073
:104A4000800010B3206C50B11548216C0865206CB3
:104A5000FDF7F3FA18B3206C01F030FC1FE0E06BB7
:104A600050B11048E16B0865E06BFDF7E6FAB0B1B4
:104A7000E06B01F0F4FB12E00020A063012084F859
:104A800034002046FFF7A2FD09E0206B00F008008B
:104A900028B1012084F834002046FFF7F0FD70BDF6
:104AA000BD6220005F62200010B504460CB90120F1
:104AB00010BD94F8340020B900202077204600F083
:104AC00053F8032084F83400204600F008F8002052
:104AD000A0632063012084F834000020E8E730B5AB
:104AE00089B00446002500200390049005900690AC
:104AF00007907620089006A807C88DE80700206870
:104B000003A90EC901F0CCFA2068406820F4807037
:104B100021684860206801F0DDFA2068406840F4B0
:104B20008070216848600220FDF784FC204601F077
:104B3000FFFC054645B1012084F83400A06B2843F2
:104B4000A063012009B030BD204601F073FC05468A
:104B50003DB1012084F83400A06B2843A0630120FC
:104B6000F0E70020EEE7000010B586B004461421FF
:104B700001A8FBF7F2FE5549206888427ED100BFAC
:104B80005348006840F400605149086008460068D6
:104B900000F40060009000BF00BF00BF4C48143814
:104BA000006840F004004A4914390860084600686B
:104BB00000F00400009000BF00BF00BF084600687E
:104BC00040F0080008600846006800F00800009007
:104BD00000BF00BF4FF4F850019002200290012066
:104BE0000390032004900C20059001A93948FDF79B
:104BF0006FFD042001900220029001200390032009
:104C000004900C20059001A93348FDF761FD33485D
:104C1000334908604FF000604860002130488160EF
:104C2000C1604FF480610161890041618900816147
:104C30002021C161C9020162042141620321816214
:104C40004FF40001C16289100163FDF72DFB08B12B
:104C5000FCF761FC00BF2248E063846300BF1F488B
:104C60004830204908604FF00060486040211D48EE
:104C700081600021C1604FF4806100E023E00161A8
:104C800089004161890081612021C161C9020162FD
:104C900004214162032181624FF40001C162891045
:104CA0000163FDF701FB08B1FCF735FC00BF0D48BF
:104CB0002064846300BF002205213120FEF71EFA24
:104CC0003120FEF70BFA06B010BD0000002C0140A9
:104CD0004438024000080240000C02405864024080
:104CE00064020020C40200202DE9F04186B0044691
:104CF000884616461D460027B8F1000F07D1A06B65
:104D000040F00060A063012006B0BDE8F08194F897
:104D10003400012876D10020A0637119E06D814232
:104D200005D9A06B40F00070A0630120ECE70320E0
:104D300084F8340000202168C8622068C06B40F409
:104D400095702168C8633048E16BC8632F48E16BF8
:104D5000C8640020E16B08656A029308226802F1CA
:104D600080014246E06BFDF715FB2068C06A40F009
:104D700008002168C862606C012800D076024FF0FC
:104D8000FF30009068020190902002900220039072
:104D900000200490012005906946206800F08AFFF9
:104DA0004FF40071206800F0DDFD074657B140F276
:104DB000FF5021688863A06B3843A063012084F80A
:104DC0003400A1E7012D07D98220206331462068F5
:104DD00000F034FE074606E081202063314620685B
:104DE00000F049FE07465FB140F2FF50216888633A
:104DF000A06B3843A063012084F8340084E701E00D
:104E0000002081E702207FE719622000B3612000C3
:104E100010B50446FCF78CF810BD10B50446FCF73D
:104E2000A7F810BD2DE9F04186B004468846164625
:104E30001D460027B8F1000F07D1A06B40F00060BD
:104E4000A063012006B0BDE8F08194F83400012889
:104E500075D10020A0637119E06D814205D9A06B66
:104E600040F00070A0630120ECE7032084F83400D8
:104E700000202168C8622068C06B40F01A002168D9
:104E8000C8633048216CC8632F48216CC864002077
:104E9000216C0865606C012800D076024FF4007127
:104EA000206800F05FFD074657B140F2FF502168CF
:104EB0008863A06B3843A063012084F83400C1E705
:104EC000012D07D9A02020633146206800F0B8FEEC
:104ED000074606E0902020633146206800F0CDFEB2
:104EE000074657B140F2FF5021688863A06B3843F2
:104EF000A063012084F83400A4E72068C06A40F071
:104F000008002168C86269028B08216801F18002EB
:104F10004146206CFDF73EFA4FF0FF3000906802EA
:104F200001909020029000200390049001200590B1
:104F30006946206800F0BEFE002083E7FFE70220FC
:104F400080E70000AB622000B361200070B504462A
:104F50002546681EB0F1807F01D301200FE0681E56
:104F60004FF0E02148610F214FF0FF300CF05EFB65
:104F700000204FF0E021886107200861002070BD0B
:104F800030B502460B4600BF92F83C00012801D123
:104F9000022030BD012082F83C0000BF022082F8D0
:104FA0003D001068416810688468114D1068A8427F
:104FB00003D0104D1068A84203D121F47001586845
:104FC000014321F070011868014324F080049868BF
:104FD00004431068416010688460012082F83D003D
:104FE00000BF002082F83C0000BF00BFD1E70000F6
:104FF000000001400004014010B504460CB9012036
:1050000010BD94F83D0028B9002084F83C002046EB
:1050100000F00CF8022084F83D00211D206801F00A
:105020000DFF012084F83D000020E9E708B5094A9A
:10503000016891420DD100BF0749096841F0200184
:10504000054A11601146096801F02001009100BF76
:1050500000BF08BD00140040403802400146022055
:1050600081F83D0008688068094B00EA0302062ABF
:1050700008D0B2F5803F05D00868006840F0010014
:105080000B681860012081F83D0000207047000087
:1050900007000100704700002DE9F0470446206832
:1050A000C569206806682068876805F00F08B8F1B0
:1050B000000F0CD105F0200048B106F0200030B1FF
:1050C000206E10B12046216E8847BDE8F087B8F108
:1050D000000F71D007F0010018B906F49070002895
:1050E00079D005F0010048B106F4807030B101209C
:1050F00021680862E06F40F00100E06705F00200FF
:1051000048B107F0010030B1022021680862E06F69
:1051100040F00400E06705F0040048B107F001002A
:1051200030B1042021680862E06F40F00200E067BF
:1051300005F0080060B106F0200010B907F001008A
:1051400030B1082021680862E06F40F00800E06795
:10515000E06F80B305F0200038B106F0200020B1E8
:10516000206E10B12046216E8847D4F87C902068CC
:10517000806800F04000402802D009F0080020B309
:10518000204601F073FF2068806800F0400040284E
:1051900017D12068806820F0400021688860E06EA8
:1051A00058B11948E16E0865E06EFCF746FF10B192
:1051B000E06E016D88470DE00DE02046FFF76AFFC5
:1051C00008E02046FFF766FF04E02046FFF762FF95
:1051D0000020E06779E705F0800040B106F080002C
:1051E00028B1606E10B12046616E88476DE705F00A
:1051F000400030B106F0400018B1204601F047FFF2
:1052000063E700BF61E700005570200010B5044659
:105210000CB9012010BDA06900B100E000BF606FB3
:1052200028B9002084F87000204600F029F82420D6
:1052300060672068006820F001002168086020464F
:1052400001F036FF012800D1E4E7606A10B1204682
:1052500001F060FE2068406820F4904021684860BA
:105260002068806820F02A00216888602068006833
:1052700040F0010021680860204601F0C7FEC9E740
:1052800010B586B00446142101A8FBF766FB1D4942
:105290002068884234D100BF1B48006840F01000ED
:1052A000194908600846006800F01000009000BF2F
:1052B00000BF00BF14481438006840F001001249D4
:1052C000143908600846006800F00100009000BF33
:1052D00000BF4FF4C06001900220029000200390B4
:1052E000032004900720059001A90848FDF7F0F974
:1052F000002205212520FDF701FF2520FDF7EEFE08
:1053000006B010BD001001404438024000000240C9
:10531000704700BFFEE7000010B50248FDF781FBB3
:1053200010BD0000AC16002010B50248FDF779FB57
:1053300010BD0000AC160020F0B58E880768FF682D
:10534000C7F30B473E44330406688436802707FBC7
:105350000266766806F47047066884364FF0800C63
:105360000CFB026677600E680768FF68C7F30B479F
:105370003E44761C1E43076884370CFB02777E6030
:105380008E890768FF68C7F30A073E44330406683E
:105390008436802707FB0266B66806F47047066805
:1053A00084360CFB0266B7608E680768FF68C7F337
:1053B0000A073E44761C46EA0307066884360CFB5F
:1053C0000266B76006688436802707FB0266366986
:1053D00026F00707066884360CFB026637610F6902
:1053E000066884360CFB026637613126765C330230
:1053F0003226765C34040E7E3506066884368027B5
:1054000007FB0266B6690027066884360CFB026655
:10541000B76191F830601E43264346EA05070668E7
:1054200084360CFB0266B76106688436802707FB6A
:105430000266766926F0FF07066884360CFB026672
:1054400077614F69066884360CFB026677610668EF
:105450008436802707FB0266F66940F20777BE4371
:10546000076884370CFB0277FE61D1E90776374382
:10547000066884360CFB0266F7610668843680276E
:1054800007FB0266B66A0027066884360CFB0266D4
:10549000B7624F6A066884360CFB0266B7620E6913
:1054A0000EB9042313E00E69012E01D103230EE08F
:1054B0000E69042E08D00E69022E05D00E69032E47
:1054C00002D00E69072E01D1022300E001230668F5
:1054D0008436802707FB0266F66A06F0E027066836
:1054E00084364FF0800C0CFB0266F762D1E900763F
:1054F000F61B5E43F61C0F8D5F4346EA07470668BE
:1055000084360CFB0266F76206688436802707FB48
:105510000266366BF70AFF02066884360CFB0266E9
:105520003763CF6A066884360CFB02663763066809
:105530008436D701F65946F00107066884364FEAEB
:10554000C21C46F80C70F0BD10B521492148FBF78C
:10555000E3FF2149087001221D4920480DF08AF817
:105560001D4908700846007808B1FBF7D4FF1C48B5
:10557000406D000D1A49896D48431A490860174863
:1055800040891649C969891E4843C00A15490860FF
:1055900012484089114989694843C00A1249086084
:1055A0000F48406D000D0E4A926D00FB02F10FA0F6
:1055B000FAF7A8FF0B48016811A0FAF7A3FF0A4801
:1055C000016815A0FAF79EFF01480EF0F5FB10BD2B
:1055D00021000020C86921002000002004060020CE
:1055E000E0010020280000202C000020534420432C
:1055F000617061636974793A203D202564204D0013
:10560000534420546F74616C2053697A65203D20A7
:105610002564204D0000000053442046726565203B
:105620002053697A65203D202564204D000000004C
:1056300000BFFEE7704710B54B6A33B1B2F1406F5F
:1056400003D08B6A5B1E046823618B69002B76D0C4
:105650000B6AE3B38B680468E361CB69FBB1D1E902
:105660000B3423434C6B23434C6A23438C8A43EA19
:1056700084430C6923430C6A2343CC682343CC69DD
:1056800023438C6923430C682343134304686361F9
:10569000B2F1406F02D04B680468A361BEE0D1E96B
:1056A0000B3423434C6B23434C6A23438C8A43EAD9
:1056B00084430C6923430C6A2343CC6923438C69DC
:1056C00023430C682343134304686361A6E0FFE7A8
:1056D000CB69EBB1D1E90B3423434C6B23434C6AC8
:1056E00023438C8A43EA84430C6A2343CC682343D4
:1056F000CC6923438C6923430C6823431343046818
:105700006361B2F1406FC9D04B680468A36185E062
:10571000D1E90B3423434C6B23434C6A23438C8ADB
:1057200043EA84430C6A2343CC6923438C692343B3
:105730000C6823431343046863616FE0FFE70B6A5F
:10574000C3B38B680468E361CB69EBB1D1E90B3477
:1057500023434C6B23434C6A23438C8A43EA8443A0
:105760000C6923430C6A2343CC682343CC6923434D
:105770008C692343134304686361B2F1406F4DD0D9
:105780004B680468A36149E0D1E90B3423434C6BB7
:1057900023434C6A23438C8A43EA84430C692343A2
:1057A0000C6A2343CC6923438C6923431343046865
:1057B000636133E0FFE7CB69DBB1D1E90B3423430D
:1057C0004C6B23434C6A23438C8A43EA84430C6A20
:1057D0002343CC682343CC6923438C69234313437D
:1057E00004686361B2F1406F18D04B680468A3612C
:1057F00014E04B6A93B1D1E90B3423434C6B234340
:105800004C6A23438C8A43EA84430C6A2343CC6961
:1058100023438C69234313430468636110BD000074
:105820002DE9F0438FB004460D4616461F46DDE9CC
:105830001689382101A8FBF790F801940795029684
:105840000897CDF81080CDF8289041F2883201A950
:105850000448FDF7EDFC08B1FBF75DFE0FB0BDE8B5
:10586000F08300009401002070B504460D46681EC8
:1058700006490968086141F2883221460348FDF76C
:105880006BFE08B1FBF747FE70BD000094010020DD
:105890002DE9F04104460E4617469846069D12E053
:1058A000681C80B12DB1FDF72DF8A0EB0800A842CF
:1058B00009D9042084F84100606C40F00100606464
:1058C0000120BDE8F08120688068304008B10120E7
:1058D00000E00020B842E3D10020F2E710B5024812
:1058E000FEF7EEFF10BD0000E001002070B586B0AD
:1058F00005460C4600260194372002904020039074
:10590000002004904FF48060059001A9284600F023
:10591000EAFB41F288323721284600F001FA0646B8
:10592000304606B070BD000070B586B005460C4626
:1059300000260B482043019029200290402003902C
:10594000002004904FF48060059001A9284600F0E3
:10595000CAFB284600F0E4FA0646304606B070BDA1
:105960000000108070B586B005460C4600260194F4
:105970001020029040200390002004904FF480609B
:10598000059001A9284600F0AEFB41F288321021B3
:10599000284600F0C5F90646304606B070BD70B521
:1059A00086B005460C460026019406200290402051
:1059B0000390002004904FF48060059001A92846D0
:1059C00000F091FB41F288320621284600F0A8F948
:1059D0000646304606B070BD30B585B00446002599
:1059E000002000900190029003904FF4806004909A
:1059F0006946204600F077FB204600F071F9054625
:105A0000284605B030BD30B585B0044600254FF4BA
:105A1000D570009008200190402002900020039053
:105A20004FF4806004906946204600F05CFB2046FD
:105A300000F0F6FA0546284605B030BD70B586B0D0
:105A400005460C4600260194122002904020039047
:105A5000002004904FF48060059001A9284600F0D2
:105A600042FB41F288321221284600F059F90646DD
:105A7000304606B070BD70B586B005460C460026AF
:105A800001941120029040200390002004904FF4D4
:105A90008060059001A9284600F025FB41F288327C
:105AA0001121284600F03CF90646304606B070BD8C
:105AB000F0B585B0064614461D4600270094072021
:105AC000019040200290002003904FF480600490E9
:105AD0006946304600F007FB41F288320721304624
