:020000040020DA
:10000000F07D0320D1022000112E2100FF1F2100CE
:100010000D2E210081E22000314821000000000067
:100020000000000000000000000000000D022000A1
:1000300053E8200000000000690220000541210073
:10004000EB022000EB022000EB022000EB0220007C
:10005000EB022000EB022000EB022000EB0220006C
:10006000EB022000EB022000EB022000EB0220005C
:10007000EB022000EB022000EB022000EB0220004C
:10008000EB022000EB022000EB022000EB0220003C
:10009000EB022000EB022000EB02200055E82000DC
:1000A000EB022000EB022000EB022000EB0220001C
:1000B000EB022000EB022000EB022000EB0220000C
:1000C000EB022000EB022000EB022000EB022000FC
:1000D000EB02200021482100EB022000EB0220006F
:1000E000EB022000EB022000EB022000EB022000DC
:1000F000EB022000EB022000EB022000EB022000CC
:10010000EB022000EB022000EB022000EB022000BB
:10011000EB022000EB022000EB022000EB022000AB
:10012000EB022000EB022000EB022000EB0220009B
:10013000EB022000EB022000EB022000EB0220008B
:10014000EB022000EB022000EB022000EB0220007B
:10015000EB022000EB022000EB022000EB0220006B
:10016000EB022000EB022000EB022000EB0220005B
:10017000EB022000EB022000EB0220000000000058
:10018000EB022000EB022000EB022000EB0220003B
:10019000EB022000EB022000EB022000EB0220002B
:1001A000EB022000EB0220000DE72000EB02200014
:1001B000EB022000EB022000EB022000EB0220000B
:1001C000EB022000EB02200000000000EB02200008
:1001D000EB022000EB022000EB022000EB022000EB
:1001E000EB022000EB022000EB022000EB022000DB
:1001F000EB022000EB022000DFF80CD000F020F929
:100200000048004719512100F07D03202D4B19684B
:100210000868B0E8F04F80F30988BFF36F8F4FF0A4
:10022000000080F311887047000000000848006853
:10023000006880F308884FF0000080F3148862B6ED
:1002400061B6BFF34F8FBFF36F8F00DF00BF00BFFA
:1002500008ED00E0DFF80C00016841F47001016076
:10026000704700BF88ED00E0EFF30980BFF36F8FA8
:10027000144B1A681EF0100F08BF20ED108A20E9F9
:10028000F04F106009B44FF0500072B680F311883F
:10029000BFF34F8FBFF36F8F62B615F0A5FF4FF01E
:1002A000000080F3118809BC19680868B0E8F04FB5
:1002B0001EF0100F08BFB0EC108A80F30988BFF35E
:1002C0006F8F704768000020EFF3058070470000D3
:1002D0000648804706480047FEE7FEE7FEE7FEE7E0
:1002E000FEE7FEE7FEE7FEE7FEE7FEE70942210044
:1002F000F90120002DE9F05F0546002092469B465B
:1003000088460646814640241BE02846414647462B
:10031000224600F085F853465A46C01A914110D340
:1003200011461846224600F06CF82D1A67EB0108BA
:100330004F4622460120002100F063F817EB000928
:100340004E41201EA4F10104DFDC484631462A4616
:100350004346BDE8F09F10B5441A0346944209D2C3
:100360008418114403E011F8013D04F8013D521EC8
:10037000F9D210BD40EA0104A40703D009E010C976
:10038000121F10C3042AFAD203E011F8014B03F83C
:10039000014B521EF9D210BDD2B201E000F8012B80
:1003A000491EFBD270470022F6E710B513460A46F5
:1003B00004461946FFF7F0FF204610BD30B504464D
:1003C0000020034600E05B1C934203D2E05CCD5C5E
:1003D000401BF8D030BD30B50B460146002020222E
:1003E000012409E021FA02F59D4205D303FA02F542
:1003F000491B04FA02F52844151EA2F10102F1DCA2
:1004000030BD202A04DB203A00FA02F100207047B8
:100410009140C2F1200320FA03F319439040704742
:10042000202A04DB203A21FA02F00021704721FA49
:1004300002F3D040C2F120029140084319467047B0
:10044000064C074D06E0E06840F0010394E8070021
:1004500098471034AC42F6D3FFF7D2FE1883210040
:100460003883210070B58C1810F8015B15F0070374
:1004700001D110F8013B2A1106D110F8012B03E03D
:1004800010F8016B01F8016B5B1EF9D12B0705D445
:100490000023521E0DD401F8013BFAE710F8013B8E
:1004A000CB1A921C03E013F8015B01F8015B521EAA
:1004B000F9D5A142D8D3002070BD0000204B70B503
:1004C0001E6801F0DFFA1F4C0025304605F09EFC47
:1004D00003F066FF1C4B1E6801F0D4FA304605F0AD
:1004E000CFFC03F05DFF01F0CDFA012223681A76FC
:1004F00003F056FF01F0C6FA23689D8503F050FF14
:1005000001F0C0FA23685D8503F04AFF01F0BAFAF2
:10051000284605F0E7FC03F043FF0C4B1D6801F093
:10052000B1FA236805B1DD6103F03AFF01F0AAFAE0
:10053000236800229A76BDE8704003F031BF00BF07
:10054000E4000020E8000020E0000020DC000020A3
:10055000014B83E803007047A0750320014B83E83B
:1005600003007047A8750320014B83E80300704720
:10057000B0750320704700BF704700BF2DE9F04FF2
:100580005C4E8DB03368DA69B3F92250D469B4F89F
:100590000CB0834500F29780E1898142C0F09380DE
:1005A0002168CBEB000B08914FF0FF310A91BBF1B2
:1005B000FF3F00F0828092F81880A27CB3F92A10E5
:1005C000B3F9249018FB02F3084607911F4694F8EC
:1005D00010A005F087FCD6F800E008994346DEF845
:1005E00038C05246099007FB0B10DEF81CE00B9751
:1005F000012704904946CDF814C0284694F812C04B
:100600000297CDF80CC09EF81BC0DFF8E8B0CDF81B
:1006100004C09EF81AE0CDF800E004F00BFE0A9F3B
:100620007B1C25D0079941F0020005F05BFCDBF84C
:1006300000100B9A43460898D1F838C002FB070017
:10064000D1F81CE00127CDF814C00490524694F86C
:1006500012C0494602972846CDF80CC09EF81BC030
:10066000CDF804C09EF81AE0CDF800E004F0E2FDF9
:100670003368DFF88080DB695A7E1B7E9A4215D989
:10068000079B022B12D083F0040005F02BFCD8F856
:1006900000302846DB691F7ED97E9A7E5B7E07FB91
:1006A00001910AFB02524B4404F0A4FF9DF8240080
:1006B00005F018FC3368B3F92250627C15445D8460
:1006C0000DB0BDE8F08FA1680029F6D00F88B842C0
:1006D000F3D3B1F802E08645EFD3C01B49686768E1
:1006E00080B2089701EB800731F920B0B7F902100A
:1006F0000A915CE7E8000020044B1B68DB69DB69BA
:1007000009B11A7C0A60587C704700BFE8000020DD
:1007100002230B80704700BFC3699A898A4202D8BE
:10072000DA898A4211D2986818B10388994201D2B5
:100730000020704742888A42FAD3C91A436833F8C6
:100740002100C043C0F3C03070470120704700BF94
:100750002DE9F047244F3D68002D3FDD234EC5EBCA
:100760004515DFF88C804FF0000A3468D8F8009007
:1007700004EB85050C340C35A4F1080374224946BA
:100780001846FFF7E8FD221F2063A06344F80CAC75
:100790006263E4607C34A542EED10024254603E088
:1007A00082B13A68954213DA0EF05CFA336801358B
:1007B0001A5919197C349042F2D10431C8F800104A
:1007C000BDE8F08708600431C8F80010BDE8F08784
:1007D00019460431C8F80010BDE8F087034BDFF874
:1007E00010801968E9E700BF100100209C77032002
:1007F000E8000020F8B5184F184B3846184E40F85E
:100800000C3F04F01DFC3468C4EB4414A4002046E3
:1008100000F0ACF8134B224600211B683860984763
:100820004FF0FF3373600EF027FA3368002B0FDDB3
:100830000024254603E062B133689D4208DA0EF0D9
:1008400011FA3B6801351A5923447C349042F2D1A5
:10085000F8BD1860F8BD00BF9C770320E1CC2000F4
:10086000100100201C01002000B9704710B504469B
:1008700001F008F9204608F06BFA044603F090FDF9
:10088000204610BDF8B5054601F0FCF825B9002456
:1008900003F086FD2046F8BD01F0F4F8284608F084
:1008A00057FA044603F07CFD002CF0D0144E2A4683
:1008B000144F0021F069736B013003EBC405F06144
:1008C00013F83400013003F834006D683B6805F11B
:1008D000080098472968726B12F83130012B01D952
:1008E000F06930B9013B02F8313003F059FD204680
:1008F000F8BD0138013BF06102F83130F5E700BF87
:10090000E47803201C01002021F00301014B83E85F
:1009100003007047B875032000B9704770B50D4CDF
:10092000054601F0AFF8EE00636B33445968486840
:1009300008F060F86368626B0021606A0133164456
:100940006360706002F835106562BDE8704003F0C6
:1009500027BD00BFE478032028B1034AD36B0360AE
:1009600003B15860D0637047E4780320F8B58B4E2C
:10097000044696F82830002B2FD00334356CF26BE8
:1009800024F003040434A54238BF254662B152F86E
:10099000043C14469D4204D114E054F8043C9D42AA
:1009A00010D02468002CF8D1F368B46B1C4454F8C0
:1009B000041C611A0B68002B68D14B689D426FDDE7
:1009C000002408E023680BB161685960616801B1D7
:1009D0000B60A24256D02046F8BD714B01219A68A7
:1009E00086F8281058680AB982089A605A27102297
:1009F00020254FF0400E3762802732644FF480721A
:100A0000B5644FF400751968C6F850E04FF4806E75
:100A1000B7654FF4006732664FF48052B5664FF405
:100A20000055A1F11403C6F870E0B7674FF4804E8B
:100A3000C6F880204FF40047C6F888504FF4803243
:100A40004FF400350344C6F890E04FF4802EC6F80A
:100A500098704FF40027C6F8A0200222C6F8A850CC
:100A60000125B1637363C6F8B0E03261F060C6F887
:100A7000B8705D607562756007F0BCFF0AF070FDCC
:100A800035637AE723682046F363F8BD00200CF055
:100A9000C1FA54F8041C611A0B68002B90D18CE742
:100AA000581BD6F8B8703D4A041DBB420C4472D2A4
:100AB000D2F8B070BB426CD2D2F8A870BB4266D2FA
:100AC000D2F8A070BB4260D2D2F898709F425AD937
:100AD000D2F89070BB4254D2D2F88870BB424ED24A
:100AE000D2F88070BB4248D2926F934243D2376FA4
:100AF0002A4ABB423DD2976EBB4238D2176EBB42E8
:100B000033D2976DBB422ED2176DBB4229D2976C60
:100B1000BB4224D2126C93420CD2F2687369521B0E
:100B20002B44F260736110B944F8045C53E707F09A
:100B300061FFF9E700223768D1F808E0FF1ACB68B7
:100B40003760BEF1000F01D0CEF8043013B1C3F806
:100B500000E0E2E706EBC202C2F844E0DDE7012272
:100B6000E9E70222E7E70322E5E70422E3E70522BB
:100B7000E1E70622DFE70722DDE70822DBE70922BB
:100B8000D9E70A22D7E70B22D5E70C22D3E70D22BB
:100B9000D1E70E22CFE70F22CDE700BFE478032094
:100BA000B8750320F8B54A4C94F82830002B3DD096
:100BB000D4F8BC30464A3BBBD2F8B43023BBD2F8A1
:100BC000AC300BBBD2F8A430F3B9D2F89C30DBB90F
:100BD000D2F89430C3B9D2F88C30ABB9D2F88430A3
:100BE00093B9D36F83B9536F73B9E36E63B9536E1F
:100BF00053B9D36D43B9536D33B9D36C23B9536C27
:100C000013B96FF00B00F8BD9B68002BF9D00022E0
:100C100001E09B6843B159681046914201D90A46E8
:100C200008469B68002BF4D10C38F8BD294B0121F4
:100C30009A6884F8281058680AB982089A605A2677
:100C40001022202540272662802622644FF48072DD
:100C5000A5644FF40075196827654FF48067A66591
:100C60004FF4006622664FF48052A5664FF400559B
:100C7000A1F114032767A6674FF48047C4F88020CA
:100C80004FF40046C4F888504FF480324FF40035DA
:100C90000344C4F890704FF48027C4F898604FF470
:100CA0000026C4F8A0200222C4F8A8500125A163A0
:100CB00063632261E060C4F8B070C4F8B8605D603E
:100CC0006562656007F096FE0AF04AFC25636FE7EF
:100CD000E4780320B8750320024A936901339361D5
:100CE000704700BFE4780320084AD169536B013193
:100CF00010B4D16103EBC00413F83020013203F8C3
:100D0000302060685DF8044B08307047E4780320B9
:100D1000F8B5584C00F0B6FE94F82830002B57D0A8
:100D2000D4F8BC30534A9BBBD2F8B43083BBD2F862
:100D3000AC306BBBD2F8A43053BBD2F89C303BBB79
:100D4000D2F8943023BBD2F88C300BBBD2F884306D
:100D5000F3B9D36FE3B9536FD3B9E36EC3B9536E2D
:100D6000B3B9D36DA3B9536D93B9D36C83B9536C35
:100D700073B96FF00B034049DA1781FB0313C2EB21
:100D80006313246A04FB03F403F00AFB2046F8BD56
:100D90009B68002BF5D0002201E09B6843B15968A5
:100DA0001046914201D90A4608469B68002BF4D1AF
:100DB0000C38B0F5800F0346DDD8226A2E4B02FBBB
:100DC00000F0A3FB00235C0903F0EAFA2046F8BD1B
:100DD0002A4B01219A6884F8281058680AB98208B9
:100DE0009A605A26102220254027266280262264F7
:100DF0004FF48072A5644FF40075196827654FF4AD
:100E00008067A6654FF4006622664FF48052A5669F
:100E10004FF40055A1F114032767A6674FF48047EC
:100E2000C4F880204FF40046C4F888504FF4803254
:100E30004FF400350344C4F890704FF48027C4F891
:100E400098604FF40026C4F8A0200222C4F8A850ED
:100E50000125A16363632261E060C4F8B070C4F847
:100E6000B8605D606562656007F0C4FD0AF078FBFC
:100E7000256355E7E47803201F85EB51B8750320FF
:100E8000024A9369013B9361704700BFE4780320F5
:100E900003680B4A30B4044653F8085C506B10F8F2
:100EA0003530012B03D9D16909B10139D161002253
:100EB000013B00F835301046226030BC704700BF5F
:100EC000E4780320034B5B6B03EBC0004068083001
:100ED000704700BFE47803202DE9F0411446064630
:100EE000884600F0CFFD204600F068FCE8B9A70076
:100EF0001B4D3B1905EB8303DA68B24206D11B692F
:100F0000434503D1BDE8F04103F04ABA3B1905EB74
:100F100083035869D0B93C4405EB8404E660C4F807
:100F20001080BDE8F04103F03BBA0D4B04EB8404A4
:100F300003EB840463689A685968C2EB0802711A6B
:100F400002F01AFDBDE8F04103F02ABA5B689A6826
:100F50005968C2EB0802711A02F080F9DBE700BFA2
:100F600010780320C3B2CAB29A1A92B210B414B263
:100F7000002C1EDBC1F30722C0F307239B1A9BB290
:100F80001AB2002A12DB090C02FB02F2C1EB10417B
:100F900004FB042089B20CB2002C01DA49420CB2E5
:100FA000A1B25DF8044B01FB010070475B421AB22D
:100FB000E9E7524214B2DDE700212DE9F04108468D
:100FC00082B000F089FC184F00F05CFD042004F0B2
:100FD00089FF164B43F6FF763D461B698046344633
:100FE0006846DA6C1B6D174416441D441C44ADF86A
:100FF0000070ADF80460ADF80250ADF8064006F0A0
:1010000003FF48B1234632462946384604F0F2FA37
:1010100006F0B6FD0028F5D1404604F063FF03F06A
:10102000BFF902B0BDE8F08101C0FFFFD800002089
:10103000012B17DC2DE9F04107461C2090460D4698
:101040001E46FFF793FC0446D0B16DB10561002345
:101050002046A661A4F81480E76023606360A36063
:10106000BDE8F08100207047074B53F826200AB9ED
:10107000EDE71A461368002BFBD113692361E6E7FD
:101080000020BDE8F08100BFBC790320012B3BDCD0
:101090002DE9F84381461C2090460F461E46FFF777
:1010A00065FC054600287FD0414A002F31D000233F
:1010B000DFF804E152F8264003609EF80010076153
:1010C0008E428661A0F81480C0F80C904360836063
:1010D00002DB731C8EF80030002C5DD021464C687A
:1010E000002CFBD1D9F80000CB681B6883422CDDB3
:1010F00009680029F8D148B92E4B163628461A68D7
:1011000042F82650BDE8F883002070472846BDE825
:10111000F88352F82610002930D0084600E018461F
:101120000368002BFBD10069DFF88CE02B6028619D
:101130009EF80000AE618642A5F81480C5F80C90B8
:101140006B60AB60CBDB0C46C3E70AD04B6843B3A4
:101150001D606B608D4214BF0B4600234D602B60F9
:10116000C9E7B8F1010FF1D104E0DC681946236842
:101170008342EBDB0B68002BF7D1E7E7DFF838E0C1
:1011800001609EF8003086619E42A0F81480C0F88D
:101190000C9041608160D6DA42F82650D9F8000000
:1011A000A9E742F82650D5E70020BDE8F88300BF44
:1011B000BC790320E8000020B5790320FFF7CCBB01
:1011C00000283DD070B48469012C03DD012318464A
:1011D00070BC70471F4B1A78944221DA1E4D55F8A7
:1011E00024300BB932E013465A68002AFBD1C2689A
:1011F000116802E01B68002BE8D0DA68126891429F
:10120000F8DB10D05A68F2B110604260984214BF07
:101210001A460022586000230260184670BC7047CE
:10122000621C1A70DAE7828A012AEBD104E0D668E0
:10123000134632689142E5DC1A68002AF7D1E1E7EB
:1012400001231846704745F82400DFE745F82400DD
:10125000BDE700BFB5790320BC79032000284DD03D
:101260002DE9F041DFF89CE0254F9EF80060BC4678
:1012700001E028463DB384690568012CF9DCB442DD
:1012800001DB661CF6B257F824300BB933E0134685
:101290005A68002AFBD1C268116802E01B68002B63
:1012A000E7D0DA6812688A42F8DC10D05A68A2B136
:1012B00010604260984214BF1A46002258600260D3
:1012C0002846002DD7D18EF80060BDE8F081828AD3
:1012D000012A0CD05A68002AEAD147F82400E9E72D
:1012E000D2F80C801346D8F800208A42DEDB1A6858
:1012F000002AF5D1DAE74CF82400BAE7704700BFBE
:10130000BC790320B57903200F4A816952F8213056
:1013100098420AD042680AB103681360036803B1B7
:101320005A600023036043607047036842F821302D
:101330002BB100225A604268002AEED1F0E74268E1
:10134000002AEAD1EDE700BFBC79032000207047F6
:1013500001280EDC084B53F8200058B1C3681B6805
:101360001BB908E0C3681B6823B100680028F9D1E5
:101370007047002070477047BC7903202DE9F8437F
:1013800007460DF073FCDFF86C9007440DF06EFC1F
:10139000DFF864803E1A002E22DD00F05DF9D9F8F6
:1013A00000309E42A8BF1E4600F06CFBD8F80040FB
:1013B000FFF792FCB4B1254602F0F2FF013DFBD1EC
:1013C00030460DF049FC00F05DFB013CFBD1FFF71E
:1013D00057FD02F0E5FF0DF049FC3E1A002EDCDC63
:1013E000BDE8F88330460DF037FCFFF749FD02F009
:1013F000D7FFF0E7F4000020A0770320082BF0B51A
:1014000085B074D804AC00265D1E1C44EDB204F80F
:101410000C6C002B6BD0384C00F00F0604AF264448
:1014200007EB050E9F1E96F828C00609FFB20EF8BE
:101430000CCC002D5BD006F00F0504AE254406EB66
:10144000070EDE1E95F828C0050AF6B20EF80CCC81
:10145000002F4CD005F00F0504AF254407EB060E16
:101460001F1F95F828C0050BFFB20EF80CCC002EFC
:101470003DD005F00F0504AEA3F1050E254406EBA3
:10148000070C5FFA8EFE95F82850060C0CF80C5CE1
:101490006FB306F00F0604AD070D264405EB0E0CE6
:1014A0009D1F96F82860EDB20CF80C6CBEF1000F91
:1014B0001DD007F00F0704AE073B274406EB050ECF
:1014C000DBB297F82870060E0EF80C7C7DB106F0A2
:1014D0000F0504AE000F25441E4495F8285006F869
:1014E0000C5C23B1204490F828308DF8043001A81A
:1014F00000F09EF805B0F0BD9C7521002DE9F04F7D
:101500004A4D83B0044600F0BDFA00F06DF92B6837
:101510000646B3F9228000F0ABF92B681FFA80F978
:101520009A8CC9EB020212B29A84217800294FD01A
:10153000B6B22F4647F6FF71204603F01FFC014666
:101540008346204603F0DAFB29688B8D03F0030302
:10155000012B5AD0022B5CD01FFA80FA4FF0000EFC
:101560004B8C0AF1FF3CB1F92420CEEB0303ADF81C
:101570000220013A9BB2B0186A460FFA83FE634418
:10158000ADF806002046A1F822E05946ADF800E08B
:10159000ADF8043003F04EF92B682046BDF8022068
:1015A00059469A8402F0D2FD235C04440A2B1BD0D6
:1015B0000D2B19D0BDF800003B688244A3F822A08F
:1015C00022781AB162780134002AB3D1B3F9242009
:1015D000998D914421F00302A3F824909A8502F09A
:1015E000DFFE03B0BDE8F08F2B689A8D02F0030296
:1015F000013A012A16D8A3F8228022780A2AE0D1DB
:101600009A8C32449A842278DBE71FFA80FEF246F5
:10161000A6E7002803461FFA80FAB8BF431CC3F3AD
:101620004F0E9DE71A8C5A84E7E700BFE8000020C0
:1016300070B50E461546044600F024FA054B1B68AB
:101640005E849D8414B12046FFF758FFBDE87040CA
:1016500002F0A6BEE80000202DE9F0410025124F5F
:10166000124EDFF84C803C681CB1A047041C18BF28
:10167000012405F0BBF83368002818BF01244BB1E2
:10168000984738B1D8F8003013B1012498473CB1DD
:101690000125E8E7D8F80030002BF7D1002CF7D16E
:1016A0002846BDE8F08100BFE0790320E4790320FB
:1016B000DC790320002850D0C388013B10B5848812
:1016C00080681F2B47D8DFE803F0162346314646D3
:1016D000463C4646464646464640464646464646BA
:1016E00046464646464646464610A31002FB0311B0
:1016F00050F8210010BD02FB04F200EBD104C843F6
:10170000A35C00F0070023FA00F000F0010010BD18
:1017100002FB04F200EB91046FEA4100A35C00F0CD
:10172000060023FA00F000F0030010BD02FB04F2F3
:1017300000EB5104CB07A05C4CBF00F00F00000988
:1017400010BD02FB0404605C10BD631002FB0311BA
:1017500030F8110010BD002010BD7047034B082168
:1017600053F82000C3689B6A184700BFBC79032068
:1017700010B5044600F086F9054B002120461B6891
:10178000DB695B689847044602F00AFE204610BDFC
:10179000E800002038B504460D4600F073F9064B0A
:1017A000294620461B68DB695B689847044602F0BF
:1017B000F7FD204638BD00BFE8000020012801D910
:1017C00000207047014B53F82000704768760320D3
:1017D00010B500F057F9034B1B681C7C02F0E0FDCC
:1017E000204610BDE800002010B500F04BF9044B76
:1017F0001B68DB695C7E02F0D3FD204610BD00BF94
:10180000E800002070B504460E46154600F03AF98F
:10181000204631462A4603F093FF044610B10023C8
:1018200033602B6002F0BCFD204670BD38B5054624
:101830000C4600F027F9064A064BB2F90020B3F92E
:1018400000302A602360BDE8384002F0A9BD00BF27
:10185000AA790320AC790320044B3422352061217E
:101860009A70187018461971DA707047D00000200D
:1018700010B500F007F90F4B1A68938D03F00C03B5
:10188000082B08D00C2B06D0042B0BD0002402F020
:1018900087FD204610BDD3691C7E02F081FD6408DF
:1018A000204610BDD3691C7E02F07AFD013C204623
:1018B00010BD00BFE8000020024B53F820301B6928
:1018C00018687047BC790320024B53F820301B691D
:1018D00058687047BC79032038B505460C4600F0BF
:1018E000D1F8044B1B685D849C8402F059FD0020F4
:1018F00038BD00BFE800002090B583B000AF544A67
:10190000534B1B6823F001031360524B1B68C3F356
:101910000A0340F2494293420CBF01230023DAB28A
:101920004C4B1B68C3F30A0340F251418B420CBF7E
:1019300001230023DBB21343DBB21946454B1B687E
:10194000C3F30A0340F2524293420CBF0123002327
:10195000DBB20B43002B10D03F4B01221A6000BFBB
:101960003D4B1B68002BFBD13C4B3D4A1A603B4B67
:101970001B683C4A934218D0FEE73B4B1B68C3F3FD
:101980000A03B3F58A6F10D1384B01221A6000BFE9
:10199000364B1B68002BFBD1354B314A1A60344B58
:1019A0001B68304A934200D0FEE702F001FF314B42
:1019B0002E221A700DF05EF92F480AF01FFF0CF06E
:1019C0006FFB786003F036FF0346002B0CBF01234A
:1019D0000023DCB203F074FF0346002B0CBF01238D
:1019E0000023DBB22343DBB2002B09D003F038FF26
:1019F000044603F07BFF03461946204604F06CFAC8
:101A00000021002001F0C8FF05F014FBFEF7A0FE46
:101A10001A4B1B68002B12D00DE0184B1B681B687B
:101A2000002B03D0154B1B681B689847134B1B6892
:101A30005B68124A1360114B1B68002BEDD1104BF1
:101A400001221A707B6818460C37BD4690BD00BF56
:101A5000002000E0002004E0083002400030024096
:101A6000C2A507F4CDB5E8B50010005C084C0258DB
:101A7000004C0258A8790320CC750320447603203B
:101A8000B47903202DE9F041224D6B6823B10DF0AC
:101A9000E9F8AB68984204D00DF004F90DF0E2F8D3
:101AA000A8606B680133012B6B6001D0BDE8F08149
:101AB000194F3B68002B28DD0024264605E03AB389
:101AC00001363B687C349E421FDA0DF0CBF82B6860
:101AD0001A5923449042F2D17B68B342E6D0002BDE
:101AE00010DBC3EB43132A6802EB8308FFF72EFCDD
:101AF0002A680A4B1444C8F87800221DA06F1A60A7
:101B0000FFF7ACFB7E60BDE8F08100242646E3E7EA
:101B10001860E1E79C77032010010020E800002016
:101B200010B582B028B9134B1B681C6E14B902B0F3
:101B300010BD0446FFF7A6FF2046FFF7D5F802AB1D
:101B4000446943F8080D1846FFF7A2F91CB902F0E2
:101B500027FC02B010BD204602ACFFF7C5F8826832
:101B600044F8040D936898472046FFF791F902F076
:101B700017FCEEE7E800002000B97047014A114663
:101B800000F002B801F0FFFF2DE9F047DFF8F88020
:101B900084B00C4615460646FFF774FF002001F09E
:101BA000CBFED8F80030814630461F6EFFF79CF818
:101BB00003680090986901F087FE324B82469C4290
:101BC000009B53D01A895B89013AADF80840013B6C
:101BD000ADF80A5022442B44ADF80C20ADF80E307D
:101BE00004F05AFB6846FFF753F902A806F00CF917
:101BF00048BB504601F068FEFFF744FF002F3DD080
:101C0000D8F800301B6EB3BB04F08EFC3846FFF7EB
:101C10006BF804ACD8F8003044F80C0D1F6600686F
:101C2000FFF7CEFA2046FFF733F904F0E1F904F0AC
:101C300019F902F0B5FB484601F07EFE02F0B0FB58
:101C400004B0BDE8F0872A462146304600F0B0FCDB
:101C500005F096FF0028CCD02A462146304600F0F9
:101C6000A7FC05F08DFF0028EDD1C2E7B3F90440D1
:101C7000B3F90650A6E701F019FEC5E701F016FE1C
:101C8000D7E700BF01F0FFFFE80000202DE9F04397
:101C900085B00646904699460F46FFF7F3FE1C4A6C
:101CA0001C4B1268507C53F8204001E02468FCB1C2
:101CB000E3681A68042AF9D1DB6A012120469847B3
:101CC0000546D8B12469A3689847013018D00C990B
:101CD0004B4602944246009130460195394600F049
:101CE000E3FA044602F05CFB204605B0BDE8F08351
:101CF000FFF72EFB044648B1C368DDE70446F1E771
:101D00000C9B054C43F001030C93E0E72046ECE705
:101D1000E8000020BC790320F474210000B970476A
:101D200010B582B00446FFF7ADFE104B1B681B6E6A
:101D30009C4217D02046FEF7D7FF4369019063B954
:101D40000068FFF73BFA01A8FFF7A2F82046FEF76C
:101D5000E3FD02F025FB02B010BD184602F006FBC1
:101D60000198EDE701F0A2FDE4E700BFE8000020E4
:101D70002DE9F04F87B0044692461D468946FFF78D
:101D800081FE574B1A68574B577CDB573846012B5F
:101D900040F39A8003F054FD0646384603F096FD62
:101DA0000746002C00F08D8005A904A8FFF73EFD32
:101DB000049A059B1644B4F900201F44B4F902307C
:101DC00022EAE272013E23EAE373013F11460292E6
:101DD0001846B4F9042003939642D4BFC1EB060120
:101DE000C1EB0201B4F9063002460E469F42D4BF51
:101DF000C2EB0702C2EB030201361746013705B9F1
:101E00007D42002E4FDD002F4DDD109B32460399A1
:101E100000932B460298FFF739FF8046002848D0F0
:101E200000F098F88742064604D02D4B1B68986C4A
:101E3000002851D140463D460024DFF8ACB000F008
:101E400095F90EE0AD1BACB950463444C847DBF8F9
:101E50000030FF2003B198474046FFF78DFEA742B0
:101E600012DDAE42EEDD2946404600F05FF9AD1BC3
:101E7000002CE9D0039B404602991A1900F0A6F9FC
:101E80004046FFF74DFEDFE74046FFF747FF0020E3
:101E900000F06CF9B74206D0114B1B68986C10B17A
:101EA000332106F0B9FC02F07BFA002007B0BDE850
:101EB000F08F5046C84702F073FA012007B0BDE822
:101EC000F08F039402949AE703F064FC06463846C8
:101ED00003F08AFC074664E7322106F09DFCA9E77F
:101EE000E8000020B8790320C876032030B5044606
:101EF00083B098B1FFF7C6FD2046FEF7F5FE0368F4
:101F000002AD1B6945F8040D9B68984704F090F9F1
:101F100004462846FEF7BCFF02F042FA204603B012
:101F200030BD00BFA0B110B5044682B0FFF7AAFDD6
:101F30002046FEF7D9FE02AB00F1180443F8040D69
:101F40001846FEF7A5FF02F02BFA204602B010BD9E
:101F5000704700BF10B5044682B0FFF793FD7CB117
:101F60002046FEF7C1FE02ABB0F90A4043F8040D6B
:101F70001846FEF78DFF02F013FA204602B010BD9E
:101F8000044B1B681C6E002CEAD102F009FA2046B3
:101F900002B010BDE80000202DE9F04F804687B068
:101FA000002758E0002E7ED104F06CFD804500F043
:101FB0009A80584B01264946224602935846564B72
:101FC000009601932B4600F06FF981464046FEF7DC
:101FD0008BFE03460590C0F82490B9F1000F79D02C
:101FE000826A05A8DFF840B142F480329A62FEF7B7
:101FF0004FFF484600F0BAF882463046474E02F09E
:1020000027FA4846FFF78EFF454B05FB04F2454C87
:10201000197892003568A84740462568CBF80080BB
:1020200004F062FD2060404606F0EAFA00222560D6
:102030001046CBF8002002F00BFA504600F096F85C
:102040004046FEF73FFF406AB0FA80F35B09013774
:10205000042F22DC0BB34046FEF746FE034605A8DC
:10206000B3F900B0B3F90290B3F90440B3F90650E4
:10207000CBEB04040593C9EB05055E6A0134FEF75A
:1020800007FF0135002DC8BF002CD4BF012300235A
:1020900088DC01370020042FDCDD08B100F0D2F825
:1020A00007B0BDE8F08F3046FEF71EFE034606A8D7
:1020B000B3F9065040F8083DB3F90440FEF7E8FED6
:1020C000A94501D1A345BBD04A465946304600F048
:1020D0007DF8B5E705A8FEF7DBFE404606F090FA6E
:1020E00033464846B3E703F08FFB064603F0D2FBC6
:1020F000B44202DC85427FF75CAFB442A8BF3446ED
:102100008542A8BF0546214640462A4605F008FC00
:102110004FE700BFF4742100A48221001C010020BD
:10212000E0770320E0780320687E032030B50D4679
:1021300083B028B90C4B1B681C6E14B903B030BDBA
:102140000446FFF79FFC2046FEF7CEFDB0F90A30AB
:102150000190AB42C8BF458101A8FEF799FE02F08D
:102160001FF903B030BD00BFE8000020F0B5164FE6
:1021700083B00446FFF786FC3B681E6EE4B1C6B927
:1021800004F0D2F92046FEF7AFFD02AD3B6845F8FA
:10219000040D1C660068FFF713F82846FEF778FE6A
:1021A00003F026FF03F05EFE02F0FAF8304603B0BB
:1021B000F0BD01F07BFBE3E701F078FB02F0F0F803
:1021C000304603B0F0BD00BFE800002070B50D46FA
:1021D00082B0164628B91A4B1B681C6E14B902B09F
:1021E00070BD044636B22DB2FFF74CFC2046FEF718
:1021F0007BFDC6808580009003F034FE009B58690B
:1022000030B96846FEF744FE02F0CAF802B070BD6D
:10221000FEF76AFD009B0190B3F90820B3F90A307C
:102220008280C38013B10AB10580468001A8FEF701
:102230002FFE6846FEF72CFE02F0B2F8E6E700BF7C
:10224000E800002000B9704770B5044684B0FFF77D
:1022500019FC2046FEF748FD014601A8B1F90460CB
:10226000B1F906500A894B89324401912B44ADF8EB
:102270000860013AADF80A50013BADF80C20ADF80A
:102280000E30FEF705FE02A805F0BEFD40B12A465D
:102290003146204600F06EF905F072FC0028F6D1B8
:1022A00002F07EF804B070BD2DE9F04FDFF82C810C
:1022B00087B082468B46D8F8000017461E46129912
:1022C000437C00221198FEF7B3FE00284DD003692D
:1022D00005469B68984703F0ABFF00FB07F4814677
:1022E000FEF716FD109B073413F001034FEAD404E8
:1022F0003FD0002E2CDD002B42D004FB06F018301E
:10230000FEF7B2FA024668B3002302931046039226
:10231000FEF7EAFC029A034606A8A3F804A0A3F875
:1023200006B01F815E81DC60C3F810905A6140F8EE
:10233000043D1D60FEF7ACFD129AD8F800302A610A
:10234000039A1046AA605B7CAB6107B0BDE8F08FD2
:10235000002C34D1204676428642A8BF064693B36D
:10236000002ECADC2846FEF729FF002007B0BDE892
:10237000F08F0028B8BF0330801000EB4000B8E7B2
:1023800000933A4633465946504601F05FFF0290AB
:1023900004FB06F01830FEF775FA02460028B5D1A6
:1023A00028460392FEF70AFF029B002BDDD0184659
:1023B000FEF7B2FA039A104607B0BDE8F08F18385E
:1023C000B0FBF4F0C7E700933A463346594650460F
:1023D00001F03CFF002E0290DADCC3E7E8000020A9
:1023E0002DE9F04FDFF880918BB05D4BD9F800C03C
:1023F000DFF878819CF811E053F82E40D8F80030CF
:10240000D4F810E0002B00F0A6801646DCF860201F
:1024100007460D46002A75D0E2681268072A78D070
:10242000504AC2EB0E02B2FA82F25209002A70D070
:102430003846FEF759FC03460AA8B3F908B040F83D
:10244000083DB3F90AA00BEB0504DB68013C0593DA
:10245000FEF71EFDD9F80010B1F90C30B1F90800F3
:10246000E41A002CCCBFC4EB0B045C4685425EDB57
:102470000023002C43DD0AEB0600B1F90EE0013821
:10248000CEEB00000028C8BFC0EB0A0AB1F90A0071
:10249000B04247DC0021BAF1000F079306912EDD10
:1024A0003846FFF73FFD079BD9F80020069901FB4E
:1024B0000B31136E00EB8107002B3CD01846FEF762
:1024C00013FC02460AA8B2F90410B2F906306D1ADC
:1024D00040F8042DF31AA900D56801F1180605FB90
:1024E00003661644FEF7D4FC4EB1059B22460095C8
:1024F0003946019330465346D8F80040A0470BB008
:10250000BDE8F08FE2681268B2FA82F25209002A3E
:102510008ED173463246294638460BF0C9FB0BB0C4
:10252000BDE8F08F811B0646C1EB0A0AB3E7431BE7
:102530000546E41A9DE7507C4FEA8B02DFF830E055
:102540003B4602922946CDF804A032460094DEF8BC
:102550000040A047D3E773460BF0AAFBCFE700BFCC
:10256000BC790320F4742100E8000020C87903201E
:10257000C47903202DE9F04182B00F46904606460B
:10258000FEF7B2FB034602AC16211D68002044F89A
:10259000043DEB685B6A984705462046FEF778FCE9
:1025A0001DB1424639463046A84702B0BDE8F08129
:1025B00000B970472DE9F04FA3B08B469246044610
:1025C000FEF792FB22AB456943F81C0D1846FEF757
:1025D0005FFC2046FFF78AFC0828814640DD002D7D
:1025E0003ED12046FEF780FB22AA0346B0F9081030
:1025F00042F8100D10460D92B3F90A200A91099283
:102600001968DA680E690B930E92FEF741FC924846
:1026100092490068D6F80480407C51F820100D697A
:102620002B680C93FFF79AF808280B9B14D91028F5
:102630008BBF20221022042702270B92AE4200F00B
:10264000F882B9F1200F00F0B381B9F1100F00F05A
:10265000458123B0BDE8F08F082201270B92EDE7FA
:102660000021012320467C4E20910DF188080B911A
:1026700021930A93FEF738FB074630683A68FB68F7
:10268000B7F908101269139314913B69B7F90A104E
:10269000407C0993169148F8147D5568D7F814903A
:1026A000FFF75CF832680E90507CFFF70DF9074693
:1026B0004046FEF7EDFB099A0A9B082A0B9940F267
:1026C0009D80102A13460A918CBF042302230C9389
:1026D000BD4200F0C1813368587CFFF7EDF8149BD0
:1026E00006469800FEF7C0F810900028B1D02046AA
:1026F000FFF718FC0446B9F1000F00F08880484647
:10270000FEF7F2FA169B1E90002B40F3A1810023E6
:10271000DDF83880CDF834A00B93139BCDF848B08A
:10272000E31815931FAB19460F93836800225B696A
:102730001F920B9A9847159B139A04469B1A0E9367
:10274000149B834200F0F680099B012B00F08880E7
:10275000002842D01CAB11931098FEF7C5FA099BD4
:1027600007461C90082B1F9A65D90C9BA3460E990F
:10277000824602FB031939F8020BA847B047BBF1A8
:10278000010B4AF8040BF6D1B8F11F0F04D83846F4
:102790004246214601F072FE0A9901231F98224603
:1027A000059112991C9F0844002101930093039105
:1027B000CDF808800D99049702F03CFD1198FEF7C2
:1027C00067FB1F9B1E981C440B9A83680F991F94EC
:1027D0005B69984704460028BED1159A13990B9B54
:1027E0000A44013315920D9A0B9301320D92169AF9
:1027F0009A4200F02D811E980F9996E7012A03D185
:1028000020AB0C920A9363E70C930A9160E70125D1
:102810000A9B139A099905930490584603920291D2
:102820005146169B149A0195009502F003FD1098ED
:10283000FEF772F80DE70C9BA2460E99814602FB4B
:10284000031B1BF8010BA847B047BAF1010A49F86E
:10285000040BF6D198E700BFE8000020BC79032004
:102860000028BAD0CDF8608019960B9F0A9EDDF83B
:102870003880DDF83490DDF848A0DDF83CB01795DD
:102880001192DDF87CE02246119D01230EF0070035
:1028900049460395012506900AEB0E00BEF1000F94
:1028A00005960295B8BF0EF1070E0195009508EB4D
:1028B000EE0ECDF810E003F0ADFB1F9B1E983A46DC
:1028C0001C44594683681F945B6998470446002856
:1028D000D7D1179DDDF86080199E7EE70A9B03FB28
:1028E00007F0FDF7C1FF109000283FF4B2AEFEF7ED
:1028F000FBF920902046FEF7F7F900F118031E902F
:102900000E932B69002B00F0A6817369002B00F059
:10291000A281B0F908008000FDF7A6FF1190002801
:1029200040F0BA811F900D98FEF7B2FA20A8FEF78A
:10293000AFFA7CE71098FEF7D7F9099B81461C9007
:10294000082B149F0446DDF838A028D93AF8020B6A
:10295000A847B047013F44F8040BF7D1B8F11F0F67
:1029600004D848464246149901F088FD22AB1298DB
:102970000D991A460A9B059300230393012352F8ED
:1029800018EDCDF8088017460193149A0093CDF8FE
:1029900010E002F04FFC3846FEF77AFA1DE71AF80D
:1029A000010BA847B047013F44F8040BF7D1D5E726
:1029B0000A9B07FB03F0FDF757FF0E9000283FF43A
:1029C00048AEFEF791F920902046FEF78DF91E9053
:1029D0002C6900F11808002C00F0EB800A9A5C4684
:1029E00001260A954FEA82099346CDF83090DDF82A
:1029F000249017E0042F21D0012F15D00B9B00202D
:102A0000209D51460293012305905A46039020468B
:102A100001969A440096049502F00CFCB9F1010964
:102A200000F0E880022FE5D10C9D40463B465A4617
:102A3000A8440A9D20992D69A847DFE70C9B4046D2
:102A40000A9D5A46984420993B462D69A847D5E7E8
:102A50001EA8FEF71DFAEAE62046FFF763FA804655
:102A6000B9F1000F00F0D4804846FEF73DF9169BFF
:102A70001E90002B40F3C88000261FABCDF834A079
:102A80000125B146DA461F4683683246CDF87C9070
:102A900039465B699847149B0446834231D0099BB1
:102AA000012B57D020B30D9B0B9603EB060B1F9801
:102AB00001230C990A9A01FB008E099E1399504438
:102AC0000592224603915946CDF810E002960195F1
:102AD000009502F0AFFB1F9B1E9839461C440B9AD1
:102AE00083681F945B69984704460028DFD10B9EDA
:102AF000139B01369844169BB34240F385801E9881
:102B0000C2E7CDF82C80B346984600E0A3461E9855
:102B10000BF101043946836822465B69984780457A
:102B2000F4D00A9AC6EB0B03DDF82C8050460592D0
:102B300001330D9ACDF810809119139E099A0396CE
:102B400002920195149A06FB03880095264602F02E
:102B500071FBD0E70028CBD00D9B0B9603EB060B47
:102B6000DDF87CE022460A9E01230EF0070059465C
:102B7000059606900AEB0E00BEF1000F139E02951B
:102B8000B8BF0EF1070E0396019508EBEE0E009507
:102B9000CDF810E003F03EFA1F9B1E9839461C4406
:102BA0000B9A83681F945B69984704460028D7D125
:102BB0009DE7A1460125099E0123022F51460A9A4D
:102BC00058460AEB030E00F0A981042F00F07D8126
:102BD0009F4200F052810B9CF246CDF81490029473
:102BE000209CCDF80C9001950095049402F022FBF6
:102BF000013EE1D10D98FEF74BF920A8FEF748F908
:102C00000E98FDF789FE24E51EA8FEF741F920E5A0
:102C100001240A9B139A099905930490584603923C
:102C200002915146169B149A0194009402F002FB03
:102C30000FE50E9A012418330025039251460493A0
:102C40005846099BCDF808900A9A0595019400947E
:102C500002F0F0FAFDE40125DDF82890099E012339
:102C6000022F51464A4658460AEB030E00F0D48024
:102C7000042F00F0A0809F426DD0002401950095A4
:102C8000F246059403940B9C0294209C049402F059
:102C9000D1FA013EE3D146E6FEF726F81F90002860
:102CA0003FF441AE0A9A0124CDF828B04FEA420918
:102CB00090460C95CDF83C90B146DDF838B017E061
:102CC000042F2ED0012F28D00B9B0020209D514691
:102CD000029301230590424603909A440194009484
:102CE0000A98049502F0A6FA099B013B09932BD0A0
:102CF000022FE5D1209B1E463B4642461F9958466F
:102D0000D9F81450A8470F9D31463B46AB440C9D63
:102D100042461F982D69A847D6E7209B1E460223EE
:102D2000EBE7209B42460F9E58461D461F99022303
:102D3000B344D9F81460B04729460C9D3B4642463F
:102D40001F982D69A847BFE71FA8FEF7A1F81198A3
:102D5000FDF7E2FDE7E50A9B444609965D000C9EFF
:102D60000C95209DDDF83880DDF8289038F8020BAE
:102D7000A047B047B9F1010905F8010BF6D10E9D46
:102D800001230B985146AE460C9D02905846AE4426
:102D9000209DCDF814909A440A9ACDF80C90019792
:102DA00000970495CDF838E002F044FA099B013B06
:102DB0000993D6D1B7E50A9B0125099644465E00E2
:102DC0000C9F0C96209EDDF83880DDF8289038F8AE
:102DD000020BA047B847B9F1010946F8040BF6D138
:102DE0000E9E01230B985146B6460C9E0290584603
:102DF000B644209ECDF814909A440A9ACDF80C90CF
:102E0000019500950496CDF838E002F013FA099B7D
:102E1000013B0993D6D186E50A9B012509964446D4
:102E20005E000C9F0C96209EDDF83880DDF828901F
:102E300038F8020BA047B847B9F1010926F8020B90
:102E4000F6D10E9E01230B985146B6460C9E029079
:102E50005846B644209ECDF814909A440A9ACDF86C
:102E60000C90019500950496CDF838E002F0E2F957
:102E7000099B013B0993D6D155E595000C9C099619
:102E80000C95209D4646DDF8289056F8040BA04787
:102E9000B9F1010905F8010BF7D10B980123209E28
:102EA000514602905846CDF814909A440A9ACDF8AB
:102EB0000C900197009704960C9D02F0BBF9099BBA
:102EC000A844013B0993DCD194E6099601259600BC
:102ED0000C9C0C96209E4746DDF8289057F8040B72
:102EE000A047B9F1010946F8040BF7D10B9801236B
:102EF000209F514602905846CDF814909A440A9A61
:102F0000CDF80C900195009504970C9E02F092F973
:102F1000099BB044013B0993DCD16BE6099601257E
:102F200096000C9C0C96209E4746DDF8289057F89A
:102F3000040BA047B9F1010926F8020BF7D10B9851
:102F40000123209F514602905846CDF814909A4490
:102F50000A9ACDF80C900195009504970C9E02F00A
:102F600069F9099BB044013B0993DCD142E600BFFB
:102F700058B311B30AB3B1F90030F0B5B2F900504B
:102F8000B2F902E0B1F902409D42B2F90470B2F91F
:102F90000660A8BF1D46B1F904207445B1F906309A
:102FA000A8BF7446BA420580B8BF3A46B3424480CF
:102FB000B8BF33468280C380F0BD002908BF1146E8
:102FC0000A684B68026043607047704778B189B205
:102FD000C38892B270B40688448885880E4414442D
:102FE0001A442944068044808180C28070BC7047A6
:102FF00070B4124D04462B686A6893420FD0104E8D
:10300000B34293E8070014BF0C333C3B84E807004D
:103010002B60207A003070BC18BF01207047094A2D
:10302000934204D013E9070084E80700F1E73C333A
:1030300093E8070084E80700EBE700BF40010020A9
:10304000987803205C780320034B09CBC01AB0FAB0
:1030500080F04009704700BF40010020F0B53C4EB1
:1030600085B00446336D002B55D03A4A01AD3A493C
:10307000F36C116094E8070085E807000BB128465F
:103080009847364F3C687B689C4232D0B342304A06
:1030900032D09DF80C00A3F10C0113F804EC8C461F
:1030A000864535D18C4233D091423BD002F13C0E63
:1030B00011F8042C82423DD0734595E8070083E85F
:1030C00007000BD00C339C427B600BD0B36C0BB170
:1030D0002846984700F080FC05B0F0BD1C4B9C4290
:1030E0007B60F3D11E4B9C4214BF0C343C3C3C60D3
:1030F000ECE7DFF86CE0DFE79DF80C0096F8442081
:1031000082421DD106F13C0E744519D07146CFE7BD
:1031100002F13C0ED0E7134B304640F8503F01F02F
:103120008FFFA2E791F8442001F13C0E8242C3D107
:103130006346C1E7B34208D0A3F10C0C6346BBE77A
:1031400095E8070086E80700BCE7054BB4E700BF39
:103150005C780320747E0320056B20004001002072
:103160009878032011CD200010B5FEF78BFC0D4A96
:10317000136851688B420FD00B4CA3424FF00104EF
:1031800093E8030014BF0833503B136004F0A8FA1F
:1031900001F006F9204610BD002401F001F9204697
:1031A00010BD00BF0801002050770320F0B5164C79
:1031B000059F2568069CB5F908E0B5F90C607045D7
:1031C000B8BF7046B242A8BF324690421ADCB5F989
:1031D0000A60B5F90E50B142B8BF3146AB42A8BF44
:1031E0002B468B4203DAF0BD25682DB12C46E568ED
:1031F0002D6835F00405F7D106940597BDE8F04039
:1032000002F0D2BCF0BD00BFE8000020B0F90220FF
:10321000B1F906309A4214DCB1F90220B0F9063057
:103220009A420EDCB0F90020B1F904309A4208DC71
:10323000B0F90400B1F900308342CCBF0020012076
:1032400070470020704700BF08B5034B0146742249
:103250001868FDF780F808BDE800002000B9704745
:103260002DE9F04F0446ABB00D4616461C921B915B
:10327000FEF708FC2046FDF737FDB0F9043004687E
:103280009D422790119400F05A810020FEF76EFFB6
:10329000AE4B119A1B689269597C1F900846279D76
:1032A00019928242209118BF5A74B5F90430B5F9C9
:1032B000062019460793B5F90830104612925B1A9A
:1032C000B5F90A201C46121A089316461392224694
:1032D0002B8A01329B071A92324602F101021D929B
:1032E00040F10E811B9B6A695B1A0392002B1C9AAA
:1032F0001493A2EB000440F3A78109934FF0010B54
:103300000023DDF868901093002C40F3A8811D9BEA
:103310004FF0000A1794169301231593119E8C4BBE
:10332000B0691B56012B40F389810023ADF8A23010
:10333000ADF8A03002F084FA431EB069ADF8A430B5
:1033400002F0C4FA0138ADF8A60027985A4600F1F9
:10335000140106F0C3F92190002800F0D0802798CE
:103360005A4600F1140106F0B9F92390002800F044
:10337000C180279BD868002840F08181169A524569
:1033800000F0B4801A9B10999A00CDF810900AFBB7
:103390000313C4EB0A01D946229005EB83030D9178
:1033A00015990E93129B01FB02F223441E9218936F
:1033B0004FEA8B03D3460593179B139A5B45109CEA
:1033C000CCBF002301235A45B8BF00230B93129BA7
:1033D0005B440F93189B5B440A93049B1A46A242DA
:1033E00075D01498079BC0EB040A0E9D03440C9300
:1033F0005A4621460398FEF75DF9030E06465FD054
:10340000099B089AA3420799CCBF00230123A2423B
:103410000C9A214402EB0407BDF9A020B8BF002399
:103420000691BA420B9903EA01030DDCBDF9A22013
:103430000A98824208DCBDF9A420BA4204DBBDF937
:10344000A620824280F2A9804FF00008002B00F0F5
:103450008580BAF1000F09DB0D9B002B06DB1A46B5
:1034600051460398FEF726F9030E77D0BDF9A03038
:103470009F4223DBBDF9A2300A9883421EDCBDF9CE
:10348000A430BB421ADBBDF9A630834216DB3046BE
:10349000304B229EFF221B6846F07F419847199AC5
:1034A0002D4B53F822301B691B689847219B02461D
:1034B0000A9900933846119B0AF09EF8C5F82080BF
:1034C000059B4C44CA441D44049BA34290D10E9BCF
:1034D0001E99159A0B4493440E930D9B1946169B07
:1034E00011445B450D917FF467AF279B23991868C2
:1034F00009F04AFD279B2199186809F045FD279D91
:103500001B991A9B1C980B44A980421E1D99013BD4
:10351000E8800A442B81199B6A811946209A9142BE
:1035200002D00A4B1B685A741F98FEF71FFE27A88B
:10353000FDF7AEFC00F034FF2BB0BDE8F08FB0F922
:1035400006309E427FF4A1AEF1E700BFE800002004
:10355000B8790320F8000020BC790320BDF9A03021
:10356000069A934284DCBDF9A2200F9882423FF76D
:103570007FAFBDF9A42006998A42FFF679AFBDF965
:10358000A62001468242FFF673AF239B2A6A069863
:103590000093119B0AF030F868E7DDF89C80B8F9D9
:1035A0000420BA422FDCB8F90810B9422BDBB8F975
:1035B00006E00146864526DCB8F90A00884222DB8F
:1035C000D8F81400F8B12593BB1A194622930A9B28
:1035D000CEEB03031A462493FEF76CF8030E259BEB
:1035E00011D0B8F90410B8F90820521A249902FB36
:1035F000011222990A4408EB8208D8F8202042F0F0
:103600007F4090460FE0119A1068002833D0D0F820
:103610000CE039460A9ADEF814802293C047229BB8
:10362000804640F07F402493199A9A4B53F8222009
:10363000126952689047249B229007E7F36830464E
:1036400028A91B6B984780E60022089B4FF0FF39A2
:103650000992149ACB4610931344089354E6139995
:1036600000224FF0FF3317920A4616938A462244EF
:103670001593139252E680464FF07F40D3E7FDF753
:1036800033FB169B2690534500F099801A9B1099A6
:103690009A00CDF810900AFB0313C4EB0A01D94637
:1036A0000D9105EB830312990F934FEA8B0321448D
:1036B000D346059318911599079B01FB02F22292BC
:1036C000149A13440C93179B139A5B45CCBF0023A9
:1036D00001235A45109AB8BF00230B93129B5B44F9
:1036E0001E93189B5B440A93049B93425AD0144642
:1036F000149A0F9DC2EB040A5A4621460398FDF71F
:10370000D9FF0646002846D0099B089AA3420B9988
:10371000CCBF00230123A242BDF9A020B8BF0023E3
:103720001F460C9B03EB0408079B0F4042452344B4
:103730000CDCBDF9A2200A98824207DCBDF9A42066
:10374000424503DBBDF9A620824257DA00220692E9
:10375000002F39D0BAF1000F0E9309DB0D9B002B1F
:1037600006DB1A4651460398FDF7A4FF0E9B58B39B
:10377000BDF9A02090450CDBBDF9A2300A998B421F
:1037800007DCBDF9A430434503DBBDF9A6308B420D
:1037900057DA069B2B62059B4C44CA441D44049B8C
:1037A0009C42A9D10F9B2299159A0B4493440F93E5
:1037B0000D9B1946169B11449B450D9183D126A85C
:1037C000FDF766FB279B91E6BDF9A0209A42D1DC6C
:1037D000BDF9A2101E9FB942CCDCBDF9A4109942DC
:1037E000C8DBBDF9A610B942C4DB1846239B2A6A80
:1037F00039460093119B09F0FFFEB9E7279A06921C
:10380000B2F9042042450DDC0698B0F90810414594
:1038100008DBB0F906E00A998E4503DCB0F90A002E
:10382000884218DA119A106800288FD0D0F80CE07E
:1038300041460E930A9ADEF8143098470E9B069084
:1038400086E7269A4046119B52F82620219E009634
:1038500009F0D2FE9DE72593C2EB0803CEEB0102EF
:1038600006990E93486919462492FDF723FF259B7C
:103870000028D7D00698B0F90410B0F90820521AE1
:10388000249902FB01120E990A4400EB8202126A8B
:1038900006925DE7BC79032008B5034B74221968D2
:1038A000FCF759FD08BD00BFE800002008B5FEF791
:1038B000E9F802F089FA02F09BFB02F0EDFCBDE8AA
:1038C000084000F06DBD00BF70B50D4D04462B687B
:1038D0005E7CFEF7D7F8012C03D900F061FD30467D
:1038E00070BD2046FDF734FD0028F6D02B685C74CF
:1038F000FFF7DCFF034B1C6000F052FD304670BD4B
:10390000E80000200C7E032010B50446FEF7BAF84C
:10391000204602F07BFABDE8104000F041BD00BF38
:1039200010B50446FEF7AEF8204602F0A9FABDE84D
:10393000104000F035BD00BF10B50446FEF7A2F8F8
:10394000204602F0CFFA044600F02AFD204610BDC2
:1039500010B418B111B10346002002E0002101208B
:103960000B46034C034A216013605DF8044B70471B
:10397000C4790320C879032070B504460D46164665
:10398000FEF780F829462046324602F0CBFA04467C
:1039900000F006FD204670BD70B505460C46FEF7EA
:1039A00071F8094A094B294610682246084E407CA6
:1039B000358053F82000074DC3682C801B6A984758
:1039C000BDE8704000F0ECBCE8000020BC790320AA
:1039D000AA790320AC790320024B1B6803B1184776
:1039E000704700BFB0770320024B1A6802B9186015
:1039F000FFF7F2BFFC76032000B970472DE9F041D4
:103A0000DFF8C48082B00546FEF73CF8D8F80040E5
:103A1000A54244D06E461CB919E0FDF739FAB4B19D
:103A20002046FDF761F9034630469C680093A542A5
:103A3000F3D12846FDF758F90346009A01A8996882
:103A400001939160FDF724FA3046FDF721FA2846EC
:103A5000FDF74AF9D8F804400090A5421A4B2CD043
:103A600094B101AF02E0FDF713FA6CB12046FDF707
:103A70003BF9034638465C680193A542F3D1009AAE
:103A800052685A60FDF704FA3046FDF701FA2846FD
:103A9000FCF742FF00F084FC02B0BDE8F08102AF09
:103AA0002846FDF721F9836847F8040D38466E462D
:103AB000C8F80030FDF7ECF9C9E7426830465A60B3
:103AC000FDF7E6F9E3E700BFB478032030B583B033
:103AD00018B90124204603B030BD04460D46FDF759
:103AE000D1FF2046FDF700F9828902AB2A4243F854
:103AF000040D184614BF01240024FDF7C9F900F095
:103B00004FFC204603B030BD0A4A002330B514688C
:103B100083B003605CB105462046FDF7E5F802ABD3
:103B2000026943F8040D18462A60FDF7B1F92046F2
:103B300003B030BDB4780320002370B50B6082B0B1
:103B400018B90446204602B070BD0D46FDF7CCF80A
:103B5000846801AE01902CB93046FDF799F92046F2
:103B600002B070BD3046FDF793F92046FDF7BCF872
:103B7000036901902B60EFE7F0B50228CB4D4FF0C1
:103B800000062DED068B8DB02E60189C00F00C8188
:103B900040F30581032800F04B810996043C06960A
:103BA00004390096043A0A9603EB80070B960796B1
:103BB00008960496059601960296DDED0B5ADDED0A
:103BC0000A4A9DED085A9DED074ADDED052A9DED57
:103BD000041A9DED022ADDED011ADDED000A9DEDCE
:103BE000063ADDED093A54F8046FB3EC017A07EEBA
:103BF000906A51F8046FB8EEC77ABB4206EE106ABD
:103C000052F8046FF8EEE77A06EE906AB8EEC66AEC
:103C100032EE072AF8EEE66AE7EE070AE7EE271A21
:103C200072EEA72AA7EEA71AA7EE063A35EE065AB5
:103C3000A7EE864AE7EE263A75EEA65AE7EEA64AC2
:103C4000D1D107EE900AB7EE006AF8EEE77A86EE79
:103C5000020A86EE227AC6EE276A23EE003A63EE67
:103C6000803A60EE800A21EE800A8DED063ACDEDB5
:103C7000093A27EE044A67EE244A67EE211A27EE36
:103C8000011A8DED074ACDED0A4A26EE855A66EEF9
:103C9000A55A26EE822A66EEA22A8DED085ACDEDAF
:103CA0000B5A72EEC06A31EEC27A30EEC24A71EE41
:103CB000623A27EE267AA4EE237AB5EE407AF1EE48
:103CC00010FA6CD09DED068AF7EE009A9DED089AE9
:103CD000012362EE485ADDED094ADDED0B8A89EEDB
:103CE000875ADDED0A7A9DED073A2B6022EE646A71
:103CF000E9EE205A21EEC9AAA8EEA06A61EEE89A80
:103D0000A3EE02AA65EE815AE7EE829A26EE017AC8
:103D100020EEC31AB0EE656A60EEE70AA8EE211A3B
:103D200033EE493AE4EEA10AAAEE006AA9EE807ADF
:103D300077EEE85A74EEE84A72EE617A38EE498A14
:103D400066EE831AA1EE226A66EEA56A28EE272A9D
:103D5000A0EEA27A67EEA47AF0EE612AE3EEA46AFE
:103D6000E4EE257AE3EE882AA4EE032A26EE056A1D
:103D700027EE057A66EE856A67EE857A85ED036A39
:103D800062EE854A85ED067A62EE055AC5ED046A53
:103D9000C5ED057AC5ED014AC5ED025A3FE00120A7
:103DA0000DB0BDEC068BF0BD1F6801264868D1F848
:103DB00000E007EE907A5B68CEEB00006168DB1BE9
:103DC000B8EEE75A05EE900A506806EE103A2368FE
:103DD0001468F8EEE55AC91AB8EEC66A001B00224C
:103DE00007EE901A2E6006EE900AC5EE864AAA608B
:103DF0002A61B8EEE77A07EE903AF8EEE66AF8EE56
:103E0000E77A86EE876A24EEC57AC5ED014A85ED2C
:103E1000037A66EE677A85ED056AC5ED067A199B29
:103E20000020EB611A9B2B620DB0BDEC068BF0BD40
:103E3000D1ED007A91ED015AB8EEE74AD2ED007A61
:103E4000D1ED025AB8EEC55A92ED016AF8EEE74A92
:103E5000D2ED026AF8EEE55AD3ED007AB8EEC66A02
:103E6000F8EEE66AD3ED011AF8EEE70A93ED022ABE
:103E7000D4ED007AF8EEE11A94ED011AB8EEC22AF8
:103E8000D4ED022AB8EEE70A8DED064AB8EEC11A63
:103E9000CDED094AF8EEE22A8DED075ACDED085A2C
:103EA0008DED0A6ACDED0B6AFBE600BF6C7703204F
:103EB000012801D90120704730B52A4C85B025680A
:103EC00022D0E16005F006012261062941D005F00B
:103ED0000505012D3DD06361089BA36194F82C304A
:103EE00043FA00F2D20758BF5AB24FF0010348BF5D
:103EF000002203FA00F01043C0B2032884F82C001B
:103F000010D0002005B030BDE16105F0050122624E
:103F1000052922D005F00605022D1ED06362089BFC
:103F2000A362DBE7104C2368587C01F089FC23680E
:103F30000546587C01F0CAFC0C4902900220A1F110
:103F400010030091A1F1080201951839FFF714FE42
:103F5000D8E7089AA3616261C0E7089AA362626227
:103F6000BCE700BF70760320E800002094760320B1
:103F7000244A136810B4C3B90468002C11DB096823
:103F800000290EDBD2691F4894420ADA006A5DF804
:103F9000044B8142ACBF002303F0010383F0010016
:103FA000704701205DF8044B7047B6EE006AD1ED12
:103FB000006A92ED037A0123D2ED067AF8EEE66A02
:103FC00037EE067AD2ED024A77EE867A92ED055AFE
:103FD000D2ED015AA4EEA67A92ED046AE6EE857A55
:103FE000D0ED006AF8EEE66AA5EEA67AE6EE867AED
:103FF000BDEEC77AFDEEE77A80ED007AC1ED007A7A
:10400000BAE700BF6C770320F0B52C4C87B094F86A
:104010002D30002B39D00AF009FE60600AF004FE52
:104020006268A3680192029300F04CF802A98DF82F
:10403000150001A8FFF79CFF38B194F82E3083BB20
:10404000002384F82D3007B0F0BD1D4994F82E00F0
:10405000019E029D91E80C0050B1B21AEB1A002AA1
:10406000B8BF5242002BB8BF5B421344022BE7DDBE
:10407000012703A80E6003964D6004958DF8147017
:1040800000F026F884F82E70DAE70AF0D5FDA0607B
:104090000AF0CBFD94F82D30013384F82D3007B0B1
:1040A000F0BD074B002503A88DF814500CCB0392EC
:1040B000049300F00DF884F82E50C1E770760320C9
:1040C000EC000020014B587A704700BF9077032026
:1040D00070B5134C84B00C2206462146FCF76EF9ED
:1040E00078B1E368A3B101AD96E8070085E8070061
:1040F00002A928469847034695E8070084E8070088
:104100000BB104B070BD2846FEF7A8FF04B070BD27
:104110003046FEF7A3FF96E8070084E80700F0E7C3
:104120005C770320F8B5084E0546046833682046DE
:104130001B6898473368074620465B6898470444E5
:1041400038462C60F8BD00BFD0790320F8B569B1BE
:1041500005460C460026064F3B6828465B68984794
:10416000013C05440644F7D13046F8BD0E46FBE756
:10417000D07903202DE9F843089C054689469846E6
:10418000A96843462846561C4F684946B847013C33
:104190003246F5D1BDE8F883F8B5B0F90040B0F982
:1041A00004500C1BAC422ADA2344B0F90250E71049
:1041B000FF21013B551B026904F00704DE4302FBAB
:1041C000057541FA04F406F00706D7EBE30205F1A2
:1041D0001405E4B201FA06F600EB050EF6B20FD0B4
:1041E000435D013A0EF101071C43002A445503DDEB
:1041F00038461744FCF7D9F83C7834433C70F8BD96
:10420000435D34401C434455F8BD00BF30B4B0F9A1
:10421000024080250369121BB0F9004003FB02F342
:10422000091B143301F0070203EBE1011541435C64
:104230002B4330BC435470470346B0F9062000219D
:1042400014301B6903FB02F2FCF7AFB82DE9F04311
:1042500002F10F04804683B0914624111E460F469A
:10426000640003FB04F01430FCF70CFB0546B8B106
:10427000FDF708FC2846FCF737FD012301460A4AF2
:1042800002A8A1F8049040F8041DCE800C61A1F8AA
:1042900000804F808A608B81FCF7FAFD00F080F887
:1042A000284603B0BDE8F08374822100B0F90630DF
:1042B00093423BDDB0F90430F0B40D689D4232DA30
:1042C000EE1007695C1E05F0070307FB0262C6EBF0
:1042D000E4061432845C013204FA03F3104413F050
:1042E000FF0308D126B3083510F8013B013E25F045
:1042F0000705002BF6D01C0634D45B000135DBB279
:104300001A06FAD55F062A4604D55B000132DBB2F5
:104310005C06FAD402F00703072B0CD0561B0D6085
:10432000701CF0BC70470020F0BC70470020704744
:104330003046F0BC7047002EF0DD0478471CFF2C9F
:104340000DD1831903E017F8014BFF2C07D1BB42B5
:1043500002F10802F7D1E1E764000132E4B223067A
:10436000FAD4DBE7FF2BCDD1EA1DD3E730B5054604
:1043700083B0FDF787FB2846FCF7B6FC034602A88E
:104380009C8940F8043D013C24B29C81FCF780FDEF
:1043900014B92846FCF7C0FA00F002F803B030BDAB
:1043A000034A5368013B536003B170470AF084BC71
:1043B0009C770320F0B583B0C0B9224C0546236931
:1043C000CBB1E0681F4E18B91F4B1868F060D8B128
:1043D00023681C4F2BB3002663681A4FC3B115B175
:1043E000A368184C2BB3304603B0F0BD154C01AD9B
:1043F0002369002BE5D1154A2046012340F8142FEC
:10440000236100F01DFEDCE701F0D4F9F060DFE786
:10441000F8688000FCF7AAFA0028786008BF012637
:10442000DDE78000FCF7A2FAB0FA80F63860760982
:10443000D2E7E0688000FCF799FA0028A06008BF86
:104440000126D0E7A0760320B079032019CC200004
:10445000094B10B51C7838B902464FF07F401A70EE
:1044600000F09AFE204610BD012200201A7000F0D4
:1044700093FE204610BD00BFB6790320082A10B471
:104480000EDD102A1CDC00EB4101034650F8042B22
:1044900023F8022B9942F9D101205DF8044B7047B3
:1044A000022A11D0042A00F09A80012A3FD0014448
:1044B000034650F8042B03F8012B9942F9D1EBE79E
:1044C00000205DF8044B704700F1100252F8103CD8
:1044D00001294FEA8313DBB226D052F80C4C022993
:1044E0004FEA041404F0300443EA04031CD052F8E9
:1044F000084C03294FEA840404F00C0443EA040343
:1045000012D052F8044C043902F1100204F00304F2
:1045100043EA040300F8013BBED052F8103C0129E5
:104520004FEA8313DBB2D8D103700120B5E700F165
:10453000200252F8203C01294FEAC313DBB2F3D02A
:1045400052F81C4C02294FEA841404F0400443EA58
:104550000403E9D052F8184C03294FEA441404F03C
:10456000200443EA0403DFD052F8144C04294FEA34
:10457000041404F0100443EA0403D5D052F8104C9C
:1045800005294FEAC40404F0080443EA0403CBD02D
:1045900052F80C4C06294FEA840404F0040443EA60
:1045A0000403C1D052F8084C073902F120024FEA47
:1045B000440404F0020443EA0403B5D052F8244C46
:1045C000012904F0010443EA040300F8013B52F816
:1045D000203C4FEAC313DBB2B2D10370A5E700F170
:1045E000080454F8083C01294FEA0313DBB213D046
:1045F00054F8042C023904F1080402F00F0243EAD3
:10460000020300F8013B3FF447AF54F8083C01298E
:104610004FEA0313DBB2EBD1037008465DF8044B9D
:10462000704700BF082A2DE9F0410C4605461F6877
:104630000CDD102A21DC1E69002E00F0918022463C
:1046400029460223B0470120BDE8F081013A072A3C
:1046500010D8DFE802F004510F770F0F0F9A00F126
:10466000200858F8200CB847012C4FEAC010C6B2F9
:1046700006D12E700120BDE8F0810020BDE8F08158
:1046800058F81C0CB847022C46EA8010C6B2F0D08D
:1046900058F8180CB847032C46EA4010C6B2E8D0C8
:1046A00058F8140CB847042C46EA0010C6B2E0D003
:1046B00058F8100CB847052C46EAC000C6B2D8D04E
:1046C00058F80C0CB847062C46EA8000C6B2D0D089
:1046D00058F8080CB847072C46EA4000C6B2C8D0C4
:1046E00058F8040C08F12008B847083C40EA0600D6
:1046F00005F8010BB5D1BDE700F1100858F8100C12
:10470000B847012C4FEA8010C6B2B2D058F80C0C52
:10471000B847022C46EA0010C6B2AAD058F8080CD6
:10472000B847032C46EA8000C6B2A2D058F8040C61
:1047300008F11008B847043C40EA060005F8010BF0
:10474000DCD197E700F1080858F8080CB847012CAD
:104750004FEA0010C6B20CD12E702046BDE8F081A1
:10476000861E55F8040BB847013C26F8020FF8D115
:1047700080E758F8040C08F10808B847023C40EA02
:10478000060005F8010BDFD174E71E693EB128462B
:10479000224601232946B0470120BDE8F0816E1E64
:1047A00055F8040BB847013C06F8010FF8D161E752
:1047B000F0B51C4E85B0F36F0BB105B0F0BD1A4BD0
:1047C0006F4604AD4FF0010E06F18004C6F87CE0A0
:1047D0000FCB07C7190C15F8102D27F8023B3970BD
:1047E00004F8012B15F8012F002AF9D1FDF734F850
:1047F000234610F8012B194603F8012B0278002AF2
:10480000F7D14A700AF01EFAFBF7F4FF0DF0C8FD6D
:10481000064B0748C6F8943005B0BDE8F04000F0FC
:104820000FBC00BFCC750320DC752100D5CB200068
:10483000607603202E4B1B682DE9F041044682B0C0
:104840000D4683B1002003F0DFFA48B16E463246D0
:104850002946204604F09CFF03F092F90028F6D187
:1048600002B0BDE8F081DFF88C806B4610686E46C0
:10487000D8F800705168B7F84CC0B7F850E003C3DF
:10488000BDF800706846BDF80410BDF8022067440A
:10489000BDF8063061447244ADF800707344ADF861
:1048A0000410ADF80220ADF8063003F0ADFA60B99F
:1048B000D8F80030598C9A8CDC6C186D091B121AD0
:1048C00059849A8402B0BDE8F081D8F800303246AD
:1048D000BDF802002946BDF80070988420465F8428
:1048E00004F056FF03F04CF90028EED1E0E700BFDA
:1048F000CC790320E80000202DE9F04F8FB0002490
:104900001F46934605909348199B006907911C60C8
:10491000002800F0F1808F4BDC681D462CB98E4BCF
:104920001C68EC60002C00F0F1808A4B894D1B68FC
:104930000293002B00F0FD80864B864D5B6803934D
:10494000002B00F0E880A742844B854A4FF0000618
:10495000A8BF27461968059B3446487CBA463B44A5
:1049600052F820200C93013B0892099313690D9390
:10497000FCF7F4FE794B04901B68587CFCF7A4FF0D
:10498000784B794A0B90904218BF984214BF01238C
:1049900000230A935F46189B57F8040B98478146FB
:1049A0004FEA1068B8F1FF0F47D0002C2BD16B4BAA
:1049B000059A1B689519B3F90830AB4259DD5A1BAB
:1049C0001D461446069202983444089B079900EB52
:1049D0008404019328460B46099A0094FEF7E6FBEF
:1049E000049B172B7EDD0A9B002B44D00C9B069664
:1049F0005D1B2E460B9D2068A847013E44F8040B22
:104A0000F9D1069E0124534BDD69002D38D15FFAA0
:104A100088F2B8F1000F1AD1029B039A53F826309E
:104A200042F82630BAF1010A06F10106BB46B1D1BF
:104A3000039C20460FB0BDE8F08F199B039A1B68BA
:104A400042F8260043F00103199A1360EAE702993D
:104A500049F07F40454B51F826101B689847199B39
:104A6000039A1B6842F8260043F00103199A136069
:104A7000D8E70694A7E7374B0124DD69002DC6D09F
:104A8000B600029A53465846324457461446039A93
:104A9000164421463246A847ABF1040208E02368D9
:104AA000013F04F1040406F1040646F8043C0ED06C
:104AB00052F8043F13F07F4FF1D0216804360434DC
:104AC00011F07F4F08BF46F8043C013FF0D1199B1D
:104AD000039C1B68199A204643F0010313600FB032
:104AE000BDE8F08F1A46069B20460124C3EB0A015D
:104AF0000D9B00F03FF886E71D4A0123154840F85A
:104B0000142F144A136100F09BFA04E700F052FEE0
:104B10000446E86009E7E8688000FBF727FF039098
:104B2000686000287FF40FAF002420460FB0BDE876
:104B3000F08FA000FBF71AFF286008B10290FBE697
:104B40006C68002CF0D1E8688000FBF70FFF68600C
:104B50006FE700BFA0760320B0790320E8000020B3
:104B6000BC790320DD5A2000E55A2000F80000201F
:104B700019CC200000292ADD082A2DE9F047044637
:104B80005D6803DD102A0CDDBDE8F087531E072B9E
:104B900005D8DFE803F02A51047B0404041DBDE8B6
:104BA000F0875E6936B10A46B44621460223BDE865
:104BB000F047604749000C446618671A34F8020D44
:104BC000A84746F8040DBC42F8D1BDE8F08770470D
:104BD000661804EB8104771A16F8010DA84744F80B
:104BE000040DBE42F8D1BDE8F0874F1E80266FF05D
:104BF000404AFB1007F007088A4446FA08F6591E97
:104C000014F8039004EB8A0AF6B20C4406EA090091
:104C1000C8F1070376001841A8474AF80409B8F11B
:104C2000000F5FD194F800900126013C4FF0070877
:104C3000002FB4D0013FE9E74F1EC0266FF0404A75
:104C400007F00309BB108A444FEA4900591E14F8C3
:104C5000038004EB8A0A06410C44F6B206EA080314
:104C6000C0F10600B60043FA00F0A8474AF804096C
:104C7000B9F1000F3ED1032694F80080013CB14603
:104C8000002F8CD0013F4FEA4900E7E74F1EF02686
:104C90006FF0404A07F001097B108A444FEA89000F
:104CA000591E14F8038004EB8A0A06410C44F6B23C
:104CB00006EA0803C0F10400360143FA00F0A847F1
:104CC0004AF80409B9F1000F10D194F800800F26BA
:104CD000013C4FF00109002F3FF461AF013F4FEA63
:104CE0008900E5E708F1FF38F6B2A1E7F6B24FF028
:104CF0000009F0E709F1FF39F6B2C1E770B584B0F9
:104D00001C4A04AB019043F8101D194613689847DC
:104D1000019050B3184B1B68DB695B692BB11B68B2
:104D20001BB10099984704B070BD009B013B002B5C
:104D300000931CDB002401A8FFF7F4F90546FCF7FB
:104D400017FD009B0444013B002B0093F3DA00267F
:104D500004A9284641F8046DFCF71CFD039B98420A
:104D6000B8BF1E1A301904B070BD04B070BD002564
:104D70002C46ECE704010020E800002030B583B0A9
:104D80000190E0B1104B0D461B68DB695B6923B1F4
:104D90005B6813B1984703B030BD002D11DD0024CE
:104DA00001A8FFF7BFF938B10A2805D00134A542A0
:104DB000F6D1284603B030BD204603B030BD03B065
:104DC00030BD0020E7E700BFE8000020B1F9003067
:104DD000B0F900209A42B0F90220B8BF0380B1F9BF
:104DE00002309A42B0F90420B8BF4380B1F90430D0
:104DF0009A42B0F90620C8BF8380B1F906309A42C2
:104E0000C8BFC380704700BFB2F90030F0B5B1F938
:104E10000040B1F90250B2F902E0A342B2F90470C5
:104E2000B8BF2346AE457446B2F90660B8BF2C46FB
:104E3000B1F90450B1F906203946AF4203804480ED
:104E4000A8BF2946B242A8BF324681809442D8BF4B
:104E50008B42C280CCBF0123002383F00100F0BD50
:104E60003A4B1B682DE9F0415D7C82B0012D03DDDA
:104E7000012002B0BDE8F081354E0446736813B1DD
:104E8000014628469847012C27D0022C0FD0002C31
:104E9000EED1AC00DFF8B8803719BB68012B3AD0EF
:104EA00001202644002B18BF013BB360E1E72846F0
:104EB000FCF74EFA01900028DAD0C3680D2101A852
:104EC0005B6A984704460028D2D0336803B19847FC
:104ED00002210198A0470020CBE706EB8506B768C2
:104EE0001FB101372046B760C3E72846FCF730FA08
:104EF00001900028BCD0C3680D2101A85B6A9847C7
:104F000003460028B4D0214601989847B368384634
:104F10000133B360ADE72846FCF71AFA019088B177
:104F2000C3680D2101A85B6A9847054650B1D8F8BF
:104F3000003003B1984700210198A8473319002099
:104F40009B68AEE7BB680120ABE700BFE80000202C
:104F5000B87703200B0E4FEA1063F0B408BF20F0BF
:104F60007F41114C02FB03F200F0FF160D0A01F025
:104F7000FF13A4FB0212C0F3072005F0FF15D209AE
:104F800040F08074C2F1FF0702FB06F107FB05F059
:104F900007FB031102FB0400090A00F0FF2001F0E7
:104FA000FF11F0BC08437047818080802DE9F04FED
:104FB00087B09246139A01900291109B9DF85090F1
:104FC000002A35D0129A0021DFF86CB09200DFF889
:104FD0006C80039102EB830305920493129C574665
:104FE000029E019D55F8040BDBF80030020E56F8C6
:104FF000041B40F07F4009FB02F2A8FB02E2C2F36F
:10500000C7129847013C40F07F4047F8040BE9D1B4
:10501000019A05991046029A8A44039B0844049910
:1050200001330A44019003930292139A9A42D5D114
:1050300007B0BDE8F08F00BFF800002081808080BD
:1050400080B483B000AF7860064B1A687B685A6002
:10505000044A7B68136000BF0C37BD465DF8047BD3
:10506000704700BF40760320F8B506464AB1840772
:10507000C9B208D001E0830705D0013A00F8011B4E
:10508000F9D13046F8BD97083B464FB301EB0124F8
:10509000032F02F0030204EB044415D900F11003BE
:1050A0003D46043D43F8104C43F80C4C1033032D9F
:1050B00043F8184C43F8144CF3DC043FBB085D1C68
:1050C000A7EB830300EB051043B1012B046003D071
:1050D000022B446018BF846000EB8300002AD0D00C
:1050E000FBF763F93046F8BD70B4840702D5018040
:1050F000013A023056080DD0032E334601EB01442D
:105100000DD8012B046003D0022B446018BF8460CB
:1051100000EB8300D30770BC48BF0180704700F1EB
:1051200010033546043D43F8104C43F80C4C103343
:10513000032D43F8184C43F8144CF3DC043EB30839
:105140005D1CB6EB830300EB0510DAD1E2E700BF8C
:1051500008B50B0E03D1030EFF2B0FD04BB102EBA2
:1051600002120B4BD2B21B6898470A4B5A68104385
:1051700008BD084B5A6841EA020008BD054B20F003
:105180007F4002EB02125B68184340EA026008BDF0
:10519000F800002020010020024B5A685860104699
:1051A000704700BF20010020044A054B1268527C62
:1051B00053F822301B691B68184700BFE800002025
:1051C000BC790320C0F30721C0F30743C0B2994262
:1051D00010B40AD1884208D1083314485DF8044B52
:1051E000A0FB033000097830704700EB8000104CC2
:1051F00003EB83027F3001EB81017F32A4FB00309F
:105200007F31A4FB0232A4FB0131C009D2095DF851
:10521000044B00EBC000C90902EB800301EB410025
:1052200003EB40006B2888BF28307047F1F0F0F0A6
:10523000818080802DE9F04FB64C91B0D4F800E029
:105240001B9D1D9E1E9F1F9C0F9005920C93DDF8C9
:1052500068A00D95DDF870C00E9607970894BEF112
:10526000000F06D0DEF80040A44611B0BDE8F04FB4
:1052700060474AEA05038946012B00F09380CCF190
:10528000080302930C9B002B40F38980A24BF0464D
:10529000E146CDF828E0186804910D9A0499531856
:1052A0001A460B93B0F90A30013A9342099269DC2D
:1052B000B0F90E308B4265DB059B002B62DD0026CA
:1052C0000F9B079F03EB0A04354606974DE0C9EB99
:1052D0000606029B48FA03F208FA09F812F0FF02E8
:1052E0005FFA88F802D1037C9B0739D4D0F83CC020
:1052F000DCF800300393089B0BB153F82220B0F97F
:10530000083004F1FF3EB0F90CB09942CCF800200F
:10531000B8BF1946DE457346A8BF5B468B421CDB0F
:10532000B0F90A20049FB0F90EE0BA42B8BF3A467D
:10533000099FBE45A8BFBE4672450EDC407C774F34
:1053400057F82000D0F80CC0CDF800E0DCF810B021
:10535000D847714B1868D0F83CC0039BCCF800309C
:105360000135059B5444AB420CD0CAEB0401002E1E
:10537000ADD1069A029E134692F80080013306933F
:105380003346A7E7079A0E990A9B0A44013307920E
:105390000B9A0A9304920C9A9A427FF47EAF11B052
:1053A000BDE8F08F5C4B1968B1F90A20C9EB020324
:1053B000002B40F3C1800C98C41A002CEFDD06FBD3
:1053C000037307930C9B4B44B1F90E00013B1B1A6E
:1053D000002B02DDE41A002CE1DD0F98059D431936
:1053E000B1F90C00013B1B1A002B01DDEB1A0593F0
:1053F000B1F908300F9D9D4215DB0025059B002B60
:10540000CDDD4E7C4548089F50F826000F99C668B0
:105410001E95079D1F971D950E9DCDF86CC01C9580
:105420001A94746820E7059E5D1B0CF1FF30761B13
:1054300005961F28E2D801A656F820F02155200035
:10544000FD542000FD532000E5542000FD532000B2
:10545000FD532000FD532000D9542000FD532000AF
:10546000FD532000FD532000FD532000FD5320007C
:10547000FD532000FD532000CB542000FD5320009D
:10548000FD532000FD532000FD532000FD5320005C
:10549000FD532000FD532000BD542000FD5320008B
:1054A000FD532000FD532000FD532000FD5320003C
:1054B000FD532000FD532000BD54200007980F939A
:1054C00000EB85000025079098E707980F9300EB05
:1054D00045000025079091E707980F932844002581
:1054E00007908BE7079825F0010300EB650005F0B6
:1054F000010507900F9818440F907FE7079825F053
:10550000030300EBA50005F0030507900F9818446E
:105510000F9073E7CC790320E8000020BC790320CA
:10552000079825F0070300EBE50005F00705079055
:105530000F9818440F9061E70C9C4A46234642E7B7
:10554000114B30B41C68B4F90A308B420FDCB4F94B
:105550000E3099420BDCB4F90850B4F90C30A84273
:10556000B8BF28469342A8BF1346984201DD30BC1D
:105570007047657C0A46054C014654F82500C4680E
:10558000A468A44630BC6047E8000020BC79032032
:10559000164B1B68B3F90A208A421CDCB3F90E20B3
:1055A000914218DCB3F90820824214DCB3F90C20D4
:1055B000904210DC30B41A7CD2070DD45D7C0A46D0
:1055C0000B4C0146DB6B54F825001B68C468A469CA
:1055D000A44630BC604770475C7C0A46044B0146D9
:1055E00053F82400C36830BCDB691847E80000208A
:1055F000BC79032070B5154C82B02468B4F908500A
:10560000B4F90C60A842B8BF2846B242A8BF3246DF
:1056100082420BDBB4F90A60B4F90E50B142B8BF54
:1056200031469D42A8BF1D46A94201DD02B070BDB2
:10563000667C1346064C0A46014654F82600C468A8
:1056400000952469A04702B070BD00BFE8000020AB
:10565000BC790320012801DD0020704710B5FBF75D
:1056600077FE28B1C36808219B6ABDE8104018473F
:10567000002010BD012801DD0020704710B5FBF7A8
:1056800067FE28B1C3680C219B6ABDE8104018472B
:10569000002010BD012801DD0020704710B5FBF788
:1056A00057FE28B1C3680D219B6ABDE8104018471A
:1056B000002010BD094B1B68587C012801DD00202B
:1056C000704710B5FBF744FE28B1C36809219B6AF7
:1056D000BDE810401847002010BD00BFE8000020C2
:1056E000012801DD0020704710B5FBF731FE28B11D
:1056F000C36809219B6ABDE810401847002010BD0F
:1057000010B50020FBF724FE041C4FF0010018BF69
:105710000124FBF71DFE00B10134204610BD00BF7F
:10572000064B1B6810B5587CFBF712FE28B1C36806
:105730000221DB6ABDE81040184710BDE8000020D8
:1057400030B583B00C461546FBF702FE019070B1F0
:10575000C36804215B6A0DEB01009847034630B132
:1057600001982A4621469847002003B030BD012009
:1057700003B030BD012801DD0020704710B5FBF7F4
:10578000E7FD28B1C3680E219B6ABDE810401847A9
:10579000002010BD012801DD0020704710B5FBF787
:1057A000D7FD28B1C36803219B6ABDE810401847A4
:1057B000002010BD38B5012500242846FBF7C8FDA0
:1057C000032178B1C3689B6A98478442B8BF0446F6
:1057D0000DB9204638BD00252846FBF7B9FD032149
:1057E0000028EFD1F1E700BF012801DD002070475C
:1057F00010B5FBF7ADFD28B1C36804219B6ABDE875
:1058000010401847002010BD094B1B68587C012828
:1058100001DD0020704710B5FBF79AFD28B1C36881
:1058200001219B6ABDE810401847002010BD00BF51
:10583000E8000020014B1868704700BFC0760320C5
:10584000012801DD0020704710B5FBF781FD28B16C
:10585000C36801219B6ABDE810401847002010BDB5
:1058600038B5012500242846FBF772FD012178B1E7
:10587000C3689B6A98478442B8BF04460DB9204666
:1058800038BD00252846FBF763FD01210028EFD134
:10589000F1E700BF094B1B68587C012801DD00209F
:1058A000704710B5FBF754FD28B1C36802219B6A0D
:1058B000BDE810401847002010BD00BFE8000020E0
:1058C000014B5868704700BFC0760320012801DDF6
:1058D0000020704710B5FBF73BFD28B1C3680221DB
:1058E0009B6ABDE810401847002010BD38B501255F
:1058F00000242846FBF72CFD022178B1C3689B6A7F
:1059000098478442B8BF04460DB9204638BD0025EB
:105910002846FBF71DFD02210028EFD1F1E700BF6B
:105920002DE9F84360B3856865B3DFF86480D8F883
:10593000006006B30768B7F5807F1FDC124B814615
:105940001B689F42A8BF1F46002F0DDD043D0024A9
:1059500001E0D8F8006055F8040FFFF725FC46F881
:1059600024000134BC42F4D1084B1B680BB14846FB
:105970009847D8F800603046BDE8F8830026FAE77B
:105980000646F8E72E46F6E738010020D0770320D8
:10599000E8790320044A054B1268527C53F8223000
:1059A0001B695B68184700BFE8000020BC79032032
:1059B00030B40949C0F3C42300F01F05074CC0F3FD
:1059C0004512CB5C485DA25C03EB004000EB02207B
:1059D00030BC40F07F407047947921005479210019
:1059E000A0F178030F2B10B42DD96B2827D81E49AE
:1059F0001E4BA1FB0042A3FB00439208DB08A1FB66
:105A0000024102EB420403EB43038908A0EB44008C
:105A10005DF8044B01EB410100EB4000A2EB4102B9
:105A200000EB001002EB420203EB031302EB021245
:105A300003EB004000EB022040F07F4070479328CA
:105A40000ED92838D3E700EB0012094B5DF8044B60
:105A500000EB021000EB0030034443F07F4070473E
:105A600000205DF8044B7047ABAAAAAA398EE33830
:105A7000080000F80304C0F3074200F47F4003F479
:105A80007F03134343F07F4318437047C343C0F37E
:105A90000741020400F47F4003F07F4302F47F02D9
:105AA0000B431343184370470A49C0F3C422C0F3A1
:105AB000451300F01F008A5C085C120410B4064C09
:105AC000E35C5DF8044B02EB0323184440F07F4095
:105AD000704700BF947921005479210040F07F4045
