:020000040020DA
:10000000386C0320D10220008D2B2100DF1C210041
:10001000892B2100D9E22000C1432100000000000B
:100020000000000000000000000000000D022000A1
:10003000ABE820000000000069022000933C210092
:10004000EB022000EB022000EB022000EB0220007C
:10005000EB022000EB022000EB022000EB0220006C
:10006000EB022000EB022000EB022000EB0220005C
:10007000EB022000EB022000EB022000EB0220004C
:10008000EB022000EB022000EB022000EB0220003C
:10009000EB022000EB022000EB022000ADE8200084
:1000A000EB022000EB022000EB022000EB0220001C
:1000B000EB022000EB022000EB022000EB0220000C
:1000C000EB022000EB022000EB022000EB022000FC
:1000D000EB022000B1432100EB022000EB022000E4
:1000E000EB022000EB022000EB022000EB022000DC
:1000F000EB022000EB022000EB022000EB022000CC
:10010000EB022000EB022000EB022000EB022000BB
:10011000EB022000EB022000EB022000EB022000AB
:10012000EB022000EB022000EB022000EB0220009B
:10013000EB022000EB022000EB022000EB0220008B
:10014000EB022000EB022000EB022000EB0220007B
:10015000EB022000EB022000EB022000EB0220006B
:10016000EB022000EB022000EB022000EB0220005B
:10017000EB022000EB022000EB0220000000000058
:10018000EB022000EB022000EB022000EB0220003B
:10019000EB022000EB022000EB022000EB0220002B
:1001A000EB022000EB02200065E72000EB022000BC
:1001B000EB022000EB022000EB022000EB0220000B
:1001C000EB022000EB02200000000000EB02200008
:1001D000EB022000EB022000EB022000EB022000EB
:1001E000EB022000EB022000EB022000EB022000DB
:1001F000EB022000EB022000DFF80CD000F0FEF84C
:1002000000480047AD482100386C03202D4B196889
:100210000868B0E8F04F80F30988BFF36F8F4FF0A4
:10022000000080F311887047000000000848006853
:10023000006880F308884FF0000080F3148862B6ED
:1002400061B6BFF34F8FBFF36F8F00DF00BF00BFFA
:1002500008ED00E0DFF80C00016841F47001016076
:10026000704700BF88ED00E0EFF30980BFF36F8FA8
:10027000144B1A681EF0100F08BF20ED108A20E9F9
:10028000F04F106009B44FF0500072B680F311883F
:10029000BFF34F8FBFF36F8F62B615F0B9FA4FF00F
:1002A000000080F3118809BC19680868B0E8F04FB5
:1002B0001EF0100F08BFB0EC108A80F30988BFF35E
:1002C0006F8F70473C000020EFF3058070470000FF
:1002D0000648804706480047FEE7FEE7FEE7FEE7E0
:1002E000FEE7FEE7FEE7FEE7FEE7FEE7993D2100B9
:1002F000F90120002DE9F05F0546002092469B465B
:1003000088460646814640241BE02846414647462B
:10031000224600F062F853465A46C01A914110D363
:1003200011461846224600F049F82D1A67EB0108DD
:100330004F4622460120002100F040F817EB00094B
:100340004E41201EA4F10104DFDC484631462A4616
:100350004346BDE8F09F10B5441A0346944209D2C3
:100360008418114403E011F8013D04F8013D521EC8
:10037000F9D210BD40EA0104A40703D009E010C976
:10038000121F10C3042AFAD203E011F8014B03F83C
:10039000014B521EF9D210BDD2B201E000F8012B80
:1003A000491EFBD270470022F6E710B513460A46F5
:1003B00004461946FFF7F0FF204610BD202A04DB53
:1003C000203A00FA02F1002070479140C2F1200368
:1003D00020FA03F3194390407047202A04DB203AA7
:1003E00021FA02F00021704721FA02F3D040C2F155
:1003F000200291400843194670470000064C074D03
:1004000006E0E06840F0010394E8070098471034E4
:10041000AC42F6D3FFF7F4FE7CB321009CB321007D
:10042000204B70B51E6801F0B1FA1F4C0025304614
:1004300004F05AFF03F09EF91C4B1E6801F0A6FA67
:10044000304604F08BFF03F095F901F09FFA01228A
:1004500023681A7603F08EF901F098FA23689D85D7
:1004600003F088F901F092FA23685D8503F082F9C0
:1004700001F08CFA284604F0A3FF03F07BF90C4B43
:100480001D6801F083FA236805B1DD6103F072F99C
:1004900001F07CFA236800229A76BDE8704003F0F0
:1004A00069B900BFB8000020BC000020B4000020E3
:1004B000B0000020014B83E8030070471065032063
:1004C000014B83E80300704718650320014B83E864
:1004D0000300704720650320704700BF704700BFCE
:1004E0002DE9F04F5C4E8DB03368DA69B3F92250D4
:1004F000D469B4F80CB0834500F29780E189814259
:10050000C0F093802168CBEB000B08914FF0FF31D6
:100510000A91BBF1FF3F00F0828092F81880A27C24
:10052000B3F92A10B3F9249018FB02F30846079197
:100530001F4694F810A004F043FFD6F800E0089995
:100540004346DEF838C05246099007FB0B10DEF830
:100550001CE00B97012704904946CDF814C02846AB
:1005600094F812C00297CDF80CC09EF81BC0DFF8BB
:10057000E8B0CDF804C09EF81AE0CDF800E004F031
:10058000B7F80A9F7B1C25D0079941F0020004F0C0
:1005900017FFDBF800100B9A43460898D1F838C0D3
:1005A00002FB0700D1F81CE00127CDF814C004902D
:1005B000524694F812C0494602972846CDF80CC01E
:1005C0009EF81BC0CDF804C09EF81AE0CDF800E0FC
:1005D00004F08EF83368DFF88080DB695A7E1B7E7A
:1005E0009A4215D9079B022B12D083F0040004F025
:1005F000E7FED8F800302846DB691F7ED97E9A7E58
:100600005B7E07FB01910AFB02524B4404F050FA57
:100610009DF8240004F0D4FE3368B3F92250627CC4
:1006200015445D840DB0BDE8F08FA1680029F6D0B7
:100630000F88B842F3D3B1F802E08645EFD3C01B70
:100640004968676880B2089701EB800731F920B0EC
:10065000B7F902100A915CE7BC000020044B1B684C
:10066000DB69DB6909B11A7C0A60587C704700BFFE
:10067000BC00002002230B80704700BFC3699A8929
:100680008A4202D8DA898A4211D2986818B103885E
:10069000994201D20020704742888A42FAD3C91A8F
:1006A000436833F82100C043C0F3C03070470120D5
:1006B000704700BF2DE9F04F3A4D89B02B68DA69D9
:1006C000B3F92A90D36943B11A88904202D359886A
:1006D000814205D29B68002BF6D109B0BDE8F08FAE
:1006E000841AD3F80480484608EBC40696F802B092
:1006F00004F066FE8246286818F834204FF0010E98
:10070000C769D0F838C0B0F92410B0F922003B7E98
:100710000790CDF814C07068CDF80CB00490CDF8F7
:1007200008E097F81BE00798CDF804E0BF7E00973B
:1007300003F0DEFF2B68DA69537E177EBB4223D9B4
:10074000B9F1020F07931FD092F81BB000F0B8FF69
:10075000814600F083FF02F093FD124B18F834E05D
:100760001868079BC169B0F92240CA7EB0F924100D
:1007700020460EFB02420BFB03130BFB071104F098
:1007800097F9484602F07CFD504604F019FE2B68AC
:100790007178D8695A8C807E00FB01225A8409B096
:1007A000BDE8F08FBC000020114B1B6870B4DD6900
:1007B000EB6943B11A88904202D35C88844205D227
:1007C0009B68002BF6D1184670BC7047821A5E6891
:1007D000AC7E06EBC2035B7813FB04F00029F3D078
:1007E00016F8323014FB03F370BC0B60704700BF87
:1007F000BC00002001230B80704700BFC06950B1CE
:1008000003888B4202D843888B4203D28068002839
:10081000F6D17047012070472DE9F047244F3D681D
:10082000002D3FDD234EC5EB4515DFF88C804FF0E2
:10083000000A3468D8F8009004EB85050C340C35B8
:10084000A4F10803742249461846FFF784FD221FCD
:100850002063A06344F80CAC6263E4607C34A5427E
:10086000EED10024254603E082B13A68954213DABE
:100870000EF072FA336801351A5919197C34904216
:10088000F2D10431C8F80010BDE8F08708600431E7
:10089000C8F80010BDE8F08719460431C8F8001008
:1008A000BDE8F087034BDFF810801968E9E700BF67
:1008B000F000002098660320BC000020F8B5184F17
:1008C000184B3846184E40F80C3F03F017FE3468BA
:1008D000C4EB4414A400204600F0ACF8134B2246AD
:1008E00000211B68386098474FF0FF3373600EF0AB
:1008F0003DFA3368002B0FDD0024254603E062B18A
:1009000033689D4208DA0EF027FA3B6801351A5920
:1009100023447C349042F2D1F8BD1860F8BD00BF8A
:100920009866032039CE2000F0000020FC00002053
:1009300000B9704710B5044601F028F8204607F0CA
:10094000BDF8044602F016FF204610BDF8B5054676
:1009500001F01CF825B9002402F00CFF2046F8BD78
:1009600001F014F8284607F0A9F8044602F002FF47
:10097000002CF0D0144E2A46144F0021F069736BFE
:10098000013003EBC405F06113F83400013003F8C3
:1009900034006D683B6805F1080098472968726B60
:1009A00012F83130012B01D9F06930B9013B02F85E
:1009B000313002F0DFFE2046F8BD0138013BF06126
:1009C00002F83130F5E700BF30670320FC0000205B
:1009D00021F00301014B83E80300704728650320E1
:1009E00000B9704770B50D4C054600F0CFFFEE0022
:1009F000636B33445968486806F0B2FE6368626B03
:100A00000021606A013316446360706002F835109B
:100A10006562BDE8704002F0ADBE00BF30670320E4
:100A200028B1034AD36B036003B15860D0637047A9
:100A300030670320F8B58B4E044696F82830002B1B
:100A40002FD00334356CF26B24F003040434A54238
:100A500038BF254662B152F8043C14469D4204D189
:100A600014E054F8043C9D4210D02468002CF8D1C6
:100A7000F368B46B1C4454F8041C611A0B68002B17
:100A800068D14B689D426FDD002408E023680BB1FC
:100A900061685960616801B10B60A24256D020467E
:100AA000F8BD714B01219A6886F8281058680AB978
:100AB00082089A605A27102220254FF0400E376294
:100AC000802732644FF48072B5644FF40075196862
:100AD000C6F850E04FF4806EB7654FF40067326699
:100AE0004FF48052B5664FF40055A1F11403C6F8D7
:100AF00070E0B7674FF4804EC6F880204FF400478F
:100B0000C6F888504FF480324FF400350344C6F8DD
:100B100090E04FF4802EC6F898704FF40027C6F886
:100B2000A0200222C6F8A8500125B1637363C6F85D
:100B3000B0E03261F060C6F8B8705D6075627560F3
:100B400006F00EFE0AF04CFC35637AE72368204677
:100B5000F363F8BD00200CF05DFB54F8041C611A2F
:100B60000B68002B90D18CE7581BD6F8B8703D4A23
:100B7000041DBB420C4472D2D2F8B070BB426CD29E
:100B8000D2F8A870BB4266D2D2F8A070BB4260D245
:100B9000D2F898709F425AD9D2F89070BB4254D282
:100BA000D2F88870BB424ED2D2F88070BB4248D295
:100BB000926F934243D2376F2A4ABB423DD2976E1F
:100BC000BB4238D2176EBB4233D2976DBB422ED296
:100BD000176DBB4229D2976CBB4224D2126C934250
:100BE0000CD2F2687369521B2B44F260736110B926
:100BF00044F8045C53E706F0B3FDF9E700223768D8
:100C0000D1F808E0FF1ACB683760BEF1000F01D0C1
:100C1000CEF8043013B1C3F800E0E2E706EBC202FD
:100C2000C2F844E0DDE70122E9E70222E7E7032218
:100C3000E5E70422E3E70522E1E70622DFE70722F2
:100C4000DDE70822DBE70922D9E70A22D7E70B22F2
:100C5000D5E70C22D3E70D22D1E70E22CFE70F22F2
:100C6000CDE700BF3067032028650320024A93695F
:100C700001339361704700BF30670320084AD16990
:100C8000536B013110B4D16103EBC00413F8302071
:100C9000013203F8302060685DF8044B083070477B
:100CA00030670320F8B5584C00F070FE94F82830F7
:100CB000002B57D0D4F8BC30534A9BBBD2F8B43089
:100CC00083BBD2F8AC306BBBD2F8A43053BBD2F8A4
:100CD0009C303BBBD2F8943023BBD2F88C300BBB9A
:100CE000D2F88430F3B9D36FE3B9536FD3B9E36E5D
:100CF000C3B9536EB3B9D36DA3B9536D93B9D36C64
:100D000083B9536C73B96FF00B034049DA1781FB59
:100D10000313C2EB6313246A04FB03F402F02AFDFD
:100D20002046F8BD9B68002BF5D0002201E09B68AF
:100D300043B159681046914201D90A4608469B685A
:100D4000002BF4D10C38B0F5800F0346DDD8226AB1
:100D50002E4B02FB00F0A3FB00235C0902F00AFD0E
:100D60002046F8BD2A4B01219A6884F8281058685B
:100D70000AB982089A605A26102220254027266246
:100D8000802622644FF48072A5644FF400751968C0
:100D900027654FF48067A6654FF4006622664FF41E
:100DA0008052A5664FF40055A1F114032767A6678A
:100DB0004FF48047C4F880204FF40046C4F88850B0
:100DC0004FF480324FF400350344C4F890704FF470
:100DD0008027C4F898604FF40026C4F8A0200222AF
:100DE000C4F8A8500125A16363632261E060C4F8E0
:100DF000B070C4F8B8605D606562656006F0B0FC14
:100E00000AF0EEFA256355E7306703201F85EB51A2
:100E100028650320024A9369013B9361704700BF34
:100E20003067032003680B4A30B4044653F8085C6B
:100E3000506B10F83530012B03D9D16909B1013954
:100E4000D1610022013B00F835301046226030BCF1
:100E5000704700BF30670320034B5B6B03EBC000A0
:100E600040680830704700BF30670320C3B2CAB281
:100E70009A1A92B210B414B2002C1EDBC1F30722EE
:100E8000C0F307239B1A9BB21AB2002A12DB090C8B
:100E900002FB02F2C1EB104104FB042089B20CB248
:100EA000002C01DA49420CB2A1B25DF8044B01FBFF
:100EB000010070475B421AB2E9E7524214B2DDE723
:100EC00000212DE9F041084682B000F089FC184F5E
:100ED00000F05CFD042004F073FA164B43F6FF7635
:100EE0003D461B69804634466846DA6C1B6D1744E4
:100EF00016441D441C44ADF80070ADF80460ADF814
:100F00000250ADF8064005F0E5FE48B123463246F2
:100F10002946384603F0CCFD05F098FD0028F5D1B0
:100F2000404604F04DFA02F025FC02B0BDE8F08125
:100F300001C0FFFFAC000020012B17DC2DE9F041C0
:100F400007461C2090460D461E46FFF773FD0446DB
:100F5000D0B16DB1056100232046A661A4F81480CC
:100F6000E76023606360A360BDE8F0810020704704
:100F7000074B53F826200AB9EDE71A461368002BF1
:100F8000FBD113692361E6E70020BDE8F08100BFD3
:100F900008680320012B3BDC2DE9F84381461C2027
:100FA00090460F461E46FFF745FD054600287FD0B8
:100FB000414A002F31D00023DFF804E152F82640E7
:100FC00003609EF8001007618E428661A0F81480CD
:100FD000C0F80C904360836002DB731C8EF8003015
:100FE000002C5DD021464C68002CFBD1D9F80000C4
:100FF000CB681B6883422CDD09680029F8D148B909
:101000002E4B163628461A6842F82650BDE8F8835B
:10101000002070472846BDE8F88352F826100029C2
:1010200030D0084600E018460368002BFBD1006969
:10103000DFF88CE02B6028619EF80000AE618642EC
:10104000A5F81480C5F80C906B60AB60CBDB0C4648
:10105000C3E70AD04B6843B31D606B608D4214BF79
:101060000B4600234D602B60C9E7B8F1010FF1D1A9
:1010700004E0DC68194623688342EBDB0B68002B35
:10108000F7D1E7E7DFF838E001609EF800308661CD
:101090009E42A0F81480C0F80C9041608160D6DABE
:1010A00042F82650D9F80000A9E742F82650D5E7C3
:1010B0000020BDE8F88300BF08680320BC000020C2
:1010C00001680320FFF7ACBC00283DD070B48469F0
:1010D000012C03DD0123184670BC70471F4B1A78A2
:1010E000944221DA1E4D55F824300BB932E01346F4
:1010F0005A68002AFBD1C268116802E01B68002B05
:10110000E8D0DA6812689142F8DB10D05A68F2B180
:1011100010604260984214BF1A46002258600023B3
:101120000260184670BC7047621C1A70DAE7828A47
:10113000012AEBD104E0D668134632689142E5DC1F
:101140001A68002AF7D1E1E701231846704745F8ED
:101150002400DFE745F82400BDE700BF0168032055
:101160000868032000284DD02DE9F041DFF89CE00D
:10117000254F9EF80060BC4601E028463DB38469D7
:101180000568012CF9DCB44201DB661CF6B257F8A5
:1011900024300BB933E013465A68002AFBD1C268E9
:1011A000116802E01B68002BE7D0DA6812688A42F7
:1011B000F8DC10D05A68A2B110604260984214BFA7
:1011C0001A460022586002602846002DD7D18EF8BA
:1011D0000060BDE8F081828A012A0CD05A68002A9A
:1011E000EAD147F82400E9E7D2F80C801346D8F892
:1011F00000208A42DEDB1A68002AF5D1DAE74CF8D3
:101200002400BAE7704700BF086803200168032084
:101210000F4A816952F8213098420AD042680AB1D7
:1012200003681360036803B15A60002303604360DE
:101230007047036842F821302BB100225A6042689F
:10124000002AEED1F0E74268002AEAD1EDE700BFBC
:101250000868032000207047012810DC094B53F870
:10126000200068B1C3681B68994204D109E0C368D3
:101270001B688B4204D000680028F8D1704700201A
:10128000704770470868032001280EDC084B53F8AC
:10129000200058B1C3681B681BB908E0C3681B680D
:1012A00023B100680028F9D17047002070477047CB
:1012B000086803202DE9F84307460DF051FDDFF8DB
:1012C0006C9007440DF04CFDDFF864803E1A002E50
:1012D00022DD00F05FF9D9F800309E42A8BF1E461B
:1012E00000F054FBD8F80040FFF7C0FCB4B125462D
:1012F00002F040FA013DFBD130460DF027FD00F031
:1013000045FB013CFBD1FFF785FD02F033FA0DF000
:1013100027FD3E1A002EDCDCBDE8F88330460DF0D8
:1013200015FDFFF777FD02F025FAF0E7D400002065
:101330009C6603202DE9F04F4A4D83B0044600F02F
:1013400025FB00F0D5F92B680646B3F9228000F0A2
:1013500013FA2B681FFA80F99A8CC9EB020212B2B9
:101360009A84217800294FD0B6B22F4647F6FF71F4
:10137000204602F061FF01468346204602F01CFF32
:1013800029688B8D03F00303012B5AD0022B5CD00C
:101390001FFA80FA4FF0000E4B8C0AF1FF3CB1F9B6
:1013A0002420CEEB0303ADF80220013A9BB2B01823
:1013B0006A460FFA83FE6344ADF806002046A1F8A2
:1013C00022E05946ADF800E0ADF8043002F01CFC14
:1013D0002B682046BDF8022059469A8402F0A0F8F6
:1013E000235C04440A2B1BD00D2B19D0BDF8000040
:1013F0003B688244A3F822A022781AB162780134B3
:10140000002AB3D1B3F92420998D914421F003022D
:10141000A3F824909A8502F0ADF903B0BDE8F08FEF
:101420002B689A8D02F00302013A012A16D8A3F81C
:10143000228022780A2AE0D19A8C32449A84227837
:10144000DBE71FFA80FEF246A6E7002803461FFAF4
:1014500080FAB8BF431CC3F34F0E9DE71A8C5A8421
:10146000E7E700BFBC00002070B50E4615460446F5
:1014700000F08CFA054B1B685E849D8414B12046F5
:10148000FFF758FFBDE8704002F074B9BC000020BF
:101490002DE9F0410E4C0546884617462368B3F9FE
:1014A0002C0040F0020001F047FF064600F06EFA03
:1014B0002368A3F822809F8415B12846FFF73AFFDE
:1014C00002F058F93046BDE8F04101F035BF00BFE9
:1014D000BC000020F8B5274C064600F057FA2568F6
:1014E00045B33EB1E468234BBCB1012402F042F99C
:1014F0002046F8BDE3681F4A53B11F490124107FFD
:10150000D6600B6001F016FE02F034F92046F8BDFB
:10151000344602F02FF92046F8BD17491748184AFB
:101520000F680568174E1068174ADF600E60156077
:101530005060DBE7154B204640F8143F02F0DEFF19
:10154000012001F0F7FD0346C0B2E36101F0F2FDB6
:101550000F492B462A4601F11800FFF7EDFC2060E9
:1015600003F096FB0730C30818462361FFF762FAC1
:101570006060B6E7D8650320E0000020B4000020DA
:10158000B8000020806B2100C0000020C1CD2000E9
:10159000346B21002DE9F0410025124F124EDFF887
:1015A0004C803C681CB1A047041C18BF012404F007
:1015B00071FB3368002818BF01244BB1984738B13C
:1015C000D8F8003013B1012498473CB10125E8E771
:1015D000D8F80030002BF7D1002CF7D12846BDE811
:1015E000F08100BF2C6803203068032028680320A6
:1015F000F0B583B0074616461C460D4600F0C6F906
:10160000104B68461B68DA6C1B6D174416441D446A
:101610001C44ADF80070ADF80460ADF80250ADF8B0
:10162000064005F057FB48B1234632462946384666
:1016300003F03EFA05F00AFA0028F5D102F09AF814
:1016400003B0F0BDBC000020034B082153F820007C
:10165000C3689B6A184700BF0868032010B500F0F4
:1016600095F903F065FA03F003FC044602F082F8F2
:10167000204610BD10B5044600F088F9054B002146
:1016800020461B68DB695B689847044602F072F8E5
:10169000204610BDBC00002038B504460D4600F0C1
:1016A00075F9064B294620461B68DB695B6898473D
:1016B000044602F05FF8204638BD00BFBC000020A1
:1016C00010B500F063F903F03BFA03F0D1FB0446D8
:1016D00002F050F8204610BD10B500F057F9034B4A
:1016E0001B681C7C02F046F8204610BDBC000020A0
:1016F00010B500F04BF9044B1B68DB695C7E02F00F
:1017000039F8204610BD00BFBC00002070B504466B
:101710000E46154600F03AF9204631462A4603F0B7
:101720007DFA044610B1002333602B6002F022F8EA
:10173000204670BD38B505460C4600F027F9064A2C
:10174000064BB2F90020B3F900302A602360BDE8EF
:10175000384002F00FB800BFF6670320F867032097
:10176000044B3422352061219A7018701846197183
:10177000DA707047A400002010B500F007F90F4B95
:101780001A68938D03F00C03082B08D00C2B06D09D
:10179000042B0BD0002401F0EDFF204610BDD369CF
:1017A0001C7E01F0E7FF6408204610BDD3691C7E53
:1017B00001F0E0FF013C204610BD00BFBC0000204E
:1017C000024B53F820301B691868704708680320E3
:1017D000024B53F820301B69586870470868032093
:1017E00038B505460C4600F0D1F8044B1B685D8403
:1017F0009C8401F0BFFF002038BD00BFBC0000206A
:1018000090B583B000AF544A534B1B6823F00103DB
:101810001360524B1B68C3F30A0340F249429342E0
:101820000CBF01230023DAB24C4B1B68C3F30A033D
:1018300040F251418B420CBF01230023DBB2134322
:10184000DBB21946454B1B68C3F30A0340F2524210
:1018500093420CBF01230023DBB20B43002B10D0BB
:101860003F4B01221A6000BF3D4B1B68002BFBD190
:101870003C4B3D4A1A603B4B1B683C4A934218D094
:10188000FEE73B4B1B68C3F30A03B3F58A6F10D125
:10189000384B01221A6000BF364B1B68002BFBD16E
:1018A000354B314A1A60344B1B68304A934200D0A2
:1018B000FEE702F067F9314B2E221A700DF054FA50
:1018C0002F480BF06FF80CF017FC786003F020FA4B
:1018D0000346002B0CBF01230023DCB203F05EFAA9
:1018E0000346002B0CBF01230023DBB22343DBB2F2
:1018F000002B09D003F022FA044603F065FA0346F0
:101900001946204603F056FD0021002001F0F4FCAA
:1019100004F042FBFEF780FF1A4B1B68002B12D02D
:101920000DE0184B1B681B68002B03D0154B1B6880
:101930001B689847134B1B685B68124A1360114B76
:101940001B68002BEDD1104B01221A707B681846E2
:101950000C37BD4690BD00BF002000E0002004E031
:101960000830024000300240C2A507F4CDB5E8B50A
:101970000010005C084C0258004C0258F467032029
:101980003C650320B4650320006803202DE9F04185
:10199000224D6B6823B10DF0DFF9AB68984204D09B
:1019A0000DF0FAF90DF0D8F9A8606B680133012B3E
:1019B0006B6001D0BDE8F081194F3B68002B28DD3A
:1019C0000024264605E03AB301363B687C349E424B
:1019D0001FDA0DF0C1F92B681A5923449042F2D155
:1019E0007B68B342E6D0002B10DBC3EB43132A68BD
:1019F00002EB8308FFF72EFC2A680A4B1444C8F850
:101A00007800221DA06F1A60FFF7ACFB7E60BDE876
:101A1000F08100242646E3E71860E1E7986603209A
:101A2000F0000020BC00002010B582B028B9134B94
:101A30001B681C6E14B902B010BD0446FFF7A6FF68
:101A40002046FFF71BF902AB446943F8080D18461E
:101A5000FFF7E8F91CB901F08DFE02B010BD204679
:101A600002ACFFF70BF9826844F8040D93689847BD
:101A70002046FFF7D7F901F07DFEEEE7BC0000201D
:101A800000B97047014A114600F002B801F0FFFFAB
:101A90002DE9F047DFF8F88084B00C46154606467D
:101AA000FFF774FF002001F0F7FBD8F80030814603
:101AB00030461F6EFFF7E2F803680090986901F066
:101AC00019FB324B82469C42009B53D01A895B899A
:101AD000013AADF80840013BADF80A5022442B44CE
:101AE000ADF80C20ADF80E3003F02AFE6846FFF783
:101AF00099F902A805F0EEF848BB504601F0FAFA51
:101B0000FFF744FF002F3DD0D8F800301B6EB3BB69
:101B100003F05EFF3846FFF7B1F804ACD8F80030A8
:101B200044F80C0D1F660068FFF7CEFA2046FFF759
:101B300079F903F0B1FC03F003FC01F01BFE484609
:101B400001F0AAFB01F016FE04B0BDE8F0872A46BA
:101B50002146304600F01CFD04F078FF0028CCD070
:101B60002A462146304600F013FD04F06FFF00289E
:101B7000EDD1C2E7B3F90440B3F90650A6E701F08E
:101B8000ABFAC5E701F0A8FAD7E700BF01F0FFFF05
:101B9000BC0000202DE9F04385B0064690469946EA
:101BA0000F46FFF7F3FE1C4A1C4B1268507C53F89B
:101BB000204001E02468FCB1E3681A68042AF9D1E6
:101BC000DB6A0121204698470546D8B12469A368FD
:101BD0009847013018D00C994B4602944246009128
:101BE00030460195394600F049FB044601F0C2FD3C
:101BF000204605B0BDE8F083FFF746FB044648B138
:101C0000C368DDE70446F1E70C9B054C43F0010394
:101C10000C93E0E72046ECE7BC00002008680320B6
:101C2000746A210000B9704710B582B00446FFF70E
:101C3000ADFE104B1B681B6E9C4217D02046FFF771
:101C40001DF84369019063B90068FFF73BFA01A8EA
:101C5000FFF7E8F82046FEF7C3FE01F08BFD02B067
:101C600010BD184601F06CFD0198EDE701F034FA63
:101C7000E4E700BFBC0000202DE9F04F87B0044628
:101C800092461D468946FFF781FE574B1A68574B0F
:101C9000577CDB573846012B40F39A8003F03EF81F
:101CA0000646384603F080F80746002C00F08D8089
:101CB00005A904A8FFF73EFD049A059B1644B4F954
:101CC00000201F44B4F9023022EAE272013E23EA06
:101CD000E373013F114602921846B4F904200393BE
:101CE0009642D4BFC1EB0601C1EB0201B4F9063044
:101CF00002460E469F42D4BFC2EB0702C2EB03026C
:101D000001361746013705B97D42002E4FDD002F01
:101D10004DDD109B3246039900932B460298FFF746
:101D200039FF8046002848D000F0FEF8874206467A
:101D300004D02D4B1B68986C002851D140463D467D
:101D40000024DFF8ACB000F0FBF90EE0AD1BACB93D
:101D500050463444C847DBF80030FF2003B19847B1
:101D60004046FFF78DFEA74212DDAE42EEDD29466A
:101D7000404600F0C5F9AD1B002CE9D0039B40465E
:101D800002991A1900F00CFA4046FFF74DFEDFE702
:101D90004046FFF747FF002000F0D2F9B74206D0D7
:101DA000114B1B68986C10B1332105F027FC01F032
:101DB000E1FC002007B0BDE8F08F5046C84701F0B5
:101DC000D9FC012007B0BDE8F08F039402949AE794
:101DD00002F04EFF0646384602F074FF074664E7FD
:101DE000322105F00BFCA9E7BC00002004680320A9
:101DF000C466032030B5044683B098B1FFF7C6FD32
:101E00002046FEF73BFF036802AD1B6945F8040D51
:101E10009B68984703F060FC04462846FFF702F8E9
:101E200001F0A8FC204603B030BD00BFA0B110B542
:101E3000044682B0FFF7AAFD2046FEF71FFF02AB63
:101E400000F1180443F8040D1846FEF7EBFF01F00B
:101E500091FC204602B010BD704700BF10B504468B
:101E600082B0FFF793FD7CB12046FEF707FF02AB7F
:101E7000B0F9044043F8040D1846FEF7D3FF01F013
:101E800079FC204602B010BD044B1B681C6E002C70
:101E9000EAD101F06FFC204602B010BDBC0000206A
:101EA00010B5044682B0FFF771FD7CB12046FEF705
:101EB000E5FE02ABB0F9084043F8040D1846FEF702
:101EC000B1FF01F057FC204602B010BD044B1B6867
:101ED0001C6E002CEAD101F04DFC204602B010BD72
:101EE000BC00002010B5044682B0FFF74FFD7CB166
:101EF0002046FEF7C3FE02ABB0F9064043F8040DDE
:101F00001846FEF78FFF01F035FC204602B010BDE9
:101F1000044B1B681C6E002CEAD101F02BFC204600
:101F200002B010BDBC00002010B5044682B0FFF71F
:101F30002DFD7CB12046FEF7A1FE02ABB0F90A40B0
:101F400043F8040D1846FEF76DFF01F013FC204620
:101F500002B010BD044B1B681C6E002CEAD101F0CE
:101F600009FC204602B010BDBC0000202DE9F04F56
:101F7000804687B0002758E0002E7ED103F0D6FFC0
:101F8000804500F09A80584B01264946224602932C
:101F90005846564B009601932B4600F06FF9814648
:101FA0004046FEF76BFE03460590C0F82490B9F159
:101FB000000F79D0826A05A8DFF840B142F4803280
:101FC0009A62FEF72FFF484600F0BAF88246304684
:101FD000474E01F027FC4846FFF728FF454B05FB1D
:101FE00004F2454C197892003568A84740462568A8
:101FF000CBF8008003F0C2FF2060404605F034FAC1
:10200000002225601046CBF8002001F00BFC504662
:1020100000F096F84046FEF71FFF406AB0FA80F3E2
:102020005B090137042F22DC0BB34046FEF726FE86
:10203000034605A8B3F900B0B3F90290B3F9044020
:10204000B3F90650CBEB04040593C9EB05055E6AB2
:102050000134FEF7E7FE0135002DC8BF002CD4BFC8
:102060000123002388DC01370020042FDCDD08B1C8
:1020700000F0D2F807B0BDE8F08F3046FEF7FEFD65
:10208000034606A8B3F9065040F8083DB3F90440EA
:10209000FEF7C8FEA94501D1A345BBD04A46594623
:1020A000304600F07DF8B5E705A8FEF7BBFE4046D8
:1020B00005F0DAF933464846B3E702F013FE064668
:1020C00002F056FEB44202DC85427FF75CAFB442B8
:1020D000A8BF34468542A8BF0546214640462A4649
:1020E00004F084FB4FE700BF746A210008B32100AD
:1020F000FC000020246703202C670320AC6C032025
:1021000030B50D4683B028B90C4B1B681C6E14B952
:1021100003B030BD0446FFF739FC2046FEF7AEFDA4
:10212000B0F90A300190AB42C8BF458101A8FEF763
:1021300079FE01F01FFB03B030BD00BFBC000020E2
:10214000F0B5164F83B00446FFF720FC3B681E6EC7
:10215000E4B1C6B903F03CFC2046FEF78FFD02ADAA
:102160003B6845F8040D1C660068FEF7ADFF284685
:10217000FEF758FE03F090F903F0E2F801F0FAFAE6
:10218000304603B0F0BD00F0A7FFE3E700F0A4FF86
:1021900001F0F0FA304603B0F0BD00BFBC000020F3
:1021A00070B50D4682B0164628B91A4B1B681C6ED6
:1021B00014B902B070BD044636B22DB2FFF7E6FB8B
:1021C0002046FEF75BFDC6808580009003F0B8F8DE
:1021D000009B586930B96846FEF724FE01F0CAFA40
:1021E00002B070BDFEF74AFD009B0190B3F90820D4
:1021F000B3F90A308280C38013B10AB105804680EA
:1022000001A8FEF70FFE6846FEF70CFE01F0B2FAD9
:10221000E6E700BFBC00002000B9704770B5044677
:1022200084B0FFF7B3FB2046FEF728FD014601A866
:10223000B1F90460B1F906500A894B893244019121
:102240002B44ADF80860013AADF80A50013BADF8F7
:102250000C20ADF80E30FEF7E5FD02A804F03AFDC3
:1022600040B12A463146204600F074F904F0EEFBF6
:102270000028F6D101F07EFA04B070BD2DE9F04FD0
:10228000DFF82C8187B082468B46D8F800001746CD
:102290001E461299437C00221198FEF74DFE00283D
:1022A0004DD0036905469B68984703F015FA00FB7B
:1022B00007F48146FEF7F6FC109B073413F0010388
:1022C0004FEAD4043FD0002E2CDD002B42D004FB7B
:1022D00006F01830FEF72CFB024668B30023029389
:1022E00010460392FEF7CAFC029A034606A8A3F81A
:1022F00004A0A3F806B01F815E81DC60C3F81090D3
:102300005A6140F8043D1D60FEF78CFD129AD8F822
:1023100000302A61039A1046AA605B7CAB6107B06B
:10232000BDE8F08F002C34D1204676428642A8BF0B
:10233000064693B3002ECADC2846FEF7C3FE0020F3
:1023400007B0BDE8F08F0028B8BF0330801000EB65
:102350004000B8E700933A4633465946504601F0EC
:102360005FF9029004FB06F01830FEF7EFFA024620
:102370000028B5D128460392FEF7A4FE029B002B4D
:10238000DDD01846FEF72CFB039A104607B0BDE8D7
:10239000F08F1838B0FBF4F0C7E700933A463346A5
:1023A0005946504601F03CF9002E0290DADCC3E7B2
:1023B000BC000020014B1860704700BFC4660320BA
:1023C0002DE9F04FDFF880918BB05D4BD9F800C05C
:1023D000DFF878819CF811E053F82E40D8F80030EF
:1023E000D4F810E0002B00F0A6801646DCF8602040
:1023F00007460D46002A75D0E2681268072A78D091
:10240000504AC2EB0E02B2FA82F25209002A70D090
:102410003846FEF733FC03460AA8B3F908B040F883
:10242000083DB3F90AA00BEB0504DB68013C0593FA
:10243000FEF7F8FCD9F80010B1F90C30B1F908003A
:10244000E41A002CCCBFC4EB0B045C4685425EDB77
:102450000023002C43DD0AEB0600B1F90EE0013841
:10246000CEEB00000028C8BFC0EB0A0AB1F90A0091
:10247000B04247DC0021BAF1000F079306912EDD30
:102480003846FFF7D3FC079BD9F80020069901FBDB
:102490000B31136E00EB8107002B3CD01846FEF782
:1024A000EDFB02460AA8B2F90410B2F906306D1A23
:1024B00040F8042DF31AA900D56801F1180605FBB0
:1024C00003661644FEF7AEFC4EB1059B224600950E
:1024D0003946019330465346D8F80040A0470BB028
:1024E000BDE8F08FE2681268B2FA82F25209002A5F
:1024F0008ED173463246294638460BF0E7FB0BB0C7
:10250000BDE8F08F811B0646C1EB0A0AB3E7431B07
:102510000546E41A9DE7507C4FEA8B02DFF830E075
:102520003B4602922946CDF804A032460094DEF8DC
:102530000040A047D3E773460BF0C8FBCFE700BFCE
:1025400008680320746A2100BC000020146803207E
:10255000106803202DE9F04182B00F4690460646F0
:10256000FEF78CFB034602AC16211D68002044F8E0
:10257000043DEB685B6A984705462046FEF752FC2F
:102580001DB1424639463046A84702B0BDE8F08149
:1025900000B970472DE9F04FA3B08B469246044630
:1025A000FEF76CFB22AB456943F81C0D1846FEF79D
:1025B00039FC2046FFF71EFC0828814640DD002D2F
:1025C0003ED12046FEF75AFB22AA0346B0F9081076
:1025D00042F8100D10460D92B3F90A200A910992A3
:1025E0001968DA680E690B930E92FEF71BFC92488D
:1025F00092490068D6F80480407C51F820100D699B
:102600002B680C93FFF720F808280B9B14D910288F
:102610008BBF20221022042702270B92AE4200F02B
:10262000F882B9F1200F00F0B381B9F1100F00F07A
:10263000458123B0BDE8F08F082201270B92EDE71A
:102640000021012320467C4E20910DF188080B913A
:1026500021930A93FEF712FB074630683A68FB683D
:10266000B7F908101269139314913B69B7F90A106E
:10267000407C0993169148F8147D5568D7F814905A
:10268000FEF7E2FF32680E90507CFFF7A1F8074694
:102690004046FEF7C7FB099A0A9B082A0B9940F2AD
:1026A0009D80102A13460A918CBF042302230C93A9
:1026B000BD4200F0C1813368587CFFF781F8149B5C
:1026C00006469800FEF734F910900028B1D0204655
:1026D000FFF7ACFB0446B9F1000F00F088804846D4
:1026E000FEF7CCFA169B1E90002B40F3A18100232D
:1026F000DDF83880CDF834A00B93139BCDF848B0AB
:10270000E31815931FAB19460F93836800225B698A
:102710001F920B9A9847159B139A04469B1A0E9387
:10272000149B834200F0F680099B012B00F0888007
:10273000002842D01CAB11931098FEF79FFA099B1A
:1027400007461C90082B1F9A65D90C9BA3460E992F
:10275000824602FB031939F8020BA847B047BBF1C8
:10276000010B4AF8040BF6D1B8F11F0F04D8384614
:102770004246214601F06CF80A9901231F9822462F
:10278000059112991C9F0844002101930093039125
:10279000CDF808800D99049701F0AAFF1198FEF773
:1027A00041FB1F9B1E981C440B9A83680F991F9432
:1027B0005B69984704460028BED1159A13990B9B74
:1027C0000A44013315920D9A0B9301320D92169A19
:1027D0009A4200F02D811E980F9996E7012A03D1A5
:1027E00020AB0C920A9363E70C930A9160E70125F2
:1027F0000A9B139A099905930490584603920291F3
:102800005146169B149A0195009501F071FF10989E
:10281000FEF7E6F80DE70C9BA2460E99814602FBF7
:10282000031B1BF8010BA847B047BAF1010A49F88E
:10283000040BF6D198E700BFBC0000200868032015
:102840000028BAD0CDF8608019960B9F0A9EDDF85B
:102850003880DDF83490DDF848A0DDF83CB01795FD
:102860001192DDF87CE02246119D01230EF0070055
:1028700049460395012506900AEB0E00BEF1000FB4
:1028800005960295B8BF0EF1070E0195009508EB6D
:10289000EE0ECDF810E002F011FE1F9B1E983A4696
:1028A0001C44594683681F945B6998470446002876
:1028B000D7D1179DDDF86080199E7EE70A9B03FB48
:1028C00007F0FEF735F8109000283FF4B2AEFEF79F
:1028D000D5F920902046FEF7D1F900F118031E909B
:1028E0000E932B69002B00F0A6817369002B00F07A
:1028F000A281B0F908008000FEF71AF811900028B4
:1029000040F0BA811F900D98FEF78CFA20A8FEF7D0
:1029100089FA7CE71098FEF7B1F9099B81461C9073
:10292000082B149F0446DDF838A028D93AF8020B8A
:10293000A847B047013F44F8040BF7D1B8F11F0F87
:1029400004D848464246149900F082FF22AB129800
:102950000D991A460A9B059300230393012352F80D
:1029600018EDCDF8088017460193149A0093CDF81E
:1029700010E001F0BDFE3846FEF754FA1DE71AF8E4
:10298000010BA847B047013F44F8040BF7D1D5E746
:102990000A9B07FB03F0FDF7CBFF0E9000283FF4E6
:1029A00048AEFEF76BF920902046FEF767F91E90BF
:1029B0002C6900F11808002C00F0EB800A9A5C46A4
:1029C00001260A954FEA82099346CDF83090DDF84A
:1029D000249017E0042F21D0012F15D00B9B00204D
:1029E000209D51460293012305905A4603902046AC
:1029F00001969A440096049501F07AFEB9F1010916
:102A000000F0E880022FE5D10C9D40463B465A4637
:102A1000A8440A9D20992D69A847DFE70C9B4046F2
:102A20000A9D5A46984420993B462D69A847D5E708
:102A30001EA8FEF7F7F9EAE62046FFF7F7F9804609
:102A4000B9F1000F00F0D4804846FEF717F9169B45
:102A50001E90002B40F3C88000261FABCDF834A099
:102A60000125B146DA461F4683683246CDF87C9090
:102A700039465B699847149B0446834231D0099BD1
:102A8000012B57D020B30D9B0B9603EB060B1F9821
:102A900001230C990A9A01FB008E099E1399504458
:102AA0000592224603915946CDF810E00296019511
:102AB000009501F01DFE1F9B1E9839461C440B9A81
:102AC00083681F945B69984704460028DFD10B9EFA
:102AD000139B01369844169BB34240F385801E98A1
:102AE000C2E7CDF82C80B346984600E0A3461E9876
:102AF0000BF101043946836822465B69984780459B
:102B0000F4D00A9AC6EB0B03DDF82C8050460592F0
:102B100001330D9ACDF810809119139E099A0396EE
:102B200002920195149A06FB03880095264601F04F
:102B3000DFFDD0E70028CBD00D9B0B9603EB060BF7
:102B4000DDF87CE022460A9E01230EF0070059467C
:102B5000059606900AEB0E00BEF1000F139E02953B
:102B6000B8BF0EF1070E0396019508EBEE0E009527
:102B7000CDF810E002F0A2FC1F9B1E9839461C44C1
:102B80000B9A83681F945B69984704460028D7D145
:102B90009DE7A1460125099E0123022F51460A9A6D
:102BA00058460AEB030E00F0A981042F00F07D8146
:102BB0009F4200F052810B9CF246CDF81490029493
:102BC000209CCDF80C9001950095049401F090FDA7
:102BD000013EE1D10D98FEF725F920A8FEF722F974
:102BE0000E98FDF7FDFE24E51EA8FEF71BF920E573
:102BF00001240A9B139A099905930490584603925D
:102C000002915146169B149A0194009401F070FDB4
:102C10000FE50E9A012418330025039251460493C0
:102C20005846099BCDF808900A9A0595019400949E
:102C300001F05EFDFDE40125DDF82890099E0123E9
:102C4000022F51464A4658460AEB030E00F0D48044
:102C5000042F00F0A0809F426DD0002401950095C4
:102C6000F246059403940B9C0294209C049401F07A
:102C70003FFD013EE3D146E6FEF700F81F90002835
:102C80003FF441AE0A9A0124CDF828B04FEA420938
:102C900090460C95CDF83C90B146DDF838B017E081
:102CA000042F2ED0012F28D00B9B0020209D5146B1
:102CB000029301230590424603909A4401940094A4
:102CC0000A98049501F014FD099B013B09932BD050
:102CD000022FE5D1209B1E463B4642461F9958468F
:102CE000D9F81450A8470F9D31463B46AB440C9D84
:102CF00042461F982D69A847D6E7209B1E4602230F
:102D0000EBE7209B42460F9E58461D461F99022323
:102D1000B344D9F81460B04729460C9D3B4642465F
:102D20001F982D69A847BFE71FA8FEF77BF81198E9
:102D3000FDF756FEE7E50A9B444609965D000C9EAA
:102D40000C95209DDDF83880DDF8289038F8020BCE
:102D5000A047B047B9F1010905F8010BF6D10E9D66
:102D600001230B985146AE460C9D02905846AE4446
:102D7000209DCDF814909A440A9ACDF80C900197B2
:102D800000970495CDF838E001F0B2FC099B013BB7
:102D90000993D6D1B7E50A9B0125099644465E0002
:102DA0000C9F0C96209EDDF83880DDF8289038F8CE
:102DB000020BA047B847B9F1010946F8040BF6D158
:102DC0000E9E01230B985146B6460C9E0290584623
:102DD000B644209ECDF814909A440A9ACDF80C90EF
:102DE000019500950496CDF838E001F081FC099B2F
:102DF000013B0993D6D186E50A9B012509964446F5
:102E00005E000C9F0C96209EDDF83880DDF828903F
:102E100038F8020BA047B847B9F1010926F8020BB0
:102E2000F6D10E9E01230B985146B6460C9E029099
:102E30005846B644209ECDF814909A440A9ACDF88C
:102E40000C90019500950496CDF838E001F050FC07
:102E5000099B013B0993D6D155E595000C9C099639
:102E60000C95209D4646DDF8289056F8040BA047A7
:102E7000B9F1010905F8010BF7D10B980123209E48
:102E8000514602905846CDF814909A440A9ACDF8CB
:102E90000C900197009704960C9D01F029FC099B6A
:102EA000A844013B0993DCD194E6099601259600DC
:102EB0000C9C0C96209E4746DDF8289057F8040B92
:102EC000A047B9F1010946F8040BF7D10B9801238B
:102ED000209F514602905846CDF814909A440A9A81
:102EE000CDF80C900195009504970C9E01F000FC24
:102EF000099BB044013B0993DCD16BE6099601259F
:102F000096000C9C0C96209E4746DDF8289057F8BA
:102F1000040BA047B9F1010926F8020BF7D10B9871
:102F20000123209F514602905846CDF814909A44B0
:102F30000A9ACDF80C900195009504970C9E01F02B
:102F4000D7FB099BB044013B0993DCD142E600BFAB
:102F500058B311B30AB3B1F90030F0B5B2F900506B
:102F6000B2F902E0B1F902409D42B2F90470B2F93F
:102F70000660A8BF1D46B1F904207445B1F90630BA
:102F8000A8BF7446BA420580B8BF3A46B3424480EF
:102F9000B8BF33468280C380F0BD002908BF114608
:102FA0000A684B68026043607047704778B189B225
:102FB000C38892B270B40688448885880E4414444D
:102FC0001A442944068044808180C28070BC7047C6
:102FD00010B5FEF7DBFC0D4A136851688B420FD029
:102FE0000B4CA3424FF0010493E8030014BF0833D5
:102FF000503B136003F01AFB00F0BCFB204610BDF1
:10300000002400F0B7FB204610BD00BFE800002000
:103010008C660320F0B5164C059F2568069CB5F913
:1030200008E0B5F90C607045B8BF7046B242A8BF61
:10303000324690421ADCB5F90A60B5F90E50B14239
:10304000B8BF3146AB42A8BF2B468B4203DAF0BD76
:1030500025682DB12C46E5682D6835F00405F7D1BB
:1030600006940597BDE8F04002F00CB8F0BD00BF33
:10307000BC000020B0F90220B1F906309A4214DCFD
:10308000B1F90220B0F906309A420EDCB0F9002006
:10309000B1F904309A4208DCB0F90400B1F900300B
:1030A0008342CCBF0020012070470020704700BF42
:1030B00008B5034B014674221868FDF74CF908BDAA
:1030C000BC00002008B5034B74221968FDF743F9D2
:1030D00008BD00BFBC00002008B5FEF757FC02F099
:1030E000E1F802F0D9F902F02BFBBDE8084000F04E
:1030F00041BB00BF70B50D4D04462B685E7CFEF7EA
:1031000045FC012C03D900F035FB304670BD20464C
:10311000FEF7BAF80028F6D02B685C74FFF7DCFFE6
:10312000034B1C6000F026FB304670BDBC00002045
:10313000506C03202DE9F047444F0546444B3A6854
:10314000FF2D444E507C53F820309C6916F80480C3
:103150000CD0DFF81091D9F80830BBB10521FEF78B
:103160007BF850B335554046BDE8F0870521FEF7A2
:1031700073F807460028F6D00020FFF71BF9384601
:10318000FEF746F835554046BDE8F087324B4846D5
:1031900040F80C3F01F0B2F901F07AFD4FEA800AE5
:1031A0005046FDF747FCC9F808000028DBD0D9F8E5
:1031B000143073B13B68587CD0E72848FFF7FAF821
:1031C0003B685B7C59F823000028CBD0FDF77CFFDF
:1031D000C8E75046FDF72EFCC9F8140088B3D9F8AB
:1031E00000301BB3D9F80420DFF878A0002AE1D121
:1031F0001B49012301F11800FDF79EFECAF80400E7
:103200000028D7D1D9F80800FDF70AFCD9F8140036
:10321000FDF706FCD9F8000008B1FDF753FFD9F817
:10322000040000289FD0FDF74DFF9CE70C491A468B
:1032300001F11800FDF780FEC9F800000028D1D187
:10324000E0E7D9F80800FDF7EBFB8CE7BC000020B5
:1032500008680320D0000020DDCD2000353120009B
:103260008C6B2100F865032010B50446FEF78EFB39
:10327000204602F039F8BDE8104000F07BBA00BFEC
:1032800010B50446FEF782FB204602F067F8BDE861
:10329000104000F06FBA00BF10B50446FEF776FB91
:1032A000204602F08DF8044600F064FA204610BD76
:1032B00038B50446FEF76AFB044B1B68DD6904B1B0
:1032C000DC6100F057FA284638BD00BFBC00002082
:1032D00010B418B111B10346002002E00021012012
:1032E0000B46034C034A216013605DF8044B7047A2
:1032F000106803201468032070B505460C46FEF7DD
:1033000045FB094A094B294610682246084E407C75
:10331000358053F82000074DC3682C801B6A9847FE
:10332000BDE8704000F026BABC0000200868032009
:10333000F6670320F867032038B50546FEF726FB3D
:10334000044B1B68B3F92C409D8500F013FA20460E
:1033500038BD00BFBC000020024B1B6803B11847FA
:10336000704700BFAC660320024B1A6802B91860B0
:10337000FFF7F2BF3866032000B970472DE9F0412E
:10338000DFF8C48082B00546FEF700FBD8F80040A5
:10339000A54244D06E461CB919E0FDF743FDB4B117
:1033A0002046FDF76BFC034630469C680093A5421F
:1033B000F3D12846FDF762FC0346009A01A89968FC
:1033C00001939160FDF72EFD3046FDF72BFD284659
:1033D000FDF754FCD8F804400090A5421A4B2CD0BD
:1033E00094B101AF02E0FDF71DFD6CB12046FDF781
:1033F00045FC034638465C680193A542F3D1009A28
:1034000052685A60FDF70EFD3046FDF70BFD284669
:10341000FDF7E6FA00F0AEF902B0BDE8F08102AFC8
:103420002846FDF72BFC836847F8040D38466E46A6
:10343000C8F80030FDF7F6FCC9E7426830465A602C
:10344000FDF7F0FCE3E700BFF866032030B583B07A
:1034500018B90124204603B030BD04460D46FEF7DE
:1034600095FA2046FDF70AFC828902AB2A4243F80E
:10347000040D184614BF01240024FDF7D3FC00F00E
:1034800079F9204603B030BD0A4A002330B51468EC
:1034900083B003605CB105462046FDF7EFFB02AB4D
:1034A000026943F8040D18462A60FDF7BBFC20466C
:1034B00003B030BDF8660320002370B50B6082B006
:1034C00018B90446204602B070BD0D46FDF7D6FB84
:1034D000846801AE01902CB93046FDF7A3FC20466C
:1034E00002B070BD3046FDF79DFC2046FDF7C6FBDF
:1034F000036901902B60EFE7F8B5084E05460468B4
:10350000336820461B6898473368074620465B6847
:103510009847044438462C60F8BD00BF1C6803205F
:10352000F8B569B105460C460026064F3B682846AB
:103530005B689847013C05440644F7D13046F8BD26
:103540000E46FBE71C6803202DE9F843089C05465E
:1035500089469846A96843462846561C4F684946FE
:10356000B847013C3246F5D1BDE8F883F8B5B0F96B
:103570000040B0F904500C1BAC422ADA2344B0F9E5
:103580000250E710FF21013B551B026904F00704BC
:10359000DE4302FB057541FA04F406F00706D7EB9B
:1035A000E30205F11405E4B201FA06F600EB050E9C
:1035B000F6B20FD0435D013A0EF101071C43002A19
:1035C000445503DD38461744FCF7EFFE3C7834439E
:1035D0003C70F8BD435D34401C434455F8BD00BF0A
:1035E00030B4B0F9024080250369121BB0F90040E5
:1035F00003FB02F3091B143301F0070203EBE101A3
:103600001541435C2B4330BC435470470346B0F92B
:103610000620002114301B6903FB02F2FCF7C5BE33
:103620002DE9F04302F10F04804683B09146241146
:103630001E460F46640003FB04F01430FDF786F9C4
:103640000546B8B1FEF7A2F92846FDF717FB01239E
:1036500001460A4A02A8A1F8049040F8041DCE8051
:103660000C61A1F800804F808A608B81FDF7DAFB46
:1036700000F080F8284603B0BDE8F083F0B22100E6
:10368000B0F9063093423BDDB0F90430F0B40D6878
:103690009D4232DAEE1007695C1E05F0070307FB56
:1036A0000262C6EBE4061432845C013204FA03F3CE
:1036B000104413F0FF0308D126B3083510F8013B7E
:1036C000013E25F00705002BF6D01C0634D45B0024
:1036D0000135DBB21A06FAD55F062A4604D55B002F
:1036E0000132DBB25C06FAD402F00703072B0CD0E0
:1036F000561B0D60701CF0BC70470020F0BC70477A
:10370000002070473046F0BC7047002EF0DD047892
:10371000471CFF2C0DD1831903E017F8014BFF2C38
:1037200007D1BB4202F10802F7D1E1E764000132A0
:10373000E4B22306FAD4DBE7FF2BCDD1EA1DD3E7B1
:1037400030B5054683B0FEF721F92846FDF796FA15
:10375000034602A89C8940F8043D013C24B29C81A8
:10376000FDF760FB14B92846FDF73AF900F002F8BE
:1037700003B030BD034A5368013B536003B1704747
:103780000BF014BB98660320F0B583B0C0B9224C8F
:1037900005462369CBB1E0681F4E18B91F4B186866
:1037A000F060D8B123681C4F2BB3002663681A4F12
:1037B000C3B115B1A368184C2BB3304603B0F0BDAC
:1037C000154C01AD2369002BE5D1154A2046012394
:1037D00040F8142F236100F091FEDCE701F058FA65
:1037E000F060DFE7F8688000FDF724F900287860D2
:1037F00008BF0126DDE78000FDF71CF9B0FA80F66E
:1038000038607609D2E7E0688000FDF713F90028F8
:10381000A06008BF0126D0E710660320FC670320E4
:1038200011CE2000094B10B51C7838B902464FF074
:103830007F401A7000F00EFF204610BD01220020CC
:103840001A7000F007FF204610BD00BF0268032079
:10385000082A10B40EDD102A1CDC00EB41010346DF
:1038600050F8042B23F8022B9942F9D101205DF87E
:10387000044B7047022A11D0042A00F09A80012AD2
:103880003FD00144034650F8042B03F8012B994222
:10389000F9D1EBE700205DF8044B704700F110020E
:1038A00052F8103C01294FEA8313DBB226D052F8BC
:1038B0000C4C02294FEA041404F0300443EA0403D8
:1038C0001CD052F8084C03294FEA840404F00C047D
:1038D00043EA040312D052F8044C043902F11002F6
:1038E00004F0030443EA040300F8013BBED052F89D
:1038F000103C01294FEA8313DBB2D8D103700120B9
:10390000B5E700F1200252F8203C01294FEAC31329
:10391000DBB2F3D052F81C4C02294FEA841404F0B5
:10392000400443EA0403E9D052F8184C03294FEA53
:10393000441404F0200443EA0403DFD052F8144C8A
:1039400004294FEA041404F0100443EA0403D5D018
:1039500052F8104C05294FEAC40404F0080443EA65
:103960000403CBD052F80C4C06294FEA840404F02F
:10397000040443EA0403C1D052F8084C073902F1A9
:1039800020024FEA440404F0020443EA0403B5D0E1
:1039900052F8244C012904F0010443EA040300F81E
:1039A000013B52F8203C4FEAC313DBB2B2D10370A3
:1039B000A5E700F1080454F8083C01294FEA031375
:1039C000DBB213D054F8042C023904F1080402F0DD
:1039D0000F0243EA020300F8013B3FF447AF54F8FB
:1039E000083C01294FEA0313DBB2EBD10370084610
:1039F0005DF8044B704700BF082A2DE9F0410C46E2
:103A000005461F680CDD102A21DC1E69002E00F01F
:103A10009180224629460223B0470120BDE8F0816B
:103A2000013A072A10D8DFE802F004510F770F0F90
:103A30000F9A00F1200858F8200CB847012C4FEAE3
:103A4000C010C6B206D12E700120BDE8F081002062
:103A5000BDE8F08158F81C0CB847022C46EA8010EB
:103A6000C6B2F0D058F8180CB847032C46EA4010FC
:103A7000C6B2E8D058F8140CB847042C46EA001037
:103A8000C6B2E0D058F8100CB847052C46EAC00082
:103A9000C6B2D8D058F80C0CB847062C46EA8000BD
:103AA000C6B2D0D058F8080CB847072C46EA4000F8
:103AB000C6B2C8D058F8040C08F12008B847083C32
:103AC00040EA060005F8010BB5D1BDE700F110088A
:103AD00058F8100CB847012C4FEA8010C6B2B2D08B
:103AE00058F80C0CB847022C46EA0010C6B2AAD00F
:103AF00058F8080CB847032C46EA8000C6B2A2D09A
:103B000058F8040C08F11008B847043C40EA0600D5
:103B100005F8010BDCD197E700F1080858F8080C0C
:103B2000B847012C4FEA0010C6B20CD12E702046C7
:103B3000BDE8F081861E55F8040BB847013C26F815
:103B4000020FF8D180E758F8040C08F10808B847CC
:103B5000023C40EA060005F8010BDFD174E71E695C
:103B60003EB12846224601232946B0470120BDE840
:103B7000F0816E1E55F8040BB847013C06F8010FA2
:103B8000F8D161E7F0B51C4E85B0F36F0BB105B00D
:103B9000F0BD1A4B6F4604AD4FF0010E06F18004E4
:103BA000C6F87CE00FCB07C7190C15F8102D27F8C5
:103BB000023B397004F8012B15F8012F002AF9D1C6
:103BC000FDF7CEFD234610F8012B194603F8012B13
:103BD0000278002AF7D14A700BF0AEF8FCF76EFEBF
:103BE0000EF04CFA064B0748C6F8943005B0BDE815
:103BF000F04000F083BC00BF3C650320246B210033
:103C00007DCD2000D06503202E4B1B682DE9F041AF
:103C1000044682B00D4683B1002003F05BF848B142
:103C20006E4632462946204604F0CEFC02F00EFFD6
:103C30000028F6D102B0BDE8F081DFF88C806B4639
:103C400010686E46D8F800705168B7F84CC0B7F8E5
:103C500050E003C3BDF800706846BDF80410BDF81D
:103C600002206744BDF8063061447244ADF800702C
:103C70007344ADF80410ADF80220ADF8063003F03F
:103C800029F860B9D8F80030598C9A8CDC6C186D22
:103C9000091B121A59849A8402B0BDE8F081D8F841
:103CA00000303246BDF802002946BDF80070988405
:103CB00020465F8404F088FC02F0C8FE0028EED1A4
:103CC000E0E700BF18680320BC0000202DE9F04F9A
:103CD0008FB000241F46934605909348199B0069B6
:103CE00007911C60002800F0F1808F4BDC681D46B6
:103CF0002CB98E4B1C68EC60002C00F0F1808A4BD4
:103D0000894D1B680293002B00F0FD80864B864D89
:103D10005B680393002B00F0E880A742844B854A40
:103D20004FF00006A8BF27461968059B3446487C1B
:103D3000BA463B4452F820200C93013B0892099369
:103D400013690D93FDF780FC794B04901B68587C38
:103D5000FDF73EFD784B794A0B90904218BF984290
:103D600014BF012300230A935F46189B57F8040BE6
:103D7000984781464FEA1068B8F1FF0F47D0002CF2
:103D80002BD16B4B059A1B689519B3F90830AB42E0
:103D900059DD5A1B1D461446069202983444089B6E
:103DA000079900EB8404019328460B46099A009476
:103DB000FFF730F9049B172B7EDD0A9B002B44D0C4
:103DC0000C9B06965D1B2E460B9D2068A847013E66
:103DD00044F8040BF9D1069E0124534BDD69002DF4
:103DE00038D15FFA88F2B8F1000F1AD1029B039A1A
:103DF00053F8263042F82630BAF1010A06F10106DE
:103E0000BB46B1D1039C20460FB0BDE8F08F199B93
:103E1000039A1B6842F8260043F00103199A1360C5
:103E2000EAE7029949F07F40454B51F826101B689C
:103E30009847199B039A1B6842F8260043F0010338
:103E4000199A1360D8E70694A7E7374B0124DD6978
:103E5000002DC6D0B600029A534658463244574603
:103E60001446039A164421463246A847ABF1040291
:103E700008E02368013F04F1040406F1040646F853
:103E8000043C0ED052F8043F13F07F4FF1D021686C
:103E90000436043411F07F4F08BF46F8043C013F5C
:103EA000F0D1199B039C1B68199A204643F001032B
:103EB00013600FB0BDE8F08F1A46069B2046012420
:103EC000C3EB0A010D9B00F0B3F886E71D4A0123FE
:103ED000154840F8142F144A136100F00FFB04E753
:103EE00000F0D6FE0446E86009E7E8688000FCF7C9
:103EF000A1FD0390686000287FF40FAF00242046E6
:103F00000FB0BDE8F08FA000FCF794FD286008B169
:103F10000290FBE66C68002CF0D1E8688000FCF7AA
:103F200089FD68606FE700BF10660320FC6703200F
:103F3000BC00002008680320B94F2000C14F2000BA
:103F4000D800002011CE2000082A0CDD102A31DC18
:103F5000490008444318411A30F8022D884243F8BA
:103F6000042DF9D17047013A00EB8103F0B5072A1F
:103F70001FD8DFE802F043042929202020204A1E10
:103F80004C424FF0030E00EBA20004EA0E0100E0E9
:103F9000013A4E00047801310EFA06F521F00307CC
:103FA000A0EBA1002C403941344143F8044D002AD4
:103FB000EED1F0BD70470844411A10F8012D884237
:103FC00043F8042DF9D1F0BD4A1E4FF00F0E01F059
:103FD000010100EB620000E0013A8E00047801313B
:103FE0000EFA06F521F00107A0EB61002C403941E3
:103FF000344143F8044D002AEED1DAE74C424A1E20
:10400000012704F0070400EBE20000E0013A067823
:1040100007FA04F1651C314025F00706A0EBE50026
:10402000214145FA06F443F8041D002AEED1C0E709
:1040300000292ADD082A2DE9F04704465D6803DDE2
:10404000102A0CDDBDE8F087531E072B05D8DFE8EA
:1040500003F02A51047B0404041DBDE8F0875E6967
:1040600036B10A46B44621460223BDE8F047604710
:1040700049000C446618671A34F8020DA84746F840
:10408000040DBC42F8D1BDE8F0877047661804EB18
:104090008104771A16F8010DA84744F8040DBE42B2
:1040A000F8D1BDE8F0874F1E80266FF0404AFB1024
:1040B00007F007088A4446FA08F6591E14F80390D8
:1040C00004EB8A0AF6B20C4406EA0900C8F10703B9
:1040D00076001841A8474AF80409B8F1000F5FD1EB
:1040E00094F800900126013C4FF00708002FB4D04F
:1040F000013FE9E74F1EC0266FF0404A07F0030971
:10410000BB108A444FEA4900591E14F8038004EB9F
:104110008A0A06410C44F6B206EA0803C0F106001A
:10412000B60043FA00F0A8474AF80409B9F1000FB5
:104130003ED1032694F80080013CB146002F8CD07C
:10414000013F4FEA4900E7E74F1EF0266FF0404A73
:1041500007F001097B108A444FEA8900591E14F8C0
:10416000038004EB8A0A06410C44F6B206EA08030F
:10417000C0F10400360143FA00F0A8474AF80409E8
:10418000B9F1000F10D194F800800F26013C4FF0D8
:104190000109002F3FF461AF013F4FEA8900E5E7D5
:1041A00008F1FF38F6B2A1E7F6B24FF00009F0E7E8
:1041B00009F1FF39F6B2C1E770B584B01C4A04AB0F
:1041C000019043F8101D194613689847019050B3A9
:1041D000184B1B68DB695B692BB11B681BB100992D
:1041E000984704B070BD009B013B002B00931CDB83
:1041F000002401A8FFF780F90546FDF73BFA009B74
:104200000444013B002B0093F3DA002604A928465E
:1042100041F8046DFDF740FA039B9842B8BF1E1A9F
:10422000301904B070BD04B070BD00252C46ECE719
:10423000E4000020BC00002030B583B00190E0B164
:10424000104B0D461B68DB695B6923B15B6813B1DA
:10425000984703B030BD002D11DD002401A8FFF701
:104260004BF938B10A2805D00134A542F6D12846C9
:1042700003B030BD204603B030BD03B030BD0020D8
:10428000E7E700BFBC000020B1F90030B0F9002022
:104290009A42B0F90220B8BF0380B1F902309A42C5
:1042A000B0F90420B8BF4380B1F904309A42B0F9A4
:1042B0000620C8BF8380B1F906309A42C8BFC380C8
:1042C000704700BFB2F90030F0B5B1F90040B1F964
:1042D0000250B2F902E0A342B2F90470B8BF23461B
:1042E000AE457446B2F90660B8BF2C46B1F9045029
:1042F000B1F906203946AF4203804480A8BF294661
:10430000B242A8BF324681809442D8BF8B42C2805D
:10431000CCBF0123002383F00100F0BD3A4B1B68A2
:104320002DE9F0415D7C82B0012D03DD012002B05A
:10433000BDE8F081354E0446736813B10146284646
:104340009847012C27D0022C0FD0002CEED1AC00C6
:10435000DFF8B8803719BB68012B3AD0012026441A
:10436000002B18BF013BB360E1E72846FCF78CFF48
:1043700001900028DAD0C3680D2101A85B6A984734
:1043800004460028D2D0336803B19847022101982F
:10439000A0470020CBE706EB8506B7681FB10137C1
:1043A0002046B760C3E72846FCF76EFF019000285F
:1043B000BCD0C3680D2101A85B6A9847034600285A
:1043C000B4D0214601989847B36838460133B360AA
:1043D000ADE72846FCF758FF019088B1C3680D216E
:1043E00001A85B6A9847054650B1D8F8003003B180
:1043F000984700210198A847331900209B68AEE731
:10440000BB680120ABE700BFBC0000200C670320A5
:104410000B0E4FEA1063F0B408BF20F07F41114C3F
:1044200002FB03F200F0FF160D0A01F0FF13A4FBDC
:104430000212C0F3072005F0FF15D20940F0807486
:10444000C2F1FF0702FB06F107FB05F007FB0311B2
:1044500002FB0400090A00F0FF2001F0FF11F0BC8C
:1044600008437047818080802DE9F04F87B09246E5
:10447000139A01900291109B9DF85090002A35D01C
:10448000129A0021DFF86CB09200DFF86C80039183
:1044900002EB830305920493129C5746029E019DF2
:1044A00055F8040BDBF80030020E56F8041B40F000
:1044B0007F4009FB02F2A8FB02E2C2F3C712984751
:1044C000013C40F07F4047F8040BE9D1019A05997F
:1044D0001046029A8A44039B0844049901330A4413
:1044E000019003930292139A9A42D5D107B0BDE886
:1044F000F08F00BFD80000208180808080B483B01E
:1045000000AF7860064B1A687B685A60044A7B6883
:10451000136000BF0C37BD465DF8047B704700BFD9
:10452000B0650320F8B506464AB18407C9B208D081
:1045300001E0830705D0013A00F8011BF9D13046AC
:10454000F8BD97083B464FB301EB0124032F02F05F
:10455000030204EB044415D900F110033D46043D69
:1045600043F8104C43F80C4C1033032D43F8184C0F
:1045700043F8144CF3DC043FBB085D1CA7EB83033A
:1045800000EB051043B1012B046003D0022B446003
:1045900018BF846000EB8300002AD0D0FBF705FF32
:1045A0003046F8BD70B4840702D50180013A02306C
:1045B00056080DD0032E334601EB01440DD8012BD4
:1045C000046003D0022B446018BF846000EB8300BA
:1045D000D30770BC48BF0180704700F11003354617
:1045E000043D43F8104C43F80C4C1033032D43F8B2
:1045F000184C43F8144CF3DC043EB3085D1CB6EBD6
:10460000830300EB0510DAD1E2E700BF08B50B0E1B
:1046100003D1030EFF2B0FD04BB102EB02120B4B59
:10462000D2B21B6898470A4B5A68104308BD084B22
:104630005A6841EA020008BD054B20F07F4002EBBA
:1046400002125B68184340EA026008BDD8000020EF
:1046500000010020024B5A6858601046704700BFA6
:1046600000010020044A054B1268527C53F82230A6
:104670001B691B68184700BFBC00002008680320A6
:10468000C0F30721C0F30743C0B2994210B40AD166
:10469000884208D1083314485DF8044BA0FB03306E
:1046A00000097830704700EB8000104C03EB830268
:1046B0007F3001EB81017F32A4FB00307F31A4FB0E
:1046C0000232A4FB0131C009D2095DF8044B00EBB2
:1046D000C000C90902EB800301EB410003EB40007D
:1046E0006B2888BF28307047F1F0F0F0818080801F
:1046F0002DE9F04FB64C91B0D4F800E01B9D1D9E03
:104700001E9F1F9C0F9005920C93DDF868A00D95DD
:10471000DDF870C00E9607970894BEF1000F06D022
:10472000DEF80040A44611B0BDE8F04F60474AEA09
:1047300005038946012B00F09380CCF10803029316
:104740000C9B002B40F38980A24BF046E146CDF84C
:1047500028E0186804910D9A049953181A460B938F
:10476000B0F90A30013A9342099269DCB0F90E308F
:104770008B4265DB059B002B62DD00260F9B079FAC
:1047800003EB0A04354606974DE0C9EB0606029B8B
:1047900048FA03F208FA09F812F0FF025FFA88F803
:1047A00002D1037C9B0739D4D0F83CC0DCF8003040
:1047B0000393089B0BB153F82220B0F9083004F1A1
:1047C000FF3EB0F90CB09942CCF80020B8BF1946B2
:1047D000DE457346A8BF5B468B421CDBB0F90A205E
:1047E000049FB0F90EE0BA42B8BF3A46099FBE45F1
:1047F000A8BFBE4672450EDC407C774F57F82000BC
:10480000D0F80CC0CDF800E0DCF810B0D847714B00
:104810001868D0F83CC0039BCCF800300135059BEC
:104820005444AB420CD0CAEB0401002EADD1069A21
:10483000029E134692F80080013306933346A7E7A1
:10484000079A0E990A9B0A44013307920B9A0A931E
:1048500004920C9A9A427FF47EAF11B0BDE8F08FBB
:104860005C4B1968B1F90A20C9EB0203002B40F335
:10487000C1800C98C41A002CEFDD06FB037307936C
:104880000C9B4B44B1F90E00013B1B1A002B02DDBF
:10489000E41A002CE1DD0F98059D4319B1F90C00D5
:1048A000013B1B1A002B01DDEB1A0593B1F908300F
:1048B0000F9D9D4215DB0025059B002BCDDD4E7C19
:1048C0004548089F50F826000F99C6681E95079D19
:1048D0001F971D950E9DCDF86CC01C951A94746899
:1048E00020E7059E5D1B0CF1FF30761B05961F2807
:1048F000E2D801A656F820F0DD492000B949200091
:10490000B9482000A1492000B9482000B94820003A
:10491000B948200095492000B9482000B948200036
:10492000B9482000B9482000B9482000B948200003
:10493000B948200087492000B9482000B948200024
:10494000B9482000B9482000B9482000B9482000E3
:10495000B948200079492000B9482000B948200012
:10496000B9482000B9482000B9482000B9482000C3
:10497000B94820007949200007980F9300EB850083
:104980000025079098E707980F9300EB4500002556
:10499000079091E707980F932844002507908BE72D
:1049A000079825F0010300EB650005F0010507906D
:1049B0000F9818440F907FE7079825F0030300EB4A
:1049C000A50005F0030507900F9818440F9073E7B2
:1049D00018680320BC00002008680320079825F011
:1049E000070300EBE50005F0070507900F98184452
:1049F0000F9061E70C9C4A46234642E7114B30B4C6
:104A00001C68B4F90A308B420FDCB4F90E309942BD
:104A10000BDCB4F90850B4F90C30A842B8BF2846F2
:104A20009342A8BF1346984201DD30BC7047657CB5
:104A30000A46054C014654F82500C468A468A446FB
:104A400030BC6047BC00002008680320164B1B6880
:104A5000B3F90A208A421CDCB3F90E20914218DC1B
:104A6000B3F90820824214DCB3F90C20904210DC28
:104A700030B41A7CD2070DD45D7C0A460B4C01463B
:104A8000DB6B54F825001B68C468A469A44630BCDD
:104A9000604770475C7C0A46044B014653F824008B
:104AA000C36830BCDB691847BC00002008680320DD
:104AB00070B5154C82B02468B4F90850B4F90C6094
:104AC000A842B8BF2846B242A8BF324682420BDB9A
:104AD000B4F90A60B4F90E50B142B8BF31469D42F4
:104AE000A8BF1D46A94201DD02B070BD667C134619
:104AF000064C0A46014654F82600C468009524690D
:104B0000A04702B070BD00BFBC00002008680320B1
:104B1000012801DD0020704710B5FCF7B5FB28B176
:104B2000C36808219B6ABDE810401847002010BDEB
:104B3000024B1B689B6B1868704700BFBC000020CD
:104B4000024B1B68DB6B1868704700BFBC0000207D
:104B5000012801DD0020704710B5FCF795FB28B156
:104B6000C3680C219B6ABDE810401847002010BDA7
:104B7000012801DD0020704710B5FCF785FB28B146
:104B8000C3680D219B6ABDE810401847002010BD86
:104B9000094B1B68587C012801DD0020704710B5C7
:104BA000FCF772FB28B1C36809219B6ABDE810407D
:104BB0001847002010BD00BFBC000020012801DD07
:104BC0000020704710B5FCF75FFB28B1C3680921CE
:104BD0009B6ABDE810401847002010BD10B50020AA
:104BE000FCF752FB041C4FF0010018BF0124FCF736
:104BF0004BFB00B10134204610BD00BF064B1B68C3
:104C000010B5587CFCF740FB28B1C3680221DB6A71
:104C1000BDE81040184710BDBC00002030B583B07F
:104C20000C461546FCF730FB019070B1C3680421B7
:104C30005B6A0DEB01009847034630B101982A46A4
:104C400021469847002003B030BD012003B030BD9D
:104C5000012801DD0020704710B5FCF715FB28B1D5
:104C6000C3680E219B6ABDE810401847002010BDA4
:104C7000012801DD0020704710B5FCF705FB28B1C5
:104C8000C36803219B6ABDE810401847002010BD8F
:104C900038B5012500242846FCF7F6FA032178B13F
:104CA000C3689B6A98478442B8BF04460DB9204642
:104CB00038BD00252846FCF7E7FA03210028EFD18C
:104CC000F1E700BF012801DD0020704710B5FCF7B7
:104CD000DBFA28B1C36804219B6ABDE8104018477D
:104CE000002010BD094B1B68587C012801DD002005
:104CF000704710B5FCF7C8FA28B1C36801219B6A58
:104D0000BDE810401847002010BD00BFBC000020C7
:104D1000014B1868704700BF30660320012801DD91
:104D20000020704710B5FCF7AFFA28B1C368012125
:104D30009B6ABDE810401847002010BD38B501251A
:104D400000242846FCF7A0FA012178B1C3689B6AC9
:104D500098478442B8BF04460DB9204638BD0025A7
:104D60002846FCF791FA01210028EFD1F1E700BFB6
:104D7000094B1B68587C012801DD0020704710B5E5
:104D8000FCF782FA28B1C36802219B6ABDE8104093
:104D90001847002010BD00BFBC000020014B586820
:104DA000704700BF30660320012801DD00207047F6
:104DB00010B5FCF769FA28B1C36802219B6ABDE807
:104DC00010401847002010BD38B5012500242846A2
:104DD000FCF75AFA022178B1C3689B6A984784426B
:104DE000B8BF04460DB9204638BD00252846FCF75B
:104DF0004BFA02210028EFD1F1E700BF2DE9F8437B
:104E000060B3856865B3DFF86480D8F8006006B3E6
:104E10000768B7F5807F1FDC124B81461B689F42F5
:104E2000A8BF1F46002F0DDD043D002401E0D8F887
:104E3000006055F8040FFFF715FC46F82400013414
:104E4000BC42F4D1084B1B680BB148469847D8F8D0
:104E500000603046BDE8F8830026FAE70646F8E72A
:104E60002E46F6E718010020B466032034680320BC
:104E7000044A054B1268527C53F822301B695B6868
:104E8000184700BFBC0000200868032030B409495F
:104E9000C0F3C42300F01F05074CC0F34512CB5CE0
:104EA000485DA25C03EB004000EB022030BC40F008
:104EB0007F407047B08D2100708D2100A0F17803F4
:104EC0000F2B10B42DD96B2827D81E491E4BA1FBE0
:104ED0000042A3FB00439208DB08A1FB024102EB66
:104EE000420403EB43038908A0EB44005DF8044B44
:104EF00001EB410100EB4000A2EB410200EB00108E
:104F000002EB420203EB031302EB021203EB00403D
:104F100000EB022040F07F40704793280ED92838DC
:104F2000D3E700EB0012094B5DF8044B00EB0210D5
:104F300000EB0030034443F07F40704700205DF8F1
:104F4000044B7047ABAAAAAA398EE338080000F8D0
:104F50000304C0F3074200F47F4003F47F031343CC
:104F600043F07F4318437047C343C0F30741020433
:104F700000F47F4003F07F4302F47F020B431343AE
:104F8000184370470A49C0F3C422C0F3451300F028
:104F90001F008A5C085C120410B4064CE35C5DF8E8
:104FA000044B02EB0323184440F07F40704700BFDE
:104FB000B08D2100708D210040F07F40704700BF10
:104FC000704700BF38B50B4D2C680CB1002038BDC0
:104FD000094B18688000FBF72DFD286038B1074B9E
:104FE000074840F8043FFFF789FA204638BD012002
:104FF00038BD00BF34680320180100204DCE2000CA
:10500000B46603202DE9F84FFFF7E8FDB0F1000981
:105010002FDD0025184FDFF868B02846FCF734F97B
:1050200020B33B68284693F811805D74FFF770FD4C
:10503000082818DC5BF82530104A1B69934212D00F
:105040002846FFF7BBFD061E0DDD00245FFA84FA3B
:1050500001345046FFF70CFF51460246284600F047
:10506000B5F9A642F2D13B6883F811800135A94514
:10507000D3D1BDE8F88F00BFBC000020D8B221001A
:10508000086803202DE9F04F85B017469A468146FF
:105090000F9C0E46E2680E9C536AD2F814807BB1D6
:1050A00001210FA89847054650B10F983B4601943F
:1050B0003246CDF800A04946A84705B0BDE8F08FBC
:1050C000774B1B68587CFCF7BFFA082830DC0123BB
:1050D0005645F2DC022B0AD0042B1BD0012B2CD01E
:1050E0000136B245F6DAE8E701365645E5DCB94562
:1050F000FADC4D462946013532460F98C047AF428B
:1051000024F8020BF6DA0136B245F0DAD5E70136BB
:10511000B245D2DBB94500F3BA804D462946013588
:1051200032460F98C047AF4244F8040BF6DAEEE778
:105130001128B4BF02230423CAE7431E0025CDF87B
:1051400008A00393039B072B00F29B80DFE803F08A
:10515000446D181804040404B94538DC4346CB46B2
:10516000A8461D4659460BF1010B32460F98A84739
:105170005F4504F8010BF5DA2B464546984626E0D4
:10518000B94524DC0E94CA4644464FF00F0BDDF8B7
:105190003880514632460F980AF1010AA04798F824
:1051A0000010AB005745C3F104020BFA03F300FAF9
:1051B00002F003EA010343EA000388F80030A84440
:1051C00085F00105E5DACDF83880A0460E9C013661
:1051D000029BB342B6DA70E7A3464446DDF8088086
:1051E000B94559DCCA46514632460F980AF1010AC0
:1051F000A0474FF67F729BF800E0C5F1070342FA23
:1052000005F16A1C984057450EEA010122F0070596
:1052100040EA010042FA05F58BF800000BEBE20BC7
:10522000E1DA0136B045DBDA47E70E944FF63F7B13
:105230004446DDF83880B945C5DCCA465146324699
:105240000F980AF1010AA0476A1C6D0098F8001037
:105250005745C5F106034BFA05F500FA03F005EAD8
:10526000010522F0030340EA050042FA03F588F83D
:10527000000008EBA208E1DA0136029BB342DADA59
:105280001BE70136029B9E427FF75CAF15E70136B4
:1052900056457FF73FAF10E7A0465C4697E700BF53
:1052A000BC00002010B50E4C0E4B2268517C53F808
:1052B000210038B1C36813B11B68042B0BD0006800
:1052C0000028F7D1002102F1080311665361BDE8FF
:1052D000104000F035B8FBF79BFF2268F2E700BFF3
:1052E000BC00002008680320014B1B685B6818475E
:1052F000E0000020044B1B681A7C52074CBFDB6B9C
:105300009B6B1860704700BFBC00002030B50A4C92
:1053100005460A4B83B022686946527C53F8220046
:10532000C3681B6B984720686A4629460830FEF719
:10533000C9FF03B030BD00BFBC00002008680320D7
:10534000044A054B11684A7C083153F82200C368AF
:105350001B6B1847BC00002008680320014B1B682A
:105360001B681847E0000020044B1B681A7C52079A
:105370004CBF9B6BDB6B1860704700BFBC0000200C
:1053800030B583B00C461546FBF77EFF019068B13F
:10539000C368162101A85B6A9847034630B101989B
:1053A0002A4621469847002003B030BD012003B0B3
:1053B00030BD00BF014B83E8030070473066032017
:1053C000014B1B689B681847E000002030B583B094
:1053D0000C461546FBF758FF019068B1C3681021D1
:1053E00001A85B6A9847034630B101982A462146D6
:1053F0009847002003B030BD012003B030BD00BF8E
:1054000030B583B00C461546FBF73EFF019068B1FE
:10541000C3680B2101A85B6A9847034630B1019825
:105420002A4621469847002003B030BD012003B032
:1054300030BD00BF10B582B00C46FBF725FF0190D0
:1054400060B1C368092101A85B6A9847034628B187
:10545000019821469847002002B010BD012002B0FB
:1054600010BD00BF30B583B00C461546FBF70CFFEE
:10547000019068B1C3680A2101A85B6A9847034696
:1054800030B101982A4621469847002003B030BD2C
:10549000012003B030BD00BF10B5074C2368186B66
:1054A000FFF7E0F8FFF760FF2368586BFFF7DAF8C3
:1054B000BDE81040FFF71EBFBC0000202DE9F04FF3
:1054C00091B0824C1B9D24682E460E951D9D0F9019
:1054D0000C951E9D059206951F9D0D930895DDF870
:1054E00068A0DDF870E0209D2CB12468A44611B0BE
:1054F000BDE8F04F60474AEA06038946012B00F0F9
:105500009280CEF1080302930D9B002B40F388801C
:105510006F4BA046F1460A94186804910E9A0499BC
:1055200053181A460B93B0F90A30013A9342099284
:1055300069DCB0F90E308B4265DB059B002B62DD28
:1055400000260F9B069F03EB0A04354607974DE0A4
:10555000C9EB0606029B48FA03F208FA09F812F0B2
:10556000FF025FFA88F802D1037C9B0739D4D0F898
:105570003CC0DCF800300393089B0BB153F82220A9
:10558000B0F9083004F1FF3EB0F90CB09942CCF804
:105590000020B8BF1946DE457346A8BF5B468B4264
:1055A0001CDBB0F90A20049FB0F90EE0BA42B8BF84
:1055B0003A46099FBE45A8BFBE4672450EDC407CF8
:1055C000444F57F82000D0F80CC0CDF800E0DCF8CC
:1055D00010B0D8473E4B1868D0F83CC0039BCCF8BD
:1055E00000300135059B5444AB420CD0CAEB04019A
:1055F000002EADD1079A029E134692F80080013327
:1056000007933346A7E7069A0C990A9B0A4401338D
:1056100006920B9A0A9304920D9A9A427FF47EAFF7
:1056200011B0BDE8F08F2A4B1868B0F90A20531A60
:10563000002B46DD0D99CC1A002CF1DD069E0C994D
:1056400001FB036306930D9B4B44B0F90E10013B25
:105650005B1A002B02DDE41A002CE1DD0F99059E98
:105660008B19B0F90C10013B5B1A002B01DDF31A0A
:1056700005930F9B591BB0F9083099420DDA5B1A5C
:10568000059F1D4423F00706FB1A31440593069B32
:1056900003EBE50305F007050693059B002BBFDD33
:1056A000467C0C48089F50F82600C6681E95069D4B
:1056B0001F971D950C9DCDF86CE01C951A9474688D
:1056C00014E70D9C0A462346BEE700BF1868032076
:1056D000BC00002008680320B8B130F0010315D0E9
:1056E00030F0030301D10820704730F00703FAD0EF
:1056F00030F00F03F7D030F01F03F4D030F0FF0389
:10570000F1D00B4B03401BB91020704701207047AC
:10571000084B0340002BF7D0074B0340002BF3D07E
:10572000064B0340002B0CBF10202020704700BF09
:1057300000FEFFFF00F0FFFF0080FFFF0000FFFF03
:10574000024B01221B6883F854207047BC000020E4
:105750002DE9F043044687B0FCF718F924B9FEF7A9
:1057600009F807B0BDE8F083204604ADFBF786FAE0
:105770000190076AD0F8288003C885E8030001A8D3
:10578000FBF750FB204601F08BFA06460028E6D0D6
:10579000FCF7FCF82046FBF75FFBD0F81890FDF70C
:1057A000E9FF18F0020F20D12046FBF767FA0190BD
:1057B0004846FBF763FA03903046FBF75FFA039A1B
:1057C00003460199D56901A81F620D62D461029355
:1057D000FBF728FB03A8FBF725FB02A8FBF722FB3E
:1057E000FDF7C8FF07B0BDE8F08328463A464946B2
:1057F00001F0D8FDD8E700BF2DE9F04F87B01E4675
:1058000081468A461546DDF84080139CFCF7BEF8B9
:10581000684B1F68B8F1000F0FD1674B1B88002B36
:105820006CD104F12C00FBF791F8044630BBFDF776
:10583000A1FF204607B0BDE8F08FB8F1FF3F68D068
:105840004046FBF71BFAB0F90020B0F90230914452
:1058500001909A441DB9B0F90450AD1A01351EB932
:10586000B0F90660F61A013601A8FBF7DBFA04F17D
:105870002C00FBF76BF804460028D8D04E4A4D4464
:10588000119B56440DF1180B013D1F431388013E37
:1058900001331380FBF7F2F9484A0346816A3A4024
:1058A00012984BF8183D0A4318619D805846DE80D7
:1058B000A3F80090A3F802A09A62FBF7B3FA404B5A
:1058C0001868002857D11C604146204601F0CEFAE6
:1058D000BA062CD4F8071FD4790624D4BB0758D4B1
:1058E000012306A92046039441F8103D01F068FE0B
:1058F000FDF740FF204607B0BDE8F08F314A324B3C
:105900001268527C53F822305A1C012A89D99846D1
:1059100096E74FF0000884E72C4A7906136803F1F4
:1059200001031360DAD52046FFF712FFD6E7254EB4
:10593000FCF72CF8254633689C6400E005462846B1
:10594000FBF78AFA80690028F8D11F4B1A68954244
:105950001CD05B689D4218D0FFF7F2FC2046FBF795
:105960007BFA3368B0F90010B0F90220D9641A65E7
:10597000FDF700FFAEE7FBF76FFA05462046FBF7A1
:105980006BFA6B6943616C619EE70120FDF7B2FB26
:10599000E2E72046FBF772F9034658469A6A0093FD
:1059A00042F002029A62FBF73DFA0021204600F025
:1059B000A1FB95E73C6C03204A6C03209F3F3F000E
:1059C000406C0320BC000020986C0320546C032022
:1059D00008B5064B00221B6883F85420FBF7D6FF5E
:1059E000FFF7AEFCBDE80840FDF7C4BEBC000020D8
:1059F00003680E3B10B5044640681A2B12D8DFE846
:105A000003F01B11111111110E111120111111119F
:105A10001111111111112211111111111400E1684C
:105A200000F0F2FF0023E36010BD0028FCD000214D
:105A3000BDE8104000F05EBB2146BDE8104000F01C
:105A4000B5BEE06010BD6FF07043E36010BD00BFF5
:105A50002DE9F047844E86B00446FBF797FF306887
:105A600048B1A04202D10BE0844209D0FBF7F4F91F
:105A700040690028F8D1FDF77DFE06B0BDE8F0874B
:105A8000254600E01D462846FBF7E6F98369002B12
:105A9000F8D1764F3A68954200F0DE807B689D42EF
:105AA00014BF4FF0FF3501250B230DF118082046D8
:105AB000039448F8103D414601F082FD204600F075
:105AC00063FF2046FBF7DAF8436A0190002B40F0B1
:105AD000A280674B0021674A1B686748816052F8C3
